{
	"contracts/DegenToken.sol": {
		"DegenToken": {
			"abi": [
				{
					"inputs": [],
					"stateMutability": "nonpayable",
					"type": "constructor"
				},
				{
					"anonymous": false,
					"inputs": [
						{
							"indexed": true,
							"internalType": "address",
							"name": "owner",
							"type": "address"
						},
						{
							"indexed": true,
							"internalType": "address",
							"name": "spender",
							"type": "address"
						},
						{
							"indexed": false,
							"internalType": "uint256",
							"name": "value",
							"type": "uint256"
						}
					],
					"name": "Approval",
					"type": "event"
				},
				{
					"anonymous": false,
					"inputs": [
						{
							"indexed": true,
							"internalType": "address",
							"name": "previousOwner",
							"type": "address"
						},
						{
							"indexed": true,
							"internalType": "address",
							"name": "newOwner",
							"type": "address"
						}
					],
					"name": "OwnershipTransferred",
					"type": "event"
				},
				{
					"anonymous": false,
					"inputs": [
						{
							"indexed": true,
							"internalType": "address",
							"name": "from",
							"type": "address"
						},
						{
							"indexed": true,
							"internalType": "address",
							"name": "to",
							"type": "address"
						},
						{
							"indexed": false,
							"internalType": "uint256",
							"name": "value",
							"type": "uint256"
						}
					],
					"name": "Transfer",
					"type": "event"
				},
				{
					"inputs": [
						{
							"internalType": "address",
							"name": "owner",
							"type": "address"
						},
						{
							"internalType": "address",
							"name": "spender",
							"type": "address"
						}
					],
					"name": "allowance",
					"outputs": [
						{
							"internalType": "uint256",
							"name": "",
							"type": "uint256"
						}
					],
					"stateMutability": "view",
					"type": "function"
				},
				{
					"inputs": [
						{
							"internalType": "address",
							"name": "spender",
							"type": "address"
						},
						{
							"internalType": "uint256",
							"name": "amount",
							"type": "uint256"
						}
					],
					"name": "approve",
					"outputs": [
						{
							"internalType": "bool",
							"name": "",
							"type": "bool"
						}
					],
					"stateMutability": "nonpayable",
					"type": "function"
				},
				{
					"inputs": [
						{
							"internalType": "address",
							"name": "account",
							"type": "address"
						}
					],
					"name": "balanceOf",
					"outputs": [
						{
							"internalType": "uint256",
							"name": "",
							"type": "uint256"
						}
					],
					"stateMutability": "view",
					"type": "function"
				},
				{
					"inputs": [
						{
							"internalType": "uint256",
							"name": "amount",
							"type": "uint256"
						}
					],
					"name": "burn",
					"outputs": [],
					"stateMutability": "nonpayable",
					"type": "function"
				},
				{
					"inputs": [
						{
							"internalType": "address",
							"name": "account",
							"type": "address"
						}
					],
					"name": "checkBalance",
					"outputs": [
						{
							"internalType": "uint256",
							"name": "",
							"type": "uint256"
						}
					],
					"stateMutability": "view",
					"type": "function"
				},
				{
					"inputs": [
						{
							"internalType": "address",
							"name": "account",
							"type": "address"
						}
					],
					"name": "checkInventory",
					"outputs": [
						{
							"internalType": "uint256[]",
							"name": "",
							"type": "uint256[]"
						}
					],
					"stateMutability": "view",
					"type": "function"
				},
				{
					"inputs": [],
					"name": "decimals",
					"outputs": [
						{
							"internalType": "uint8",
							"name": "",
							"type": "uint8"
						}
					],
					"stateMutability": "view",
					"type": "function"
				},
				{
					"inputs": [
						{
							"internalType": "address",
							"name": "spender",
							"type": "address"
						},
						{
							"internalType": "uint256",
							"name": "subtractedValue",
							"type": "uint256"
						}
					],
					"name": "decreaseAllowance",
					"outputs": [
						{
							"internalType": "bool",
							"name": "",
							"type": "bool"
						}
					],
					"stateMutability": "nonpayable",
					"type": "function"
				},
				{
					"inputs": [
						{
							"internalType": "uint256",
							"name": "",
							"type": "uint256"
						}
					],
					"name": "inGameItems",
					"outputs": [
						{
							"internalType": "uint256",
							"name": "id",
							"type": "uint256"
						},
						{
							"internalType": "string",
							"name": "name",
							"type": "string"
						},
						{
							"internalType": "uint256",
							"name": "price",
							"type": "uint256"
						}
					],
					"stateMutability": "view",
					"type": "function"
				},
				{
					"inputs": [
						{
							"internalType": "address",
							"name": "spender",
							"type": "address"
						},
						{
							"internalType": "uint256",
							"name": "addedValue",
							"type": "uint256"
						}
					],
					"name": "increaseAllowance",
					"outputs": [
						{
							"internalType": "bool",
							"name": "",
							"type": "bool"
						}
					],
					"stateMutability": "nonpayable",
					"type": "function"
				},
				{
					"inputs": [
						{
							"internalType": "address",
							"name": "",
							"type": "address"
						},
						{
							"internalType": "uint256",
							"name": "",
							"type": "uint256"
						}
					],
					"name": "inventory",
					"outputs": [
						{
							"internalType": "uint256",
							"name": "",
							"type": "uint256"
						}
					],
					"stateMutability": "view",
					"type": "function"
				},
				{
					"inputs": [
						{
							"internalType": "address",
							"name": "to",
							"type": "address"
						},
						{
							"internalType": "uint256",
							"name": "amount",
							"type": "uint256"
						}
					],
					"name": "mint",
					"outputs": [],
					"stateMutability": "nonpayable",
					"type": "function"
				},
				{
					"inputs": [],
					"name": "name",
					"outputs": [
						{
							"internalType": "string",
							"name": "",
							"type": "string"
						}
					],
					"stateMutability": "view",
					"type": "function"
				},
				{
					"inputs": [],
					"name": "owner",
					"outputs": [
						{
							"internalType": "address",
							"name": "",
							"type": "address"
						}
					],
					"stateMutability": "view",
					"type": "function"
				},
				{
					"inputs": [
						{
							"internalType": "uint256",
							"name": "itemId",
							"type": "uint256"
						}
					],
					"name": "redeemForItem",
					"outputs": [],
					"stateMutability": "nonpayable",
					"type": "function"
				},
				{
					"inputs": [],
					"name": "renounceOwnership",
					"outputs": [],
					"stateMutability": "nonpayable",
					"type": "function"
				},
				{
					"inputs": [],
					"name": "symbol",
					"outputs": [
						{
							"internalType": "string",
							"name": "",
							"type": "string"
						}
					],
					"stateMutability": "view",
					"type": "function"
				},
				{
					"inputs": [],
					"name": "totalSupply",
					"outputs": [
						{
							"internalType": "uint256",
							"name": "",
							"type": "uint256"
						}
					],
					"stateMutability": "view",
					"type": "function"
				},
				{
					"inputs": [
						{
							"internalType": "address",
							"name": "to",
							"type": "address"
						},
						{
							"internalType": "uint256",
							"name": "amount",
							"type": "uint256"
						}
					],
					"name": "transfer",
					"outputs": [
						{
							"internalType": "bool",
							"name": "",
							"type": "bool"
						}
					],
					"stateMutability": "nonpayable",
					"type": "function"
				},
				{
					"inputs": [
						{
							"internalType": "address",
							"name": "from",
							"type": "address"
						},
						{
							"internalType": "address",
							"name": "to",
							"type": "address"
						},
						{
							"internalType": "uint256",
							"name": "amount",
							"type": "uint256"
						}
					],
					"name": "transferFrom",
					"outputs": [
						{
							"internalType": "bool",
							"name": "",
							"type": "bool"
						}
					],
					"stateMutability": "nonpayable",
					"type": "function"
				},
				{
					"inputs": [
						{
							"internalType": "address",
							"name": "newOwner",
							"type": "address"
						}
					],
					"name": "transferOwnership",
					"outputs": [],
					"stateMutability": "nonpayable",
					"type": "function"
				}
			],
			"devdoc": {
				"events": {
					"Approval(address,address,uint256)": {
						"details": "Emitted when the allowance of a `spender` for an `owner` is set by a call to {approve}. `value` is the new allowance."
					},
					"Transfer(address,address,uint256)": {
						"details": "Emitted when `value` tokens are moved from one account (`from`) to another (`to`). Note that `value` may be zero."
					}
				},
				"kind": "dev",
				"methods": {
					"allowance(address,address)": {
						"details": "See {IERC20-allowance}."
					},
					"approve(address,uint256)": {
						"details": "See {IERC20-approve}. NOTE: If `amount` is the maximum `uint256`, the allowance is not updated on `transferFrom`. This is semantically equivalent to an infinite approval. Requirements: - `spender` cannot be the zero address."
					},
					"balanceOf(address)": {
						"details": "See {IERC20-balanceOf}."
					},
					"decimals()": {
						"details": "Returns the number of decimals used to get its user representation. For example, if `decimals` equals `2`, a balance of `505` tokens should be displayed to a user as `5.05` (`505 / 10 ** 2`). Tokens usually opt for a value of 18, imitating the relationship between Ether and Wei. This is the value {ERC20} uses, unless this function is overridden; NOTE: This information is only used for _display_ purposes: it in no way affects any of the arithmetic of the contract, including {IERC20-balanceOf} and {IERC20-transfer}."
					},
					"decreaseAllowance(address,uint256)": {
						"details": "Atomically decreases the allowance granted to `spender` by the caller. This is an alternative to {approve} that can be used as a mitigation for problems described in {IERC20-approve}. Emits an {Approval} event indicating the updated allowance. Requirements: - `spender` cannot be the zero address. - `spender` must have allowance for the caller of at least `subtractedValue`."
					},
					"increaseAllowance(address,uint256)": {
						"details": "Atomically increases the allowance granted to `spender` by the caller. This is an alternative to {approve} that can be used as a mitigation for problems described in {IERC20-approve}. Emits an {Approval} event indicating the updated allowance. Requirements: - `spender` cannot be the zero address."
					},
					"name()": {
						"details": "Returns the name of the token."
					},
					"owner()": {
						"details": "Returns the address of the current owner."
					},
					"renounceOwnership()": {
						"details": "Leaves the contract without owner. It will not be possible to call `onlyOwner` functions anymore. Can only be called by the current owner. NOTE: Renouncing ownership will leave the contract without an owner, thereby removing any functionality that is only available to the owner."
					},
					"symbol()": {
						"details": "Returns the symbol of the token, usually a shorter version of the name."
					},
					"totalSupply()": {
						"details": "See {IERC20-totalSupply}."
					},
					"transfer(address,uint256)": {
						"details": "See {IERC20-transfer}. Requirements: - `to` cannot be the zero address. - the caller must have a balance of at least `amount`."
					},
					"transferFrom(address,address,uint256)": {
						"details": "See {IERC20-transferFrom}. Emits an {Approval} event indicating the updated allowance. This is not required by the EIP. See the note at the beginning of {ERC20}. NOTE: Does not update the allowance if the current allowance is the maximum `uint256`. Requirements: - `from` and `to` cannot be the zero address. - `from` must have a balance of at least `amount`. - the caller must have allowance for ``from``'s tokens of at least `amount`."
					},
					"transferOwnership(address)": {
						"details": "Transfers ownership of the contract to a new account (`newOwner`). Can only be called by the current owner."
					}
				},
				"version": 1
			},
			"evm": {
				"assembly": "    /* \"contracts/DegenToken.sol\":168:2885  contract DegenToken is ERC20, Ownable {... */\n  mstore(0x40, 0x80)\n    /* \"contracts/DegenToken.sol\":422:759  constructor() ERC20(\"Degen\", \"DGN\") {... */\n  callvalue\n  dup1\n  iszero\n  tag_1\n  jumpi\n  0x00\n  dup1\n  revert\ntag_1:\n  pop\n    /* \"@openzeppelin/contracts/token/ERC20/ERC20.sol\":1976:2089  constructor(string memory name_, string memory symbol_) {... */\n  mload(0x40)\n  dup1\n  0x40\n  add\n  0x40\n  mstore\n  dup1\n  0x05\n  dup2\n  mstore\n  0x20\n  add\n  0x446567656e000000000000000000000000000000000000000000000000000000\n  dup2\n  mstore\n  pop\n  mload(0x40)\n  dup1\n  0x40\n  add\n  0x40\n  mstore\n  dup1\n  0x03\n  dup2\n  mstore\n  0x20\n  add\n  0x44474e0000000000000000000000000000000000000000000000000000000000\n  dup2\n  mstore\n  pop\n    /* \"@openzeppelin/contracts/token/ERC20/ERC20.sol\":2050:2055  name_ */\n  dup2\n    /* \"@openzeppelin/contracts/token/ERC20/ERC20.sol\":2042:2047  _name */\n  0x03\n    /* \"@openzeppelin/contracts/token/ERC20/ERC20.sol\":2042:2055  _name = name_ */\n  swap1\n  dup2\n  tag_6\n  swap2\n  swap1\n  tag_7\n  jump\t// in\ntag_6:\n  pop\n    /* \"@openzeppelin/contracts/token/ERC20/ERC20.sol\":2075:2082  symbol_ */\n  dup1\n    /* \"@openzeppelin/contracts/token/ERC20/ERC20.sol\":2065:2072  _symbol */\n  0x04\n    /* \"@openzeppelin/contracts/token/ERC20/ERC20.sol\":2065:2082  _symbol = symbol_ */\n  swap1\n  dup2\n  tag_8\n  swap2\n  swap1\n  tag_7\n  jump\t// in\ntag_8:\n  pop\n    /* \"@openzeppelin/contracts/token/ERC20/ERC20.sol\":1976:2089  constructor(string memory name_, string memory symbol_) {... */\n  pop\n  pop\n    /* \"@openzeppelin/contracts/access/Ownable.sol\":936:968  _transferOwnership(_msgSender()) */\n  tag_10\n    /* \"@openzeppelin/contracts/access/Ownable.sol\":955:967  _msgSender() */\n  tag_11\n    /* \"@openzeppelin/contracts/access/Ownable.sol\":955:965  _msgSender */\n  shl(0x20, tag_12)\n    /* \"@openzeppelin/contracts/access/Ownable.sol\":955:967  _msgSender() */\n  0x20\n  shr\n  jump\t// in\ntag_11:\n    /* \"@openzeppelin/contracts/access/Ownable.sol\":936:954  _transferOwnership */\n  shl(0x20, tag_13)\n    /* \"@openzeppelin/contracts/access/Ownable.sol\":936:968  _transferOwnership(_msgSender()) */\n  0x20\n  shr\n  jump\t// in\ntag_10:\n    /* \"contracts/DegenToken.sol\":468:495  _mint(msg.sender, 50000000) */\n  tag_15\n    /* \"contracts/DegenToken.sol\":474:484  msg.sender */\n  caller\n    /* \"contracts/DegenToken.sol\":486:494  50000000 */\n  0x02faf080\n    /* \"contracts/DegenToken.sol\":468:473  _mint */\n  shl(0x20, tag_16)\n    /* \"contracts/DegenToken.sol\":468:495  _mint(msg.sender, 50000000) */\n  0x20\n  shr\n  jump\t// in\ntag_15:\n    /* \"contracts/DegenToken.sol\":506:517  inGameItems */\n  0x06\n    /* \"contracts/DegenToken.sol\":523:557  InGameItem(0, \"Health Potion\", 50) */\n  mload(0x40)\n  dup1\n  0x60\n  add\n  0x40\n  mstore\n  dup1\n    /* \"contracts/DegenToken.sol\":534:535  0 */\n  0x00\n    /* \"contracts/DegenToken.sol\":523:557  InGameItem(0, \"Health Potion\", 50) */\n  dup2\n  mstore\n  0x20\n  add\n  mload(0x40)\n  dup1\n  0x40\n  add\n  0x40\n  mstore\n  dup1\n  0x0d\n  dup2\n  mstore\n  0x20\n  add\n  0x4865616c746820506f74696f6e00000000000000000000000000000000000000\n  dup2\n  mstore\n  pop\n  dup2\n  mstore\n  0x20\n  add\n    /* \"contracts/DegenToken.sol\":554:556  50 */\n  0x32\n    /* \"contracts/DegenToken.sol\":523:557  InGameItem(0, \"Health Potion\", 50) */\n  dup2\n  mstore\n  pop\n    /* \"contracts/DegenToken.sol\":506:558  inGameItems.push(InGameItem(0, \"Health Potion\", 50)) */\n  swap1\n  dup1\n  0x01\n  dup2\n  sload\n  add\n  dup1\n  dup3\n  sstore\n  dup1\n  swap2\n  pop\n  pop\n  0x01\n  swap1\n  sub\n  swap1\n  0x00\n  mstore\n  keccak256(0x00, 0x20)\n  swap1\n  0x03\n  mul\n  add\n  0x00\n  swap1\n  swap2\n  swap1\n  swap2\n  swap1\n  swap2\n  pop\n  0x00\n  dup3\n  add\n  mload\n  dup2\n  0x00\n  add\n  sstore\n  0x20\n  dup3\n  add\n  mload\n  dup2\n  0x01\n  add\n  swap1\n  dup2\n  tag_18\n  swap2\n  swap1\n  tag_7\n  jump\t// in\ntag_18:\n  pop\n  0x40\n  dup3\n  add\n  mload\n  dup2\n  0x02\n  add\n  sstore\n  pop\n  pop\n    /* \"contracts/DegenToken.sol\":568:579  inGameItems */\n  0x06\n    /* \"contracts/DegenToken.sol\":585:620  InGameItem(1, \"Doran's Blade\", 450) */\n  mload(0x40)\n  dup1\n  0x60\n  add\n  0x40\n  mstore\n  dup1\n    /* \"contracts/DegenToken.sol\":596:597  1 */\n  0x01\n    /* \"contracts/DegenToken.sol\":585:620  InGameItem(1, \"Doran's Blade\", 450) */\n  dup2\n  mstore\n  0x20\n  add\n  mload(0x40)\n  dup1\n  0x40\n  add\n  0x40\n  mstore\n  dup1\n  0x0d\n  dup2\n  mstore\n  0x20\n  add\n  0x446f72616e277320426c61646500000000000000000000000000000000000000\n  dup2\n  mstore\n  pop\n  dup2\n  mstore\n  0x20\n  add\n    /* \"contracts/DegenToken.sol\":616:619  450 */\n  0x01c2\n    /* \"contracts/DegenToken.sol\":585:620  InGameItem(1, \"Doran's Blade\", 450) */\n  dup2\n  mstore\n  pop\n    /* \"contracts/DegenToken.sol\":568:621  inGameItems.push(InGameItem(1, \"Doran's Blade\", 450)) */\n  swap1\n  dup1\n  0x01\n  dup2\n  sload\n  add\n  dup1\n  dup3\n  sstore\n  dup1\n  swap2\n  pop\n  pop\n  0x01\n  swap1\n  sub\n  swap1\n  0x00\n  mstore\n  keccak256(0x00, 0x20)\n  swap1\n  0x03\n  mul\n  add\n  0x00\n  swap1\n  swap2\n  swap1\n  swap2\n  swap1\n  swap2\n  pop\n  0x00\n  dup3\n  add\n  mload\n  dup2\n  0x00\n  add\n  sstore\n  0x20\n  dup3\n  add\n  mload\n  dup2\n  0x01\n  add\n  swap1\n  dup2\n  tag_20\n  swap2\n  swap1\n  tag_7\n  jump\t// in\ntag_20:\n  pop\n  0x40\n  dup3\n  add\n  mload\n  dup2\n  0x02\n  add\n  sstore\n  pop\n  pop\n    /* \"contracts/DegenToken.sol\":631:642  inGameItems */\n  0x06\n    /* \"contracts/DegenToken.sol\":648:684  InGameItem(2, \"Doran's Shield\", 450) */\n  mload(0x40)\n  dup1\n  0x60\n  add\n  0x40\n  mstore\n  dup1\n    /* \"contracts/DegenToken.sol\":659:660  2 */\n  0x02\n    /* \"contracts/DegenToken.sol\":648:684  InGameItem(2, \"Doran's Shield\", 450) */\n  dup2\n  mstore\n  0x20\n  add\n  mload(0x40)\n  dup1\n  0x40\n  add\n  0x40\n  mstore\n  dup1\n  0x0e\n  dup2\n  mstore\n  0x20\n  add\n  0x446f72616e277320536869656c64000000000000000000000000000000000000\n  dup2\n  mstore\n  pop\n  dup2\n  mstore\n  0x20\n  add\n    /* \"contracts/DegenToken.sol\":680:683  450 */\n  0x01c2\n    /* \"contracts/DegenToken.sol\":648:684  InGameItem(2, \"Doran's Shield\", 450) */\n  dup2\n  mstore\n  pop\n    /* \"contracts/DegenToken.sol\":631:685  inGameItems.push(InGameItem(2, \"Doran's Shield\", 450)) */\n  swap1\n  dup1\n  0x01\n  dup2\n  sload\n  add\n  dup1\n  dup3\n  sstore\n  dup1\n  swap2\n  pop\n  pop\n  0x01\n  swap1\n  sub\n  swap1\n  0x00\n  mstore\n  keccak256(0x00, 0x20)\n  swap1\n  0x03\n  mul\n  add\n  0x00\n  swap1\n  swap2\n  swap1\n  swap2\n  swap1\n  swap2\n  pop\n  0x00\n  dup3\n  add\n  mload\n  dup2\n  0x00\n  add\n  sstore\n  0x20\n  dup3\n  add\n  mload\n  dup2\n  0x01\n  add\n  swap1\n  dup2\n  tag_22\n  swap2\n  swap1\n  tag_7\n  jump\t// in\ntag_22:\n  pop\n  0x40\n  dup3\n  add\n  mload\n  dup2\n  0x02\n  add\n  sstore\n  pop\n  pop\n    /* \"contracts/DegenToken.sol\":695:706  inGameItems */\n  0x06\n    /* \"contracts/DegenToken.sol\":712:751  InGameItem(3, \"Corrupting Potion\", 500) */\n  mload(0x40)\n  dup1\n  0x60\n  add\n  0x40\n  mstore\n  dup1\n    /* \"contracts/DegenToken.sol\":723:724  3 */\n  0x03\n    /* \"contracts/DegenToken.sol\":712:751  InGameItem(3, \"Corrupting Potion\", 500) */\n  dup2\n  mstore\n  0x20\n  add\n  mload(0x40)\n  dup1\n  0x40\n  add\n  0x40\n  mstore\n  dup1\n  0x11\n  dup2\n  mstore\n  0x20\n  add\n  0x436f7272757074696e6720506f74696f6e000000000000000000000000000000\n  dup2\n  mstore\n  pop\n  dup2\n  mstore\n  0x20\n  add\n    /* \"contracts/DegenToken.sol\":747:750  500 */\n  0x01f4\n    /* \"contracts/DegenToken.sol\":712:751  InGameItem(3, \"Corrupting Potion\", 500) */\n  dup2\n  mstore\n  pop\n    /* \"contracts/DegenToken.sol\":695:752  inGameItems.push(InGameItem(3, \"Corrupting Potion\", 500)) */\n  swap1\n  dup1\n  0x01\n  dup2\n  sload\n  add\n  dup1\n  dup3\n  sstore\n  dup1\n  swap2\n  pop\n  pop\n  0x01\n  swap1\n  sub\n  swap1\n  0x00\n  mstore\n  keccak256(0x00, 0x20)\n  swap1\n  0x03\n  mul\n  add\n  0x00\n  swap1\n  swap2\n  swap1\n  swap2\n  swap1\n  swap2\n  pop\n  0x00\n  dup3\n  add\n  mload\n  dup2\n  0x00\n  add\n  sstore\n  0x20\n  dup3\n  add\n  mload\n  dup2\n  0x01\n  add\n  swap1\n  dup2\n  tag_24\n  swap2\n  swap1\n  tag_7\n  jump\t// in\ntag_24:\n  pop\n  0x40\n  dup3\n  add\n  mload\n  dup2\n  0x02\n  add\n  sstore\n  pop\n  pop\n    /* \"contracts/DegenToken.sol\":168:2885  contract DegenToken is ERC20, Ownable {... */\n  jump(tag_25)\n    /* \"@openzeppelin/contracts/utils/Context.sol\":640:736  function _msgSender() internal view virtual returns (address) {... */\ntag_12:\n    /* \"@openzeppelin/contracts/utils/Context.sol\":693:700  address */\n  0x00\n    /* \"@openzeppelin/contracts/utils/Context.sol\":719:729  msg.sender */\n  caller\n    /* \"@openzeppelin/contracts/utils/Context.sol\":712:729  return msg.sender */\n  swap1\n  pop\n    /* \"@openzeppelin/contracts/utils/Context.sol\":640:736  function _msgSender() internal view virtual returns (address) {... */\n  swap1\n  jump\t// out\n    /* \"@openzeppelin/contracts/access/Ownable.sol\":2433:2620  function _transferOwnership(address newOwner) internal virtual {... */\ntag_13:\n    /* \"@openzeppelin/contracts/access/Ownable.sol\":2506:2522  address oldOwner */\n  0x00\n    /* \"@openzeppelin/contracts/access/Ownable.sol\":2525:2531  _owner */\n  0x05\n  0x00\n  swap1\n  sload\n  swap1\n  0x0100\n  exp\n  swap1\n  div\n  0xffffffffffffffffffffffffffffffffffffffff\n  and\n    /* \"@openzeppelin/contracts/access/Ownable.sol\":2506:2531  address oldOwner = _owner */\n  swap1\n  pop\n    /* \"@openzeppelin/contracts/access/Ownable.sol\":2550:2558  newOwner */\n  dup2\n    /* \"@openzeppelin/contracts/access/Ownable.sol\":2541:2547  _owner */\n  0x05\n  0x00\n    /* \"@openzeppelin/contracts/access/Ownable.sol\":2541:2558  _owner = newOwner */\n  0x0100\n  exp\n  dup2\n  sload\n  dup2\n  0xffffffffffffffffffffffffffffffffffffffff\n  mul\n  not\n  and\n  swap1\n  dup4\n  0xffffffffffffffffffffffffffffffffffffffff\n  and\n  mul\n  or\n  swap1\n  sstore\n  pop\n    /* \"@openzeppelin/contracts/access/Ownable.sol\":2604:2612  newOwner */\n  dup2\n    /* \"@openzeppelin/contracts/access/Ownable.sol\":2573:2613  OwnershipTransferred(oldOwner, newOwner) */\n  0xffffffffffffffffffffffffffffffffffffffff\n  and\n    /* \"@openzeppelin/contracts/access/Ownable.sol\":2594:2602  oldOwner */\n  dup2\n    /* \"@openzeppelin/contracts/access/Ownable.sol\":2573:2613  OwnershipTransferred(oldOwner, newOwner) */\n  0xffffffffffffffffffffffffffffffffffffffff\n  and\n  0x8be0079c531659141344cd1fd0a4f28419497f9722a3daafe3b4186f6b6457e0\n  mload(0x40)\n  mload(0x40)\n  dup1\n  swap2\n  sub\n  swap1\n  log3\n    /* \"@openzeppelin/contracts/access/Ownable.sol\":2496:2620  {... */\n  pop\n    /* \"@openzeppelin/contracts/access/Ownable.sol\":2433:2620  function _transferOwnership(address newOwner) internal virtual {... */\n  pop\n  jump\t// out\n    /* \"@openzeppelin/contracts/token/ERC20/ERC20.sol\":8567:9102  function _mint(address account, uint256 amount) internal virtual {... */\ntag_16:\n    /* \"@openzeppelin/contracts/token/ERC20/ERC20.sol\":8669:8670  0 */\n  0x00\n    /* \"@openzeppelin/contracts/token/ERC20/ERC20.sol\":8650:8671  account != address(0) */\n  0xffffffffffffffffffffffffffffffffffffffff\n  and\n    /* \"@openzeppelin/contracts/token/ERC20/ERC20.sol\":8650:8657  account */\n  dup3\n    /* \"@openzeppelin/contracts/token/ERC20/ERC20.sol\":8650:8671  account != address(0) */\n  0xffffffffffffffffffffffffffffffffffffffff\n  and\n  sub\n    /* \"@openzeppelin/contracts/token/ERC20/ERC20.sol\":8642:8707  require(account != address(0), \"ERC20: mint to the zero address\") */\n  tag_29\n  jumpi\n  mload(0x40)\n  0x08c379a000000000000000000000000000000000000000000000000000000000\n  dup2\n  mstore\n  0x04\n  add\n  tag_30\n  swap1\n  tag_31\n  jump\t// in\ntag_30:\n  mload(0x40)\n  dup1\n  swap2\n  sub\n  swap1\n  revert\ntag_29:\n    /* \"@openzeppelin/contracts/token/ERC20/ERC20.sol\":8718:8767  _beforeTokenTransfer(address(0), account, amount) */\n  tag_32\n    /* \"@openzeppelin/contracts/token/ERC20/ERC20.sol\":8747:8748  0 */\n  0x00\n    /* \"@openzeppelin/contracts/token/ERC20/ERC20.sol\":8751:8758  account */\n  dup4\n    /* \"@openzeppelin/contracts/token/ERC20/ERC20.sol\":8760:8766  amount */\n  dup4\n    /* \"@openzeppelin/contracts/token/ERC20/ERC20.sol\":8718:8738  _beforeTokenTransfer */\n  shl(0x20, tag_33)\n    /* \"@openzeppelin/contracts/token/ERC20/ERC20.sol\":8718:8767  _beforeTokenTransfer(address(0), account, amount) */\n  0x20\n  shr\n  jump\t// in\ntag_32:\n    /* \"@openzeppelin/contracts/token/ERC20/ERC20.sol\":8794:8800  amount */\n  dup1\n    /* \"@openzeppelin/contracts/token/ERC20/ERC20.sol\":8778:8790  _totalSupply */\n  0x02\n  0x00\n    /* \"@openzeppelin/contracts/token/ERC20/ERC20.sol\":8778:8800  _totalSupply += amount */\n  dup3\n  dup3\n  sload\n  tag_34\n  swap2\n  swap1\n  tag_35\n  jump\t// in\ntag_34:\n  swap3\n  pop\n  pop\n  dup2\n  swap1\n  sstore\n  pop\n    /* \"@openzeppelin/contracts/token/ERC20/ERC20.sol\":8968:8974  amount */\n  dup1\n    /* \"@openzeppelin/contracts/token/ERC20/ERC20.sol\":8946:8955  _balances */\n  0x00\n    /* \"@openzeppelin/contracts/token/ERC20/ERC20.sol\":8946:8964  _balances[account] */\n  dup1\n    /* \"@openzeppelin/contracts/token/ERC20/ERC20.sol\":8956:8963  account */\n  dup5\n    /* \"@openzeppelin/contracts/token/ERC20/ERC20.sol\":8946:8964  _balances[account] */\n  0xffffffffffffffffffffffffffffffffffffffff\n  and\n  0xffffffffffffffffffffffffffffffffffffffff\n  and\n  dup2\n  mstore\n  0x20\n  add\n  swap1\n  dup2\n  mstore\n  0x20\n  add\n  0x00\n  keccak256\n  0x00\n    /* \"@openzeppelin/contracts/token/ERC20/ERC20.sol\":8946:8974  _balances[account] += amount */\n  dup3\n  dup3\n  sload\n  add\n  swap3\n  pop\n  pop\n  dup2\n  swap1\n  sstore\n  pop\n    /* \"@openzeppelin/contracts/token/ERC20/ERC20.sol\":9020:9027  account */\n  dup2\n    /* \"@openzeppelin/contracts/token/ERC20/ERC20.sol\":8999:9036  Transfer(address(0), account, amount) */\n  0xffffffffffffffffffffffffffffffffffffffff\n  and\n    /* \"@openzeppelin/contracts/token/ERC20/ERC20.sol\":9016:9017  0 */\n  0x00\n    /* \"@openzeppelin/contracts/token/ERC20/ERC20.sol\":8999:9036  Transfer(address(0), account, amount) */\n  0xffffffffffffffffffffffffffffffffffffffff\n  and\n  0xddf252ad1be2c89b69c2b068fc378daa952ba7f163c4a11628f55a4df523b3ef\n    /* \"@openzeppelin/contracts/token/ERC20/ERC20.sol\":9029:9035  amount */\n  dup4\n    /* \"@openzeppelin/contracts/token/ERC20/ERC20.sol\":8999:9036  Transfer(address(0), account, amount) */\n  mload(0x40)\n  tag_36\n  swap2\n  swap1\n  tag_37\n  jump\t// in\ntag_36:\n  mload(0x40)\n  dup1\n  swap2\n  sub\n  swap1\n  log3\n    /* \"@openzeppelin/contracts/token/ERC20/ERC20.sol\":9047:9095  _afterTokenTransfer(address(0), account, amount) */\n  tag_38\n    /* \"@openzeppelin/contracts/token/ERC20/ERC20.sol\":9075:9076  0 */\n  0x00\n    /* \"@openzeppelin/contracts/token/ERC20/ERC20.sol\":9079:9086  account */\n  dup4\n    /* \"@openzeppelin/contracts/token/ERC20/ERC20.sol\":9088:9094  amount */\n  dup4\n    /* \"@openzeppelin/contracts/token/ERC20/ERC20.sol\":9047:9066  _afterTokenTransfer */\n  shl(0x20, tag_39)\n    /* \"@openzeppelin/contracts/token/ERC20/ERC20.sol\":9047:9095  _afterTokenTransfer(address(0), account, amount) */\n  0x20\n  shr\n  jump\t// in\ntag_38:\n    /* \"@openzeppelin/contracts/token/ERC20/ERC20.sol\":8567:9102  function _mint(address account, uint256 amount) internal virtual {... */\n  pop\n  pop\n  jump\t// out\n    /* \"@openzeppelin/contracts/token/ERC20/ERC20.sol\":12180:12301  function _beforeTokenTransfer(... */\ntag_33:\n  pop\n  pop\n  pop\n  jump\t// out\n    /* \"@openzeppelin/contracts/token/ERC20/ERC20.sol\":12889:13009  function _afterTokenTransfer(... */\ntag_39:\n  pop\n  pop\n  pop\n  jump\t// out\n    /* \"#utility.yul\":7:106   */\ntag_42:\n    /* \"#utility.yul\":59:65   */\n  0x00\n    /* \"#utility.yul\":93:98   */\n  dup2\n    /* \"#utility.yul\":87:99   */\n  mload\n    /* \"#utility.yul\":77:99   */\n  swap1\n  pop\n    /* \"#utility.yul\":7:106   */\n  swap2\n  swap1\n  pop\n  jump\t// out\n    /* \"#utility.yul\":112:292   */\ntag_43:\n    /* \"#utility.yul\":160:237   */\n  0x4e487b7100000000000000000000000000000000000000000000000000000000\n    /* \"#utility.yul\":157:158   */\n  0x00\n    /* \"#utility.yul\":150:238   */\n  mstore\n    /* \"#utility.yul\":257:261   */\n  0x41\n    /* \"#utility.yul\":254:255   */\n  0x04\n    /* \"#utility.yul\":247:262   */\n  mstore\n    /* \"#utility.yul\":281:285   */\n  0x24\n    /* \"#utility.yul\":278:279   */\n  0x00\n    /* \"#utility.yul\":271:286   */\n  revert\n    /* \"#utility.yul\":298:478   */\ntag_44:\n    /* \"#utility.yul\":346:423   */\n  0x4e487b7100000000000000000000000000000000000000000000000000000000\n    /* \"#utility.yul\":343:344   */\n  0x00\n    /* \"#utility.yul\":336:424   */\n  mstore\n    /* \"#utility.yul\":443:447   */\n  0x22\n    /* \"#utility.yul\":440:441   */\n  0x04\n    /* \"#utility.yul\":433:448   */\n  mstore\n    /* \"#utility.yul\":467:471   */\n  0x24\n    /* \"#utility.yul\":464:465   */\n  0x00\n    /* \"#utility.yul\":457:472   */\n  revert\n    /* \"#utility.yul\":484:804   */\ntag_45:\n    /* \"#utility.yul\":528:534   */\n  0x00\n    /* \"#utility.yul\":565:566   */\n  0x02\n    /* \"#utility.yul\":559:563   */\n  dup3\n    /* \"#utility.yul\":555:567   */\n  div\n    /* \"#utility.yul\":545:567   */\n  swap1\n  pop\n    /* \"#utility.yul\":612:613   */\n  0x01\n    /* \"#utility.yul\":606:610   */\n  dup3\n    /* \"#utility.yul\":602:614   */\n  and\n    /* \"#utility.yul\":633:651   */\n  dup1\n    /* \"#utility.yul\":623:704   */\n  tag_72\n  jumpi\n    /* \"#utility.yul\":689:693   */\n  0x7f\n    /* \"#utility.yul\":681:687   */\n  dup3\n    /* \"#utility.yul\":677:694   */\n  and\n    /* \"#utility.yul\":667:694   */\n  swap2\n  pop\n    /* \"#utility.yul\":623:704   */\ntag_72:\n    /* \"#utility.yul\":751:753   */\n  0x20\n    /* \"#utility.yul\":743:749   */\n  dup3\n    /* \"#utility.yul\":740:754   */\n  lt\n    /* \"#utility.yul\":720:738   */\n  dup2\n    /* \"#utility.yul\":717:755   */\n  sub\n    /* \"#utility.yul\":714:798   */\n  tag_73\n  jumpi\n    /* \"#utility.yul\":770:788   */\n  tag_74\n  tag_44\n  jump\t// in\ntag_74:\n    /* \"#utility.yul\":714:798   */\ntag_73:\n    /* \"#utility.yul\":535:804   */\n  pop\n    /* \"#utility.yul\":484:804   */\n  swap2\n  swap1\n  pop\n  jump\t// out\n    /* \"#utility.yul\":810:951   */\ntag_46:\n    /* \"#utility.yul\":859:863   */\n  0x00\n    /* \"#utility.yul\":882:885   */\n  dup2\n    /* \"#utility.yul\":874:885   */\n  swap1\n  pop\n    /* \"#utility.yul\":905:908   */\n  dup2\n    /* \"#utility.yul\":902:903   */\n  0x00\n    /* \"#utility.yul\":895:909   */\n  mstore\n    /* \"#utility.yul\":939:943   */\n  0x20\n    /* \"#utility.yul\":936:937   */\n  0x00\n    /* \"#utility.yul\":926:944   */\n  keccak256\n    /* \"#utility.yul\":918:944   */\n  swap1\n  pop\n    /* \"#utility.yul\":810:951   */\n  swap2\n  swap1\n  pop\n  jump\t// out\n    /* \"#utility.yul\":957:1050   */\ntag_47:\n    /* \"#utility.yul\":994:1000   */\n  0x00\n    /* \"#utility.yul\":1041:1043   */\n  0x20\n    /* \"#utility.yul\":1036:1038   */\n  0x1f\n    /* \"#utility.yul\":1029:1034   */\n  dup4\n    /* \"#utility.yul\":1025:1039   */\n  add\n    /* \"#utility.yul\":1021:1044   */\n  div\n    /* \"#utility.yul\":1011:1044   */\n  swap1\n  pop\n    /* \"#utility.yul\":957:1050   */\n  swap2\n  swap1\n  pop\n  jump\t// out\n    /* \"#utility.yul\":1056:1163   */\ntag_48:\n    /* \"#utility.yul\":1100:1108   */\n  0x00\n    /* \"#utility.yul\":1150:1155   */\n  dup3\n    /* \"#utility.yul\":1144:1148   */\n  dup3\n    /* \"#utility.yul\":1140:1156   */\n  shl\n    /* \"#utility.yul\":1119:1156   */\n  swap1\n  pop\n    /* \"#utility.yul\":1056:1163   */\n  swap3\n  swap2\n  pop\n  pop\n  jump\t// out\n    /* \"#utility.yul\":1169:1562   */\ntag_49:\n    /* \"#utility.yul\":1238:1244   */\n  0x00\n    /* \"#utility.yul\":1288:1289   */\n  0x08\n    /* \"#utility.yul\":1276:1286   */\n  dup4\n    /* \"#utility.yul\":1272:1290   */\n  mul\n    /* \"#utility.yul\":1311:1408   */\n  tag_79\n    /* \"#utility.yul\":1341:1407   */\n  0xffffffffffffffffffffffffffffffffffffffffffffffffffffffffffffffff\n    /* \"#utility.yul\":1330:1339   */\n  dup3\n    /* \"#utility.yul\":1311:1408   */\n  tag_48\n  jump\t// in\ntag_79:\n    /* \"#utility.yul\":1429:1468   */\n  tag_80\n    /* \"#utility.yul\":1459:1467   */\n  dup7\n    /* \"#utility.yul\":1448:1457   */\n  dup4\n    /* \"#utility.yul\":1429:1468   */\n  tag_48\n  jump\t// in\ntag_80:\n    /* \"#utility.yul\":1417:1468   */\n  swap6\n  pop\n    /* \"#utility.yul\":1501:1505   */\n  dup1\n    /* \"#utility.yul\":1497:1506   */\n  not\n    /* \"#utility.yul\":1490:1495   */\n  dup5\n    /* \"#utility.yul\":1486:1507   */\n  and\n    /* \"#utility.yul\":1477:1507   */\n  swap4\n  pop\n    /* \"#utility.yul\":1550:1554   */\n  dup1\n    /* \"#utility.yul\":1540:1548   */\n  dup7\n    /* \"#utility.yul\":1536:1555   */\n  and\n    /* \"#utility.yul\":1529:1534   */\n  dup5\n    /* \"#utility.yul\":1526:1556   */\n  or\n    /* \"#utility.yul\":1516:1556   */\n  swap3\n  pop\n    /* \"#utility.yul\":1245:1562   */\n  pop\n  pop\n    /* \"#utility.yul\":1169:1562   */\n  swap4\n  swap3\n  pop\n  pop\n  pop\n  jump\t// out\n    /* \"#utility.yul\":1568:1645   */\ntag_50:\n    /* \"#utility.yul\":1605:1612   */\n  0x00\n    /* \"#utility.yul\":1634:1639   */\n  dup2\n    /* \"#utility.yul\":1623:1639   */\n  swap1\n  pop\n    /* \"#utility.yul\":1568:1645   */\n  swap2\n  swap1\n  pop\n  jump\t// out\n    /* \"#utility.yul\":1651:1711   */\ntag_51:\n    /* \"#utility.yul\":1679:1682   */\n  0x00\n    /* \"#utility.yul\":1700:1705   */\n  dup2\n    /* \"#utility.yul\":1693:1705   */\n  swap1\n  pop\n    /* \"#utility.yul\":1651:1711   */\n  swap2\n  swap1\n  pop\n  jump\t// out\n    /* \"#utility.yul\":1717:1859   */\ntag_52:\n    /* \"#utility.yul\":1767:1776   */\n  0x00\n    /* \"#utility.yul\":1800:1853   */\n  tag_84\n    /* \"#utility.yul\":1818:1852   */\n  tag_85\n    /* \"#utility.yul\":1827:1851   */\n  tag_86\n    /* \"#utility.yul\":1845:1850   */\n  dup5\n    /* \"#utility.yul\":1827:1851   */\n  tag_50\n  jump\t// in\ntag_86:\n    /* \"#utility.yul\":1818:1852   */\n  tag_51\n  jump\t// in\ntag_85:\n    /* \"#utility.yul\":1800:1853   */\n  tag_50\n  jump\t// in\ntag_84:\n    /* \"#utility.yul\":1787:1853   */\n  swap1\n  pop\n    /* \"#utility.yul\":1717:1859   */\n  swap2\n  swap1\n  pop\n  jump\t// out\n    /* \"#utility.yul\":1865:1940   */\ntag_53:\n    /* \"#utility.yul\":1908:1911   */\n  0x00\n    /* \"#utility.yul\":1929:1934   */\n  dup2\n    /* \"#utility.yul\":1922:1934   */\n  swap1\n  pop\n    /* \"#utility.yul\":1865:1940   */\n  swap2\n  swap1\n  pop\n  jump\t// out\n    /* \"#utility.yul\":1946:2215   */\ntag_54:\n    /* \"#utility.yul\":2056:2095   */\n  tag_89\n    /* \"#utility.yul\":2087:2094   */\n  dup4\n    /* \"#utility.yul\":2056:2095   */\n  tag_52\n  jump\t// in\ntag_89:\n    /* \"#utility.yul\":2117:2208   */\n  tag_90\n    /* \"#utility.yul\":2166:2207   */\n  tag_91\n    /* \"#utility.yul\":2190:2206   */\n  dup3\n    /* \"#utility.yul\":2166:2207   */\n  tag_53\n  jump\t// in\ntag_91:\n    /* \"#utility.yul\":2158:2164   */\n  dup5\n    /* \"#utility.yul\":2151:2155   */\n  dup5\n    /* \"#utility.yul\":2145:2156   */\n  sload\n    /* \"#utility.yul\":2117:2208   */\n  tag_49\n  jump\t// in\ntag_90:\n    /* \"#utility.yul\":2111:2115   */\n  dup3\n    /* \"#utility.yul\":2104:2209   */\n  sstore\n    /* \"#utility.yul\":2022:2215   */\n  pop\n    /* \"#utility.yul\":1946:2215   */\n  pop\n  pop\n  pop\n  jump\t// out\n    /* \"#utility.yul\":2221:2294   */\ntag_55:\n    /* \"#utility.yul\":2266:2269   */\n  0x00\n    /* \"#utility.yul\":2221:2294   */\n  swap1\n  jump\t// out\n    /* \"#utility.yul\":2300:2489   */\ntag_56:\n    /* \"#utility.yul\":2377:2409   */\n  tag_94\n  tag_55\n  jump\t// in\ntag_94:\n    /* \"#utility.yul\":2418:2483   */\n  tag_95\n    /* \"#utility.yul\":2476:2482   */\n  dup2\n    /* \"#utility.yul\":2468:2474   */\n  dup5\n    /* \"#utility.yul\":2462:2466   */\n  dup5\n    /* \"#utility.yul\":2418:2483   */\n  tag_54\n  jump\t// in\ntag_95:\n    /* \"#utility.yul\":2353:2489   */\n  pop\n    /* \"#utility.yul\":2300:2489   */\n  pop\n  pop\n  jump\t// out\n    /* \"#utility.yul\":2495:2681   */\ntag_57:\n    /* \"#utility.yul\":2555:2675   */\ntag_97:\n    /* \"#utility.yul\":2572:2575   */\n  dup2\n    /* \"#utility.yul\":2565:2570   */\n  dup2\n    /* \"#utility.yul\":2562:2576   */\n  lt\n    /* \"#utility.yul\":2555:2675   */\n  iszero\n  tag_99\n  jumpi\n    /* \"#utility.yul\":2626:2665   */\n  tag_100\n    /* \"#utility.yul\":2663:2664   */\n  0x00\n    /* \"#utility.yul\":2656:2661   */\n  dup3\n    /* \"#utility.yul\":2626:2665   */\n  tag_56\n  jump\t// in\ntag_100:\n    /* \"#utility.yul\":2599:2600   */\n  0x01\n    /* \"#utility.yul\":2592:2597   */\n  dup2\n    /* \"#utility.yul\":2588:2601   */\n  add\n    /* \"#utility.yul\":2579:2601   */\n  swap1\n  pop\n    /* \"#utility.yul\":2555:2675   */\n  jump(tag_97)\ntag_99:\n    /* \"#utility.yul\":2495:2681   */\n  pop\n  pop\n  jump\t// out\n    /* \"#utility.yul\":2687:3230   */\ntag_58:\n    /* \"#utility.yul\":2788:2790   */\n  0x1f\n    /* \"#utility.yul\":2783:2786   */\n  dup3\n    /* \"#utility.yul\":2780:2791   */\n  gt\n    /* \"#utility.yul\":2777:3223   */\n  iszero\n  tag_102\n  jumpi\n    /* \"#utility.yul\":2822:2860   */\n  tag_103\n    /* \"#utility.yul\":2854:2859   */\n  dup2\n    /* \"#utility.yul\":2822:2860   */\n  tag_46\n  jump\t// in\ntag_103:\n    /* \"#utility.yul\":2906:2935   */\n  tag_104\n    /* \"#utility.yul\":2924:2934   */\n  dup5\n    /* \"#utility.yul\":2906:2935   */\n  tag_47\n  jump\t// in\ntag_104:\n    /* \"#utility.yul\":2896:2904   */\n  dup2\n    /* \"#utility.yul\":2892:2936   */\n  add\n    /* \"#utility.yul\":3089:3091   */\n  0x20\n    /* \"#utility.yul\":3077:3087   */\n  dup6\n    /* \"#utility.yul\":3074:3092   */\n  lt\n    /* \"#utility.yul\":3071:3120   */\n  iszero\n  tag_105\n  jumpi\n    /* \"#utility.yul\":3110:3118   */\n  dup2\n    /* \"#utility.yul\":3095:3118   */\n  swap1\n  pop\n    /* \"#utility.yul\":3071:3120   */\ntag_105:\n    /* \"#utility.yul\":3133:3213   */\n  tag_106\n    /* \"#utility.yul\":3189:3211   */\n  tag_107\n    /* \"#utility.yul\":3207:3210   */\n  dup6\n    /* \"#utility.yul\":3189:3211   */\n  tag_47\n  jump\t// in\ntag_107:\n    /* \"#utility.yul\":3179:3187   */\n  dup4\n    /* \"#utility.yul\":3175:3212   */\n  add\n    /* \"#utility.yul\":3162:3173   */\n  dup3\n    /* \"#utility.yul\":3133:3213   */\n  tag_57\n  jump\t// in\ntag_106:\n    /* \"#utility.yul\":2792:3223   */\n  pop\n  pop\n    /* \"#utility.yul\":2777:3223   */\ntag_102:\n    /* \"#utility.yul\":2687:3230   */\n  pop\n  pop\n  pop\n  jump\t// out\n    /* \"#utility.yul\":3236:3353   */\ntag_59:\n    /* \"#utility.yul\":3290:3298   */\n  0x00\n    /* \"#utility.yul\":3340:3345   */\n  dup3\n    /* \"#utility.yul\":3334:3338   */\n  dup3\n    /* \"#utility.yul\":3330:3346   */\n  shr\n    /* \"#utility.yul\":3309:3346   */\n  swap1\n  pop\n    /* \"#utility.yul\":3236:3353   */\n  swap3\n  swap2\n  pop\n  pop\n  jump\t// out\n    /* \"#utility.yul\":3359:3528   */\ntag_60:\n    /* \"#utility.yul\":3403:3409   */\n  0x00\n    /* \"#utility.yul\":3436:3487   */\n  tag_110\n    /* \"#utility.yul\":3484:3485   */\n  0x00\n    /* \"#utility.yul\":3480:3486   */\n  not\n    /* \"#utility.yul\":3472:3477   */\n  dup5\n    /* \"#utility.yul\":3469:3470   */\n  0x08\n    /* \"#utility.yul\":3465:3478   */\n  mul\n    /* \"#utility.yul\":3436:3487   */\n  tag_59\n  jump\t// in\ntag_110:\n    /* \"#utility.yul\":3432:3488   */\n  not\n    /* \"#utility.yul\":3517:3521   */\n  dup1\n    /* \"#utility.yul\":3511:3515   */\n  dup4\n    /* \"#utility.yul\":3507:3522   */\n  and\n    /* \"#utility.yul\":3497:3522   */\n  swap2\n  pop\n    /* \"#utility.yul\":3410:3528   */\n  pop\n    /* \"#utility.yul\":3359:3528   */\n  swap3\n  swap2\n  pop\n  pop\n  jump\t// out\n    /* \"#utility.yul\":3533:3828   */\ntag_61:\n    /* \"#utility.yul\":3609:3613   */\n  0x00\n    /* \"#utility.yul\":3755:3784   */\n  tag_112\n    /* \"#utility.yul\":3780:3783   */\n  dup4\n    /* \"#utility.yul\":3774:3778   */\n  dup4\n    /* \"#utility.yul\":3755:3784   */\n  tag_60\n  jump\t// in\ntag_112:\n    /* \"#utility.yul\":3747:3784   */\n  swap2\n  pop\n    /* \"#utility.yul\":3817:3820   */\n  dup3\n    /* \"#utility.yul\":3814:3815   */\n  0x02\n    /* \"#utility.yul\":3810:3821   */\n  mul\n    /* \"#utility.yul\":3804:3808   */\n  dup3\n    /* \"#utility.yul\":3801:3822   */\n  or\n    /* \"#utility.yul\":3793:3822   */\n  swap1\n  pop\n    /* \"#utility.yul\":3533:3828   */\n  swap3\n  swap2\n  pop\n  pop\n  jump\t// out\n    /* \"#utility.yul\":3833:5228   */\ntag_7:\n    /* \"#utility.yul\":3950:3987   */\n  tag_114\n    /* \"#utility.yul\":3983:3986   */\n  dup3\n    /* \"#utility.yul\":3950:3987   */\n  tag_42\n  jump\t// in\ntag_114:\n    /* \"#utility.yul\":4052:4070   */\n  0xffffffffffffffff\n    /* \"#utility.yul\":4044:4050   */\n  dup2\n    /* \"#utility.yul\":4041:4071   */\n  gt\n    /* \"#utility.yul\":4038:4094   */\n  iszero\n  tag_115\n  jumpi\n    /* \"#utility.yul\":4074:4092   */\n  tag_116\n  tag_43\n  jump\t// in\ntag_116:\n    /* \"#utility.yul\":4038:4094   */\ntag_115:\n    /* \"#utility.yul\":4118:4156   */\n  tag_117\n    /* \"#utility.yul\":4150:4154   */\n  dup3\n    /* \"#utility.yul\":4144:4155   */\n  sload\n    /* \"#utility.yul\":4118:4156   */\n  tag_45\n  jump\t// in\ntag_117:\n    /* \"#utility.yul\":4203:4270   */\n  tag_118\n    /* \"#utility.yul\":4263:4269   */\n  dup3\n    /* \"#utility.yul\":4255:4261   */\n  dup3\n    /* \"#utility.yul\":4249:4253   */\n  dup6\n    /* \"#utility.yul\":4203:4270   */\n  tag_58\n  jump\t// in\ntag_118:\n    /* \"#utility.yul\":4297:4298   */\n  0x00\n    /* \"#utility.yul\":4321:4325   */\n  0x20\n    /* \"#utility.yul\":4308:4325   */\n  swap1\n  pop\n    /* \"#utility.yul\":4353:4355   */\n  0x1f\n    /* \"#utility.yul\":4345:4351   */\n  dup4\n    /* \"#utility.yul\":4342:4356   */\n  gt\n    /* \"#utility.yul\":4370:4371   */\n  0x01\n    /* \"#utility.yul\":4365:4983   */\n  dup2\n  eq\n  tag_120\n  jumpi\n    /* \"#utility.yul\":5027:5028   */\n  0x00\n    /* \"#utility.yul\":5044:5050   */\n  dup5\n    /* \"#utility.yul\":5041:5118   */\n  iszero\n  tag_121\n  jumpi\n    /* \"#utility.yul\":5093:5102   */\n  dup3\n    /* \"#utility.yul\":5088:5091   */\n  dup8\n    /* \"#utility.yul\":5084:5103   */\n  add\n    /* \"#utility.yul\":5078:5104   */\n  mload\n    /* \"#utility.yul\":5069:5104   */\n  swap1\n  pop\n    /* \"#utility.yul\":5041:5118   */\ntag_121:\n    /* \"#utility.yul\":5144:5211   */\n  tag_122\n    /* \"#utility.yul\":5204:5210   */\n  dup6\n    /* \"#utility.yul\":5197:5202   */\n  dup3\n    /* \"#utility.yul\":5144:5211   */\n  tag_61\n  jump\t// in\ntag_122:\n    /* \"#utility.yul\":5138:5142   */\n  dup7\n    /* \"#utility.yul\":5131:5212   */\n  sstore\n    /* \"#utility.yul\":5000:5222   */\n  pop\n    /* \"#utility.yul\":4335:5222   */\n  jump(tag_119)\n    /* \"#utility.yul\":4365:4983   */\ntag_120:\n    /* \"#utility.yul\":4417:4421   */\n  0x1f\n    /* \"#utility.yul\":4413:4422   */\n  not\n    /* \"#utility.yul\":4405:4411   */\n  dup5\n    /* \"#utility.yul\":4401:4423   */\n  and\n    /* \"#utility.yul\":4451:4488   */\n  tag_123\n    /* \"#utility.yul\":4483:4487   */\n  dup7\n    /* \"#utility.yul\":4451:4488   */\n  tag_46\n  jump\t// in\ntag_123:\n    /* \"#utility.yul\":4510:4511   */\n  0x00\n    /* \"#utility.yul\":4524:4732   */\ntag_124:\n    /* \"#utility.yul\":4538:4545   */\n  dup3\n    /* \"#utility.yul\":4535:4536   */\n  dup2\n    /* \"#utility.yul\":4532:4546   */\n  lt\n    /* \"#utility.yul\":4524:4732   */\n  iszero\n  tag_126\n  jumpi\n    /* \"#utility.yul\":4617:4626   */\n  dup5\n    /* \"#utility.yul\":4612:4615   */\n  dup10\n    /* \"#utility.yul\":4608:4627   */\n  add\n    /* \"#utility.yul\":4602:4628   */\n  mload\n    /* \"#utility.yul\":4594:4600   */\n  dup3\n    /* \"#utility.yul\":4587:4629   */\n  sstore\n    /* \"#utility.yul\":4668:4669   */\n  0x01\n    /* \"#utility.yul\":4660:4666   */\n  dup3\n    /* \"#utility.yul\":4656:4670   */\n  add\n    /* \"#utility.yul\":4646:4670   */\n  swap2\n  pop\n    /* \"#utility.yul\":4715:4717   */\n  0x20\n    /* \"#utility.yul\":4704:4713   */\n  dup6\n    /* \"#utility.yul\":4700:4718   */\n  add\n    /* \"#utility.yul\":4687:4718   */\n  swap5\n  pop\n    /* \"#utility.yul\":4561:4565   */\n  0x20\n    /* \"#utility.yul\":4558:4559   */\n  dup2\n    /* \"#utility.yul\":4554:4566   */\n  add\n    /* \"#utility.yul\":4549:4566   */\n  swap1\n  pop\n    /* \"#utility.yul\":4524:4732   */\n  jump(tag_124)\ntag_126:\n    /* \"#utility.yul\":4760:4766   */\n  dup7\n    /* \"#utility.yul\":4751:4758   */\n  dup4\n    /* \"#utility.yul\":4748:4767   */\n  lt\n    /* \"#utility.yul\":4745:4924   */\n  iszero\n  tag_127\n  jumpi\n    /* \"#utility.yul\":4818:4827   */\n  dup5\n    /* \"#utility.yul\":4813:4816   */\n  dup10\n    /* \"#utility.yul\":4809:4828   */\n  add\n    /* \"#utility.yul\":4803:4829   */\n  mload\n    /* \"#utility.yul\":4861:4909   */\n  tag_128\n    /* \"#utility.yul\":4903:4907   */\n  0x1f\n    /* \"#utility.yul\":4895:4901   */\n  dup10\n    /* \"#utility.yul\":4891:4908   */\n  and\n    /* \"#utility.yul\":4880:4889   */\n  dup3\n    /* \"#utility.yul\":4861:4909   */\n  tag_60\n  jump\t// in\ntag_128:\n    /* \"#utility.yul\":4853:4859   */\n  dup4\n    /* \"#utility.yul\":4846:4910   */\n  sstore\n    /* \"#utility.yul\":4768:4924   */\n  pop\n    /* \"#utility.yul\":4745:4924   */\ntag_127:\n    /* \"#utility.yul\":4970:4971   */\n  0x01\n    /* \"#utility.yul\":4966:4967   */\n  0x02\n    /* \"#utility.yul\":4958:4964   */\n  dup9\n    /* \"#utility.yul\":4954:4968   */\n  mul\n    /* \"#utility.yul\":4950:4972   */\n  add\n    /* \"#utility.yul\":4944:4948   */\n  dup9\n    /* \"#utility.yul\":4937:4973   */\n  sstore\n    /* \"#utility.yul\":4372:4983   */\n  pop\n  pop\n  pop\n    /* \"#utility.yul\":4335:5222   */\ntag_119:\n  pop\n    /* \"#utility.yul\":3925:5228   */\n  pop\n  pop\n  pop\n    /* \"#utility.yul\":3833:5228   */\n  pop\n  pop\n  jump\t// out\n    /* \"#utility.yul\":5234:5403   */\ntag_62:\n    /* \"#utility.yul\":5318:5329   */\n  0x00\n    /* \"#utility.yul\":5352:5358   */\n  dup3\n    /* \"#utility.yul\":5347:5350   */\n  dup3\n    /* \"#utility.yul\":5340:5359   */\n  mstore\n    /* \"#utility.yul\":5392:5396   */\n  0x20\n    /* \"#utility.yul\":5387:5390   */\n  dup3\n    /* \"#utility.yul\":5383:5397   */\n  add\n    /* \"#utility.yul\":5368:5397   */\n  swap1\n  pop\n    /* \"#utility.yul\":5234:5403   */\n  swap3\n  swap2\n  pop\n  pop\n  jump\t// out\n    /* \"#utility.yul\":5409:5590   */\ntag_63:\n    /* \"#utility.yul\":5549:5582   */\n  0x45524332303a206d696e7420746f20746865207a65726f206164647265737300\n    /* \"#utility.yul\":5545:5546   */\n  0x00\n    /* \"#utility.yul\":5537:5543   */\n  dup3\n    /* \"#utility.yul\":5533:5547   */\n  add\n    /* \"#utility.yul\":5526:5583   */\n  mstore\n    /* \"#utility.yul\":5409:5590   */\n  pop\n  jump\t// out\n    /* \"#utility.yul\":5596:5962   */\ntag_64:\n    /* \"#utility.yul\":5738:5741   */\n  0x00\n    /* \"#utility.yul\":5759:5826   */\n  tag_132\n    /* \"#utility.yul\":5823:5825   */\n  0x1f\n    /* \"#utility.yul\":5818:5821   */\n  dup4\n    /* \"#utility.yul\":5759:5826   */\n  tag_62\n  jump\t// in\ntag_132:\n    /* \"#utility.yul\":5752:5826   */\n  swap2\n  pop\n    /* \"#utility.yul\":5835:5928   */\n  tag_133\n    /* \"#utility.yul\":5924:5927   */\n  dup3\n    /* \"#utility.yul\":5835:5928   */\n  tag_63\n  jump\t// in\ntag_133:\n    /* \"#utility.yul\":5953:5955   */\n  0x20\n    /* \"#utility.yul\":5948:5951   */\n  dup3\n    /* \"#utility.yul\":5944:5956   */\n  add\n    /* \"#utility.yul\":5937:5956   */\n  swap1\n  pop\n    /* \"#utility.yul\":5596:5962   */\n  swap2\n  swap1\n  pop\n  jump\t// out\n    /* \"#utility.yul\":5968:6387   */\ntag_31:\n    /* \"#utility.yul\":6134:6138   */\n  0x00\n    /* \"#utility.yul\":6172:6174   */\n  0x20\n    /* \"#utility.yul\":6161:6170   */\n  dup3\n    /* \"#utility.yul\":6157:6175   */\n  add\n    /* \"#utility.yul\":6149:6175   */\n  swap1\n  pop\n    /* \"#utility.yul\":6221:6230   */\n  dup2\n    /* \"#utility.yul\":6215:6219   */\n  dup2\n    /* \"#utility.yul\":6211:6231   */\n  sub\n    /* \"#utility.yul\":6207:6208   */\n  0x00\n    /* \"#utility.yul\":6196:6205   */\n  dup4\n    /* \"#utility.yul\":6192:6209   */\n  add\n    /* \"#utility.yul\":6185:6232   */\n  mstore\n    /* \"#utility.yul\":6249:6380   */\n  tag_135\n    /* \"#utility.yul\":6375:6379   */\n  dup2\n    /* \"#utility.yul\":6249:6380   */\n  tag_64\n  jump\t// in\ntag_135:\n    /* \"#utility.yul\":6241:6380   */\n  swap1\n  pop\n    /* \"#utility.yul\":5968:6387   */\n  swap2\n  swap1\n  pop\n  jump\t// out\n    /* \"#utility.yul\":6393:6573   */\ntag_65:\n    /* \"#utility.yul\":6441:6518   */\n  0x4e487b7100000000000000000000000000000000000000000000000000000000\n    /* \"#utility.yul\":6438:6439   */\n  0x00\n    /* \"#utility.yul\":6431:6519   */\n  mstore\n    /* \"#utility.yul\":6538:6542   */\n  0x11\n    /* \"#utility.yul\":6535:6536   */\n  0x04\n    /* \"#utility.yul\":6528:6543   */\n  mstore\n    /* \"#utility.yul\":6562:6566   */\n  0x24\n    /* \"#utility.yul\":6559:6560   */\n  0x00\n    /* \"#utility.yul\":6552:6567   */\n  revert\n    /* \"#utility.yul\":6579:6770   */\ntag_35:\n    /* \"#utility.yul\":6619:6622   */\n  0x00\n    /* \"#utility.yul\":6638:6658   */\n  tag_138\n    /* \"#utility.yul\":6656:6657   */\n  dup3\n    /* \"#utility.yul\":6638:6658   */\n  tag_50\n  jump\t// in\ntag_138:\n    /* \"#utility.yul\":6633:6658   */\n  swap2\n  pop\n    /* \"#utility.yul\":6672:6692   */\n  tag_139\n    /* \"#utility.yul\":6690:6691   */\n  dup4\n    /* \"#utility.yul\":6672:6692   */\n  tag_50\n  jump\t// in\ntag_139:\n    /* \"#utility.yul\":6667:6692   */\n  swap3\n  pop\n    /* \"#utility.yul\":6715:6716   */\n  dup3\n    /* \"#utility.yul\":6712:6713   */\n  dup3\n    /* \"#utility.yul\":6708:6717   */\n  add\n    /* \"#utility.yul\":6701:6717   */\n  swap1\n  pop\n    /* \"#utility.yul\":6736:6739   */\n  dup1\n    /* \"#utility.yul\":6733:6734   */\n  dup3\n    /* \"#utility.yul\":6730:6740   */\n  gt\n    /* \"#utility.yul\":6727:6763   */\n  iszero\n  tag_140\n  jumpi\n    /* \"#utility.yul\":6743:6761   */\n  tag_141\n  tag_65\n  jump\t// in\ntag_141:\n    /* \"#utility.yul\":6727:6763   */\ntag_140:\n    /* \"#utility.yul\":6579:6770   */\n  swap3\n  swap2\n  pop\n  pop\n  jump\t// out\n    /* \"#utility.yul\":6776:6894   */\ntag_66:\n    /* \"#utility.yul\":6863:6887   */\n  tag_143\n    /* \"#utility.yul\":6881:6886   */\n  dup2\n    /* \"#utility.yul\":6863:6887   */\n  tag_50\n  jump\t// in\ntag_143:\n    /* \"#utility.yul\":6858:6861   */\n  dup3\n    /* \"#utility.yul\":6851:6888   */\n  mstore\n    /* \"#utility.yul\":6776:6894   */\n  pop\n  pop\n  jump\t// out\n    /* \"#utility.yul\":6900:7122   */\ntag_37:\n    /* \"#utility.yul\":6993:6997   */\n  0x00\n    /* \"#utility.yul\":7031:7033   */\n  0x20\n    /* \"#utility.yul\":7020:7029   */\n  dup3\n    /* \"#utility.yul\":7016:7034   */\n  add\n    /* \"#utility.yul\":7008:7034   */\n  swap1\n  pop\n    /* \"#utility.yul\":7044:7115   */\n  tag_145\n    /* \"#utility.yul\":7112:7113   */\n  0x00\n    /* \"#utility.yul\":7101:7110   */\n  dup4\n    /* \"#utility.yul\":7097:7114   */\n  add\n    /* \"#utility.yul\":7088:7094   */\n  dup5\n    /* \"#utility.yul\":7044:7115   */\n  tag_66\n  jump\t// in\ntag_145:\n    /* \"#utility.yul\":6900:7122   */\n  swap3\n  swap2\n  pop\n  pop\n  jump\t// out\n    /* \"contracts/DegenToken.sol\":168:2885  contract DegenToken is ERC20, Ownable {... */\ntag_25:\n  dataSize(sub_0)\n  dup1\n  dataOffset(sub_0)\n  0x00\n  codecopy\n  0x00\n  return\nstop\n\nsub_0: assembly {\n        /* \"contracts/DegenToken.sol\":168:2885  contract DegenToken is ERC20, Ownable {... */\n      mstore(0x40, 0x80)\n      callvalue\n      dup1\n      iszero\n      tag_1\n      jumpi\n      0x00\n      dup1\n      revert\n    tag_1:\n      pop\n      jumpi(tag_2, lt(calldatasize, 0x04))\n      shr(0xe0, calldataload(0x00))\n      dup1\n      0x4aa7961e\n      gt\n      tag_24\n      jumpi\n      dup1\n      0x8da5cb5b\n      gt\n      tag_25\n      jumpi\n      dup1\n      0x8da5cb5b\n      eq\n      tag_18\n      jumpi\n      dup1\n      0x95d89b41\n      eq\n      tag_19\n      jumpi\n      dup1\n      0xa457c2d7\n      eq\n      tag_20\n      jumpi\n      dup1\n      0xa9059cbb\n      eq\n      tag_21\n      jumpi\n      dup1\n      0xdd62ed3e\n      eq\n      tag_22\n      jumpi\n      dup1\n      0xf2fde38b\n      eq\n      tag_23\n      jumpi\n      jump(tag_2)\n    tag_25:\n      dup1\n      0x4aa7961e\n      eq\n      tag_13\n      jumpi\n      dup1\n      0x5f515226\n      eq\n      tag_14\n      jumpi\n      dup1\n      0x68f222fd\n      eq\n      tag_15\n      jumpi\n      dup1\n      0x70a08231\n      eq\n      tag_16\n      jumpi\n      dup1\n      0x715018a6\n      eq\n      tag_17\n      jumpi\n      jump(tag_2)\n    tag_24:\n      dup1\n      0x23b872dd\n      gt\n      tag_26\n      jumpi\n      dup1\n      0x23b872dd\n      eq\n      tag_8\n      jumpi\n      dup1\n      0x313ce567\n      eq\n      tag_9\n      jumpi\n      dup1\n      0x39509351\n      eq\n      tag_10\n      jumpi\n      dup1\n      0x40c10f19\n      eq\n      tag_11\n      jumpi\n      dup1\n      0x42966c68\n      eq\n      tag_12\n      jumpi\n      jump(tag_2)\n    tag_26:\n      dup1\n      0x06fdde03\n      eq\n      tag_3\n      jumpi\n      dup1\n      0x095ea7b3\n      eq\n      tag_4\n      jumpi\n      dup1\n      0x11c11a3f\n      eq\n      tag_5\n      jumpi\n      dup1\n      0x151293a7\n      eq\n      tag_6\n      jumpi\n      dup1\n      0x18160ddd\n      eq\n      tag_7\n      jumpi\n    tag_2:\n      0x00\n      dup1\n      revert\n        /* \"@openzeppelin/contracts/token/ERC20/ERC20.sol\":2154:2252  function name() public view virtual override returns (string memory) {... */\n    tag_3:\n      tag_27\n      tag_28\n      jump\t// in\n    tag_27:\n      mload(0x40)\n      tag_29\n      swap2\n      swap1\n      tag_30\n      jump\t// in\n    tag_29:\n      mload(0x40)\n      dup1\n      swap2\n      sub\n      swap1\n      return\n        /* \"@openzeppelin/contracts/token/ERC20/ERC20.sol\":4431:4628  function approve(address spender, uint256 amount) public virtual override returns (bool) {... */\n    tag_4:\n      tag_31\n      0x04\n      dup1\n      calldatasize\n      sub\n      dup2\n      add\n      swap1\n      tag_32\n      swap2\n      swap1\n      tag_33\n      jump\t// in\n    tag_32:\n      tag_34\n      jump\t// in\n    tag_31:\n      mload(0x40)\n      tag_35\n      swap2\n      swap1\n      tag_36\n      jump\t// in\n    tag_35:\n      mload(0x40)\n      dup1\n      swap2\n      sub\n      swap1\n      return\n        /* \"contracts/DegenToken.sol\":2352:2713  function redeemForItem(uint256 itemId) public {... */\n    tag_5:\n      tag_37\n      0x04\n      dup1\n      calldatasize\n      sub\n      dup2\n      add\n      swap1\n      tag_38\n      swap2\n      swap1\n      tag_39\n      jump\t// in\n    tag_38:\n      tag_40\n      jump\t// in\n    tag_37:\n      stop\n        /* \"contracts/DegenToken.sol\":328:359  InGameItem[] public inGameItems */\n    tag_6:\n      tag_41\n      0x04\n      dup1\n      calldatasize\n      sub\n      dup2\n      add\n      swap1\n      tag_42\n      swap2\n      swap1\n      tag_39\n      jump\t// in\n    tag_42:\n      tag_43\n      jump\t// in\n    tag_41:\n      mload(0x40)\n      tag_44\n      swap4\n      swap3\n      swap2\n      swap1\n      tag_45\n      jump\t// in\n    tag_44:\n      mload(0x40)\n      dup1\n      swap2\n      sub\n      swap1\n      return\n        /* \"@openzeppelin/contracts/token/ERC20/ERC20.sol\":3242:3348  function totalSupply() public view virtual override returns (uint256) {... */\n    tag_7:\n      tag_46\n      tag_47\n      jump\t// in\n    tag_46:\n      mload(0x40)\n      tag_48\n      swap2\n      swap1\n      tag_49\n      jump\t// in\n    tag_48:\n      mload(0x40)\n      dup1\n      swap2\n      sub\n      swap1\n      return\n        /* \"@openzeppelin/contracts/token/ERC20/ERC20.sol\":5190:5476  function transferFrom(... */\n    tag_8:\n      tag_50\n      0x04\n      dup1\n      calldatasize\n      sub\n      dup2\n      add\n      swap1\n      tag_51\n      swap2\n      swap1\n      tag_52\n      jump\t// in\n    tag_51:\n      tag_53\n      jump\t// in\n    tag_50:\n      mload(0x40)\n      tag_54\n      swap2\n      swap1\n      tag_36\n      jump\t// in\n    tag_54:\n      mload(0x40)\n      dup1\n      swap2\n      sub\n      swap1\n      return\n        /* \"@openzeppelin/contracts/token/ERC20/ERC20.sol\":3091:3182  function decimals() public view virtual override returns (uint8) {... */\n    tag_9:\n      tag_55\n      tag_56\n      jump\t// in\n    tag_55:\n      mload(0x40)\n      tag_57\n      swap2\n      swap1\n      tag_58\n      jump\t// in\n    tag_57:\n      mload(0x40)\n      dup1\n      swap2\n      sub\n      swap1\n      return\n        /* \"@openzeppelin/contracts/token/ERC20/ERC20.sol\":5871:6105  function increaseAllowance(address spender, uint256 addedValue) public virtual returns (bool) {... */\n    tag_10:\n      tag_59\n      0x04\n      dup1\n      calldatasize\n      sub\n      dup2\n      add\n      swap1\n      tag_60\n      swap2\n      swap1\n      tag_33\n      jump\t// in\n    tag_60:\n      tag_61\n      jump\t// in\n    tag_59:\n      mload(0x40)\n      tag_62\n      swap2\n      swap1\n      tag_36\n      jump\t// in\n    tag_62:\n      mload(0x40)\n      dup1\n      swap2\n      sub\n      swap1\n      return\n        /* \"contracts/DegenToken.sol\":814:1151  function mint(address to, uint256 amount) public onlyOwner {... */\n    tag_11:\n      tag_63\n      0x04\n      dup1\n      calldatasize\n      sub\n      dup2\n      add\n      swap1\n      tag_64\n      swap2\n      swap1\n      tag_33\n      jump\t// in\n    tag_64:\n      tag_65\n      jump\t// in\n    tag_63:\n      stop\n        /* \"contracts/DegenToken.sol\":1203:1536  function burn(uint256 amount) public {... */\n    tag_12:\n      tag_66\n      0x04\n      dup1\n      calldatasize\n      sub\n      dup2\n      add\n      swap1\n      tag_67\n      swap2\n      swap1\n      tag_39\n      jump\t// in\n    tag_67:\n      tag_68\n      jump\t// in\n    tag_66:\n      stop\n        /* \"contracts/DegenToken.sol\":2761:2883  function checkInventory(address account) public view returns (uint256[] memory) {... */\n    tag_13:\n      tag_69\n      0x04\n      dup1\n      calldatasize\n      sub\n      dup2\n      add\n      swap1\n      tag_70\n      swap2\n      swap1\n      tag_71\n      jump\t// in\n    tag_70:\n      tag_72\n      jump\t// in\n    tag_69:\n      mload(0x40)\n      tag_73\n      swap2\n      swap1\n      tag_74\n      jump\t// in\n    tag_73:\n      mload(0x40)\n      dup1\n      swap2\n      sub\n      swap1\n      return\n        /* \"contracts/DegenToken.sol\":2195:2306  function checkBalance(address account) public view returns (uint256) {... */\n    tag_14:\n      tag_75\n      0x04\n      dup1\n      calldatasize\n      sub\n      dup2\n      add\n      swap1\n      tag_76\n      swap2\n      swap1\n      tag_71\n      jump\t// in\n    tag_76:\n      tag_77\n      jump\t// in\n    tag_75:\n      mload(0x40)\n      tag_78\n      swap2\n      swap1\n      tag_49\n      jump\t// in\n    tag_78:\n      mload(0x40)\n      dup1\n      swap2\n      sub\n      swap1\n      return\n        /* \"contracts/DegenToken.sol\":365:411  mapping(address => uint256[]) public inventory */\n    tag_15:\n      tag_79\n      0x04\n      dup1\n      calldatasize\n      sub\n      dup2\n      add\n      swap1\n      tag_80\n      swap2\n      swap1\n      tag_33\n      jump\t// in\n    tag_80:\n      tag_81\n      jump\t// in\n    tag_79:\n      mload(0x40)\n      tag_82\n      swap2\n      swap1\n      tag_49\n      jump\t// in\n    tag_82:\n      mload(0x40)\n      dup1\n      swap2\n      sub\n      swap1\n      return\n        /* \"@openzeppelin/contracts/token/ERC20/ERC20.sol\":3406:3531  function balanceOf(address account) public view virtual override returns (uint256) {... */\n    tag_16:\n      tag_83\n      0x04\n      dup1\n      calldatasize\n      sub\n      dup2\n      add\n      swap1\n      tag_84\n      swap2\n      swap1\n      tag_71\n      jump\t// in\n    tag_84:\n      tag_85\n      jump\t// in\n    tag_83:\n      mload(0x40)\n      tag_86\n      swap2\n      swap1\n      tag_49\n      jump\t// in\n    tag_86:\n      mload(0x40)\n      dup1\n      swap2\n      sub\n      swap1\n      return\n        /* \"@openzeppelin/contracts/access/Ownable.sol\":1831:1932  function renounceOwnership() public virtual onlyOwner {... */\n    tag_17:\n      tag_87\n      tag_88\n      jump\t// in\n    tag_87:\n      stop\n        /* \"@openzeppelin/contracts/access/Ownable.sol\":1201:1286  function owner() public view virtual returns (address) {... */\n    tag_18:\n      tag_89\n      tag_90\n      jump\t// in\n    tag_89:\n      mload(0x40)\n      tag_91\n      swap2\n      swap1\n      tag_92\n      jump\t// in\n    tag_91:\n      mload(0x40)\n      dup1\n      swap2\n      sub\n      swap1\n      return\n        /* \"@openzeppelin/contracts/token/ERC20/ERC20.sol\":2365:2467  function symbol() public view virtual override returns (string memory) {... */\n    tag_19:\n      tag_93\n      tag_94\n      jump\t// in\n    tag_93:\n      mload(0x40)\n      tag_95\n      swap2\n      swap1\n      tag_30\n      jump\t// in\n    tag_95:\n      mload(0x40)\n      dup1\n      swap2\n      sub\n      swap1\n      return\n        /* \"@openzeppelin/contracts/token/ERC20/ERC20.sol\":6592:7019  function decreaseAllowance(address spender, uint256 subtractedValue) public virtual returns (bool) {... */\n    tag_20:\n      tag_96\n      0x04\n      dup1\n      calldatasize\n      sub\n      dup2\n      add\n      swap1\n      tag_97\n      swap2\n      swap1\n      tag_33\n      jump\t// in\n    tag_97:\n      tag_98\n      jump\t// in\n    tag_96:\n      mload(0x40)\n      tag_99\n      swap2\n      swap1\n      tag_36\n      jump\t// in\n    tag_99:\n      mload(0x40)\n      dup1\n      swap2\n      sub\n      swap1\n      return\n        /* \"contracts/DegenToken.sol\":1609:2147  function transfer(address to, uint256 amount) public override returns (bool) {... */\n    tag_21:\n      tag_100\n      0x04\n      dup1\n      calldatasize\n      sub\n      dup2\n      add\n      swap1\n      tag_101\n      swap2\n      swap1\n      tag_33\n      jump\t// in\n    tag_101:\n      tag_102\n      jump\t// in\n    tag_100:\n      mload(0x40)\n      tag_103\n      swap2\n      swap1\n      tag_36\n      jump\t// in\n    tag_103:\n      mload(0x40)\n      dup1\n      swap2\n      sub\n      swap1\n      return\n        /* \"@openzeppelin/contracts/token/ERC20/ERC20.sol\":3974:4123  function allowance(address owner, address spender) public view virtual override returns (uint256) {... */\n    tag_22:\n      tag_104\n      0x04\n      dup1\n      calldatasize\n      sub\n      dup2\n      add\n      swap1\n      tag_105\n      swap2\n      swap1\n      tag_106\n      jump\t// in\n    tag_105:\n      tag_107\n      jump\t// in\n    tag_104:\n      mload(0x40)\n      tag_108\n      swap2\n      swap1\n      tag_49\n      jump\t// in\n    tag_108:\n      mload(0x40)\n      dup1\n      swap2\n      sub\n      swap1\n      return\n        /* \"@openzeppelin/contracts/access/Ownable.sol\":2081:2279  function transferOwnership(address newOwner) public virtual onlyOwner {... */\n    tag_23:\n      tag_109\n      0x04\n      dup1\n      calldatasize\n      sub\n      dup2\n      add\n      swap1\n      tag_110\n      swap2\n      swap1\n      tag_71\n      jump\t// in\n    tag_110:\n      tag_111\n      jump\t// in\n    tag_109:\n      stop\n        /* \"@openzeppelin/contracts/token/ERC20/ERC20.sol\":2154:2252  function name() public view virtual override returns (string memory) {... */\n    tag_28:\n        /* \"@openzeppelin/contracts/token/ERC20/ERC20.sol\":2208:2221  string memory */\n      0x60\n        /* \"@openzeppelin/contracts/token/ERC20/ERC20.sol\":2240:2245  _name */\n      0x03\n        /* \"@openzeppelin/contracts/token/ERC20/ERC20.sol\":2233:2245  return _name */\n      dup1\n      sload\n      tag_113\n      swap1\n      tag_114\n      jump\t// in\n    tag_113:\n      dup1\n      0x1f\n      add\n      0x20\n      dup1\n      swap2\n      div\n      mul\n      0x20\n      add\n      mload(0x40)\n      swap1\n      dup2\n      add\n      0x40\n      mstore\n      dup1\n      swap3\n      swap2\n      swap1\n      dup2\n      dup2\n      mstore\n      0x20\n      add\n      dup3\n      dup1\n      sload\n      tag_115\n      swap1\n      tag_114\n      jump\t// in\n    tag_115:\n      dup1\n      iszero\n      tag_116\n      jumpi\n      dup1\n      0x1f\n      lt\n      tag_117\n      jumpi\n      0x0100\n      dup1\n      dup4\n      sload\n      div\n      mul\n      dup4\n      mstore\n      swap2\n      0x20\n      add\n      swap2\n      jump(tag_116)\n    tag_117:\n      dup3\n      add\n      swap2\n      swap1\n      0x00\n      mstore\n      keccak256(0x00, 0x20)\n      swap1\n    tag_118:\n      dup2\n      sload\n      dup2\n      mstore\n      swap1\n      0x01\n      add\n      swap1\n      0x20\n      add\n      dup1\n      dup4\n      gt\n      tag_118\n      jumpi\n      dup3\n      swap1\n      sub\n      0x1f\n      and\n      dup3\n      add\n      swap2\n    tag_116:\n      pop\n      pop\n      pop\n      pop\n      pop\n      swap1\n      pop\n        /* \"@openzeppelin/contracts/token/ERC20/ERC20.sol\":2154:2252  function name() public view virtual override returns (string memory) {... */\n      swap1\n      jump\t// out\n        /* \"@openzeppelin/contracts/token/ERC20/ERC20.sol\":4431:4628  function approve(address spender, uint256 amount) public virtual override returns (bool) {... */\n    tag_34:\n        /* \"@openzeppelin/contracts/token/ERC20/ERC20.sol\":4514:4518  bool */\n      0x00\n        /* \"@openzeppelin/contracts/token/ERC20/ERC20.sol\":4530:4543  address owner */\n      dup1\n        /* \"@openzeppelin/contracts/token/ERC20/ERC20.sol\":4546:4558  _msgSender() */\n      tag_120\n        /* \"@openzeppelin/contracts/token/ERC20/ERC20.sol\":4546:4556  _msgSender */\n      tag_121\n        /* \"@openzeppelin/contracts/token/ERC20/ERC20.sol\":4546:4558  _msgSender() */\n      jump\t// in\n    tag_120:\n        /* \"@openzeppelin/contracts/token/ERC20/ERC20.sol\":4530:4558  address owner = _msgSender() */\n      swap1\n      pop\n        /* \"@openzeppelin/contracts/token/ERC20/ERC20.sol\":4568:4600  _approve(owner, spender, amount) */\n      tag_122\n        /* \"@openzeppelin/contracts/token/ERC20/ERC20.sol\":4577:4582  owner */\n      dup2\n        /* \"@openzeppelin/contracts/token/ERC20/ERC20.sol\":4584:4591  spender */\n      dup6\n        /* \"@openzeppelin/contracts/token/ERC20/ERC20.sol\":4593:4599  amount */\n      dup6\n        /* \"@openzeppelin/contracts/token/ERC20/ERC20.sol\":4568:4576  _approve */\n      tag_123\n        /* \"@openzeppelin/contracts/token/ERC20/ERC20.sol\":4568:4600  _approve(owner, spender, amount) */\n      jump\t// in\n    tag_122:\n        /* \"@openzeppelin/contracts/token/ERC20/ERC20.sol\":4617:4621  true */\n      0x01\n        /* \"@openzeppelin/contracts/token/ERC20/ERC20.sol\":4610:4621  return true */\n      swap2\n      pop\n      pop\n        /* \"@openzeppelin/contracts/token/ERC20/ERC20.sol\":4431:4628  function approve(address spender, uint256 amount) public virtual override returns (bool) {... */\n      swap3\n      swap2\n      pop\n      pop\n      jump\t// out\n        /* \"contracts/DegenToken.sol\":2352:2713  function redeemForItem(uint256 itemId) public {... */\n    tag_40:\n        /* \"contracts/DegenToken.sol\":2425:2436  inGameItems */\n      0x06\n        /* \"contracts/DegenToken.sol\":2425:2443  inGameItems.length */\n      dup1\n      sload\n      swap1\n      pop\n        /* \"contracts/DegenToken.sol\":2416:2422  itemId */\n      dup2\n        /* \"contracts/DegenToken.sol\":2416:2443  itemId < inGameItems.length */\n      lt\n        /* \"contracts/DegenToken.sol\":2408:2475  require(itemId < inGameItems.length, \"DegenToken: Invalid item ID\") */\n      tag_125\n      jumpi\n      mload(0x40)\n      0x08c379a000000000000000000000000000000000000000000000000000000000\n      dup2\n      mstore\n      0x04\n      add\n      tag_126\n      swap1\n      tag_127\n      jump\t// in\n    tag_126:\n      mload(0x40)\n      dup1\n      swap2\n      sub\n      swap1\n      revert\n    tag_125:\n        /* \"contracts/DegenToken.sol\":2486:2509  InGameItem storage item */\n      0x00\n        /* \"contracts/DegenToken.sol\":2512:2523  inGameItems */\n      0x06\n        /* \"contracts/DegenToken.sol\":2524:2530  itemId */\n      dup3\n        /* \"contracts/DegenToken.sol\":2512:2531  inGameItems[itemId] */\n      dup2\n      sload\n      dup2\n      lt\n      tag_128\n      jumpi\n      tag_129\n      tag_130\n      jump\t// in\n    tag_129:\n    tag_128:\n      swap1\n      0x00\n      mstore\n      keccak256(0x00, 0x20)\n      swap1\n      0x03\n      mul\n      add\n        /* \"contracts/DegenToken.sol\":2486:2531  InGameItem storage item = inGameItems[itemId] */\n      swap1\n      pop\n        /* \"contracts/DegenToken.sol\":2574:2578  item */\n      dup1\n        /* \"contracts/DegenToken.sol\":2574:2584  item.price */\n      0x02\n      add\n      sload\n        /* \"contracts/DegenToken.sol\":2549:2570  balanceOf(msg.sender) */\n      tag_132\n        /* \"contracts/DegenToken.sol\":2559:2569  msg.sender */\n      caller\n        /* \"contracts/DegenToken.sol\":2549:2558  balanceOf */\n      tag_85\n        /* \"contracts/DegenToken.sol\":2549:2570  balanceOf(msg.sender) */\n      jump\t// in\n    tag_132:\n        /* \"contracts/DegenToken.sol\":2549:2584  balanceOf(msg.sender) >= item.price */\n      lt\n      iszero\n        /* \"contracts/DegenToken.sol\":2541:2621  require(balanceOf(msg.sender) >= item.price, \"DegenToken: Insufficient balance\") */\n      tag_133\n      jumpi\n      mload(0x40)\n      0x08c379a000000000000000000000000000000000000000000000000000000000\n      dup2\n      mstore\n      0x04\n      add\n      tag_134\n      swap1\n      tag_135\n      jump\t// in\n    tag_134:\n      mload(0x40)\n      dup1\n      swap2\n      sub\n      swap1\n      revert\n    tag_133:\n        /* \"contracts/DegenToken.sol\":2632:2641  inventory */\n      0x07\n        /* \"contracts/DegenToken.sol\":2632:2653  inventory[msg.sender] */\n      0x00\n        /* \"contracts/DegenToken.sol\":2642:2652  msg.sender */\n      caller\n        /* \"contracts/DegenToken.sol\":2632:2653  inventory[msg.sender] */\n      0xffffffffffffffffffffffffffffffffffffffff\n      and\n      0xffffffffffffffffffffffffffffffffffffffff\n      and\n      dup2\n      mstore\n      0x20\n      add\n      swap1\n      dup2\n      mstore\n      0x20\n      add\n      0x00\n      keccak256\n        /* \"contracts/DegenToken.sol\":2659:2665  itemId */\n      dup3\n        /* \"contracts/DegenToken.sol\":2632:2666  inventory[msg.sender].push(itemId) */\n      swap1\n      dup1\n      0x01\n      dup2\n      sload\n      add\n      dup1\n      dup3\n      sstore\n      dup1\n      swap2\n      pop\n      pop\n      0x01\n      swap1\n      sub\n      swap1\n      0x00\n      mstore\n      keccak256(0x00, 0x20)\n      add\n      0x00\n      swap1\n      swap2\n      swap1\n      swap2\n      swap1\n      swap2\n      pop\n      sstore\n        /* \"contracts/DegenToken.sol\":2677:2706  _burn(msg.sender, item.price) */\n      tag_137\n        /* \"contracts/DegenToken.sol\":2683:2693  msg.sender */\n      caller\n        /* \"contracts/DegenToken.sol\":2695:2699  item */\n      dup3\n        /* \"contracts/DegenToken.sol\":2695:2705  item.price */\n      0x02\n      add\n      sload\n        /* \"contracts/DegenToken.sol\":2677:2682  _burn */\n      tag_138\n        /* \"contracts/DegenToken.sol\":2677:2706  _burn(msg.sender, item.price) */\n      jump\t// in\n    tag_137:\n        /* \"contracts/DegenToken.sol\":2398:2713  {... */\n      pop\n        /* \"contracts/DegenToken.sol\":2352:2713  function redeemForItem(uint256 itemId) public {... */\n      pop\n      jump\t// out\n        /* \"contracts/DegenToken.sol\":328:359  InGameItem[] public inGameItems */\n    tag_43:\n      0x06\n      dup2\n      dup2\n      sload\n      dup2\n      lt\n      tag_139\n      jumpi\n      0x00\n      dup1\n      revert\n    tag_139:\n      swap1\n      0x00\n      mstore\n      keccak256(0x00, 0x20)\n      swap1\n      0x03\n      mul\n      add\n      0x00\n      swap2\n      pop\n      swap1\n      pop\n      dup1\n      0x00\n      add\n      sload\n      swap1\n      dup1\n      0x01\n      add\n      dup1\n      sload\n      tag_141\n      swap1\n      tag_114\n      jump\t// in\n    tag_141:\n      dup1\n      0x1f\n      add\n      0x20\n      dup1\n      swap2\n      div\n      mul\n      0x20\n      add\n      mload(0x40)\n      swap1\n      dup2\n      add\n      0x40\n      mstore\n      dup1\n      swap3\n      swap2\n      swap1\n      dup2\n      dup2\n      mstore\n      0x20\n      add\n      dup3\n      dup1\n      sload\n      tag_142\n      swap1\n      tag_114\n      jump\t// in\n    tag_142:\n      dup1\n      iszero\n      tag_143\n      jumpi\n      dup1\n      0x1f\n      lt\n      tag_144\n      jumpi\n      0x0100\n      dup1\n      dup4\n      sload\n      div\n      mul\n      dup4\n      mstore\n      swap2\n      0x20\n      add\n      swap2\n      jump(tag_143)\n    tag_144:\n      dup3\n      add\n      swap2\n      swap1\n      0x00\n      mstore\n      keccak256(0x00, 0x20)\n      swap1\n    tag_145:\n      dup2\n      sload\n      dup2\n      mstore\n      swap1\n      0x01\n      add\n      swap1\n      0x20\n      add\n      dup1\n      dup4\n      gt\n      tag_145\n      jumpi\n      dup3\n      swap1\n      sub\n      0x1f\n      and\n      dup3\n      add\n      swap2\n    tag_143:\n      pop\n      pop\n      pop\n      pop\n      pop\n      swap1\n      dup1\n      0x02\n      add\n      sload\n      swap1\n      pop\n      dup4\n      jump\t// out\n        /* \"@openzeppelin/contracts/token/ERC20/ERC20.sol\":3242:3348  function totalSupply() public view virtual override returns (uint256) {... */\n    tag_47:\n        /* \"@openzeppelin/contracts/token/ERC20/ERC20.sol\":3303:3310  uint256 */\n      0x00\n        /* \"@openzeppelin/contracts/token/ERC20/ERC20.sol\":3329:3341  _totalSupply */\n      sload(0x02)\n        /* \"@openzeppelin/contracts/token/ERC20/ERC20.sol\":3322:3341  return _totalSupply */\n      swap1\n      pop\n        /* \"@openzeppelin/contracts/token/ERC20/ERC20.sol\":3242:3348  function totalSupply() public view virtual override returns (uint256) {... */\n      swap1\n      jump\t// out\n        /* \"@openzeppelin/contracts/token/ERC20/ERC20.sol\":5190:5476  function transferFrom(... */\n    tag_53:\n        /* \"@openzeppelin/contracts/token/ERC20/ERC20.sol\":5317:5321  bool */\n      0x00\n        /* \"@openzeppelin/contracts/token/ERC20/ERC20.sol\":5333:5348  address spender */\n      dup1\n        /* \"@openzeppelin/contracts/token/ERC20/ERC20.sol\":5351:5363  _msgSender() */\n      tag_148\n        /* \"@openzeppelin/contracts/token/ERC20/ERC20.sol\":5351:5361  _msgSender */\n      tag_121\n        /* \"@openzeppelin/contracts/token/ERC20/ERC20.sol\":5351:5363  _msgSender() */\n      jump\t// in\n    tag_148:\n        /* \"@openzeppelin/contracts/token/ERC20/ERC20.sol\":5333:5363  address spender = _msgSender() */\n      swap1\n      pop\n        /* \"@openzeppelin/contracts/token/ERC20/ERC20.sol\":5373:5411  _spendAllowance(from, spender, amount) */\n      tag_149\n        /* \"@openzeppelin/contracts/token/ERC20/ERC20.sol\":5389:5393  from */\n      dup6\n        /* \"@openzeppelin/contracts/token/ERC20/ERC20.sol\":5395:5402  spender */\n      dup3\n        /* \"@openzeppelin/contracts/token/ERC20/ERC20.sol\":5404:5410  amount */\n      dup6\n        /* \"@openzeppelin/contracts/token/ERC20/ERC20.sol\":5373:5388  _spendAllowance */\n      tag_150\n        /* \"@openzeppelin/contracts/token/ERC20/ERC20.sol\":5373:5411  _spendAllowance(from, spender, amount) */\n      jump\t// in\n    tag_149:\n        /* \"@openzeppelin/contracts/token/ERC20/ERC20.sol\":5421:5448  _transfer(from, to, amount) */\n      tag_151\n        /* \"@openzeppelin/contracts/token/ERC20/ERC20.sol\":5431:5435  from */\n      dup6\n        /* \"@openzeppelin/contracts/token/ERC20/ERC20.sol\":5437:5439  to */\n      dup6\n        /* \"@openzeppelin/contracts/token/ERC20/ERC20.sol\":5441:5447  amount */\n      dup6\n        /* \"@openzeppelin/contracts/token/ERC20/ERC20.sol\":5421:5430  _transfer */\n      tag_152\n        /* \"@openzeppelin/contracts/token/ERC20/ERC20.sol\":5421:5448  _transfer(from, to, amount) */\n      jump\t// in\n    tag_151:\n        /* \"@openzeppelin/contracts/token/ERC20/ERC20.sol\":5465:5469  true */\n      0x01\n        /* \"@openzeppelin/contracts/token/ERC20/ERC20.sol\":5458:5469  return true */\n      swap2\n      pop\n      pop\n        /* \"@openzeppelin/contracts/token/ERC20/ERC20.sol\":5190:5476  function transferFrom(... */\n      swap4\n      swap3\n      pop\n      pop\n      pop\n      jump\t// out\n        /* \"@openzeppelin/contracts/token/ERC20/ERC20.sol\":3091:3182  function decimals() public view virtual override returns (uint8) {... */\n    tag_56:\n        /* \"@openzeppelin/contracts/token/ERC20/ERC20.sol\":3149:3154  uint8 */\n      0x00\n        /* \"@openzeppelin/contracts/token/ERC20/ERC20.sol\":3173:3175  18 */\n      0x12\n        /* \"@openzeppelin/contracts/token/ERC20/ERC20.sol\":3166:3175  return 18 */\n      swap1\n      pop\n        /* \"@openzeppelin/contracts/token/ERC20/ERC20.sol\":3091:3182  function decimals() public view virtual override returns (uint8) {... */\n      swap1\n      jump\t// out\n        /* \"@openzeppelin/contracts/token/ERC20/ERC20.sol\":5871:6105  function increaseAllowance(address spender, uint256 addedValue) public virtual returns (bool) {... */\n    tag_61:\n        /* \"@openzeppelin/contracts/token/ERC20/ERC20.sol\":5959:5963  bool */\n      0x00\n        /* \"@openzeppelin/contracts/token/ERC20/ERC20.sol\":5975:5988  address owner */\n      dup1\n        /* \"@openzeppelin/contracts/token/ERC20/ERC20.sol\":5991:6003  _msgSender() */\n      tag_155\n        /* \"@openzeppelin/contracts/token/ERC20/ERC20.sol\":5991:6001  _msgSender */\n      tag_121\n        /* \"@openzeppelin/contracts/token/ERC20/ERC20.sol\":5991:6003  _msgSender() */\n      jump\t// in\n    tag_155:\n        /* \"@openzeppelin/contracts/token/ERC20/ERC20.sol\":5975:6003  address owner = _msgSender() */\n      swap1\n      pop\n        /* \"@openzeppelin/contracts/token/ERC20/ERC20.sol\":6013:6077  _approve(owner, spender, allowance(owner, spender) + addedValue) */\n      tag_156\n        /* \"@openzeppelin/contracts/token/ERC20/ERC20.sol\":6022:6027  owner */\n      dup2\n        /* \"@openzeppelin/contracts/token/ERC20/ERC20.sol\":6029:6036  spender */\n      dup6\n        /* \"@openzeppelin/contracts/token/ERC20/ERC20.sol\":6066:6076  addedValue */\n      dup6\n        /* \"@openzeppelin/contracts/token/ERC20/ERC20.sol\":6038:6063  allowance(owner, spender) */\n      tag_157\n        /* \"@openzeppelin/contracts/token/ERC20/ERC20.sol\":6048:6053  owner */\n      dup6\n        /* \"@openzeppelin/contracts/token/ERC20/ERC20.sol\":6055:6062  spender */\n      dup10\n        /* \"@openzeppelin/contracts/token/ERC20/ERC20.sol\":6038:6047  allowance */\n      tag_107\n        /* \"@openzeppelin/contracts/token/ERC20/ERC20.sol\":6038:6063  allowance(owner, spender) */\n      jump\t// in\n    tag_157:\n        /* \"@openzeppelin/contracts/token/ERC20/ERC20.sol\":6038:6076  allowance(owner, spender) + addedValue */\n      tag_158\n      swap2\n      swap1\n      tag_159\n      jump\t// in\n    tag_158:\n        /* \"@openzeppelin/contracts/token/ERC20/ERC20.sol\":6013:6021  _approve */\n      tag_123\n        /* \"@openzeppelin/contracts/token/ERC20/ERC20.sol\":6013:6077  _approve(owner, spender, allowance(owner, spender) + addedValue) */\n      jump\t// in\n    tag_156:\n        /* \"@openzeppelin/contracts/token/ERC20/ERC20.sol\":6094:6098  true */\n      0x01\n        /* \"@openzeppelin/contracts/token/ERC20/ERC20.sol\":6087:6098  return true */\n      swap2\n      pop\n      pop\n        /* \"@openzeppelin/contracts/token/ERC20/ERC20.sol\":5871:6105  function increaseAllowance(address spender, uint256 addedValue) public virtual returns (bool) {... */\n      swap3\n      swap2\n      pop\n      pop\n      jump\t// out\n        /* \"contracts/DegenToken.sol\":814:1151  function mint(address to, uint256 amount) public onlyOwner {... */\n    tag_65:\n        /* \"@openzeppelin/contracts/access/Ownable.sol\":1094:1107  _checkOwner() */\n      tag_161\n        /* \"@openzeppelin/contracts/access/Ownable.sol\":1094:1105  _checkOwner */\n      tag_162\n        /* \"@openzeppelin/contracts/access/Ownable.sol\":1094:1107  _checkOwner() */\n      jump\t// in\n    tag_161:\n        /* \"contracts/DegenToken.sol\":970:971  0 */\n      0x00\n        /* \"contracts/DegenToken.sol\":956:972  to != address(0) */\n      0xffffffffffffffffffffffffffffffffffffffff\n      and\n        /* \"contracts/DegenToken.sol\":956:958  to */\n      dup3\n        /* \"contracts/DegenToken.sol\":956:972  to != address(0) */\n      0xffffffffffffffffffffffffffffffffffffffff\n      and\n      sub\n        /* \"contracts/DegenToken.sol\":948:992  require(to != address(0), \"Invalid address\") */\n      tag_164\n      jumpi\n      mload(0x40)\n      0x08c379a000000000000000000000000000000000000000000000000000000000\n      dup2\n      mstore\n      0x04\n      add\n      tag_165\n      swap1\n      tag_166\n      jump\t// in\n    tag_165:\n      mload(0x40)\n      dup1\n      swap2\n      sub\n      swap1\n      revert\n    tag_164:\n        /* \"contracts/DegenToken.sol\":1076:1077  0 */\n      0x00\n        /* \"contracts/DegenToken.sol\":1067:1073  amount */\n      dup2\n        /* \"contracts/DegenToken.sol\":1067:1077  amount > 0 */\n      gt\n        /* \"contracts/DegenToken.sol\":1059:1116  require(amount > 0, \"Mint amount must be greater than 0\") */\n      tag_167\n      jumpi\n      mload(0x40)\n      0x08c379a000000000000000000000000000000000000000000000000000000000\n      dup2\n      mstore\n      0x04\n      add\n      tag_168\n      swap1\n      tag_169\n      jump\t// in\n    tag_168:\n      mload(0x40)\n      dup1\n      swap2\n      sub\n      swap1\n      revert\n    tag_167:\n        /* \"contracts/DegenToken.sol\":1127:1144  _mint(to, amount) */\n      tag_170\n        /* \"contracts/DegenToken.sol\":1133:1135  to */\n      dup3\n        /* \"contracts/DegenToken.sol\":1137:1143  amount */\n      dup3\n        /* \"contracts/DegenToken.sol\":1127:1132  _mint */\n      tag_171\n        /* \"contracts/DegenToken.sol\":1127:1144  _mint(to, amount) */\n      jump\t// in\n    tag_170:\n        /* \"contracts/DegenToken.sol\":814:1151  function mint(address to, uint256 amount) public onlyOwner {... */\n      pop\n      pop\n      jump\t// out\n        /* \"contracts/DegenToken.sol\":1203:1536  function burn(uint256 amount) public {... */\n    tag_68:\n        /* \"contracts/DegenToken.sol\":1324:1325  0 */\n      0x00\n        /* \"contracts/DegenToken.sol\":1315:1321  amount */\n      dup2\n        /* \"contracts/DegenToken.sol\":1315:1325  amount > 0 */\n      gt\n        /* \"contracts/DegenToken.sol\":1307:1364  require(amount > 0, \"Burn amount must be greater than 0\") */\n      tag_173\n      jumpi\n      mload(0x40)\n      0x08c379a000000000000000000000000000000000000000000000000000000000\n      dup2\n      mstore\n      0x04\n      add\n      tag_174\n      swap1\n      tag_175\n      jump\t// in\n    tag_174:\n      mload(0x40)\n      dup1\n      swap2\n      sub\n      swap1\n      revert\n    tag_173:\n        /* \"contracts/DegenToken.sol\":1462:1468  amount */\n      dup1\n        /* \"contracts/DegenToken.sol\":1437:1458  balanceOf(msg.sender) */\n      tag_176\n        /* \"contracts/DegenToken.sol\":1447:1457  msg.sender */\n      caller\n        /* \"contracts/DegenToken.sol\":1437:1446  balanceOf */\n      tag_85\n        /* \"contracts/DegenToken.sol\":1437:1458  balanceOf(msg.sender) */\n      jump\t// in\n    tag_176:\n        /* \"contracts/DegenToken.sol\":1437:1468  balanceOf(msg.sender) >= amount */\n      lt\n      iszero\n        /* \"contracts/DegenToken.sol\":1429:1493  require(balanceOf(msg.sender) >= amount, \"Insufficient balance\") */\n      tag_177\n      jumpi\n      mload(0x40)\n      0x08c379a000000000000000000000000000000000000000000000000000000000\n      dup2\n      mstore\n      0x04\n      add\n      tag_178\n      swap1\n      tag_179\n      jump\t// in\n    tag_178:\n      mload(0x40)\n      dup1\n      swap2\n      sub\n      swap1\n      revert\n    tag_177:\n        /* \"contracts/DegenToken.sol\":1504:1529  _burn(msg.sender, amount) */\n      tag_180\n        /* \"contracts/DegenToken.sol\":1510:1520  msg.sender */\n      caller\n        /* \"contracts/DegenToken.sol\":1522:1528  amount */\n      dup3\n        /* \"contracts/DegenToken.sol\":1504:1509  _burn */\n      tag_138\n        /* \"contracts/DegenToken.sol\":1504:1529  _burn(msg.sender, amount) */\n      jump\t// in\n    tag_180:\n        /* \"contracts/DegenToken.sol\":1203:1536  function burn(uint256 amount) public {... */\n      pop\n      jump\t// out\n        /* \"contracts/DegenToken.sol\":2761:2883  function checkInventory(address account) public view returns (uint256[] memory) {... */\n    tag_72:\n        /* \"contracts/DegenToken.sol\":2823:2839  uint256[] memory */\n      0x60\n        /* \"contracts/DegenToken.sol\":2858:2867  inventory */\n      0x07\n        /* \"contracts/DegenToken.sol\":2858:2876  inventory[account] */\n      0x00\n        /* \"contracts/DegenToken.sol\":2868:2875  account */\n      dup4\n        /* \"contracts/DegenToken.sol\":2858:2876  inventory[account] */\n      0xffffffffffffffffffffffffffffffffffffffff\n      and\n      0xffffffffffffffffffffffffffffffffffffffff\n      and\n      dup2\n      mstore\n      0x20\n      add\n      swap1\n      dup2\n      mstore\n      0x20\n      add\n      0x00\n      keccak256\n        /* \"contracts/DegenToken.sol\":2851:2876  return inventory[account] */\n      dup1\n      sload\n      dup1\n      0x20\n      mul\n      0x20\n      add\n      mload(0x40)\n      swap1\n      dup2\n      add\n      0x40\n      mstore\n      dup1\n      swap3\n      swap2\n      swap1\n      dup2\n      dup2\n      mstore\n      0x20\n      add\n      dup3\n      dup1\n      sload\n      dup1\n      iszero\n      tag_182\n      jumpi\n      0x20\n      mul\n      dup3\n      add\n      swap2\n      swap1\n      0x00\n      mstore\n      keccak256(0x00, 0x20)\n      swap1\n    tag_183:\n      dup2\n      sload\n      dup2\n      mstore\n      0x20\n      add\n      swap1\n      0x01\n      add\n      swap1\n      dup1\n      dup4\n      gt\n      tag_183\n      jumpi\n    tag_182:\n      pop\n      pop\n      pop\n      pop\n      pop\n      swap1\n      pop\n        /* \"contracts/DegenToken.sol\":2761:2883  function checkInventory(address account) public view returns (uint256[] memory) {... */\n      swap2\n      swap1\n      pop\n      jump\t// out\n        /* \"contracts/DegenToken.sol\":2195:2306  function checkBalance(address account) public view returns (uint256) {... */\n    tag_77:\n        /* \"contracts/DegenToken.sol\":2255:2262  uint256 */\n      0x00\n        /* \"contracts/DegenToken.sol\":2281:2299  balanceOf(account) */\n      tag_185\n        /* \"contracts/DegenToken.sol\":2291:2298  account */\n      dup3\n        /* \"contracts/DegenToken.sol\":2281:2290  balanceOf */\n      tag_85\n        /* \"contracts/DegenToken.sol\":2281:2299  balanceOf(account) */\n      jump\t// in\n    tag_185:\n        /* \"contracts/DegenToken.sol\":2274:2299  return balanceOf(account) */\n      swap1\n      pop\n        /* \"contracts/DegenToken.sol\":2195:2306  function checkBalance(address account) public view returns (uint256) {... */\n      swap2\n      swap1\n      pop\n      jump\t// out\n        /* \"contracts/DegenToken.sol\":365:411  mapping(address => uint256[]) public inventory */\n    tag_81:\n      mstore(0x20, 0x07)\n      dup2\n      0x00\n      mstore\n      keccak256(0x00, 0x40)\n      dup2\n      dup2\n      sload\n      dup2\n      lt\n      tag_186\n      jumpi\n      0x00\n      dup1\n      revert\n    tag_186:\n      swap1\n      0x00\n      mstore\n      keccak256(0x00, 0x20)\n      add\n      0x00\n      swap2\n      pop\n      swap2\n      pop\n      pop\n      sload\n      dup2\n      jump\t// out\n        /* \"@openzeppelin/contracts/token/ERC20/ERC20.sol\":3406:3531  function balanceOf(address account) public view virtual override returns (uint256) {... */\n    tag_85:\n        /* \"@openzeppelin/contracts/token/ERC20/ERC20.sol\":3480:3487  uint256 */\n      0x00\n        /* \"@openzeppelin/contracts/token/ERC20/ERC20.sol\":3506:3515  _balances */\n      dup1\n        /* \"@openzeppelin/contracts/token/ERC20/ERC20.sol\":3506:3524  _balances[account] */\n      0x00\n        /* \"@openzeppelin/contracts/token/ERC20/ERC20.sol\":3516:3523  account */\n      dup4\n        /* \"@openzeppelin/contracts/token/ERC20/ERC20.sol\":3506:3524  _balances[account] */\n      0xffffffffffffffffffffffffffffffffffffffff\n      and\n      0xffffffffffffffffffffffffffffffffffffffff\n      and\n      dup2\n      mstore\n      0x20\n      add\n      swap1\n      dup2\n      mstore\n      0x20\n      add\n      0x00\n      keccak256\n      sload\n        /* \"@openzeppelin/contracts/token/ERC20/ERC20.sol\":3499:3524  return _balances[account] */\n      swap1\n      pop\n        /* \"@openzeppelin/contracts/token/ERC20/ERC20.sol\":3406:3531  function balanceOf(address account) public view virtual override returns (uint256) {... */\n      swap2\n      swap1\n      pop\n      jump\t// out\n        /* \"@openzeppelin/contracts/access/Ownable.sol\":1831:1932  function renounceOwnership() public virtual onlyOwner {... */\n    tag_88:\n        /* \"@openzeppelin/contracts/access/Ownable.sol\":1094:1107  _checkOwner() */\n      tag_190\n        /* \"@openzeppelin/contracts/access/Ownable.sol\":1094:1105  _checkOwner */\n      tag_162\n        /* \"@openzeppelin/contracts/access/Ownable.sol\":1094:1107  _checkOwner() */\n      jump\t// in\n    tag_190:\n        /* \"@openzeppelin/contracts/access/Ownable.sol\":1895:1925  _transferOwnership(address(0)) */\n      tag_192\n        /* \"@openzeppelin/contracts/access/Ownable.sol\":1922:1923  0 */\n      0x00\n        /* \"@openzeppelin/contracts/access/Ownable.sol\":1895:1913  _transferOwnership */\n      tag_193\n        /* \"@openzeppelin/contracts/access/Ownable.sol\":1895:1925  _transferOwnership(address(0)) */\n      jump\t// in\n    tag_192:\n        /* \"@openzeppelin/contracts/access/Ownable.sol\":1831:1932  function renounceOwnership() public virtual onlyOwner {... */\n      jump\t// out\n        /* \"@openzeppelin/contracts/access/Ownable.sol\":1201:1286  function owner() public view virtual returns (address) {... */\n    tag_90:\n        /* \"@openzeppelin/contracts/access/Ownable.sol\":1247:1254  address */\n      0x00\n        /* \"@openzeppelin/contracts/access/Ownable.sol\":1273:1279  _owner */\n      0x05\n      0x00\n      swap1\n      sload\n      swap1\n      0x0100\n      exp\n      swap1\n      div\n      0xffffffffffffffffffffffffffffffffffffffff\n      and\n        /* \"@openzeppelin/contracts/access/Ownable.sol\":1266:1279  return _owner */\n      swap1\n      pop\n        /* \"@openzeppelin/contracts/access/Ownable.sol\":1201:1286  function owner() public view virtual returns (address) {... */\n      swap1\n      jump\t// out\n        /* \"@openzeppelin/contracts/token/ERC20/ERC20.sol\":2365:2467  function symbol() public view virtual override returns (string memory) {... */\n    tag_94:\n        /* \"@openzeppelin/contracts/token/ERC20/ERC20.sol\":2421:2434  string memory */\n      0x60\n        /* \"@openzeppelin/contracts/token/ERC20/ERC20.sol\":2453:2460  _symbol */\n      0x04\n        /* \"@openzeppelin/contracts/token/ERC20/ERC20.sol\":2446:2460  return _symbol */\n      dup1\n      sload\n      tag_196\n      swap1\n      tag_114\n      jump\t// in\n    tag_196:\n      dup1\n      0x1f\n      add\n      0x20\n      dup1\n      swap2\n      div\n      mul\n      0x20\n      add\n      mload(0x40)\n      swap1\n      dup2\n      add\n      0x40\n      mstore\n      dup1\n      swap3\n      swap2\n      swap1\n      dup2\n      dup2\n      mstore\n      0x20\n      add\n      dup3\n      dup1\n      sload\n      tag_197\n      swap1\n      tag_114\n      jump\t// in\n    tag_197:\n      dup1\n      iszero\n      tag_198\n      jumpi\n      dup1\n      0x1f\n      lt\n      tag_199\n      jumpi\n      0x0100\n      dup1\n      dup4\n      sload\n      div\n      mul\n      dup4\n      mstore\n      swap2\n      0x20\n      add\n      swap2\n      jump(tag_198)\n    tag_199:\n      dup3\n      add\n      swap2\n      swap1\n      0x00\n      mstore\n      keccak256(0x00, 0x20)\n      swap1\n    tag_200:\n      dup2\n      sload\n      dup2\n      mstore\n      swap1\n      0x01\n      add\n      swap1\n      0x20\n      add\n      dup1\n      dup4\n      gt\n      tag_200\n      jumpi\n      dup3\n      swap1\n      sub\n      0x1f\n      and\n      dup3\n      add\n      swap2\n    tag_198:\n      pop\n      pop\n      pop\n      pop\n      pop\n      swap1\n      pop\n        /* \"@openzeppelin/contracts/token/ERC20/ERC20.sol\":2365:2467  function symbol() public view virtual override returns (string memory) {... */\n      swap1\n      jump\t// out\n        /* \"@openzeppelin/contracts/token/ERC20/ERC20.sol\":6592:7019  function decreaseAllowance(address spender, uint256 subtractedValue) public virtual returns (bool) {... */\n    tag_98:\n        /* \"@openzeppelin/contracts/token/ERC20/ERC20.sol\":6685:6689  bool */\n      0x00\n        /* \"@openzeppelin/contracts/token/ERC20/ERC20.sol\":6701:6714  address owner */\n      dup1\n        /* \"@openzeppelin/contracts/token/ERC20/ERC20.sol\":6717:6729  _msgSender() */\n      tag_202\n        /* \"@openzeppelin/contracts/token/ERC20/ERC20.sol\":6717:6727  _msgSender */\n      tag_121\n        /* \"@openzeppelin/contracts/token/ERC20/ERC20.sol\":6717:6729  _msgSender() */\n      jump\t// in\n    tag_202:\n        /* \"@openzeppelin/contracts/token/ERC20/ERC20.sol\":6701:6729  address owner = _msgSender() */\n      swap1\n      pop\n        /* \"@openzeppelin/contracts/token/ERC20/ERC20.sol\":6739:6763  uint256 currentAllowance */\n      0x00\n        /* \"@openzeppelin/contracts/token/ERC20/ERC20.sol\":6766:6791  allowance(owner, spender) */\n      tag_203\n        /* \"@openzeppelin/contracts/token/ERC20/ERC20.sol\":6776:6781  owner */\n      dup3\n        /* \"@openzeppelin/contracts/token/ERC20/ERC20.sol\":6783:6790  spender */\n      dup7\n        /* \"@openzeppelin/contracts/token/ERC20/ERC20.sol\":6766:6775  allowance */\n      tag_107\n        /* \"@openzeppelin/contracts/token/ERC20/ERC20.sol\":6766:6791  allowance(owner, spender) */\n      jump\t// in\n    tag_203:\n        /* \"@openzeppelin/contracts/token/ERC20/ERC20.sol\":6739:6791  uint256 currentAllowance = allowance(owner, spender) */\n      swap1\n      pop\n        /* \"@openzeppelin/contracts/token/ERC20/ERC20.sol\":6829:6844  subtractedValue */\n      dup4\n        /* \"@openzeppelin/contracts/token/ERC20/ERC20.sol\":6809:6825  currentAllowance */\n      dup2\n        /* \"@openzeppelin/contracts/token/ERC20/ERC20.sol\":6809:6844  currentAllowance >= subtractedValue */\n      lt\n      iszero\n        /* \"@openzeppelin/contracts/token/ERC20/ERC20.sol\":6801:6886  require(currentAllowance >= subtractedValue, \"ERC20: decreased allowance below zero\") */\n      tag_204\n      jumpi\n      mload(0x40)\n      0x08c379a000000000000000000000000000000000000000000000000000000000\n      dup2\n      mstore\n      0x04\n      add\n      tag_205\n      swap1\n      tag_206\n      jump\t// in\n    tag_205:\n      mload(0x40)\n      dup1\n      swap2\n      sub\n      swap1\n      revert\n    tag_204:\n        /* \"@openzeppelin/contracts/token/ERC20/ERC20.sol\":6920:6980  _approve(owner, spender, currentAllowance - subtractedValue) */\n      tag_207\n        /* \"@openzeppelin/contracts/token/ERC20/ERC20.sol\":6929:6934  owner */\n      dup3\n        /* \"@openzeppelin/contracts/token/ERC20/ERC20.sol\":6936:6943  spender */\n      dup7\n        /* \"@openzeppelin/contracts/token/ERC20/ERC20.sol\":6964:6979  subtractedValue */\n      dup7\n        /* \"@openzeppelin/contracts/token/ERC20/ERC20.sol\":6945:6961  currentAllowance */\n      dup5\n        /* \"@openzeppelin/contracts/token/ERC20/ERC20.sol\":6945:6979  currentAllowance - subtractedValue */\n      sub\n        /* \"@openzeppelin/contracts/token/ERC20/ERC20.sol\":6920:6928  _approve */\n      tag_123\n        /* \"@openzeppelin/contracts/token/ERC20/ERC20.sol\":6920:6980  _approve(owner, spender, currentAllowance - subtractedValue) */\n      jump\t// in\n    tag_207:\n        /* \"@openzeppelin/contracts/token/ERC20/ERC20.sol\":7008:7012  true */\n      0x01\n        /* \"@openzeppelin/contracts/token/ERC20/ERC20.sol\":7001:7012  return true */\n      swap3\n      pop\n      pop\n      pop\n        /* \"@openzeppelin/contracts/token/ERC20/ERC20.sol\":6592:7019  function decreaseAllowance(address spender, uint256 subtractedValue) public virtual returns (bool) {... */\n      swap3\n      swap2\n      pop\n      pop\n      jump\t// out\n        /* \"contracts/DegenToken.sol\":1609:2147  function transfer(address to, uint256 amount) public override returns (bool) {... */\n    tag_102:\n        /* \"contracts/DegenToken.sol\":1680:1684  bool */\n      0x00\n        /* \"contracts/DegenToken.sol\":1783:1784  0 */\n      dup1\n        /* \"contracts/DegenToken.sol\":1769:1785  to != address(0) */\n      0xffffffffffffffffffffffffffffffffffffffff\n      and\n        /* \"contracts/DegenToken.sol\":1769:1771  to */\n      dup4\n        /* \"contracts/DegenToken.sol\":1769:1785  to != address(0) */\n      0xffffffffffffffffffffffffffffffffffffffff\n      and\n      sub\n        /* \"contracts/DegenToken.sol\":1761:1815  require(to != address(0), \"Invalid recipient address\") */\n      tag_209\n      jumpi\n      mload(0x40)\n      0x08c379a000000000000000000000000000000000000000000000000000000000\n      dup2\n      mstore\n      0x04\n      add\n      tag_210\n      swap1\n      tag_211\n      jump\t// in\n    tag_210:\n      mload(0x40)\n      dup1\n      swap2\n      sub\n      swap1\n      revert\n    tag_209:\n        /* \"contracts/DegenToken.sol\":1901:1902  0 */\n      0x00\n        /* \"contracts/DegenToken.sol\":1892:1898  amount */\n      dup3\n        /* \"contracts/DegenToken.sol\":1892:1902  amount > 0 */\n      gt\n        /* \"contracts/DegenToken.sol\":1884:1945  require(amount > 0, \"Transfer amount must be greater than 0\") */\n      tag_212\n      jumpi\n      mload(0x40)\n      0x08c379a000000000000000000000000000000000000000000000000000000000\n      dup2\n      mstore\n      0x04\n      add\n      tag_213\n      swap1\n      tag_214\n      jump\t// in\n    tag_213:\n      mload(0x40)\n      dup1\n      swap2\n      sub\n      swap1\n      revert\n    tag_212:\n        /* \"contracts/DegenToken.sol\":2043:2049  amount */\n      dup2\n        /* \"contracts/DegenToken.sol\":2018:2039  balanceOf(msg.sender) */\n      tag_215\n        /* \"contracts/DegenToken.sol\":2028:2038  msg.sender */\n      caller\n        /* \"contracts/DegenToken.sol\":2018:2027  balanceOf */\n      tag_85\n        /* \"contracts/DegenToken.sol\":2018:2039  balanceOf(msg.sender) */\n      jump\t// in\n    tag_215:\n        /* \"contracts/DegenToken.sol\":2018:2049  balanceOf(msg.sender) >= amount */\n      lt\n      iszero\n        /* \"contracts/DegenToken.sol\":2010:2074  require(balanceOf(msg.sender) >= amount, \"Insufficient balance\") */\n      tag_216\n      jumpi\n      mload(0x40)\n      0x08c379a000000000000000000000000000000000000000000000000000000000\n      dup2\n      mstore\n      0x04\n      add\n      tag_217\n      swap1\n      tag_179\n      jump\t// in\n    tag_217:\n      mload(0x40)\n      dup1\n      swap2\n      sub\n      swap1\n      revert\n    tag_216:\n        /* \"contracts/DegenToken.sol\":2085:2118  _transfer(msg.sender, to, amount) */\n      tag_218\n        /* \"contracts/DegenToken.sol\":2095:2105  msg.sender */\n      caller\n        /* \"contracts/DegenToken.sol\":2107:2109  to */\n      dup5\n        /* \"contracts/DegenToken.sol\":2111:2117  amount */\n      dup5\n        /* \"contracts/DegenToken.sol\":2085:2094  _transfer */\n      tag_152\n        /* \"contracts/DegenToken.sol\":2085:2118  _transfer(msg.sender, to, amount) */\n      jump\t// in\n    tag_218:\n        /* \"contracts/DegenToken.sol\":2136:2140  true */\n      0x01\n        /* \"contracts/DegenToken.sol\":2129:2140  return true */\n      swap1\n      pop\n        /* \"contracts/DegenToken.sol\":1609:2147  function transfer(address to, uint256 amount) public override returns (bool) {... */\n      swap3\n      swap2\n      pop\n      pop\n      jump\t// out\n        /* \"@openzeppelin/contracts/token/ERC20/ERC20.sol\":3974:4123  function allowance(address owner, address spender) public view virtual override returns (uint256) {... */\n    tag_107:\n        /* \"@openzeppelin/contracts/token/ERC20/ERC20.sol\":4063:4070  uint256 */\n      0x00\n        /* \"@openzeppelin/contracts/token/ERC20/ERC20.sol\":4089:4100  _allowances */\n      0x01\n        /* \"@openzeppelin/contracts/token/ERC20/ERC20.sol\":4089:4107  _allowances[owner] */\n      0x00\n        /* \"@openzeppelin/contracts/token/ERC20/ERC20.sol\":4101:4106  owner */\n      dup5\n        /* \"@openzeppelin/contracts/token/ERC20/ERC20.sol\":4089:4107  _allowances[owner] */\n      0xffffffffffffffffffffffffffffffffffffffff\n      and\n      0xffffffffffffffffffffffffffffffffffffffff\n      and\n      dup2\n      mstore\n      0x20\n      add\n      swap1\n      dup2\n      mstore\n      0x20\n      add\n      0x00\n      keccak256\n        /* \"@openzeppelin/contracts/token/ERC20/ERC20.sol\":4089:4116  _allowances[owner][spender] */\n      0x00\n        /* \"@openzeppelin/contracts/token/ERC20/ERC20.sol\":4108:4115  spender */\n      dup4\n        /* \"@openzeppelin/contracts/token/ERC20/ERC20.sol\":4089:4116  _allowances[owner][spender] */\n      0xffffffffffffffffffffffffffffffffffffffff\n      and\n      0xffffffffffffffffffffffffffffffffffffffff\n      and\n      dup2\n      mstore\n      0x20\n      add\n      swap1\n      dup2\n      mstore\n      0x20\n      add\n      0x00\n      keccak256\n      sload\n        /* \"@openzeppelin/contracts/token/ERC20/ERC20.sol\":4082:4116  return _allowances[owner][spender] */\n      swap1\n      pop\n        /* \"@openzeppelin/contracts/token/ERC20/ERC20.sol\":3974:4123  function allowance(address owner, address spender) public view virtual override returns (uint256) {... */\n      swap3\n      swap2\n      pop\n      pop\n      jump\t// out\n        /* \"@openzeppelin/contracts/access/Ownable.sol\":2081:2279  function transferOwnership(address newOwner) public virtual onlyOwner {... */\n    tag_111:\n        /* \"@openzeppelin/contracts/access/Ownable.sol\":1094:1107  _checkOwner() */\n      tag_221\n        /* \"@openzeppelin/contracts/access/Ownable.sol\":1094:1105  _checkOwner */\n      tag_162\n        /* \"@openzeppelin/contracts/access/Ownable.sol\":1094:1107  _checkOwner() */\n      jump\t// in\n    tag_221:\n        /* \"@openzeppelin/contracts/access/Ownable.sol\":2189:2190  0 */\n      0x00\n        /* \"@openzeppelin/contracts/access/Ownable.sol\":2169:2191  newOwner != address(0) */\n      0xffffffffffffffffffffffffffffffffffffffff\n      and\n        /* \"@openzeppelin/contracts/access/Ownable.sol\":2169:2177  newOwner */\n      dup2\n        /* \"@openzeppelin/contracts/access/Ownable.sol\":2169:2191  newOwner != address(0) */\n      0xffffffffffffffffffffffffffffffffffffffff\n      and\n      sub\n        /* \"@openzeppelin/contracts/access/Ownable.sol\":2161:2234  require(newOwner != address(0), \"Ownable: new owner is the zero address\") */\n      tag_223\n      jumpi\n      mload(0x40)\n      0x08c379a000000000000000000000000000000000000000000000000000000000\n      dup2\n      mstore\n      0x04\n      add\n      tag_224\n      swap1\n      tag_225\n      jump\t// in\n    tag_224:\n      mload(0x40)\n      dup1\n      swap2\n      sub\n      swap1\n      revert\n    tag_223:\n        /* \"@openzeppelin/contracts/access/Ownable.sol\":2244:2272  _transferOwnership(newOwner) */\n      tag_226\n        /* \"@openzeppelin/contracts/access/Ownable.sol\":2263:2271  newOwner */\n      dup2\n        /* \"@openzeppelin/contracts/access/Ownable.sol\":2244:2262  _transferOwnership */\n      tag_193\n        /* \"@openzeppelin/contracts/access/Ownable.sol\":2244:2272  _transferOwnership(newOwner) */\n      jump\t// in\n    tag_226:\n        /* \"@openzeppelin/contracts/access/Ownable.sol\":2081:2279  function transferOwnership(address newOwner) public virtual onlyOwner {... */\n      pop\n      jump\t// out\n        /* \"@openzeppelin/contracts/utils/Context.sol\":640:736  function _msgSender() internal view virtual returns (address) {... */\n    tag_121:\n        /* \"@openzeppelin/contracts/utils/Context.sol\":693:700  address */\n      0x00\n        /* \"@openzeppelin/contracts/utils/Context.sol\":719:729  msg.sender */\n      caller\n        /* \"@openzeppelin/contracts/utils/Context.sol\":712:729  return msg.sender */\n      swap1\n      pop\n        /* \"@openzeppelin/contracts/utils/Context.sol\":640:736  function _msgSender() internal view virtual returns (address) {... */\n      swap1\n      jump\t// out\n        /* \"@openzeppelin/contracts/token/ERC20/ERC20.sol\":10504:10874  function _approve(... */\n    tag_123:\n        /* \"@openzeppelin/contracts/token/ERC20/ERC20.sol\":10652:10653  0 */\n      0x00\n        /* \"@openzeppelin/contracts/token/ERC20/ERC20.sol\":10635:10654  owner != address(0) */\n      0xffffffffffffffffffffffffffffffffffffffff\n      and\n        /* \"@openzeppelin/contracts/token/ERC20/ERC20.sol\":10635:10640  owner */\n      dup4\n        /* \"@openzeppelin/contracts/token/ERC20/ERC20.sol\":10635:10654  owner != address(0) */\n      0xffffffffffffffffffffffffffffffffffffffff\n      and\n      sub\n        /* \"@openzeppelin/contracts/token/ERC20/ERC20.sol\":10627:10695  require(owner != address(0), \"ERC20: approve from the zero address\") */\n      tag_229\n      jumpi\n      mload(0x40)\n      0x08c379a000000000000000000000000000000000000000000000000000000000\n      dup2\n      mstore\n      0x04\n      add\n      tag_230\n      swap1\n      tag_231\n      jump\t// in\n    tag_230:\n      mload(0x40)\n      dup1\n      swap2\n      sub\n      swap1\n      revert\n    tag_229:\n        /* \"@openzeppelin/contracts/token/ERC20/ERC20.sol\":10732:10733  0 */\n      0x00\n        /* \"@openzeppelin/contracts/token/ERC20/ERC20.sol\":10713:10734  spender != address(0) */\n      0xffffffffffffffffffffffffffffffffffffffff\n      and\n        /* \"@openzeppelin/contracts/token/ERC20/ERC20.sol\":10713:10720  spender */\n      dup3\n        /* \"@openzeppelin/contracts/token/ERC20/ERC20.sol\":10713:10734  spender != address(0) */\n      0xffffffffffffffffffffffffffffffffffffffff\n      and\n      sub\n        /* \"@openzeppelin/contracts/token/ERC20/ERC20.sol\":10705:10773  require(spender != address(0), \"ERC20: approve to the zero address\") */\n      tag_232\n      jumpi\n      mload(0x40)\n      0x08c379a000000000000000000000000000000000000000000000000000000000\n      dup2\n      mstore\n      0x04\n      add\n      tag_233\n      swap1\n      tag_234\n      jump\t// in\n    tag_233:\n      mload(0x40)\n      dup1\n      swap2\n      sub\n      swap1\n      revert\n    tag_232:\n        /* \"@openzeppelin/contracts/token/ERC20/ERC20.sol\":10814:10820  amount */\n      dup1\n        /* \"@openzeppelin/contracts/token/ERC20/ERC20.sol\":10784:10795  _allowances */\n      0x01\n        /* \"@openzeppelin/contracts/token/ERC20/ERC20.sol\":10784:10802  _allowances[owner] */\n      0x00\n        /* \"@openzeppelin/contracts/token/ERC20/ERC20.sol\":10796:10801  owner */\n      dup6\n        /* \"@openzeppelin/contracts/token/ERC20/ERC20.sol\":10784:10802  _allowances[owner] */\n      0xffffffffffffffffffffffffffffffffffffffff\n      and\n      0xffffffffffffffffffffffffffffffffffffffff\n      and\n      dup2\n      mstore\n      0x20\n      add\n      swap1\n      dup2\n      mstore\n      0x20\n      add\n      0x00\n      keccak256\n        /* \"@openzeppelin/contracts/token/ERC20/ERC20.sol\":10784:10811  _allowances[owner][spender] */\n      0x00\n        /* \"@openzeppelin/contracts/token/ERC20/ERC20.sol\":10803:10810  spender */\n      dup5\n        /* \"@openzeppelin/contracts/token/ERC20/ERC20.sol\":10784:10811  _allowances[owner][spender] */\n      0xffffffffffffffffffffffffffffffffffffffff\n      and\n      0xffffffffffffffffffffffffffffffffffffffff\n      and\n      dup2\n      mstore\n      0x20\n      add\n      swap1\n      dup2\n      mstore\n      0x20\n      add\n      0x00\n      keccak256\n        /* \"@openzeppelin/contracts/token/ERC20/ERC20.sol\":10784:10820  _allowances[owner][spender] = amount */\n      dup2\n      swap1\n      sstore\n      pop\n        /* \"@openzeppelin/contracts/token/ERC20/ERC20.sol\":10851:10858  spender */\n      dup2\n        /* \"@openzeppelin/contracts/token/ERC20/ERC20.sol\":10835:10867  Approval(owner, spender, amount) */\n      0xffffffffffffffffffffffffffffffffffffffff\n      and\n        /* \"@openzeppelin/contracts/token/ERC20/ERC20.sol\":10844:10849  owner */\n      dup4\n        /* \"@openzeppelin/contracts/token/ERC20/ERC20.sol\":10835:10867  Approval(owner, spender, amount) */\n      0xffffffffffffffffffffffffffffffffffffffff\n      and\n      0x8c5be1e5ebec7d5bd14f71427d1e84f3dd0314c0f7b2291e5b200ac8c7c3b925\n        /* \"@openzeppelin/contracts/token/ERC20/ERC20.sol\":10860:10866  amount */\n      dup4\n        /* \"@openzeppelin/contracts/token/ERC20/ERC20.sol\":10835:10867  Approval(owner, spender, amount) */\n      mload(0x40)\n      tag_235\n      swap2\n      swap1\n      tag_49\n      jump\t// in\n    tag_235:\n      mload(0x40)\n      dup1\n      swap2\n      sub\n      swap1\n      log3\n        /* \"@openzeppelin/contracts/token/ERC20/ERC20.sol\":10504:10874  function _approve(... */\n      pop\n      pop\n      pop\n      jump\t// out\n        /* \"@openzeppelin/contracts/token/ERC20/ERC20.sol\":9422:10081  function _burn(address account, uint256 amount) internal virtual {... */\n    tag_138:\n        /* \"@openzeppelin/contracts/token/ERC20/ERC20.sol\":9524:9525  0 */\n      0x00\n        /* \"@openzeppelin/contracts/token/ERC20/ERC20.sol\":9505:9526  account != address(0) */\n      0xffffffffffffffffffffffffffffffffffffffff\n      and\n        /* \"@openzeppelin/contracts/token/ERC20/ERC20.sol\":9505:9512  account */\n      dup3\n        /* \"@openzeppelin/contracts/token/ERC20/ERC20.sol\":9505:9526  account != address(0) */\n      0xffffffffffffffffffffffffffffffffffffffff\n      and\n      sub\n        /* \"@openzeppelin/contracts/token/ERC20/ERC20.sol\":9497:9564  require(account != address(0), \"ERC20: burn from the zero address\") */\n      tag_237\n      jumpi\n      mload(0x40)\n      0x08c379a000000000000000000000000000000000000000000000000000000000\n      dup2\n      mstore\n      0x04\n      add\n      tag_238\n      swap1\n      tag_239\n      jump\t// in\n    tag_238:\n      mload(0x40)\n      dup1\n      swap2\n      sub\n      swap1\n      revert\n    tag_237:\n        /* \"@openzeppelin/contracts/token/ERC20/ERC20.sol\":9575:9624  _beforeTokenTransfer(account, address(0), amount) */\n      tag_240\n        /* \"@openzeppelin/contracts/token/ERC20/ERC20.sol\":9596:9603  account */\n      dup3\n        /* \"@openzeppelin/contracts/token/ERC20/ERC20.sol\":9613:9614  0 */\n      0x00\n        /* \"@openzeppelin/contracts/token/ERC20/ERC20.sol\":9617:9623  amount */\n      dup4\n        /* \"@openzeppelin/contracts/token/ERC20/ERC20.sol\":9575:9595  _beforeTokenTransfer */\n      tag_241\n        /* \"@openzeppelin/contracts/token/ERC20/ERC20.sol\":9575:9624  _beforeTokenTransfer(account, address(0), amount) */\n      jump\t// in\n    tag_240:\n        /* \"@openzeppelin/contracts/token/ERC20/ERC20.sol\":9635:9657  uint256 accountBalance */\n      0x00\n        /* \"@openzeppelin/contracts/token/ERC20/ERC20.sol\":9660:9669  _balances */\n      dup1\n        /* \"@openzeppelin/contracts/token/ERC20/ERC20.sol\":9660:9678  _balances[account] */\n      0x00\n        /* \"@openzeppelin/contracts/token/ERC20/ERC20.sol\":9670:9677  account */\n      dup5\n        /* \"@openzeppelin/contracts/token/ERC20/ERC20.sol\":9660:9678  _balances[account] */\n      0xffffffffffffffffffffffffffffffffffffffff\n      and\n      0xffffffffffffffffffffffffffffffffffffffff\n      and\n      dup2\n      mstore\n      0x20\n      add\n      swap1\n      dup2\n      mstore\n      0x20\n      add\n      0x00\n      keccak256\n      sload\n        /* \"@openzeppelin/contracts/token/ERC20/ERC20.sol\":9635:9678  uint256 accountBalance = _balances[account] */\n      swap1\n      pop\n        /* \"@openzeppelin/contracts/token/ERC20/ERC20.sol\":9714:9720  amount */\n      dup2\n        /* \"@openzeppelin/contracts/token/ERC20/ERC20.sol\":9696:9710  accountBalance */\n      dup2\n        /* \"@openzeppelin/contracts/token/ERC20/ERC20.sol\":9696:9720  accountBalance >= amount */\n      lt\n      iszero\n        /* \"@openzeppelin/contracts/token/ERC20/ERC20.sol\":9688:9759  require(accountBalance >= amount, \"ERC20: burn amount exceeds balance\") */\n      tag_242\n      jumpi\n      mload(0x40)\n      0x08c379a000000000000000000000000000000000000000000000000000000000\n      dup2\n      mstore\n      0x04\n      add\n      tag_243\n      swap1\n      tag_244\n      jump\t// in\n    tag_243:\n      mload(0x40)\n      dup1\n      swap2\n      sub\n      swap1\n      revert\n    tag_242:\n        /* \"@openzeppelin/contracts/token/ERC20/ERC20.sol\":9831:9837  amount */\n      dup2\n        /* \"@openzeppelin/contracts/token/ERC20/ERC20.sol\":9814:9828  accountBalance */\n      dup2\n        /* \"@openzeppelin/contracts/token/ERC20/ERC20.sol\":9814:9837  accountBalance - amount */\n      sub\n        /* \"@openzeppelin/contracts/token/ERC20/ERC20.sol\":9793:9802  _balances */\n      0x00\n        /* \"@openzeppelin/contracts/token/ERC20/ERC20.sol\":9793:9811  _balances[account] */\n      dup1\n        /* \"@openzeppelin/contracts/token/ERC20/ERC20.sol\":9803:9810  account */\n      dup6\n        /* \"@openzeppelin/contracts/token/ERC20/ERC20.sol\":9793:9811  _balances[account] */\n      0xffffffffffffffffffffffffffffffffffffffff\n      and\n      0xffffffffffffffffffffffffffffffffffffffff\n      and\n      dup2\n      mstore\n      0x20\n      add\n      swap1\n      dup2\n      mstore\n      0x20\n      add\n      0x00\n      keccak256\n        /* \"@openzeppelin/contracts/token/ERC20/ERC20.sol\":9793:9837  _balances[account] = accountBalance - amount */\n      dup2\n      swap1\n      sstore\n      pop\n        /* \"@openzeppelin/contracts/token/ERC20/ERC20.sol\":9946:9952  amount */\n      dup2\n        /* \"@openzeppelin/contracts/token/ERC20/ERC20.sol\":9930:9942  _totalSupply */\n      0x02\n      0x00\n        /* \"@openzeppelin/contracts/token/ERC20/ERC20.sol\":9930:9952  _totalSupply -= amount */\n      dup3\n      dup3\n      sload\n      sub\n      swap3\n      pop\n      pop\n      dup2\n      swap1\n      sstore\n      pop\n        /* \"@openzeppelin/contracts/token/ERC20/ERC20.sol\":10004:10005  0 */\n      0x00\n        /* \"@openzeppelin/contracts/token/ERC20/ERC20.sol\":9978:10015  Transfer(account, address(0), amount) */\n      0xffffffffffffffffffffffffffffffffffffffff\n      and\n        /* \"@openzeppelin/contracts/token/ERC20/ERC20.sol\":9987:9994  account */\n      dup4\n        /* \"@openzeppelin/contracts/token/ERC20/ERC20.sol\":9978:10015  Transfer(account, address(0), amount) */\n      0xffffffffffffffffffffffffffffffffffffffff\n      and\n      0xddf252ad1be2c89b69c2b068fc378daa952ba7f163c4a11628f55a4df523b3ef\n        /* \"@openzeppelin/contracts/token/ERC20/ERC20.sol\":10008:10014  amount */\n      dup5\n        /* \"@openzeppelin/contracts/token/ERC20/ERC20.sol\":9978:10015  Transfer(account, address(0), amount) */\n      mload(0x40)\n      tag_245\n      swap2\n      swap1\n      tag_49\n      jump\t// in\n    tag_245:\n      mload(0x40)\n      dup1\n      swap2\n      sub\n      swap1\n      log3\n        /* \"@openzeppelin/contracts/token/ERC20/ERC20.sol\":10026:10074  _afterTokenTransfer(account, address(0), amount) */\n      tag_246\n        /* \"@openzeppelin/contracts/token/ERC20/ERC20.sol\":10046:10053  account */\n      dup4\n        /* \"@openzeppelin/contracts/token/ERC20/ERC20.sol\":10063:10064  0 */\n      0x00\n        /* \"@openzeppelin/contracts/token/ERC20/ERC20.sol\":10067:10073  amount */\n      dup5\n        /* \"@openzeppelin/contracts/token/ERC20/ERC20.sol\":10026:10045  _afterTokenTransfer */\n      tag_247\n        /* \"@openzeppelin/contracts/token/ERC20/ERC20.sol\":10026:10074  _afterTokenTransfer(account, address(0), amount) */\n      jump\t// in\n    tag_246:\n        /* \"@openzeppelin/contracts/token/ERC20/ERC20.sol\":9487:10081  {... */\n      pop\n        /* \"@openzeppelin/contracts/token/ERC20/ERC20.sol\":9422:10081  function _burn(address account, uint256 amount) internal virtual {... */\n      pop\n      pop\n      jump\t// out\n        /* \"@openzeppelin/contracts/token/ERC20/ERC20.sol\":11155:11596  function _spendAllowance(... */\n    tag_150:\n        /* \"@openzeppelin/contracts/token/ERC20/ERC20.sol\":11285:11309  uint256 currentAllowance */\n      0x00\n        /* \"@openzeppelin/contracts/token/ERC20/ERC20.sol\":11312:11337  allowance(owner, spender) */\n      tag_249\n        /* \"@openzeppelin/contracts/token/ERC20/ERC20.sol\":11322:11327  owner */\n      dup5\n        /* \"@openzeppelin/contracts/token/ERC20/ERC20.sol\":11329:11336  spender */\n      dup5\n        /* \"@openzeppelin/contracts/token/ERC20/ERC20.sol\":11312:11321  allowance */\n      tag_107\n        /* \"@openzeppelin/contracts/token/ERC20/ERC20.sol\":11312:11337  allowance(owner, spender) */\n      jump\t// in\n    tag_249:\n        /* \"@openzeppelin/contracts/token/ERC20/ERC20.sol\":11285:11337  uint256 currentAllowance = allowance(owner, spender) */\n      swap1\n      pop\n        /* \"@openzeppelin/contracts/token/ERC20/ERC20.sol\":11371:11388  type(uint256).max */\n      0xffffffffffffffffffffffffffffffffffffffffffffffffffffffffffffffff\n        /* \"@openzeppelin/contracts/token/ERC20/ERC20.sol\":11351:11367  currentAllowance */\n      dup2\n        /* \"@openzeppelin/contracts/token/ERC20/ERC20.sol\":11351:11388  currentAllowance != type(uint256).max */\n      eq\n        /* \"@openzeppelin/contracts/token/ERC20/ERC20.sol\":11347:11590  if (currentAllowance != type(uint256).max) {... */\n      tag_250\n      jumpi\n        /* \"@openzeppelin/contracts/token/ERC20/ERC20.sol\":11432:11438  amount */\n      dup2\n        /* \"@openzeppelin/contracts/token/ERC20/ERC20.sol\":11412:11428  currentAllowance */\n      dup2\n        /* \"@openzeppelin/contracts/token/ERC20/ERC20.sol\":11412:11438  currentAllowance >= amount */\n      lt\n      iszero\n        /* \"@openzeppelin/contracts/token/ERC20/ERC20.sol\":11404:11472  require(currentAllowance >= amount, \"ERC20: insufficient allowance\") */\n      tag_251\n      jumpi\n      mload(0x40)\n      0x08c379a000000000000000000000000000000000000000000000000000000000\n      dup2\n      mstore\n      0x04\n      add\n      tag_252\n      swap1\n      tag_253\n      jump\t// in\n    tag_252:\n      mload(0x40)\n      dup1\n      swap2\n      sub\n      swap1\n      revert\n    tag_251:\n        /* \"@openzeppelin/contracts/token/ERC20/ERC20.sol\":11514:11565  _approve(owner, spender, currentAllowance - amount) */\n      tag_254\n        /* \"@openzeppelin/contracts/token/ERC20/ERC20.sol\":11523:11528  owner */\n      dup5\n        /* \"@openzeppelin/contracts/token/ERC20/ERC20.sol\":11530:11537  spender */\n      dup5\n        /* \"@openzeppelin/contracts/token/ERC20/ERC20.sol\":11558:11564  amount */\n      dup5\n        /* \"@openzeppelin/contracts/token/ERC20/ERC20.sol\":11539:11555  currentAllowance */\n      dup5\n        /* \"@openzeppelin/contracts/token/ERC20/ERC20.sol\":11539:11564  currentAllowance - amount */\n      sub\n        /* \"@openzeppelin/contracts/token/ERC20/ERC20.sol\":11514:11522  _approve */\n      tag_123\n        /* \"@openzeppelin/contracts/token/ERC20/ERC20.sol\":11514:11565  _approve(owner, spender, currentAllowance - amount) */\n      jump\t// in\n    tag_254:\n        /* \"@openzeppelin/contracts/token/ERC20/ERC20.sol\":11347:11590  if (currentAllowance != type(uint256).max) {... */\n    tag_250:\n        /* \"@openzeppelin/contracts/token/ERC20/ERC20.sol\":11275:11596  {... */\n      pop\n        /* \"@openzeppelin/contracts/token/ERC20/ERC20.sol\":11155:11596  function _spendAllowance(... */\n      pop\n      pop\n      pop\n      jump\t// out\n        /* \"@openzeppelin/contracts/token/ERC20/ERC20.sol\":7473:8291  function _transfer(... */\n    tag_152:\n        /* \"@openzeppelin/contracts/token/ERC20/ERC20.sol\":7615:7616  0 */\n      0x00\n        /* \"@openzeppelin/contracts/token/ERC20/ERC20.sol\":7599:7617  from != address(0) */\n      0xffffffffffffffffffffffffffffffffffffffff\n      and\n        /* \"@openzeppelin/contracts/token/ERC20/ERC20.sol\":7599:7603  from */\n      dup4\n        /* \"@openzeppelin/contracts/token/ERC20/ERC20.sol\":7599:7617  from != address(0) */\n      0xffffffffffffffffffffffffffffffffffffffff\n      and\n      sub\n        /* \"@openzeppelin/contracts/token/ERC20/ERC20.sol\":7591:7659  require(from != address(0), \"ERC20: transfer from the zero address\") */\n      tag_256\n      jumpi\n      mload(0x40)\n      0x08c379a000000000000000000000000000000000000000000000000000000000\n      dup2\n      mstore\n      0x04\n      add\n      tag_257\n      swap1\n      tag_258\n      jump\t// in\n    tag_257:\n      mload(0x40)\n      dup1\n      swap2\n      sub\n      swap1\n      revert\n    tag_256:\n        /* \"@openzeppelin/contracts/token/ERC20/ERC20.sol\":7691:7692  0 */\n      0x00\n        /* \"@openzeppelin/contracts/token/ERC20/ERC20.sol\":7677:7693  to != address(0) */\n      0xffffffffffffffffffffffffffffffffffffffff\n      and\n        /* \"@openzeppelin/contracts/token/ERC20/ERC20.sol\":7677:7679  to */\n      dup3\n        /* \"@openzeppelin/contracts/token/ERC20/ERC20.sol\":7677:7693  to != address(0) */\n      0xffffffffffffffffffffffffffffffffffffffff\n      and\n      sub\n        /* \"@openzeppelin/contracts/token/ERC20/ERC20.sol\":7669:7733  require(to != address(0), \"ERC20: transfer to the zero address\") */\n      tag_259\n      jumpi\n      mload(0x40)\n      0x08c379a000000000000000000000000000000000000000000000000000000000\n      dup2\n      mstore\n      0x04\n      add\n      tag_260\n      swap1\n      tag_261\n      jump\t// in\n    tag_260:\n      mload(0x40)\n      dup1\n      swap2\n      sub\n      swap1\n      revert\n    tag_259:\n        /* \"@openzeppelin/contracts/token/ERC20/ERC20.sol\":7744:7782  _beforeTokenTransfer(from, to, amount) */\n      tag_262\n        /* \"@openzeppelin/contracts/token/ERC20/ERC20.sol\":7765:7769  from */\n      dup4\n        /* \"@openzeppelin/contracts/token/ERC20/ERC20.sol\":7771:7773  to */\n      dup4\n        /* \"@openzeppelin/contracts/token/ERC20/ERC20.sol\":7775:7781  amount */\n      dup4\n        /* \"@openzeppelin/contracts/token/ERC20/ERC20.sol\":7744:7764  _beforeTokenTransfer */\n      tag_241\n        /* \"@openzeppelin/contracts/token/ERC20/ERC20.sol\":7744:7782  _beforeTokenTransfer(from, to, amount) */\n      jump\t// in\n    tag_262:\n        /* \"@openzeppelin/contracts/token/ERC20/ERC20.sol\":7793:7812  uint256 fromBalance */\n      0x00\n        /* \"@openzeppelin/contracts/token/ERC20/ERC20.sol\":7815:7824  _balances */\n      dup1\n        /* \"@openzeppelin/contracts/token/ERC20/ERC20.sol\":7815:7830  _balances[from] */\n      0x00\n        /* \"@openzeppelin/contracts/token/ERC20/ERC20.sol\":7825:7829  from */\n      dup6\n        /* \"@openzeppelin/contracts/token/ERC20/ERC20.sol\":7815:7830  _balances[from] */\n      0xffffffffffffffffffffffffffffffffffffffff\n      and\n      0xffffffffffffffffffffffffffffffffffffffff\n      and\n      dup2\n      mstore\n      0x20\n      add\n      swap1\n      dup2\n      mstore\n      0x20\n      add\n      0x00\n      keccak256\n      sload\n        /* \"@openzeppelin/contracts/token/ERC20/ERC20.sol\":7793:7830  uint256 fromBalance = _balances[from] */\n      swap1\n      pop\n        /* \"@openzeppelin/contracts/token/ERC20/ERC20.sol\":7863:7869  amount */\n      dup2\n        /* \"@openzeppelin/contracts/token/ERC20/ERC20.sol\":7848:7859  fromBalance */\n      dup2\n        /* \"@openzeppelin/contracts/token/ERC20/ERC20.sol\":7848:7869  fromBalance >= amount */\n      lt\n      iszero\n        /* \"@openzeppelin/contracts/token/ERC20/ERC20.sol\":7840:7912  require(fromBalance >= amount, \"ERC20: transfer amount exceeds balance\") */\n      tag_263\n      jumpi\n      mload(0x40)\n      0x08c379a000000000000000000000000000000000000000000000000000000000\n      dup2\n      mstore\n      0x04\n      add\n      tag_264\n      swap1\n      tag_265\n      jump\t// in\n    tag_264:\n      mload(0x40)\n      dup1\n      swap2\n      sub\n      swap1\n      revert\n    tag_263:\n        /* \"@openzeppelin/contracts/token/ERC20/ERC20.sol\":7978:7984  amount */\n      dup2\n        /* \"@openzeppelin/contracts/token/ERC20/ERC20.sol\":7964:7975  fromBalance */\n      dup2\n        /* \"@openzeppelin/contracts/token/ERC20/ERC20.sol\":7964:7984  fromBalance - amount */\n      sub\n        /* \"@openzeppelin/contracts/token/ERC20/ERC20.sol\":7946:7955  _balances */\n      0x00\n        /* \"@openzeppelin/contracts/token/ERC20/ERC20.sol\":7946:7961  _balances[from] */\n      dup1\n        /* \"@openzeppelin/contracts/token/ERC20/ERC20.sol\":7956:7960  from */\n      dup7\n        /* \"@openzeppelin/contracts/token/ERC20/ERC20.sol\":7946:7961  _balances[from] */\n      0xffffffffffffffffffffffffffffffffffffffff\n      and\n      0xffffffffffffffffffffffffffffffffffffffff\n      and\n      dup2\n      mstore\n      0x20\n      add\n      swap1\n      dup2\n      mstore\n      0x20\n      add\n      0x00\n      keccak256\n        /* \"@openzeppelin/contracts/token/ERC20/ERC20.sol\":7946:7984  _balances[from] = fromBalance - amount */\n      dup2\n      swap1\n      sstore\n      pop\n        /* \"@openzeppelin/contracts/token/ERC20/ERC20.sol\":8178:8184  amount */\n      dup2\n        /* \"@openzeppelin/contracts/token/ERC20/ERC20.sol\":8161:8170  _balances */\n      0x00\n        /* \"@openzeppelin/contracts/token/ERC20/ERC20.sol\":8161:8174  _balances[to] */\n      dup1\n        /* \"@openzeppelin/contracts/token/ERC20/ERC20.sol\":8171:8173  to */\n      dup6\n        /* \"@openzeppelin/contracts/token/ERC20/ERC20.sol\":8161:8174  _balances[to] */\n      0xffffffffffffffffffffffffffffffffffffffff\n      and\n      0xffffffffffffffffffffffffffffffffffffffff\n      and\n      dup2\n      mstore\n      0x20\n      add\n      swap1\n      dup2\n      mstore\n      0x20\n      add\n      0x00\n      keccak256\n      0x00\n        /* \"@openzeppelin/contracts/token/ERC20/ERC20.sol\":8161:8184  _balances[to] += amount */\n      dup3\n      dup3\n      sload\n      add\n      swap3\n      pop\n      pop\n      dup2\n      swap1\n      sstore\n      pop\n        /* \"@openzeppelin/contracts/token/ERC20/ERC20.sol\":8225:8227  to */\n      dup3\n        /* \"@openzeppelin/contracts/token/ERC20/ERC20.sol\":8210:8236  Transfer(from, to, amount) */\n      0xffffffffffffffffffffffffffffffffffffffff\n      and\n        /* \"@openzeppelin/contracts/token/ERC20/ERC20.sol\":8219:8223  from */\n      dup5\n        /* \"@openzeppelin/contracts/token/ERC20/ERC20.sol\":8210:8236  Transfer(from, to, amount) */\n      0xffffffffffffffffffffffffffffffffffffffff\n      and\n      0xddf252ad1be2c89b69c2b068fc378daa952ba7f163c4a11628f55a4df523b3ef\n        /* \"@openzeppelin/contracts/token/ERC20/ERC20.sol\":8229:8235  amount */\n      dup5\n        /* \"@openzeppelin/contracts/token/ERC20/ERC20.sol\":8210:8236  Transfer(from, to, amount) */\n      mload(0x40)\n      tag_266\n      swap2\n      swap1\n      tag_49\n      jump\t// in\n    tag_266:\n      mload(0x40)\n      dup1\n      swap2\n      sub\n      swap1\n      log3\n        /* \"@openzeppelin/contracts/token/ERC20/ERC20.sol\":8247:8284  _afterTokenTransfer(from, to, amount) */\n      tag_267\n        /* \"@openzeppelin/contracts/token/ERC20/ERC20.sol\":8267:8271  from */\n      dup5\n        /* \"@openzeppelin/contracts/token/ERC20/ERC20.sol\":8273:8275  to */\n      dup5\n        /* \"@openzeppelin/contracts/token/ERC20/ERC20.sol\":8277:8283  amount */\n      dup5\n        /* \"@openzeppelin/contracts/token/ERC20/ERC20.sol\":8247:8266  _afterTokenTransfer */\n      tag_247\n        /* \"@openzeppelin/contracts/token/ERC20/ERC20.sol\":8247:8284  _afterTokenTransfer(from, to, amount) */\n      jump\t// in\n    tag_267:\n        /* \"@openzeppelin/contracts/token/ERC20/ERC20.sol\":7581:8291  {... */\n      pop\n        /* \"@openzeppelin/contracts/token/ERC20/ERC20.sol\":7473:8291  function _transfer(... */\n      pop\n      pop\n      pop\n      jump\t// out\n        /* \"@openzeppelin/contracts/access/Ownable.sol\":1359:1489  function _checkOwner() internal view virtual {... */\n    tag_162:\n        /* \"@openzeppelin/contracts/access/Ownable.sol\":1433:1445  _msgSender() */\n      tag_269\n        /* \"@openzeppelin/contracts/access/Ownable.sol\":1433:1443  _msgSender */\n      tag_121\n        /* \"@openzeppelin/contracts/access/Ownable.sol\":1433:1445  _msgSender() */\n      jump\t// in\n    tag_269:\n        /* \"@openzeppelin/contracts/access/Ownable.sol\":1422:1445  owner() == _msgSender() */\n      0xffffffffffffffffffffffffffffffffffffffff\n      and\n        /* \"@openzeppelin/contracts/access/Ownable.sol\":1422:1429  owner() */\n      tag_270\n        /* \"@openzeppelin/contracts/access/Ownable.sol\":1422:1427  owner */\n      tag_90\n        /* \"@openzeppelin/contracts/access/Ownable.sol\":1422:1429  owner() */\n      jump\t// in\n    tag_270:\n        /* \"@openzeppelin/contracts/access/Ownable.sol\":1422:1445  owner() == _msgSender() */\n      0xffffffffffffffffffffffffffffffffffffffff\n      and\n      eq\n        /* \"@openzeppelin/contracts/access/Ownable.sol\":1414:1482  require(owner() == _msgSender(), \"Ownable: caller is not the owner\") */\n      tag_271\n      jumpi\n      mload(0x40)\n      0x08c379a000000000000000000000000000000000000000000000000000000000\n      dup2\n      mstore\n      0x04\n      add\n      tag_272\n      swap1\n      tag_273\n      jump\t// in\n    tag_272:\n      mload(0x40)\n      dup1\n      swap2\n      sub\n      swap1\n      revert\n    tag_271:\n        /* \"@openzeppelin/contracts/access/Ownable.sol\":1359:1489  function _checkOwner() internal view virtual {... */\n      jump\t// out\n        /* \"@openzeppelin/contracts/token/ERC20/ERC20.sol\":8567:9102  function _mint(address account, uint256 amount) internal virtual {... */\n    tag_171:\n        /* \"@openzeppelin/contracts/token/ERC20/ERC20.sol\":8669:8670  0 */\n      0x00\n        /* \"@openzeppelin/contracts/token/ERC20/ERC20.sol\":8650:8671  account != address(0) */\n      0xffffffffffffffffffffffffffffffffffffffff\n      and\n        /* \"@openzeppelin/contracts/token/ERC20/ERC20.sol\":8650:8657  account */\n      dup3\n        /* \"@openzeppelin/contracts/token/ERC20/ERC20.sol\":8650:8671  account != address(0) */\n      0xffffffffffffffffffffffffffffffffffffffff\n      and\n      sub\n        /* \"@openzeppelin/contracts/token/ERC20/ERC20.sol\":8642:8707  require(account != address(0), \"ERC20: mint to the zero address\") */\n      tag_275\n      jumpi\n      mload(0x40)\n      0x08c379a000000000000000000000000000000000000000000000000000000000\n      dup2\n      mstore\n      0x04\n      add\n      tag_276\n      swap1\n      tag_277\n      jump\t// in\n    tag_276:\n      mload(0x40)\n      dup1\n      swap2\n      sub\n      swap1\n      revert\n    tag_275:\n        /* \"@openzeppelin/contracts/token/ERC20/ERC20.sol\":8718:8767  _beforeTokenTransfer(address(0), account, amount) */\n      tag_278\n        /* \"@openzeppelin/contracts/token/ERC20/ERC20.sol\":8747:8748  0 */\n      0x00\n        /* \"@openzeppelin/contracts/token/ERC20/ERC20.sol\":8751:8758  account */\n      dup4\n        /* \"@openzeppelin/contracts/token/ERC20/ERC20.sol\":8760:8766  amount */\n      dup4\n        /* \"@openzeppelin/contracts/token/ERC20/ERC20.sol\":8718:8738  _beforeTokenTransfer */\n      tag_241\n        /* \"@openzeppelin/contracts/token/ERC20/ERC20.sol\":8718:8767  _beforeTokenTransfer(address(0), account, amount) */\n      jump\t// in\n    tag_278:\n        /* \"@openzeppelin/contracts/token/ERC20/ERC20.sol\":8794:8800  amount */\n      dup1\n        /* \"@openzeppelin/contracts/token/ERC20/ERC20.sol\":8778:8790  _totalSupply */\n      0x02\n      0x00\n        /* \"@openzeppelin/contracts/token/ERC20/ERC20.sol\":8778:8800  _totalSupply += amount */\n      dup3\n      dup3\n      sload\n      tag_279\n      swap2\n      swap1\n      tag_159\n      jump\t// in\n    tag_279:\n      swap3\n      pop\n      pop\n      dup2\n      swap1\n      sstore\n      pop\n        /* \"@openzeppelin/contracts/token/ERC20/ERC20.sol\":8968:8974  amount */\n      dup1\n        /* \"@openzeppelin/contracts/token/ERC20/ERC20.sol\":8946:8955  _balances */\n      0x00\n        /* \"@openzeppelin/contracts/token/ERC20/ERC20.sol\":8946:8964  _balances[account] */\n      dup1\n        /* \"@openzeppelin/contracts/token/ERC20/ERC20.sol\":8956:8963  account */\n      dup5\n        /* \"@openzeppelin/contracts/token/ERC20/ERC20.sol\":8946:8964  _balances[account] */\n      0xffffffffffffffffffffffffffffffffffffffff\n      and\n      0xffffffffffffffffffffffffffffffffffffffff\n      and\n      dup2\n      mstore\n      0x20\n      add\n      swap1\n      dup2\n      mstore\n      0x20\n      add\n      0x00\n      keccak256\n      0x00\n        /* \"@openzeppelin/contracts/token/ERC20/ERC20.sol\":8946:8974  _balances[account] += amount */\n      dup3\n      dup3\n      sload\n      add\n      swap3\n      pop\n      pop\n      dup2\n      swap1\n      sstore\n      pop\n        /* \"@openzeppelin/contracts/token/ERC20/ERC20.sol\":9020:9027  account */\n      dup2\n        /* \"@openzeppelin/contracts/token/ERC20/ERC20.sol\":8999:9036  Transfer(address(0), account, amount) */\n      0xffffffffffffffffffffffffffffffffffffffff\n      and\n        /* \"@openzeppelin/contracts/token/ERC20/ERC20.sol\":9016:9017  0 */\n      0x00\n        /* \"@openzeppelin/contracts/token/ERC20/ERC20.sol\":8999:9036  Transfer(address(0), account, amount) */\n      0xffffffffffffffffffffffffffffffffffffffff\n      and\n      0xddf252ad1be2c89b69c2b068fc378daa952ba7f163c4a11628f55a4df523b3ef\n        /* \"@openzeppelin/contracts/token/ERC20/ERC20.sol\":9029:9035  amount */\n      dup4\n        /* \"@openzeppelin/contracts/token/ERC20/ERC20.sol\":8999:9036  Transfer(address(0), account, amount) */\n      mload(0x40)\n      tag_280\n      swap2\n      swap1\n      tag_49\n      jump\t// in\n    tag_280:\n      mload(0x40)\n      dup1\n      swap2\n      sub\n      swap1\n      log3\n        /* \"@openzeppelin/contracts/token/ERC20/ERC20.sol\":9047:9095  _afterTokenTransfer(address(0), account, amount) */\n      tag_281\n        /* \"@openzeppelin/contracts/token/ERC20/ERC20.sol\":9075:9076  0 */\n      0x00\n        /* \"@openzeppelin/contracts/token/ERC20/ERC20.sol\":9079:9086  account */\n      dup4\n        /* \"@openzeppelin/contracts/token/ERC20/ERC20.sol\":9088:9094  amount */\n      dup4\n        /* \"@openzeppelin/contracts/token/ERC20/ERC20.sol\":9047:9066  _afterTokenTransfer */\n      tag_247\n        /* \"@openzeppelin/contracts/token/ERC20/ERC20.sol\":9047:9095  _afterTokenTransfer(address(0), account, amount) */\n      jump\t// in\n    tag_281:\n        /* \"@openzeppelin/contracts/token/ERC20/ERC20.sol\":8567:9102  function _mint(address account, uint256 amount) internal virtual {... */\n      pop\n      pop\n      jump\t// out\n        /* \"@openzeppelin/contracts/access/Ownable.sol\":2433:2620  function _transferOwnership(address newOwner) internal virtual {... */\n    tag_193:\n        /* \"@openzeppelin/contracts/access/Ownable.sol\":2506:2522  address oldOwner */\n      0x00\n        /* \"@openzeppelin/contracts/access/Ownable.sol\":2525:2531  _owner */\n      0x05\n      0x00\n      swap1\n      sload\n      swap1\n      0x0100\n      exp\n      swap1\n      div\n      0xffffffffffffffffffffffffffffffffffffffff\n      and\n        /* \"@openzeppelin/contracts/access/Ownable.sol\":2506:2531  address oldOwner = _owner */\n      swap1\n      pop\n        /* \"@openzeppelin/contracts/access/Ownable.sol\":2550:2558  newOwner */\n      dup2\n        /* \"@openzeppelin/contracts/access/Ownable.sol\":2541:2547  _owner */\n      0x05\n      0x00\n        /* \"@openzeppelin/contracts/access/Ownable.sol\":2541:2558  _owner = newOwner */\n      0x0100\n      exp\n      dup2\n      sload\n      dup2\n      0xffffffffffffffffffffffffffffffffffffffff\n      mul\n      not\n      and\n      swap1\n      dup4\n      0xffffffffffffffffffffffffffffffffffffffff\n      and\n      mul\n      or\n      swap1\n      sstore\n      pop\n        /* \"@openzeppelin/contracts/access/Ownable.sol\":2604:2612  newOwner */\n      dup2\n        /* \"@openzeppelin/contracts/access/Ownable.sol\":2573:2613  OwnershipTransferred(oldOwner, newOwner) */\n      0xffffffffffffffffffffffffffffffffffffffff\n      and\n        /* \"@openzeppelin/contracts/access/Ownable.sol\":2594:2602  oldOwner */\n      dup2\n        /* \"@openzeppelin/contracts/access/Ownable.sol\":2573:2613  OwnershipTransferred(oldOwner, newOwner) */\n      0xffffffffffffffffffffffffffffffffffffffff\n      and\n      0x8be0079c531659141344cd1fd0a4f28419497f9722a3daafe3b4186f6b6457e0\n      mload(0x40)\n      mload(0x40)\n      dup1\n      swap2\n      sub\n      swap1\n      log3\n        /* \"@openzeppelin/contracts/access/Ownable.sol\":2496:2620  {... */\n      pop\n        /* \"@openzeppelin/contracts/access/Ownable.sol\":2433:2620  function _transferOwnership(address newOwner) internal virtual {... */\n      pop\n      jump\t// out\n        /* \"@openzeppelin/contracts/token/ERC20/ERC20.sol\":12180:12301  function _beforeTokenTransfer(... */\n    tag_241:\n      pop\n      pop\n      pop\n      jump\t// out\n        /* \"@openzeppelin/contracts/token/ERC20/ERC20.sol\":12889:13009  function _afterTokenTransfer(... */\n    tag_247:\n      pop\n      pop\n      pop\n      jump\t// out\n        /* \"#utility.yul\":7:106   */\n    tag_285:\n        /* \"#utility.yul\":59:65   */\n      0x00\n        /* \"#utility.yul\":93:98   */\n      dup2\n        /* \"#utility.yul\":87:99   */\n      mload\n        /* \"#utility.yul\":77:99   */\n      swap1\n      pop\n        /* \"#utility.yul\":7:106   */\n      swap2\n      swap1\n      pop\n      jump\t// out\n        /* \"#utility.yul\":112:281   */\n    tag_286:\n        /* \"#utility.yul\":196:207   */\n      0x00\n        /* \"#utility.yul\":230:236   */\n      dup3\n        /* \"#utility.yul\":225:228   */\n      dup3\n        /* \"#utility.yul\":218:237   */\n      mstore\n        /* \"#utility.yul\":270:274   */\n      0x20\n        /* \"#utility.yul\":265:268   */\n      dup3\n        /* \"#utility.yul\":261:275   */\n      add\n        /* \"#utility.yul\":246:275   */\n      swap1\n      pop\n        /* \"#utility.yul\":112:281   */\n      swap3\n      swap2\n      pop\n      pop\n      jump\t// out\n        /* \"#utility.yul\":287:533   */\n    tag_287:\n        /* \"#utility.yul\":368:369   */\n      0x00\n        /* \"#utility.yul\":378:491   */\n    tag_359:\n        /* \"#utility.yul\":392:398   */\n      dup4\n        /* \"#utility.yul\":389:390   */\n      dup2\n        /* \"#utility.yul\":386:399   */\n      lt\n        /* \"#utility.yul\":378:491   */\n      iszero\n      tag_361\n      jumpi\n        /* \"#utility.yul\":477:478   */\n      dup1\n        /* \"#utility.yul\":472:475   */\n      dup3\n        /* \"#utility.yul\":468:479   */\n      add\n        /* \"#utility.yul\":462:480   */\n      mload\n        /* \"#utility.yul\":458:459   */\n      dup2\n        /* \"#utility.yul\":453:456   */\n      dup5\n        /* \"#utility.yul\":449:460   */\n      add\n        /* \"#utility.yul\":442:481   */\n      mstore\n        /* \"#utility.yul\":414:416   */\n      0x20\n        /* \"#utility.yul\":411:412   */\n      dup2\n        /* \"#utility.yul\":407:417   */\n      add\n        /* \"#utility.yul\":402:417   */\n      swap1\n      pop\n        /* \"#utility.yul\":378:491   */\n      jump(tag_359)\n    tag_361:\n        /* \"#utility.yul\":525:526   */\n      0x00\n        /* \"#utility.yul\":516:522   */\n      dup5\n        /* \"#utility.yul\":511:514   */\n      dup5\n        /* \"#utility.yul\":507:523   */\n      add\n        /* \"#utility.yul\":500:527   */\n      mstore\n        /* \"#utility.yul\":349:533   */\n      pop\n        /* \"#utility.yul\":287:533   */\n      pop\n      pop\n      pop\n      jump\t// out\n        /* \"#utility.yul\":539:641   */\n    tag_288:\n        /* \"#utility.yul\":580:586   */\n      0x00\n        /* \"#utility.yul\":631:633   */\n      0x1f\n        /* \"#utility.yul\":627:634   */\n      not\n        /* \"#utility.yul\":622:624   */\n      0x1f\n        /* \"#utility.yul\":615:620   */\n      dup4\n        /* \"#utility.yul\":611:625   */\n      add\n        /* \"#utility.yul\":607:635   */\n      and\n        /* \"#utility.yul\":597:635   */\n      swap1\n      pop\n        /* \"#utility.yul\":539:641   */\n      swap2\n      swap1\n      pop\n      jump\t// out\n        /* \"#utility.yul\":647:1024   */\n    tag_289:\n        /* \"#utility.yul\":735:738   */\n      0x00\n        /* \"#utility.yul\":763:802   */\n      tag_364\n        /* \"#utility.yul\":796:801   */\n      dup3\n        /* \"#utility.yul\":763:802   */\n      tag_285\n      jump\t// in\n    tag_364:\n        /* \"#utility.yul\":818:889   */\n      tag_365\n        /* \"#utility.yul\":882:888   */\n      dup2\n        /* \"#utility.yul\":877:880   */\n      dup6\n        /* \"#utility.yul\":818:889   */\n      tag_286\n      jump\t// in\n    tag_365:\n        /* \"#utility.yul\":811:889   */\n      swap4\n      pop\n        /* \"#utility.yul\":898:963   */\n      tag_366\n        /* \"#utility.yul\":956:962   */\n      dup2\n        /* \"#utility.yul\":951:954   */\n      dup6\n        /* \"#utility.yul\":944:948   */\n      0x20\n        /* \"#utility.yul\":937:942   */\n      dup7\n        /* \"#utility.yul\":933:949   */\n      add\n        /* \"#utility.yul\":898:963   */\n      tag_287\n      jump\t// in\n    tag_366:\n        /* \"#utility.yul\":988:1017   */\n      tag_367\n        /* \"#utility.yul\":1010:1016   */\n      dup2\n        /* \"#utility.yul\":988:1017   */\n      tag_288\n      jump\t// in\n    tag_367:\n        /* \"#utility.yul\":983:986   */\n      dup5\n        /* \"#utility.yul\":979:1018   */\n      add\n        /* \"#utility.yul\":972:1018   */\n      swap2\n      pop\n        /* \"#utility.yul\":739:1024   */\n      pop\n        /* \"#utility.yul\":647:1024   */\n      swap3\n      swap2\n      pop\n      pop\n      jump\t// out\n        /* \"#utility.yul\":1030:1343   */\n    tag_30:\n        /* \"#utility.yul\":1143:1147   */\n      0x00\n        /* \"#utility.yul\":1181:1183   */\n      0x20\n        /* \"#utility.yul\":1170:1179   */\n      dup3\n        /* \"#utility.yul\":1166:1184   */\n      add\n        /* \"#utility.yul\":1158:1184   */\n      swap1\n      pop\n        /* \"#utility.yul\":1230:1239   */\n      dup2\n        /* \"#utility.yul\":1224:1228   */\n      dup2\n        /* \"#utility.yul\":1220:1240   */\n      sub\n        /* \"#utility.yul\":1216:1217   */\n      0x00\n        /* \"#utility.yul\":1205:1214   */\n      dup4\n        /* \"#utility.yul\":1201:1218   */\n      add\n        /* \"#utility.yul\":1194:1241   */\n      mstore\n        /* \"#utility.yul\":1258:1336   */\n      tag_369\n        /* \"#utility.yul\":1331:1335   */\n      dup2\n        /* \"#utility.yul\":1322:1328   */\n      dup5\n        /* \"#utility.yul\":1258:1336   */\n      tag_289\n      jump\t// in\n    tag_369:\n        /* \"#utility.yul\":1250:1336   */\n      swap1\n      pop\n        /* \"#utility.yul\":1030:1343   */\n      swap3\n      swap2\n      pop\n      pop\n      jump\t// out\n        /* \"#utility.yul\":1430:1547   */\n    tag_291:\n        /* \"#utility.yul\":1539:1540   */\n      0x00\n        /* \"#utility.yul\":1536:1537   */\n      dup1\n        /* \"#utility.yul\":1529:1541   */\n      revert\n        /* \"#utility.yul\":1676:1802   */\n    tag_293:\n        /* \"#utility.yul\":1713:1720   */\n      0x00\n        /* \"#utility.yul\":1753:1795   */\n      0xffffffffffffffffffffffffffffffffffffffff\n        /* \"#utility.yul\":1746:1751   */\n      dup3\n        /* \"#utility.yul\":1742:1796   */\n      and\n        /* \"#utility.yul\":1731:1796   */\n      swap1\n      pop\n        /* \"#utility.yul\":1676:1802   */\n      swap2\n      swap1\n      pop\n      jump\t// out\n        /* \"#utility.yul\":1808:1904   */\n    tag_294:\n        /* \"#utility.yul\":1845:1852   */\n      0x00\n        /* \"#utility.yul\":1874:1898   */\n      tag_375\n        /* \"#utility.yul\":1892:1897   */\n      dup3\n        /* \"#utility.yul\":1874:1898   */\n      tag_293\n      jump\t// in\n    tag_375:\n        /* \"#utility.yul\":1863:1898   */\n      swap1\n      pop\n        /* \"#utility.yul\":1808:1904   */\n      swap2\n      swap1\n      pop\n      jump\t// out\n        /* \"#utility.yul\":1910:2032   */\n    tag_295:\n        /* \"#utility.yul\":1983:2007   */\n      tag_377\n        /* \"#utility.yul\":2001:2006   */\n      dup2\n        /* \"#utility.yul\":1983:2007   */\n      tag_294\n      jump\t// in\n    tag_377:\n        /* \"#utility.yul\":1976:1981   */\n      dup2\n        /* \"#utility.yul\":1973:2008   */\n      eq\n        /* \"#utility.yul\":1963:2026   */\n      tag_378\n      jumpi\n        /* \"#utility.yul\":2022:2023   */\n      0x00\n        /* \"#utility.yul\":2019:2020   */\n      dup1\n        /* \"#utility.yul\":2012:2024   */\n      revert\n        /* \"#utility.yul\":1963:2026   */\n    tag_378:\n        /* \"#utility.yul\":1910:2032   */\n      pop\n      jump\t// out\n        /* \"#utility.yul\":2038:2177   */\n    tag_296:\n        /* \"#utility.yul\":2084:2089   */\n      0x00\n        /* \"#utility.yul\":2122:2128   */\n      dup2\n        /* \"#utility.yul\":2109:2129   */\n      calldataload\n        /* \"#utility.yul\":2100:2129   */\n      swap1\n      pop\n        /* \"#utility.yul\":2138:2171   */\n      tag_380\n        /* \"#utility.yul\":2165:2170   */\n      dup2\n        /* \"#utility.yul\":2138:2171   */\n      tag_295\n      jump\t// in\n    tag_380:\n        /* \"#utility.yul\":2038:2177   */\n      swap3\n      swap2\n      pop\n      pop\n      jump\t// out\n        /* \"#utility.yul\":2183:2260   */\n    tag_297:\n        /* \"#utility.yul\":2220:2227   */\n      0x00\n        /* \"#utility.yul\":2249:2254   */\n      dup2\n        /* \"#utility.yul\":2238:2254   */\n      swap1\n      pop\n        /* \"#utility.yul\":2183:2260   */\n      swap2\n      swap1\n      pop\n      jump\t// out\n        /* \"#utility.yul\":2266:2388   */\n    tag_298:\n        /* \"#utility.yul\":2339:2363   */\n      tag_383\n        /* \"#utility.yul\":2357:2362   */\n      dup2\n        /* \"#utility.yul\":2339:2363   */\n      tag_297\n      jump\t// in\n    tag_383:\n        /* \"#utility.yul\":2332:2337   */\n      dup2\n        /* \"#utility.yul\":2329:2364   */\n      eq\n        /* \"#utility.yul\":2319:2382   */\n      tag_384\n      jumpi\n        /* \"#utility.yul\":2378:2379   */\n      0x00\n        /* \"#utility.yul\":2375:2376   */\n      dup1\n        /* \"#utility.yul\":2368:2380   */\n      revert\n        /* \"#utility.yul\":2319:2382   */\n    tag_384:\n        /* \"#utility.yul\":2266:2388   */\n      pop\n      jump\t// out\n        /* \"#utility.yul\":2394:2533   */\n    tag_299:\n        /* \"#utility.yul\":2440:2445   */\n      0x00\n        /* \"#utility.yul\":2478:2484   */\n      dup2\n        /* \"#utility.yul\":2465:2485   */\n      calldataload\n        /* \"#utility.yul\":2456:2485   */\n      swap1\n      pop\n        /* \"#utility.yul\":2494:2527   */\n      tag_386\n        /* \"#utility.yul\":2521:2526   */\n      dup2\n        /* \"#utility.yul\":2494:2527   */\n      tag_298\n      jump\t// in\n    tag_386:\n        /* \"#utility.yul\":2394:2533   */\n      swap3\n      swap2\n      pop\n      pop\n      jump\t// out\n        /* \"#utility.yul\":2539:3013   */\n    tag_33:\n        /* \"#utility.yul\":2607:2613   */\n      0x00\n        /* \"#utility.yul\":2615:2621   */\n      dup1\n        /* \"#utility.yul\":2664:2666   */\n      0x40\n        /* \"#utility.yul\":2652:2661   */\n      dup4\n        /* \"#utility.yul\":2643:2650   */\n      dup6\n        /* \"#utility.yul\":2639:2662   */\n      sub\n        /* \"#utility.yul\":2635:2667   */\n      slt\n        /* \"#utility.yul\":2632:2751   */\n      iszero\n      tag_388\n      jumpi\n        /* \"#utility.yul\":2670:2749   */\n      tag_389\n      tag_291\n      jump\t// in\n    tag_389:\n        /* \"#utility.yul\":2632:2751   */\n    tag_388:\n        /* \"#utility.yul\":2790:2791   */\n      0x00\n        /* \"#utility.yul\":2815:2868   */\n      tag_390\n        /* \"#utility.yul\":2860:2867   */\n      dup6\n        /* \"#utility.yul\":2851:2857   */\n      dup3\n        /* \"#utility.yul\":2840:2849   */\n      dup7\n        /* \"#utility.yul\":2836:2858   */\n      add\n        /* \"#utility.yul\":2815:2868   */\n      tag_296\n      jump\t// in\n    tag_390:\n        /* \"#utility.yul\":2805:2868   */\n      swap3\n      pop\n        /* \"#utility.yul\":2761:2878   */\n      pop\n        /* \"#utility.yul\":2917:2919   */\n      0x20\n        /* \"#utility.yul\":2943:2996   */\n      tag_391\n        /* \"#utility.yul\":2988:2995   */\n      dup6\n        /* \"#utility.yul\":2979:2985   */\n      dup3\n        /* \"#utility.yul\":2968:2977   */\n      dup7\n        /* \"#utility.yul\":2964:2986   */\n      add\n        /* \"#utility.yul\":2943:2996   */\n      tag_299\n      jump\t// in\n    tag_391:\n        /* \"#utility.yul\":2933:2996   */\n      swap2\n      pop\n        /* \"#utility.yul\":2888:3006   */\n      pop\n        /* \"#utility.yul\":2539:3013   */\n      swap3\n      pop\n      swap3\n      swap1\n      pop\n      jump\t// out\n        /* \"#utility.yul\":3019:3109   */\n    tag_300:\n        /* \"#utility.yul\":3053:3060   */\n      0x00\n        /* \"#utility.yul\":3096:3101   */\n      dup2\n        /* \"#utility.yul\":3089:3102   */\n      iszero\n        /* \"#utility.yul\":3082:3103   */\n      iszero\n        /* \"#utility.yul\":3071:3103   */\n      swap1\n      pop\n        /* \"#utility.yul\":3019:3109   */\n      swap2\n      swap1\n      pop\n      jump\t// out\n        /* \"#utility.yul\":3115:3224   */\n    tag_301:\n        /* \"#utility.yul\":3196:3217   */\n      tag_394\n        /* \"#utility.yul\":3211:3216   */\n      dup2\n        /* \"#utility.yul\":3196:3217   */\n      tag_300\n      jump\t// in\n    tag_394:\n        /* \"#utility.yul\":3191:3194   */\n      dup3\n        /* \"#utility.yul\":3184:3218   */\n      mstore\n        /* \"#utility.yul\":3115:3224   */\n      pop\n      pop\n      jump\t// out\n        /* \"#utility.yul\":3230:3440   */\n    tag_36:\n        /* \"#utility.yul\":3317:3321   */\n      0x00\n        /* \"#utility.yul\":3355:3357   */\n      0x20\n        /* \"#utility.yul\":3344:3353   */\n      dup3\n        /* \"#utility.yul\":3340:3358   */\n      add\n        /* \"#utility.yul\":3332:3358   */\n      swap1\n      pop\n        /* \"#utility.yul\":3368:3433   */\n      tag_396\n        /* \"#utility.yul\":3430:3431   */\n      0x00\n        /* \"#utility.yul\":3419:3428   */\n      dup4\n        /* \"#utility.yul\":3415:3432   */\n      add\n        /* \"#utility.yul\":3406:3412   */\n      dup5\n        /* \"#utility.yul\":3368:3433   */\n      tag_301\n      jump\t// in\n    tag_396:\n        /* \"#utility.yul\":3230:3440   */\n      swap3\n      swap2\n      pop\n      pop\n      jump\t// out\n        /* \"#utility.yul\":3446:3775   */\n    tag_39:\n        /* \"#utility.yul\":3505:3511   */\n      0x00\n        /* \"#utility.yul\":3554:3556   */\n      0x20\n        /* \"#utility.yul\":3542:3551   */\n      dup3\n        /* \"#utility.yul\":3533:3540   */\n      dup5\n        /* \"#utility.yul\":3529:3552   */\n      sub\n        /* \"#utility.yul\":3525:3557   */\n      slt\n        /* \"#utility.yul\":3522:3641   */\n      iszero\n      tag_398\n      jumpi\n        /* \"#utility.yul\":3560:3639   */\n      tag_399\n      tag_291\n      jump\t// in\n    tag_399:\n        /* \"#utility.yul\":3522:3641   */\n    tag_398:\n        /* \"#utility.yul\":3680:3681   */\n      0x00\n        /* \"#utility.yul\":3705:3758   */\n      tag_400\n        /* \"#utility.yul\":3750:3757   */\n      dup5\n        /* \"#utility.yul\":3741:3747   */\n      dup3\n        /* \"#utility.yul\":3730:3739   */\n      dup6\n        /* \"#utility.yul\":3726:3748   */\n      add\n        /* \"#utility.yul\":3705:3758   */\n      tag_299\n      jump\t// in\n    tag_400:\n        /* \"#utility.yul\":3695:3758   */\n      swap2\n      pop\n        /* \"#utility.yul\":3651:3768   */\n      pop\n        /* \"#utility.yul\":3446:3775   */\n      swap3\n      swap2\n      pop\n      pop\n      jump\t// out\n        /* \"#utility.yul\":3781:3899   */\n    tag_302:\n        /* \"#utility.yul\":3868:3892   */\n      tag_402\n        /* \"#utility.yul\":3886:3891   */\n      dup2\n        /* \"#utility.yul\":3868:3892   */\n      tag_297\n      jump\t// in\n    tag_402:\n        /* \"#utility.yul\":3863:3866   */\n      dup3\n        /* \"#utility.yul\":3856:3893   */\n      mstore\n        /* \"#utility.yul\":3781:3899   */\n      pop\n      pop\n      jump\t// out\n        /* \"#utility.yul\":3905:4438   */\n    tag_45:\n        /* \"#utility.yul\":4074:4078   */\n      0x00\n        /* \"#utility.yul\":4112:4114   */\n      0x60\n        /* \"#utility.yul\":4101:4110   */\n      dup3\n        /* \"#utility.yul\":4097:4115   */\n      add\n        /* \"#utility.yul\":4089:4115   */\n      swap1\n      pop\n        /* \"#utility.yul\":4125:4196   */\n      tag_404\n        /* \"#utility.yul\":4193:4194   */\n      0x00\n        /* \"#utility.yul\":4182:4191   */\n      dup4\n        /* \"#utility.yul\":4178:4195   */\n      add\n        /* \"#utility.yul\":4169:4175   */\n      dup7\n        /* \"#utility.yul\":4125:4196   */\n      tag_302\n      jump\t// in\n    tag_404:\n        /* \"#utility.yul\":4243:4252   */\n      dup2\n        /* \"#utility.yul\":4237:4241   */\n      dup2\n        /* \"#utility.yul\":4233:4253   */\n      sub\n        /* \"#utility.yul\":4228:4230   */\n      0x20\n        /* \"#utility.yul\":4217:4226   */\n      dup4\n        /* \"#utility.yul\":4213:4231   */\n      add\n        /* \"#utility.yul\":4206:4254   */\n      mstore\n        /* \"#utility.yul\":4271:4349   */\n      tag_405\n        /* \"#utility.yul\":4344:4348   */\n      dup2\n        /* \"#utility.yul\":4335:4341   */\n      dup6\n        /* \"#utility.yul\":4271:4349   */\n      tag_289\n      jump\t// in\n    tag_405:\n        /* \"#utility.yul\":4263:4349   */\n      swap1\n      pop\n        /* \"#utility.yul\":4359:4431   */\n      tag_406\n        /* \"#utility.yul\":4427:4429   */\n      0x40\n        /* \"#utility.yul\":4416:4425   */\n      dup4\n        /* \"#utility.yul\":4412:4430   */\n      add\n        /* \"#utility.yul\":4403:4409   */\n      dup5\n        /* \"#utility.yul\":4359:4431   */\n      tag_302\n      jump\t// in\n    tag_406:\n        /* \"#utility.yul\":3905:4438   */\n      swap5\n      swap4\n      pop\n      pop\n      pop\n      pop\n      jump\t// out\n        /* \"#utility.yul\":4444:4666   */\n    tag_49:\n        /* \"#utility.yul\":4537:4541   */\n      0x00\n        /* \"#utility.yul\":4575:4577   */\n      0x20\n        /* \"#utility.yul\":4564:4573   */\n      dup3\n        /* \"#utility.yul\":4560:4578   */\n      add\n        /* \"#utility.yul\":4552:4578   */\n      swap1\n      pop\n        /* \"#utility.yul\":4588:4659   */\n      tag_408\n        /* \"#utility.yul\":4656:4657   */\n      0x00\n        /* \"#utility.yul\":4645:4654   */\n      dup4\n        /* \"#utility.yul\":4641:4658   */\n      add\n        /* \"#utility.yul\":4632:4638   */\n      dup5\n        /* \"#utility.yul\":4588:4659   */\n      tag_302\n      jump\t// in\n    tag_408:\n        /* \"#utility.yul\":4444:4666   */\n      swap3\n      swap2\n      pop\n      pop\n      jump\t// out\n        /* \"#utility.yul\":4672:5291   */\n    tag_52:\n        /* \"#utility.yul\":4749:4755   */\n      0x00\n        /* \"#utility.yul\":4757:4763   */\n      dup1\n        /* \"#utility.yul\":4765:4771   */\n      0x00\n        /* \"#utility.yul\":4814:4816   */\n      0x60\n        /* \"#utility.yul\":4802:4811   */\n      dup5\n        /* \"#utility.yul\":4793:4800   */\n      dup7\n        /* \"#utility.yul\":4789:4812   */\n      sub\n        /* \"#utility.yul\":4785:4817   */\n      slt\n        /* \"#utility.yul\":4782:4901   */\n      iszero\n      tag_410\n      jumpi\n        /* \"#utility.yul\":4820:4899   */\n      tag_411\n      tag_291\n      jump\t// in\n    tag_411:\n        /* \"#utility.yul\":4782:4901   */\n    tag_410:\n        /* \"#utility.yul\":4940:4941   */\n      0x00\n        /* \"#utility.yul\":4965:5018   */\n      tag_412\n        /* \"#utility.yul\":5010:5017   */\n      dup7\n        /* \"#utility.yul\":5001:5007   */\n      dup3\n        /* \"#utility.yul\":4990:4999   */\n      dup8\n        /* \"#utility.yul\":4986:5008   */\n      add\n        /* \"#utility.yul\":4965:5018   */\n      tag_296\n      jump\t// in\n    tag_412:\n        /* \"#utility.yul\":4955:5018   */\n      swap4\n      pop\n        /* \"#utility.yul\":4911:5028   */\n      pop\n        /* \"#utility.yul\":5067:5069   */\n      0x20\n        /* \"#utility.yul\":5093:5146   */\n      tag_413\n        /* \"#utility.yul\":5138:5145   */\n      dup7\n        /* \"#utility.yul\":5129:5135   */\n      dup3\n        /* \"#utility.yul\":5118:5127   */\n      dup8\n        /* \"#utility.yul\":5114:5136   */\n      add\n        /* \"#utility.yul\":5093:5146   */\n      tag_296\n      jump\t// in\n    tag_413:\n        /* \"#utility.yul\":5083:5146   */\n      swap3\n      pop\n        /* \"#utility.yul\":5038:5156   */\n      pop\n        /* \"#utility.yul\":5195:5197   */\n      0x40\n        /* \"#utility.yul\":5221:5274   */\n      tag_414\n        /* \"#utility.yul\":5266:5273   */\n      dup7\n        /* \"#utility.yul\":5257:5263   */\n      dup3\n        /* \"#utility.yul\":5246:5255   */\n      dup8\n        /* \"#utility.yul\":5242:5264   */\n      add\n        /* \"#utility.yul\":5221:5274   */\n      tag_299\n      jump\t// in\n    tag_414:\n        /* \"#utility.yul\":5211:5274   */\n      swap2\n      pop\n        /* \"#utility.yul\":5166:5284   */\n      pop\n        /* \"#utility.yul\":4672:5291   */\n      swap3\n      pop\n      swap3\n      pop\n      swap3\n      jump\t// out\n        /* \"#utility.yul\":5297:5383   */\n    tag_303:\n        /* \"#utility.yul\":5332:5339   */\n      0x00\n        /* \"#utility.yul\":5372:5376   */\n      0xff\n        /* \"#utility.yul\":5365:5370   */\n      dup3\n        /* \"#utility.yul\":5361:5377   */\n      and\n        /* \"#utility.yul\":5350:5377   */\n      swap1\n      pop\n        /* \"#utility.yul\":5297:5383   */\n      swap2\n      swap1\n      pop\n      jump\t// out\n        /* \"#utility.yul\":5389:5501   */\n    tag_304:\n        /* \"#utility.yul\":5472:5494   */\n      tag_417\n        /* \"#utility.yul\":5488:5493   */\n      dup2\n        /* \"#utility.yul\":5472:5494   */\n      tag_303\n      jump\t// in\n    tag_417:\n        /* \"#utility.yul\":5467:5470   */\n      dup3\n        /* \"#utility.yul\":5460:5495   */\n      mstore\n        /* \"#utility.yul\":5389:5501   */\n      pop\n      pop\n      jump\t// out\n        /* \"#utility.yul\":5507:5721   */\n    tag_58:\n        /* \"#utility.yul\":5596:5600   */\n      0x00\n        /* \"#utility.yul\":5634:5636   */\n      0x20\n        /* \"#utility.yul\":5623:5632   */\n      dup3\n        /* \"#utility.yul\":5619:5637   */\n      add\n        /* \"#utility.yul\":5611:5637   */\n      swap1\n      pop\n        /* \"#utility.yul\":5647:5714   */\n      tag_419\n        /* \"#utility.yul\":5711:5712   */\n      0x00\n        /* \"#utility.yul\":5700:5709   */\n      dup4\n        /* \"#utility.yul\":5696:5713   */\n      add\n        /* \"#utility.yul\":5687:5693   */\n      dup5\n        /* \"#utility.yul\":5647:5714   */\n      tag_304\n      jump\t// in\n    tag_419:\n        /* \"#utility.yul\":5507:5721   */\n      swap3\n      swap2\n      pop\n      pop\n      jump\t// out\n        /* \"#utility.yul\":5727:6056   */\n    tag_71:\n        /* \"#utility.yul\":5786:5792   */\n      0x00\n        /* \"#utility.yul\":5835:5837   */\n      0x20\n        /* \"#utility.yul\":5823:5832   */\n      dup3\n        /* \"#utility.yul\":5814:5821   */\n      dup5\n        /* \"#utility.yul\":5810:5833   */\n      sub\n        /* \"#utility.yul\":5806:5838   */\n      slt\n        /* \"#utility.yul\":5803:5922   */\n      iszero\n      tag_421\n      jumpi\n        /* \"#utility.yul\":5841:5920   */\n      tag_422\n      tag_291\n      jump\t// in\n    tag_422:\n        /* \"#utility.yul\":5803:5922   */\n    tag_421:\n        /* \"#utility.yul\":5961:5962   */\n      0x00\n        /* \"#utility.yul\":5986:6039   */\n      tag_423\n        /* \"#utility.yul\":6031:6038   */\n      dup5\n        /* \"#utility.yul\":6022:6028   */\n      dup3\n        /* \"#utility.yul\":6011:6020   */\n      dup6\n        /* \"#utility.yul\":6007:6029   */\n      add\n        /* \"#utility.yul\":5986:6039   */\n      tag_296\n      jump\t// in\n    tag_423:\n        /* \"#utility.yul\":5976:6039   */\n      swap2\n      pop\n        /* \"#utility.yul\":5932:6049   */\n      pop\n        /* \"#utility.yul\":5727:6056   */\n      swap3\n      swap2\n      pop\n      pop\n      jump\t// out\n        /* \"#utility.yul\":6062:6176   */\n    tag_305:\n        /* \"#utility.yul\":6129:6135   */\n      0x00\n        /* \"#utility.yul\":6163:6168   */\n      dup2\n        /* \"#utility.yul\":6157:6169   */\n      mload\n        /* \"#utility.yul\":6147:6169   */\n      swap1\n      pop\n        /* \"#utility.yul\":6062:6176   */\n      swap2\n      swap1\n      pop\n      jump\t// out\n        /* \"#utility.yul\":6182:6366   */\n    tag_306:\n        /* \"#utility.yul\":6281:6292   */\n      0x00\n        /* \"#utility.yul\":6315:6321   */\n      dup3\n        /* \"#utility.yul\":6310:6313   */\n      dup3\n        /* \"#utility.yul\":6303:6322   */\n      mstore\n        /* \"#utility.yul\":6355:6359   */\n      0x20\n        /* \"#utility.yul\":6350:6353   */\n      dup3\n        /* \"#utility.yul\":6346:6360   */\n      add\n        /* \"#utility.yul\":6331:6360   */\n      swap1\n      pop\n        /* \"#utility.yul\":6182:6366   */\n      swap3\n      swap2\n      pop\n      pop\n      jump\t// out\n        /* \"#utility.yul\":6372:6504   */\n    tag_307:\n        /* \"#utility.yul\":6439:6443   */\n      0x00\n        /* \"#utility.yul\":6462:6465   */\n      dup2\n        /* \"#utility.yul\":6454:6465   */\n      swap1\n      pop\n        /* \"#utility.yul\":6492:6496   */\n      0x20\n        /* \"#utility.yul\":6487:6490   */\n      dup3\n        /* \"#utility.yul\":6483:6497   */\n      add\n        /* \"#utility.yul\":6475:6497   */\n      swap1\n      pop\n        /* \"#utility.yul\":6372:6504   */\n      swap2\n      swap1\n      pop\n      jump\t// out\n        /* \"#utility.yul\":6510:6618   */\n    tag_308:\n        /* \"#utility.yul\":6587:6611   */\n      tag_428\n        /* \"#utility.yul\":6605:6610   */\n      dup2\n        /* \"#utility.yul\":6587:6611   */\n      tag_297\n      jump\t// in\n    tag_428:\n        /* \"#utility.yul\":6582:6585   */\n      dup3\n        /* \"#utility.yul\":6575:6612   */\n      mstore\n        /* \"#utility.yul\":6510:6618   */\n      pop\n      pop\n      jump\t// out\n        /* \"#utility.yul\":6624:6803   */\n    tag_309:\n        /* \"#utility.yul\":6693:6703   */\n      0x00\n        /* \"#utility.yul\":6714:6760   */\n      tag_430\n        /* \"#utility.yul\":6756:6759   */\n      dup4\n        /* \"#utility.yul\":6748:6754   */\n      dup4\n        /* \"#utility.yul\":6714:6760   */\n      tag_308\n      jump\t// in\n    tag_430:\n        /* \"#utility.yul\":6792:6796   */\n      0x20\n        /* \"#utility.yul\":6787:6790   */\n      dup4\n        /* \"#utility.yul\":6783:6797   */\n      add\n        /* \"#utility.yul\":6769:6797   */\n      swap1\n      pop\n        /* \"#utility.yul\":6624:6803   */\n      swap3\n      swap2\n      pop\n      pop\n      jump\t// out\n        /* \"#utility.yul\":6809:6922   */\n    tag_310:\n        /* \"#utility.yul\":6879:6883   */\n      0x00\n        /* \"#utility.yul\":6911:6915   */\n      0x20\n        /* \"#utility.yul\":6906:6909   */\n      dup3\n        /* \"#utility.yul\":6902:6916   */\n      add\n        /* \"#utility.yul\":6894:6916   */\n      swap1\n      pop\n        /* \"#utility.yul\":6809:6922   */\n      swap2\n      swap1\n      pop\n      jump\t// out\n        /* \"#utility.yul\":6958:7690   */\n    tag_311:\n        /* \"#utility.yul\":7077:7080   */\n      0x00\n        /* \"#utility.yul\":7106:7160   */\n      tag_433\n        /* \"#utility.yul\":7154:7159   */\n      dup3\n        /* \"#utility.yul\":7106:7160   */\n      tag_305\n      jump\t// in\n    tag_433:\n        /* \"#utility.yul\":7176:7262   */\n      tag_434\n        /* \"#utility.yul\":7255:7261   */\n      dup2\n        /* \"#utility.yul\":7250:7253   */\n      dup6\n        /* \"#utility.yul\":7176:7262   */\n      tag_306\n      jump\t// in\n    tag_434:\n        /* \"#utility.yul\":7169:7262   */\n      swap4\n      pop\n        /* \"#utility.yul\":7286:7342   */\n      tag_435\n        /* \"#utility.yul\":7336:7341   */\n      dup4\n        /* \"#utility.yul\":7286:7342   */\n      tag_307\n      jump\t// in\n    tag_435:\n        /* \"#utility.yul\":7365:7372   */\n      dup1\n        /* \"#utility.yul\":7396:7397   */\n      0x00\n        /* \"#utility.yul\":7381:7665   */\n    tag_436:\n        /* \"#utility.yul\":7406:7412   */\n      dup4\n        /* \"#utility.yul\":7403:7404   */\n      dup2\n        /* \"#utility.yul\":7400:7413   */\n      lt\n        /* \"#utility.yul\":7381:7665   */\n      iszero\n      tag_438\n      jumpi\n        /* \"#utility.yul\":7482:7488   */\n      dup2\n        /* \"#utility.yul\":7476:7489   */\n      mload\n        /* \"#utility.yul\":7509:7572   */\n      tag_439\n        /* \"#utility.yul\":7568:7571   */\n      dup9\n        /* \"#utility.yul\":7553:7566   */\n      dup3\n        /* \"#utility.yul\":7509:7572   */\n      tag_309\n      jump\t// in\n    tag_439:\n        /* \"#utility.yul\":7502:7572   */\n      swap8\n      pop\n        /* \"#utility.yul\":7595:7655   */\n      tag_440\n        /* \"#utility.yul\":7648:7654   */\n      dup4\n        /* \"#utility.yul\":7595:7655   */\n      tag_310\n      jump\t// in\n    tag_440:\n        /* \"#utility.yul\":7585:7655   */\n      swap3\n      pop\n        /* \"#utility.yul\":7441:7665   */\n      pop\n        /* \"#utility.yul\":7428:7429   */\n      0x01\n        /* \"#utility.yul\":7425:7426   */\n      dup2\n        /* \"#utility.yul\":7421:7430   */\n      add\n        /* \"#utility.yul\":7416:7430   */\n      swap1\n      pop\n        /* \"#utility.yul\":7381:7665   */\n      jump(tag_436)\n    tag_438:\n        /* \"#utility.yul\":7385:7399   */\n      pop\n        /* \"#utility.yul\":7681:7684   */\n      dup6\n        /* \"#utility.yul\":7674:7684   */\n      swap4\n      pop\n        /* \"#utility.yul\":7082:7690   */\n      pop\n      pop\n      pop\n        /* \"#utility.yul\":6958:7690   */\n      swap3\n      swap2\n      pop\n      pop\n      jump\t// out\n        /* \"#utility.yul\":7696:8069   */\n    tag_74:\n        /* \"#utility.yul\":7839:7843   */\n      0x00\n        /* \"#utility.yul\":7877:7879   */\n      0x20\n        /* \"#utility.yul\":7866:7875   */\n      dup3\n        /* \"#utility.yul\":7862:7880   */\n      add\n        /* \"#utility.yul\":7854:7880   */\n      swap1\n      pop\n        /* \"#utility.yul\":7926:7935   */\n      dup2\n        /* \"#utility.yul\":7920:7924   */\n      dup2\n        /* \"#utility.yul\":7916:7936   */\n      sub\n        /* \"#utility.yul\":7912:7913   */\n      0x00\n        /* \"#utility.yul\":7901:7910   */\n      dup4\n        /* \"#utility.yul\":7897:7914   */\n      add\n        /* \"#utility.yul\":7890:7937   */\n      mstore\n        /* \"#utility.yul\":7954:8062   */\n      tag_442\n        /* \"#utility.yul\":8057:8061   */\n      dup2\n        /* \"#utility.yul\":8048:8054   */\n      dup5\n        /* \"#utility.yul\":7954:8062   */\n      tag_311\n      jump\t// in\n    tag_442:\n        /* \"#utility.yul\":7946:8062   */\n      swap1\n      pop\n        /* \"#utility.yul\":7696:8069   */\n      swap3\n      swap2\n      pop\n      pop\n      jump\t// out\n        /* \"#utility.yul\":8075:8193   */\n    tag_312:\n        /* \"#utility.yul\":8162:8186   */\n      tag_444\n        /* \"#utility.yul\":8180:8185   */\n      dup2\n        /* \"#utility.yul\":8162:8186   */\n      tag_294\n      jump\t// in\n    tag_444:\n        /* \"#utility.yul\":8157:8160   */\n      dup3\n        /* \"#utility.yul\":8150:8187   */\n      mstore\n        /* \"#utility.yul\":8075:8193   */\n      pop\n      pop\n      jump\t// out\n        /* \"#utility.yul\":8199:8421   */\n    tag_92:\n        /* \"#utility.yul\":8292:8296   */\n      0x00\n        /* \"#utility.yul\":8330:8332   */\n      0x20\n        /* \"#utility.yul\":8319:8328   */\n      dup3\n        /* \"#utility.yul\":8315:8333   */\n      add\n        /* \"#utility.yul\":8307:8333   */\n      swap1\n      pop\n        /* \"#utility.yul\":8343:8414   */\n      tag_446\n        /* \"#utility.yul\":8411:8412   */\n      0x00\n        /* \"#utility.yul\":8400:8409   */\n      dup4\n        /* \"#utility.yul\":8396:8413   */\n      add\n        /* \"#utility.yul\":8387:8393   */\n      dup5\n        /* \"#utility.yul\":8343:8414   */\n      tag_312\n      jump\t// in\n    tag_446:\n        /* \"#utility.yul\":8199:8421   */\n      swap3\n      swap2\n      pop\n      pop\n      jump\t// out\n        /* \"#utility.yul\":8427:8901   */\n    tag_106:\n        /* \"#utility.yul\":8495:8501   */\n      0x00\n        /* \"#utility.yul\":8503:8509   */\n      dup1\n        /* \"#utility.yul\":8552:8554   */\n      0x40\n        /* \"#utility.yul\":8540:8549   */\n      dup4\n        /* \"#utility.yul\":8531:8538   */\n      dup6\n        /* \"#utility.yul\":8527:8550   */\n      sub\n        /* \"#utility.yul\":8523:8555   */\n      slt\n        /* \"#utility.yul\":8520:8639   */\n      iszero\n      tag_448\n      jumpi\n        /* \"#utility.yul\":8558:8637   */\n      tag_449\n      tag_291\n      jump\t// in\n    tag_449:\n        /* \"#utility.yul\":8520:8639   */\n    tag_448:\n        /* \"#utility.yul\":8678:8679   */\n      0x00\n        /* \"#utility.yul\":8703:8756   */\n      tag_450\n        /* \"#utility.yul\":8748:8755   */\n      dup6\n        /* \"#utility.yul\":8739:8745   */\n      dup3\n        /* \"#utility.yul\":8728:8737   */\n      dup7\n        /* \"#utility.yul\":8724:8746   */\n      add\n        /* \"#utility.yul\":8703:8756   */\n      tag_296\n      jump\t// in\n    tag_450:\n        /* \"#utility.yul\":8693:8756   */\n      swap3\n      pop\n        /* \"#utility.yul\":8649:8766   */\n      pop\n        /* \"#utility.yul\":8805:8807   */\n      0x20\n        /* \"#utility.yul\":8831:8884   */\n      tag_451\n        /* \"#utility.yul\":8876:8883   */\n      dup6\n        /* \"#utility.yul\":8867:8873   */\n      dup3\n        /* \"#utility.yul\":8856:8865   */\n      dup7\n        /* \"#utility.yul\":8852:8874   */\n      add\n        /* \"#utility.yul\":8831:8884   */\n      tag_296\n      jump\t// in\n    tag_451:\n        /* \"#utility.yul\":8821:8884   */\n      swap2\n      pop\n        /* \"#utility.yul\":8776:8894   */\n      pop\n        /* \"#utility.yul\":8427:8901   */\n      swap3\n      pop\n      swap3\n      swap1\n      pop\n      jump\t// out\n        /* \"#utility.yul\":8907:9087   */\n    tag_313:\n        /* \"#utility.yul\":8955:9032   */\n      0x4e487b7100000000000000000000000000000000000000000000000000000000\n        /* \"#utility.yul\":8952:8953   */\n      0x00\n        /* \"#utility.yul\":8945:9033   */\n      mstore\n        /* \"#utility.yul\":9052:9056   */\n      0x22\n        /* \"#utility.yul\":9049:9050   */\n      0x04\n        /* \"#utility.yul\":9042:9057   */\n      mstore\n        /* \"#utility.yul\":9076:9080   */\n      0x24\n        /* \"#utility.yul\":9073:9074   */\n      0x00\n        /* \"#utility.yul\":9066:9081   */\n      revert\n        /* \"#utility.yul\":9093:9413   */\n    tag_114:\n        /* \"#utility.yul\":9137:9143   */\n      0x00\n        /* \"#utility.yul\":9174:9175   */\n      0x02\n        /* \"#utility.yul\":9168:9172   */\n      dup3\n        /* \"#utility.yul\":9164:9176   */\n      div\n        /* \"#utility.yul\":9154:9176   */\n      swap1\n      pop\n        /* \"#utility.yul\":9221:9222   */\n      0x01\n        /* \"#utility.yul\":9215:9219   */\n      dup3\n        /* \"#utility.yul\":9211:9223   */\n      and\n        /* \"#utility.yul\":9242:9260   */\n      dup1\n        /* \"#utility.yul\":9232:9313   */\n      tag_454\n      jumpi\n        /* \"#utility.yul\":9298:9302   */\n      0x7f\n        /* \"#utility.yul\":9290:9296   */\n      dup3\n        /* \"#utility.yul\":9286:9303   */\n      and\n        /* \"#utility.yul\":9276:9303   */\n      swap2\n      pop\n        /* \"#utility.yul\":9232:9313   */\n    tag_454:\n        /* \"#utility.yul\":9360:9362   */\n      0x20\n        /* \"#utility.yul\":9352:9358   */\n      dup3\n        /* \"#utility.yul\":9349:9363   */\n      lt\n        /* \"#utility.yul\":9329:9347   */\n      dup2\n        /* \"#utility.yul\":9326:9364   */\n      sub\n        /* \"#utility.yul\":9323:9407   */\n      tag_455\n      jumpi\n        /* \"#utility.yul\":9379:9397   */\n      tag_456\n      tag_313\n      jump\t// in\n    tag_456:\n        /* \"#utility.yul\":9323:9407   */\n    tag_455:\n        /* \"#utility.yul\":9144:9413   */\n      pop\n        /* \"#utility.yul\":9093:9413   */\n      swap2\n      swap1\n      pop\n      jump\t// out\n        /* \"#utility.yul\":9419:9596   */\n    tag_314:\n        /* \"#utility.yul\":9559:9588   */\n      0x446567656e546f6b656e3a20496e76616c6964206974656d2049440000000000\n        /* \"#utility.yul\":9555:9556   */\n      0x00\n        /* \"#utility.yul\":9547:9553   */\n      dup3\n        /* \"#utility.yul\":9543:9557   */\n      add\n        /* \"#utility.yul\":9536:9589   */\n      mstore\n        /* \"#utility.yul\":9419:9596   */\n      pop\n      jump\t// out\n        /* \"#utility.yul\":9602:9968   */\n    tag_315:\n        /* \"#utility.yul\":9744:9747   */\n      0x00\n        /* \"#utility.yul\":9765:9832   */\n      tag_459\n        /* \"#utility.yul\":9829:9831   */\n      0x1b\n        /* \"#utility.yul\":9824:9827   */\n      dup4\n        /* \"#utility.yul\":9765:9832   */\n      tag_286\n      jump\t// in\n    tag_459:\n        /* \"#utility.yul\":9758:9832   */\n      swap2\n      pop\n        /* \"#utility.yul\":9841:9934   */\n      tag_460\n        /* \"#utility.yul\":9930:9933   */\n      dup3\n        /* \"#utility.yul\":9841:9934   */\n      tag_314\n      jump\t// in\n    tag_460:\n        /* \"#utility.yul\":9959:9961   */\n      0x20\n        /* \"#utility.yul\":9954:9957   */\n      dup3\n        /* \"#utility.yul\":9950:9962   */\n      add\n        /* \"#utility.yul\":9943:9962   */\n      swap1\n      pop\n        /* \"#utility.yul\":9602:9968   */\n      swap2\n      swap1\n      pop\n      jump\t// out\n        /* \"#utility.yul\":9974:10393   */\n    tag_127:\n        /* \"#utility.yul\":10140:10144   */\n      0x00\n        /* \"#utility.yul\":10178:10180   */\n      0x20\n        /* \"#utility.yul\":10167:10176   */\n      dup3\n        /* \"#utility.yul\":10163:10181   */\n      add\n        /* \"#utility.yul\":10155:10181   */\n      swap1\n      pop\n        /* \"#utility.yul\":10227:10236   */\n      dup2\n        /* \"#utility.yul\":10221:10225   */\n      dup2\n        /* \"#utility.yul\":10217:10237   */\n      sub\n        /* \"#utility.yul\":10213:10214   */\n      0x00\n        /* \"#utility.yul\":10202:10211   */\n      dup4\n        /* \"#utility.yul\":10198:10215   */\n      add\n        /* \"#utility.yul\":10191:10238   */\n      mstore\n        /* \"#utility.yul\":10255:10386   */\n      tag_462\n        /* \"#utility.yul\":10381:10385   */\n      dup2\n        /* \"#utility.yul\":10255:10386   */\n      tag_315\n      jump\t// in\n    tag_462:\n        /* \"#utility.yul\":10247:10386   */\n      swap1\n      pop\n        /* \"#utility.yul\":9974:10393   */\n      swap2\n      swap1\n      pop\n      jump\t// out\n        /* \"#utility.yul\":10399:10579   */\n    tag_130:\n        /* \"#utility.yul\":10447:10524   */\n      0x4e487b7100000000000000000000000000000000000000000000000000000000\n        /* \"#utility.yul\":10444:10445   */\n      0x00\n        /* \"#utility.yul\":10437:10525   */\n      mstore\n        /* \"#utility.yul\":10544:10548   */\n      0x32\n        /* \"#utility.yul\":10541:10542   */\n      0x04\n        /* \"#utility.yul\":10534:10549   */\n      mstore\n        /* \"#utility.yul\":10568:10572   */\n      0x24\n        /* \"#utility.yul\":10565:10566   */\n      0x00\n        /* \"#utility.yul\":10558:10573   */\n      revert\n        /* \"#utility.yul\":10585:10767   */\n    tag_316:\n        /* \"#utility.yul\":10725:10759   */\n      0x446567656e546f6b656e3a20496e73756666696369656e742062616c616e6365\n        /* \"#utility.yul\":10721:10722   */\n      0x00\n        /* \"#utility.yul\":10713:10719   */\n      dup3\n        /* \"#utility.yul\":10709:10723   */\n      add\n        /* \"#utility.yul\":10702:10760   */\n      mstore\n        /* \"#utility.yul\":10585:10767   */\n      pop\n      jump\t// out\n        /* \"#utility.yul\":10773:11139   */\n    tag_317:\n        /* \"#utility.yul\":10915:10918   */\n      0x00\n        /* \"#utility.yul\":10936:11003   */\n      tag_466\n        /* \"#utility.yul\":11000:11002   */\n      0x20\n        /* \"#utility.yul\":10995:10998   */\n      dup4\n        /* \"#utility.yul\":10936:11003   */\n      tag_286\n      jump\t// in\n    tag_466:\n        /* \"#utility.yul\":10929:11003   */\n      swap2\n      pop\n        /* \"#utility.yul\":11012:11105   */\n      tag_467\n        /* \"#utility.yul\":11101:11104   */\n      dup3\n        /* \"#utility.yul\":11012:11105   */\n      tag_316\n      jump\t// in\n    tag_467:\n        /* \"#utility.yul\":11130:11132   */\n      0x20\n        /* \"#utility.yul\":11125:11128   */\n      dup3\n        /* \"#utility.yul\":11121:11133   */\n      add\n        /* \"#utility.yul\":11114:11133   */\n      swap1\n      pop\n        /* \"#utility.yul\":10773:11139   */\n      swap2\n      swap1\n      pop\n      jump\t// out\n        /* \"#utility.yul\":11145:11564   */\n    tag_135:\n        /* \"#utility.yul\":11311:11315   */\n      0x00\n        /* \"#utility.yul\":11349:11351   */\n      0x20\n        /* \"#utility.yul\":11338:11347   */\n      dup3\n        /* \"#utility.yul\":11334:11352   */\n      add\n        /* \"#utility.yul\":11326:11352   */\n      swap1\n      pop\n        /* \"#utility.yul\":11398:11407   */\n      dup2\n        /* \"#utility.yul\":11392:11396   */\n      dup2\n        /* \"#utility.yul\":11388:11408   */\n      sub\n        /* \"#utility.yul\":11384:11385   */\n      0x00\n        /* \"#utility.yul\":11373:11382   */\n      dup4\n        /* \"#utility.yul\":11369:11386   */\n      add\n        /* \"#utility.yul\":11362:11409   */\n      mstore\n        /* \"#utility.yul\":11426:11557   */\n      tag_469\n        /* \"#utility.yul\":11552:11556   */\n      dup2\n        /* \"#utility.yul\":11426:11557   */\n      tag_317\n      jump\t// in\n    tag_469:\n        /* \"#utility.yul\":11418:11557   */\n      swap1\n      pop\n        /* \"#utility.yul\":11145:11564   */\n      swap2\n      swap1\n      pop\n      jump\t// out\n        /* \"#utility.yul\":11570:11750   */\n    tag_318:\n        /* \"#utility.yul\":11618:11695   */\n      0x4e487b7100000000000000000000000000000000000000000000000000000000\n        /* \"#utility.yul\":11615:11616   */\n      0x00\n        /* \"#utility.yul\":11608:11696   */\n      mstore\n        /* \"#utility.yul\":11715:11719   */\n      0x11\n        /* \"#utility.yul\":11712:11713   */\n      0x04\n        /* \"#utility.yul\":11705:11720   */\n      mstore\n        /* \"#utility.yul\":11739:11743   */\n      0x24\n        /* \"#utility.yul\":11736:11737   */\n      0x00\n        /* \"#utility.yul\":11729:11744   */\n      revert\n        /* \"#utility.yul\":11756:11947   */\n    tag_159:\n        /* \"#utility.yul\":11796:11799   */\n      0x00\n        /* \"#utility.yul\":11815:11835   */\n      tag_472\n        /* \"#utility.yul\":11833:11834   */\n      dup3\n        /* \"#utility.yul\":11815:11835   */\n      tag_297\n      jump\t// in\n    tag_472:\n        /* \"#utility.yul\":11810:11835   */\n      swap2\n      pop\n        /* \"#utility.yul\":11849:11869   */\n      tag_473\n        /* \"#utility.yul\":11867:11868   */\n      dup4\n        /* \"#utility.yul\":11849:11869   */\n      tag_297\n      jump\t// in\n    tag_473:\n        /* \"#utility.yul\":11844:11869   */\n      swap3\n      pop\n        /* \"#utility.yul\":11892:11893   */\n      dup3\n        /* \"#utility.yul\":11889:11890   */\n      dup3\n        /* \"#utility.yul\":11885:11894   */\n      add\n        /* \"#utility.yul\":11878:11894   */\n      swap1\n      pop\n        /* \"#utility.yul\":11913:11916   */\n      dup1\n        /* \"#utility.yul\":11910:11911   */\n      dup3\n        /* \"#utility.yul\":11907:11917   */\n      gt\n        /* \"#utility.yul\":11904:11940   */\n      iszero\n      tag_474\n      jumpi\n        /* \"#utility.yul\":11920:11938   */\n      tag_475\n      tag_318\n      jump\t// in\n    tag_475:\n        /* \"#utility.yul\":11904:11940   */\n    tag_474:\n        /* \"#utility.yul\":11756:11947   */\n      swap3\n      swap2\n      pop\n      pop\n      jump\t// out\n        /* \"#utility.yul\":11953:12118   */\n    tag_319:\n        /* \"#utility.yul\":12093:12110   */\n      0x496e76616c696420616464726573730000000000000000000000000000000000\n        /* \"#utility.yul\":12089:12090   */\n      0x00\n        /* \"#utility.yul\":12081:12087   */\n      dup3\n        /* \"#utility.yul\":12077:12091   */\n      add\n        /* \"#utility.yul\":12070:12111   */\n      mstore\n        /* \"#utility.yul\":11953:12118   */\n      pop\n      jump\t// out\n        /* \"#utility.yul\":12124:12490   */\n    tag_320:\n        /* \"#utility.yul\":12266:12269   */\n      0x00\n        /* \"#utility.yul\":12287:12354   */\n      tag_478\n        /* \"#utility.yul\":12351:12353   */\n      0x0f\n        /* \"#utility.yul\":12346:12349   */\n      dup4\n        /* \"#utility.yul\":12287:12354   */\n      tag_286\n      jump\t// in\n    tag_478:\n        /* \"#utility.yul\":12280:12354   */\n      swap2\n      pop\n        /* \"#utility.yul\":12363:12456   */\n      tag_479\n        /* \"#utility.yul\":12452:12455   */\n      dup3\n        /* \"#utility.yul\":12363:12456   */\n      tag_319\n      jump\t// in\n    tag_479:\n        /* \"#utility.yul\":12481:12483   */\n      0x20\n        /* \"#utility.yul\":12476:12479   */\n      dup3\n        /* \"#utility.yul\":12472:12484   */\n      add\n        /* \"#utility.yul\":12465:12484   */\n      swap1\n      pop\n        /* \"#utility.yul\":12124:12490   */\n      swap2\n      swap1\n      pop\n      jump\t// out\n        /* \"#utility.yul\":12496:12915   */\n    tag_166:\n        /* \"#utility.yul\":12662:12666   */\n      0x00\n        /* \"#utility.yul\":12700:12702   */\n      0x20\n        /* \"#utility.yul\":12689:12698   */\n      dup3\n        /* \"#utility.yul\":12685:12703   */\n      add\n        /* \"#utility.yul\":12677:12703   */\n      swap1\n      pop\n        /* \"#utility.yul\":12749:12758   */\n      dup2\n        /* \"#utility.yul\":12743:12747   */\n      dup2\n        /* \"#utility.yul\":12739:12759   */\n      sub\n        /* \"#utility.yul\":12735:12736   */\n      0x00\n        /* \"#utility.yul\":12724:12733   */\n      dup4\n        /* \"#utility.yul\":12720:12737   */\n      add\n        /* \"#utility.yul\":12713:12760   */\n      mstore\n        /* \"#utility.yul\":12777:12908   */\n      tag_481\n        /* \"#utility.yul\":12903:12907   */\n      dup2\n        /* \"#utility.yul\":12777:12908   */\n      tag_320\n      jump\t// in\n    tag_481:\n        /* \"#utility.yul\":12769:12908   */\n      swap1\n      pop\n        /* \"#utility.yul\":12496:12915   */\n      swap2\n      swap1\n      pop\n      jump\t// out\n        /* \"#utility.yul\":12921:13142   */\n    tag_321:\n        /* \"#utility.yul\":13061:13095   */\n      0x4d696e7420616d6f756e74206d7573742062652067726561746572207468616e\n        /* \"#utility.yul\":13057:13058   */\n      0x00\n        /* \"#utility.yul\":13049:13055   */\n      dup3\n        /* \"#utility.yul\":13045:13059   */\n      add\n        /* \"#utility.yul\":13038:13096   */\n      mstore\n        /* \"#utility.yul\":13130:13134   */\n      0x2030000000000000000000000000000000000000000000000000000000000000\n        /* \"#utility.yul\":13125:13127   */\n      0x20\n        /* \"#utility.yul\":13117:13123   */\n      dup3\n        /* \"#utility.yul\":13113:13128   */\n      add\n        /* \"#utility.yul\":13106:13135   */\n      mstore\n        /* \"#utility.yul\":12921:13142   */\n      pop\n      jump\t// out\n        /* \"#utility.yul\":13148:13514   */\n    tag_322:\n        /* \"#utility.yul\":13290:13293   */\n      0x00\n        /* \"#utility.yul\":13311:13378   */\n      tag_484\n        /* \"#utility.yul\":13375:13377   */\n      0x22\n        /* \"#utility.yul\":13370:13373   */\n      dup4\n        /* \"#utility.yul\":13311:13378   */\n      tag_286\n      jump\t// in\n    tag_484:\n        /* \"#utility.yul\":13304:13378   */\n      swap2\n      pop\n        /* \"#utility.yul\":13387:13480   */\n      tag_485\n        /* \"#utility.yul\":13476:13479   */\n      dup3\n        /* \"#utility.yul\":13387:13480   */\n      tag_321\n      jump\t// in\n    tag_485:\n        /* \"#utility.yul\":13505:13507   */\n      0x40\n        /* \"#utility.yul\":13500:13503   */\n      dup3\n        /* \"#utility.yul\":13496:13508   */\n      add\n        /* \"#utility.yul\":13489:13508   */\n      swap1\n      pop\n        /* \"#utility.yul\":13148:13514   */\n      swap2\n      swap1\n      pop\n      jump\t// out\n        /* \"#utility.yul\":13520:13939   */\n    tag_169:\n        /* \"#utility.yul\":13686:13690   */\n      0x00\n        /* \"#utility.yul\":13724:13726   */\n      0x20\n        /* \"#utility.yul\":13713:13722   */\n      dup3\n        /* \"#utility.yul\":13709:13727   */\n      add\n        /* \"#utility.yul\":13701:13727   */\n      swap1\n      pop\n        /* \"#utility.yul\":13773:13782   */\n      dup2\n        /* \"#utility.yul\":13767:13771   */\n      dup2\n        /* \"#utility.yul\":13763:13783   */\n      sub\n        /* \"#utility.yul\":13759:13760   */\n      0x00\n        /* \"#utility.yul\":13748:13757   */\n      dup4\n        /* \"#utility.yul\":13744:13761   */\n      add\n        /* \"#utility.yul\":13737:13784   */\n      mstore\n        /* \"#utility.yul\":13801:13932   */\n      tag_487\n        /* \"#utility.yul\":13927:13931   */\n      dup2\n        /* \"#utility.yul\":13801:13932   */\n      tag_322\n      jump\t// in\n    tag_487:\n        /* \"#utility.yul\":13793:13932   */\n      swap1\n      pop\n        /* \"#utility.yul\":13520:13939   */\n      swap2\n      swap1\n      pop\n      jump\t// out\n        /* \"#utility.yul\":13945:14166   */\n    tag_323:\n        /* \"#utility.yul\":14085:14119   */\n      0x4275726e20616d6f756e74206d7573742062652067726561746572207468616e\n        /* \"#utility.yul\":14081:14082   */\n      0x00\n        /* \"#utility.yul\":14073:14079   */\n      dup3\n        /* \"#utility.yul\":14069:14083   */\n      add\n        /* \"#utility.yul\":14062:14120   */\n      mstore\n        /* \"#utility.yul\":14154:14158   */\n      0x2030000000000000000000000000000000000000000000000000000000000000\n        /* \"#utility.yul\":14149:14151   */\n      0x20\n        /* \"#utility.yul\":14141:14147   */\n      dup3\n        /* \"#utility.yul\":14137:14152   */\n      add\n        /* \"#utility.yul\":14130:14159   */\n      mstore\n        /* \"#utility.yul\":13945:14166   */\n      pop\n      jump\t// out\n        /* \"#utility.yul\":14172:14538   */\n    tag_324:\n        /* \"#utility.yul\":14314:14317   */\n      0x00\n        /* \"#utility.yul\":14335:14402   */\n      tag_490\n        /* \"#utility.yul\":14399:14401   */\n      0x22\n        /* \"#utility.yul\":14394:14397   */\n      dup4\n        /* \"#utility.yul\":14335:14402   */\n      tag_286\n      jump\t// in\n    tag_490:\n        /* \"#utility.yul\":14328:14402   */\n      swap2\n      pop\n        /* \"#utility.yul\":14411:14504   */\n      tag_491\n        /* \"#utility.yul\":14500:14503   */\n      dup3\n        /* \"#utility.yul\":14411:14504   */\n      tag_323\n      jump\t// in\n    tag_491:\n        /* \"#utility.yul\":14529:14531   */\n      0x40\n        /* \"#utility.yul\":14524:14527   */\n      dup3\n        /* \"#utility.yul\":14520:14532   */\n      add\n        /* \"#utility.yul\":14513:14532   */\n      swap1\n      pop\n        /* \"#utility.yul\":14172:14538   */\n      swap2\n      swap1\n      pop\n      jump\t// out\n        /* \"#utility.yul\":14544:14963   */\n    tag_175:\n        /* \"#utility.yul\":14710:14714   */\n      0x00\n        /* \"#utility.yul\":14748:14750   */\n      0x20\n        /* \"#utility.yul\":14737:14746   */\n      dup3\n        /* \"#utility.yul\":14733:14751   */\n      add\n        /* \"#utility.yul\":14725:14751   */\n      swap1\n      pop\n        /* \"#utility.yul\":14797:14806   */\n      dup2\n        /* \"#utility.yul\":14791:14795   */\n      dup2\n        /* \"#utility.yul\":14787:14807   */\n      sub\n        /* \"#utility.yul\":14783:14784   */\n      0x00\n        /* \"#utility.yul\":14772:14781   */\n      dup4\n        /* \"#utility.yul\":14768:14785   */\n      add\n        /* \"#utility.yul\":14761:14808   */\n      mstore\n        /* \"#utility.yul\":14825:14956   */\n      tag_493\n        /* \"#utility.yul\":14951:14955   */\n      dup2\n        /* \"#utility.yul\":14825:14956   */\n      tag_324\n      jump\t// in\n    tag_493:\n        /* \"#utility.yul\":14817:14956   */\n      swap1\n      pop\n        /* \"#utility.yul\":14544:14963   */\n      swap2\n      swap1\n      pop\n      jump\t// out\n        /* \"#utility.yul\":14969:15139   */\n    tag_325:\n        /* \"#utility.yul\":15109:15131   */\n      0x496e73756666696369656e742062616c616e6365000000000000000000000000\n        /* \"#utility.yul\":15105:15106   */\n      0x00\n        /* \"#utility.yul\":15097:15103   */\n      dup3\n        /* \"#utility.yul\":15093:15107   */\n      add\n        /* \"#utility.yul\":15086:15132   */\n      mstore\n        /* \"#utility.yul\":14969:15139   */\n      pop\n      jump\t// out\n        /* \"#utility.yul\":15145:15511   */\n    tag_326:\n        /* \"#utility.yul\":15287:15290   */\n      0x00\n        /* \"#utility.yul\":15308:15375   */\n      tag_496\n        /* \"#utility.yul\":15372:15374   */\n      0x14\n        /* \"#utility.yul\":15367:15370   */\n      dup4\n        /* \"#utility.yul\":15308:15375   */\n      tag_286\n      jump\t// in\n    tag_496:\n        /* \"#utility.yul\":15301:15375   */\n      swap2\n      pop\n        /* \"#utility.yul\":15384:15477   */\n      tag_497\n        /* \"#utility.yul\":15473:15476   */\n      dup3\n        /* \"#utility.yul\":15384:15477   */\n      tag_325\n      jump\t// in\n    tag_497:\n        /* \"#utility.yul\":15502:15504   */\n      0x20\n        /* \"#utility.yul\":15497:15500   */\n      dup3\n        /* \"#utility.yul\":15493:15505   */\n      add\n        /* \"#utility.yul\":15486:15505   */\n      swap1\n      pop\n        /* \"#utility.yul\":15145:15511   */\n      swap2\n      swap1\n      pop\n      jump\t// out\n        /* \"#utility.yul\":15517:15936   */\n    tag_179:\n        /* \"#utility.yul\":15683:15687   */\n      0x00\n        /* \"#utility.yul\":15721:15723   */\n      0x20\n        /* \"#utility.yul\":15710:15719   */\n      dup3\n        /* \"#utility.yul\":15706:15724   */\n      add\n        /* \"#utility.yul\":15698:15724   */\n      swap1\n      pop\n        /* \"#utility.yul\":15770:15779   */\n      dup2\n        /* \"#utility.yul\":15764:15768   */\n      dup2\n        /* \"#utility.yul\":15760:15780   */\n      sub\n        /* \"#utility.yul\":15756:15757   */\n      0x00\n        /* \"#utility.yul\":15745:15754   */\n      dup4\n        /* \"#utility.yul\":15741:15758   */\n      add\n        /* \"#utility.yul\":15734:15781   */\n      mstore\n        /* \"#utility.yul\":15798:15929   */\n      tag_499\n        /* \"#utility.yul\":15924:15928   */\n      dup2\n        /* \"#utility.yul\":15798:15929   */\n      tag_326\n      jump\t// in\n    tag_499:\n        /* \"#utility.yul\":15790:15929   */\n      swap1\n      pop\n        /* \"#utility.yul\":15517:15936   */\n      swap2\n      swap1\n      pop\n      jump\t// out\n        /* \"#utility.yul\":15942:16166   */\n    tag_327:\n        /* \"#utility.yul\":16082:16116   */\n      0x45524332303a2064656372656173656420616c6c6f77616e63652062656c6f77\n        /* \"#utility.yul\":16078:16079   */\n      0x00\n        /* \"#utility.yul\":16070:16076   */\n      dup3\n        /* \"#utility.yul\":16066:16080   */\n      add\n        /* \"#utility.yul\":16059:16117   */\n      mstore\n        /* \"#utility.yul\":16151:16158   */\n      0x207a65726f000000000000000000000000000000000000000000000000000000\n        /* \"#utility.yul\":16146:16148   */\n      0x20\n        /* \"#utility.yul\":16138:16144   */\n      dup3\n        /* \"#utility.yul\":16134:16149   */\n      add\n        /* \"#utility.yul\":16127:16159   */\n      mstore\n        /* \"#utility.yul\":15942:16166   */\n      pop\n      jump\t// out\n        /* \"#utility.yul\":16172:16538   */\n    tag_328:\n        /* \"#utility.yul\":16314:16317   */\n      0x00\n        /* \"#utility.yul\":16335:16402   */\n      tag_502\n        /* \"#utility.yul\":16399:16401   */\n      0x25\n        /* \"#utility.yul\":16394:16397   */\n      dup4\n        /* \"#utility.yul\":16335:16402   */\n      tag_286\n      jump\t// in\n    tag_502:\n        /* \"#utility.yul\":16328:16402   */\n      swap2\n      pop\n        /* \"#utility.yul\":16411:16504   */\n      tag_503\n        /* \"#utility.yul\":16500:16503   */\n      dup3\n        /* \"#utility.yul\":16411:16504   */\n      tag_327\n      jump\t// in\n    tag_503:\n        /* \"#utility.yul\":16529:16531   */\n      0x40\n        /* \"#utility.yul\":16524:16527   */\n      dup3\n        /* \"#utility.yul\":16520:16532   */\n      add\n        /* \"#utility.yul\":16513:16532   */\n      swap1\n      pop\n        /* \"#utility.yul\":16172:16538   */\n      swap2\n      swap1\n      pop\n      jump\t// out\n        /* \"#utility.yul\":16544:16963   */\n    tag_206:\n        /* \"#utility.yul\":16710:16714   */\n      0x00\n        /* \"#utility.yul\":16748:16750   */\n      0x20\n        /* \"#utility.yul\":16737:16746   */\n      dup3\n        /* \"#utility.yul\":16733:16751   */\n      add\n        /* \"#utility.yul\":16725:16751   */\n      swap1\n      pop\n        /* \"#utility.yul\":16797:16806   */\n      dup2\n        /* \"#utility.yul\":16791:16795   */\n      dup2\n        /* \"#utility.yul\":16787:16807   */\n      sub\n        /* \"#utility.yul\":16783:16784   */\n      0x00\n        /* \"#utility.yul\":16772:16781   */\n      dup4\n        /* \"#utility.yul\":16768:16785   */\n      add\n        /* \"#utility.yul\":16761:16808   */\n      mstore\n        /* \"#utility.yul\":16825:16956   */\n      tag_505\n        /* \"#utility.yul\":16951:16955   */\n      dup2\n        /* \"#utility.yul\":16825:16956   */\n      tag_328\n      jump\t// in\n    tag_505:\n        /* \"#utility.yul\":16817:16956   */\n      swap1\n      pop\n        /* \"#utility.yul\":16544:16963   */\n      swap2\n      swap1\n      pop\n      jump\t// out\n        /* \"#utility.yul\":16969:17144   */\n    tag_329:\n        /* \"#utility.yul\":17109:17136   */\n      0x496e76616c696420726563697069656e74206164647265737300000000000000\n        /* \"#utility.yul\":17105:17106   */\n      0x00\n        /* \"#utility.yul\":17097:17103   */\n      dup3\n        /* \"#utility.yul\":17093:17107   */\n      add\n        /* \"#utility.yul\":17086:17137   */\n      mstore\n        /* \"#utility.yul\":16969:17144   */\n      pop\n      jump\t// out\n        /* \"#utility.yul\":17150:17516   */\n    tag_330:\n        /* \"#utility.yul\":17292:17295   */\n      0x00\n        /* \"#utility.yul\":17313:17380   */\n      tag_508\n        /* \"#utility.yul\":17377:17379   */\n      0x19\n        /* \"#utility.yul\":17372:17375   */\n      dup4\n        /* \"#utility.yul\":17313:17380   */\n      tag_286\n      jump\t// in\n    tag_508:\n        /* \"#utility.yul\":17306:17380   */\n      swap2\n      pop\n        /* \"#utility.yul\":17389:17482   */\n      tag_509\n        /* \"#utility.yul\":17478:17481   */\n      dup3\n        /* \"#utility.yul\":17389:17482   */\n      tag_329\n      jump\t// in\n    tag_509:\n        /* \"#utility.yul\":17507:17509   */\n      0x20\n        /* \"#utility.yul\":17502:17505   */\n      dup3\n        /* \"#utility.yul\":17498:17510   */\n      add\n        /* \"#utility.yul\":17491:17510   */\n      swap1\n      pop\n        /* \"#utility.yul\":17150:17516   */\n      swap2\n      swap1\n      pop\n      jump\t// out\n        /* \"#utility.yul\":17522:17941   */\n    tag_211:\n        /* \"#utility.yul\":17688:17692   */\n      0x00\n        /* \"#utility.yul\":17726:17728   */\n      0x20\n        /* \"#utility.yul\":17715:17724   */\n      dup3\n        /* \"#utility.yul\":17711:17729   */\n      add\n        /* \"#utility.yul\":17703:17729   */\n      swap1\n      pop\n        /* \"#utility.yul\":17775:17784   */\n      dup2\n        /* \"#utility.yul\":17769:17773   */\n      dup2\n        /* \"#utility.yul\":17765:17785   */\n      sub\n        /* \"#utility.yul\":17761:17762   */\n      0x00\n        /* \"#utility.yul\":17750:17759   */\n      dup4\n        /* \"#utility.yul\":17746:17763   */\n      add\n        /* \"#utility.yul\":17739:17786   */\n      mstore\n        /* \"#utility.yul\":17803:17934   */\n      tag_511\n        /* \"#utility.yul\":17929:17933   */\n      dup2\n        /* \"#utility.yul\":17803:17934   */\n      tag_330\n      jump\t// in\n    tag_511:\n        /* \"#utility.yul\":17795:17934   */\n      swap1\n      pop\n        /* \"#utility.yul\":17522:17941   */\n      swap2\n      swap1\n      pop\n      jump\t// out\n        /* \"#utility.yul\":17947:18172   */\n    tag_331:\n        /* \"#utility.yul\":18087:18121   */\n      0x5472616e7366657220616d6f756e74206d757374206265206772656174657220\n        /* \"#utility.yul\":18083:18084   */\n      0x00\n        /* \"#utility.yul\":18075:18081   */\n      dup3\n        /* \"#utility.yul\":18071:18085   */\n      add\n        /* \"#utility.yul\":18064:18122   */\n      mstore\n        /* \"#utility.yul\":18156:18164   */\n      0x7468616e20300000000000000000000000000000000000000000000000000000\n        /* \"#utility.yul\":18151:18153   */\n      0x20\n        /* \"#utility.yul\":18143:18149   */\n      dup3\n        /* \"#utility.yul\":18139:18154   */\n      add\n        /* \"#utility.yul\":18132:18165   */\n      mstore\n        /* \"#utility.yul\":17947:18172   */\n      pop\n      jump\t// out\n        /* \"#utility.yul\":18178:18544   */\n    tag_332:\n        /* \"#utility.yul\":18320:18323   */\n      0x00\n        /* \"#utility.yul\":18341:18408   */\n      tag_514\n        /* \"#utility.yul\":18405:18407   */\n      0x26\n        /* \"#utility.yul\":18400:18403   */\n      dup4\n        /* \"#utility.yul\":18341:18408   */\n      tag_286\n      jump\t// in\n    tag_514:\n        /* \"#utility.yul\":18334:18408   */\n      swap2\n      pop\n        /* \"#utility.yul\":18417:18510   */\n      tag_515\n        /* \"#utility.yul\":18506:18509   */\n      dup3\n        /* \"#utility.yul\":18417:18510   */\n      tag_331\n      jump\t// in\n    tag_515:\n        /* \"#utility.yul\":18535:18537   */\n      0x40\n        /* \"#utility.yul\":18530:18533   */\n      dup3\n        /* \"#utility.yul\":18526:18538   */\n      add\n        /* \"#utility.yul\":18519:18538   */\n      swap1\n      pop\n        /* \"#utility.yul\":18178:18544   */\n      swap2\n      swap1\n      pop\n      jump\t// out\n        /* \"#utility.yul\":18550:18969   */\n    tag_214:\n        /* \"#utility.yul\":18716:18720   */\n      0x00\n        /* \"#utility.yul\":18754:18756   */\n      0x20\n        /* \"#utility.yul\":18743:18752   */\n      dup3\n        /* \"#utility.yul\":18739:18757   */\n      add\n        /* \"#utility.yul\":18731:18757   */\n      swap1\n      pop\n        /* \"#utility.yul\":18803:18812   */\n      dup2\n        /* \"#utility.yul\":18797:18801   */\n      dup2\n        /* \"#utility.yul\":18793:18813   */\n      sub\n        /* \"#utility.yul\":18789:18790   */\n      0x00\n        /* \"#utility.yul\":18778:18787   */\n      dup4\n        /* \"#utility.yul\":18774:18791   */\n      add\n        /* \"#utility.yul\":18767:18814   */\n      mstore\n        /* \"#utility.yul\":18831:18962   */\n      tag_517\n        /* \"#utility.yul\":18957:18961   */\n      dup2\n        /* \"#utility.yul\":18831:18962   */\n      tag_332\n      jump\t// in\n    tag_517:\n        /* \"#utility.yul\":18823:18962   */\n      swap1\n      pop\n        /* \"#utility.yul\":18550:18969   */\n      swap2\n      swap1\n      pop\n      jump\t// out\n        /* \"#utility.yul\":18975:19200   */\n    tag_333:\n        /* \"#utility.yul\":19115:19149   */\n      0x4f776e61626c653a206e6577206f776e657220697320746865207a65726f2061\n        /* \"#utility.yul\":19111:19112   */\n      0x00\n        /* \"#utility.yul\":19103:19109   */\n      dup3\n        /* \"#utility.yul\":19099:19113   */\n      add\n        /* \"#utility.yul\":19092:19150   */\n      mstore\n        /* \"#utility.yul\":19184:19192   */\n      0x6464726573730000000000000000000000000000000000000000000000000000\n        /* \"#utility.yul\":19179:19181   */\n      0x20\n        /* \"#utility.yul\":19171:19177   */\n      dup3\n        /* \"#utility.yul\":19167:19182   */\n      add\n        /* \"#utility.yul\":19160:19193   */\n      mstore\n        /* \"#utility.yul\":18975:19200   */\n      pop\n      jump\t// out\n        /* \"#utility.yul\":19206:19572   */\n    tag_334:\n        /* \"#utility.yul\":19348:19351   */\n      0x00\n        /* \"#utility.yul\":19369:19436   */\n      tag_520\n        /* \"#utility.yul\":19433:19435   */\n      0x26\n        /* \"#utility.yul\":19428:19431   */\n      dup4\n        /* \"#utility.yul\":19369:19436   */\n      tag_286\n      jump\t// in\n    tag_520:\n        /* \"#utility.yul\":19362:19436   */\n      swap2\n      pop\n        /* \"#utility.yul\":19445:19538   */\n      tag_521\n        /* \"#utility.yul\":19534:19537   */\n      dup3\n        /* \"#utility.yul\":19445:19538   */\n      tag_333\n      jump\t// in\n    tag_521:\n        /* \"#utility.yul\":19563:19565   */\n      0x40\n        /* \"#utility.yul\":19558:19561   */\n      dup3\n        /* \"#utility.yul\":19554:19566   */\n      add\n        /* \"#utility.yul\":19547:19566   */\n      swap1\n      pop\n        /* \"#utility.yul\":19206:19572   */\n      swap2\n      swap1\n      pop\n      jump\t// out\n        /* \"#utility.yul\":19578:19997   */\n    tag_225:\n        /* \"#utility.yul\":19744:19748   */\n      0x00\n        /* \"#utility.yul\":19782:19784   */\n      0x20\n        /* \"#utility.yul\":19771:19780   */\n      dup3\n        /* \"#utility.yul\":19767:19785   */\n      add\n        /* \"#utility.yul\":19759:19785   */\n      swap1\n      pop\n        /* \"#utility.yul\":19831:19840   */\n      dup2\n        /* \"#utility.yul\":19825:19829   */\n      dup2\n        /* \"#utility.yul\":19821:19841   */\n      sub\n        /* \"#utility.yul\":19817:19818   */\n      0x00\n        /* \"#utility.yul\":19806:19815   */\n      dup4\n        /* \"#utility.yul\":19802:19819   */\n      add\n        /* \"#utility.yul\":19795:19842   */\n      mstore\n        /* \"#utility.yul\":19859:19990   */\n      tag_523\n        /* \"#utility.yul\":19985:19989   */\n      dup2\n        /* \"#utility.yul\":19859:19990   */\n      tag_334\n      jump\t// in\n    tag_523:\n        /* \"#utility.yul\":19851:19990   */\n      swap1\n      pop\n        /* \"#utility.yul\":19578:19997   */\n      swap2\n      swap1\n      pop\n      jump\t// out\n        /* \"#utility.yul\":20003:20226   */\n    tag_335:\n        /* \"#utility.yul\":20143:20177   */\n      0x45524332303a20617070726f76652066726f6d20746865207a65726f20616464\n        /* \"#utility.yul\":20139:20140   */\n      0x00\n        /* \"#utility.yul\":20131:20137   */\n      dup3\n        /* \"#utility.yul\":20127:20141   */\n      add\n        /* \"#utility.yul\":20120:20178   */\n      mstore\n        /* \"#utility.yul\":20212:20218   */\n      0x7265737300000000000000000000000000000000000000000000000000000000\n        /* \"#utility.yul\":20207:20209   */\n      0x20\n        /* \"#utility.yul\":20199:20205   */\n      dup3\n        /* \"#utility.yul\":20195:20210   */\n      add\n        /* \"#utility.yul\":20188:20219   */\n      mstore\n        /* \"#utility.yul\":20003:20226   */\n      pop\n      jump\t// out\n        /* \"#utility.yul\":20232:20598   */\n    tag_336:\n        /* \"#utility.yul\":20374:20377   */\n      0x00\n        /* \"#utility.yul\":20395:20462   */\n      tag_526\n        /* \"#utility.yul\":20459:20461   */\n      0x24\n        /* \"#utility.yul\":20454:20457   */\n      dup4\n        /* \"#utility.yul\":20395:20462   */\n      tag_286\n      jump\t// in\n    tag_526:\n        /* \"#utility.yul\":20388:20462   */\n      swap2\n      pop\n        /* \"#utility.yul\":20471:20564   */\n      tag_527\n        /* \"#utility.yul\":20560:20563   */\n      dup3\n        /* \"#utility.yul\":20471:20564   */\n      tag_335\n      jump\t// in\n    tag_527:\n        /* \"#utility.yul\":20589:20591   */\n      0x40\n        /* \"#utility.yul\":20584:20587   */\n      dup3\n        /* \"#utility.yul\":20580:20592   */\n      add\n        /* \"#utility.yul\":20573:20592   */\n      swap1\n      pop\n        /* \"#utility.yul\":20232:20598   */\n      swap2\n      swap1\n      pop\n      jump\t// out\n        /* \"#utility.yul\":20604:21023   */\n    tag_231:\n        /* \"#utility.yul\":20770:20774   */\n      0x00\n        /* \"#utility.yul\":20808:20810   */\n      0x20\n        /* \"#utility.yul\":20797:20806   */\n      dup3\n        /* \"#utility.yul\":20793:20811   */\n      add\n        /* \"#utility.yul\":20785:20811   */\n      swap1\n      pop\n        /* \"#utility.yul\":20857:20866   */\n      dup2\n        /* \"#utility.yul\":20851:20855   */\n      dup2\n        /* \"#utility.yul\":20847:20867   */\n      sub\n        /* \"#utility.yul\":20843:20844   */\n      0x00\n        /* \"#utility.yul\":20832:20841   */\n      dup4\n        /* \"#utility.yul\":20828:20845   */\n      add\n        /* \"#utility.yul\":20821:20868   */\n      mstore\n        /* \"#utility.yul\":20885:21016   */\n      tag_529\n        /* \"#utility.yul\":21011:21015   */\n      dup2\n        /* \"#utility.yul\":20885:21016   */\n      tag_336\n      jump\t// in\n    tag_529:\n        /* \"#utility.yul\":20877:21016   */\n      swap1\n      pop\n        /* \"#utility.yul\":20604:21023   */\n      swap2\n      swap1\n      pop\n      jump\t// out\n        /* \"#utility.yul\":21029:21250   */\n    tag_337:\n        /* \"#utility.yul\":21169:21203   */\n      0x45524332303a20617070726f766520746f20746865207a65726f206164647265\n        /* \"#utility.yul\":21165:21166   */\n      0x00\n        /* \"#utility.yul\":21157:21163   */\n      dup3\n        /* \"#utility.yul\":21153:21167   */\n      add\n        /* \"#utility.yul\":21146:21204   */\n      mstore\n        /* \"#utility.yul\":21238:21242   */\n      0x7373000000000000000000000000000000000000000000000000000000000000\n        /* \"#utility.yul\":21233:21235   */\n      0x20\n        /* \"#utility.yul\":21225:21231   */\n      dup3\n        /* \"#utility.yul\":21221:21236   */\n      add\n        /* \"#utility.yul\":21214:21243   */\n      mstore\n        /* \"#utility.yul\":21029:21250   */\n      pop\n      jump\t// out\n        /* \"#utility.yul\":21256:21622   */\n    tag_338:\n        /* \"#utility.yul\":21398:21401   */\n      0x00\n        /* \"#utility.yul\":21419:21486   */\n      tag_532\n        /* \"#utility.yul\":21483:21485   */\n      0x22\n        /* \"#utility.yul\":21478:21481   */\n      dup4\n        /* \"#utility.yul\":21419:21486   */\n      tag_286\n      jump\t// in\n    tag_532:\n        /* \"#utility.yul\":21412:21486   */\n      swap2\n      pop\n        /* \"#utility.yul\":21495:21588   */\n      tag_533\n        /* \"#utility.yul\":21584:21587   */\n      dup3\n        /* \"#utility.yul\":21495:21588   */\n      tag_337\n      jump\t// in\n    tag_533:\n        /* \"#utility.yul\":21613:21615   */\n      0x40\n        /* \"#utility.yul\":21608:21611   */\n      dup3\n        /* \"#utility.yul\":21604:21616   */\n      add\n        /* \"#utility.yul\":21597:21616   */\n      swap1\n      pop\n        /* \"#utility.yul\":21256:21622   */\n      swap2\n      swap1\n      pop\n      jump\t// out\n        /* \"#utility.yul\":21628:22047   */\n    tag_234:\n        /* \"#utility.yul\":21794:21798   */\n      0x00\n        /* \"#utility.yul\":21832:21834   */\n      0x20\n        /* \"#utility.yul\":21821:21830   */\n      dup3\n        /* \"#utility.yul\":21817:21835   */\n      add\n        /* \"#utility.yul\":21809:21835   */\n      swap1\n      pop\n        /* \"#utility.yul\":21881:21890   */\n      dup2\n        /* \"#utility.yul\":21875:21879   */\n      dup2\n        /* \"#utility.yul\":21871:21891   */\n      sub\n        /* \"#utility.yul\":21867:21868   */\n      0x00\n        /* \"#utility.yul\":21856:21865   */\n      dup4\n        /* \"#utility.yul\":21852:21869   */\n      add\n        /* \"#utility.yul\":21845:21892   */\n      mstore\n        /* \"#utility.yul\":21909:22040   */\n      tag_535\n        /* \"#utility.yul\":22035:22039   */\n      dup2\n        /* \"#utility.yul\":21909:22040   */\n      tag_338\n      jump\t// in\n    tag_535:\n        /* \"#utility.yul\":21901:22040   */\n      swap1\n      pop\n        /* \"#utility.yul\":21628:22047   */\n      swap2\n      swap1\n      pop\n      jump\t// out\n        /* \"#utility.yul\":22053:22273   */\n    tag_339:\n        /* \"#utility.yul\":22193:22227   */\n      0x45524332303a206275726e2066726f6d20746865207a65726f20616464726573\n        /* \"#utility.yul\":22189:22190   */\n      0x00\n        /* \"#utility.yul\":22181:22187   */\n      dup3\n        /* \"#utility.yul\":22177:22191   */\n      add\n        /* \"#utility.yul\":22170:22228   */\n      mstore\n        /* \"#utility.yul\":22262:22265   */\n      0x7300000000000000000000000000000000000000000000000000000000000000\n        /* \"#utility.yul\":22257:22259   */\n      0x20\n        /* \"#utility.yul\":22249:22255   */\n      dup3\n        /* \"#utility.yul\":22245:22260   */\n      add\n        /* \"#utility.yul\":22238:22266   */\n      mstore\n        /* \"#utility.yul\":22053:22273   */\n      pop\n      jump\t// out\n        /* \"#utility.yul\":22279:22645   */\n    tag_340:\n        /* \"#utility.yul\":22421:22424   */\n      0x00\n        /* \"#utility.yul\":22442:22509   */\n      tag_538\n        /* \"#utility.yul\":22506:22508   */\n      0x21\n        /* \"#utility.yul\":22501:22504   */\n      dup4\n        /* \"#utility.yul\":22442:22509   */\n      tag_286\n      jump\t// in\n    tag_538:\n        /* \"#utility.yul\":22435:22509   */\n      swap2\n      pop\n        /* \"#utility.yul\":22518:22611   */\n      tag_539\n        /* \"#utility.yul\":22607:22610   */\n      dup3\n        /* \"#utility.yul\":22518:22611   */\n      tag_339\n      jump\t// in\n    tag_539:\n        /* \"#utility.yul\":22636:22638   */\n      0x40\n        /* \"#utility.yul\":22631:22634   */\n      dup3\n        /* \"#utility.yul\":22627:22639   */\n      add\n        /* \"#utility.yul\":22620:22639   */\n      swap1\n      pop\n        /* \"#utility.yul\":22279:22645   */\n      swap2\n      swap1\n      pop\n      jump\t// out\n        /* \"#utility.yul\":22651:23070   */\n    tag_239:\n        /* \"#utility.yul\":22817:22821   */\n      0x00\n        /* \"#utility.yul\":22855:22857   */\n      0x20\n        /* \"#utility.yul\":22844:22853   */\n      dup3\n        /* \"#utility.yul\":22840:22858   */\n      add\n        /* \"#utility.yul\":22832:22858   */\n      swap1\n      pop\n        /* \"#utility.yul\":22904:22913   */\n      dup2\n        /* \"#utility.yul\":22898:22902   */\n      dup2\n        /* \"#utility.yul\":22894:22914   */\n      sub\n        /* \"#utility.yul\":22890:22891   */\n      0x00\n        /* \"#utility.yul\":22879:22888   */\n      dup4\n        /* \"#utility.yul\":22875:22892   */\n      add\n        /* \"#utility.yul\":22868:22915   */\n      mstore\n        /* \"#utility.yul\":22932:23063   */\n      tag_541\n        /* \"#utility.yul\":23058:23062   */\n      dup2\n        /* \"#utility.yul\":22932:23063   */\n      tag_340\n      jump\t// in\n    tag_541:\n        /* \"#utility.yul\":22924:23063   */\n      swap1\n      pop\n        /* \"#utility.yul\":22651:23070   */\n      swap2\n      swap1\n      pop\n      jump\t// out\n        /* \"#utility.yul\":23076:23297   */\n    tag_341:\n        /* \"#utility.yul\":23216:23250   */\n      0x45524332303a206275726e20616d6f756e7420657863656564732062616c616e\n        /* \"#utility.yul\":23212:23213   */\n      0x00\n        /* \"#utility.yul\":23204:23210   */\n      dup3\n        /* \"#utility.yul\":23200:23214   */\n      add\n        /* \"#utility.yul\":23193:23251   */\n      mstore\n        /* \"#utility.yul\":23285:23289   */\n      0x6365000000000000000000000000000000000000000000000000000000000000\n        /* \"#utility.yul\":23280:23282   */\n      0x20\n        /* \"#utility.yul\":23272:23278   */\n      dup3\n        /* \"#utility.yul\":23268:23283   */\n      add\n        /* \"#utility.yul\":23261:23290   */\n      mstore\n        /* \"#utility.yul\":23076:23297   */\n      pop\n      jump\t// out\n        /* \"#utility.yul\":23303:23669   */\n    tag_342:\n        /* \"#utility.yul\":23445:23448   */\n      0x00\n        /* \"#utility.yul\":23466:23533   */\n      tag_544\n        /* \"#utility.yul\":23530:23532   */\n      0x22\n        /* \"#utility.yul\":23525:23528   */\n      dup4\n        /* \"#utility.yul\":23466:23533   */\n      tag_286\n      jump\t// in\n    tag_544:\n        /* \"#utility.yul\":23459:23533   */\n      swap2\n      pop\n        /* \"#utility.yul\":23542:23635   */\n      tag_545\n        /* \"#utility.yul\":23631:23634   */\n      dup3\n        /* \"#utility.yul\":23542:23635   */\n      tag_341\n      jump\t// in\n    tag_545:\n        /* \"#utility.yul\":23660:23662   */\n      0x40\n        /* \"#utility.yul\":23655:23658   */\n      dup3\n        /* \"#utility.yul\":23651:23663   */\n      add\n        /* \"#utility.yul\":23644:23663   */\n      swap1\n      pop\n        /* \"#utility.yul\":23303:23669   */\n      swap2\n      swap1\n      pop\n      jump\t// out\n        /* \"#utility.yul\":23675:24094   */\n    tag_244:\n        /* \"#utility.yul\":23841:23845   */\n      0x00\n        /* \"#utility.yul\":23879:23881   */\n      0x20\n        /* \"#utility.yul\":23868:23877   */\n      dup3\n        /* \"#utility.yul\":23864:23882   */\n      add\n        /* \"#utility.yul\":23856:23882   */\n      swap1\n      pop\n        /* \"#utility.yul\":23928:23937   */\n      dup2\n        /* \"#utility.yul\":23922:23926   */\n      dup2\n        /* \"#utility.yul\":23918:23938   */\n      sub\n        /* \"#utility.yul\":23914:23915   */\n      0x00\n        /* \"#utility.yul\":23903:23912   */\n      dup4\n        /* \"#utility.yul\":23899:23916   */\n      add\n        /* \"#utility.yul\":23892:23939   */\n      mstore\n        /* \"#utility.yul\":23956:24087   */\n      tag_547\n        /* \"#utility.yul\":24082:24086   */\n      dup2\n        /* \"#utility.yul\":23956:24087   */\n      tag_342\n      jump\t// in\n    tag_547:\n        /* \"#utility.yul\":23948:24087   */\n      swap1\n      pop\n        /* \"#utility.yul\":23675:24094   */\n      swap2\n      swap1\n      pop\n      jump\t// out\n        /* \"#utility.yul\":24100:24279   */\n    tag_343:\n        /* \"#utility.yul\":24240:24271   */\n      0x45524332303a20696e73756666696369656e7420616c6c6f77616e6365000000\n        /* \"#utility.yul\":24236:24237   */\n      0x00\n        /* \"#utility.yul\":24228:24234   */\n      dup3\n        /* \"#utility.yul\":24224:24238   */\n      add\n        /* \"#utility.yul\":24217:24272   */\n      mstore\n        /* \"#utility.yul\":24100:24279   */\n      pop\n      jump\t// out\n        /* \"#utility.yul\":24285:24651   */\n    tag_344:\n        /* \"#utility.yul\":24427:24430   */\n      0x00\n        /* \"#utility.yul\":24448:24515   */\n      tag_550\n        /* \"#utility.yul\":24512:24514   */\n      0x1d\n        /* \"#utility.yul\":24507:24510   */\n      dup4\n        /* \"#utility.yul\":24448:24515   */\n      tag_286\n      jump\t// in\n    tag_550:\n        /* \"#utility.yul\":24441:24515   */\n      swap2\n      pop\n        /* \"#utility.yul\":24524:24617   */\n      tag_551\n        /* \"#utility.yul\":24613:24616   */\n      dup3\n        /* \"#utility.yul\":24524:24617   */\n      tag_343\n      jump\t// in\n    tag_551:\n        /* \"#utility.yul\":24642:24644   */\n      0x20\n        /* \"#utility.yul\":24637:24640   */\n      dup3\n        /* \"#utility.yul\":24633:24645   */\n      add\n        /* \"#utility.yul\":24626:24645   */\n      swap1\n      pop\n        /* \"#utility.yul\":24285:24651   */\n      swap2\n      swap1\n      pop\n      jump\t// out\n        /* \"#utility.yul\":24657:25076   */\n    tag_253:\n        /* \"#utility.yul\":24823:24827   */\n      0x00\n        /* \"#utility.yul\":24861:24863   */\n      0x20\n        /* \"#utility.yul\":24850:24859   */\n      dup3\n        /* \"#utility.yul\":24846:24864   */\n      add\n        /* \"#utility.yul\":24838:24864   */\n      swap1\n      pop\n        /* \"#utility.yul\":24910:24919   */\n      dup2\n        /* \"#utility.yul\":24904:24908   */\n      dup2\n        /* \"#utility.yul\":24900:24920   */\n      sub\n        /* \"#utility.yul\":24896:24897   */\n      0x00\n        /* \"#utility.yul\":24885:24894   */\n      dup4\n        /* \"#utility.yul\":24881:24898   */\n      add\n        /* \"#utility.yul\":24874:24921   */\n      mstore\n        /* \"#utility.yul\":24938:25069   */\n      tag_553\n        /* \"#utility.yul\":25064:25068   */\n      dup2\n        /* \"#utility.yul\":24938:25069   */\n      tag_344\n      jump\t// in\n    tag_553:\n        /* \"#utility.yul\":24930:25069   */\n      swap1\n      pop\n        /* \"#utility.yul\":24657:25076   */\n      swap2\n      swap1\n      pop\n      jump\t// out\n        /* \"#utility.yul\":25082:25306   */\n    tag_345:\n        /* \"#utility.yul\":25222:25256   */\n      0x45524332303a207472616e736665722066726f6d20746865207a65726f206164\n        /* \"#utility.yul\":25218:25219   */\n      0x00\n        /* \"#utility.yul\":25210:25216   */\n      dup3\n        /* \"#utility.yul\":25206:25220   */\n      add\n        /* \"#utility.yul\":25199:25257   */\n      mstore\n        /* \"#utility.yul\":25291:25298   */\n      0x6472657373000000000000000000000000000000000000000000000000000000\n        /* \"#utility.yul\":25286:25288   */\n      0x20\n        /* \"#utility.yul\":25278:25284   */\n      dup3\n        /* \"#utility.yul\":25274:25289   */\n      add\n        /* \"#utility.yul\":25267:25299   */\n      mstore\n        /* \"#utility.yul\":25082:25306   */\n      pop\n      jump\t// out\n        /* \"#utility.yul\":25312:25678   */\n    tag_346:\n        /* \"#utility.yul\":25454:25457   */\n      0x00\n        /* \"#utility.yul\":25475:25542   */\n      tag_556\n        /* \"#utility.yul\":25539:25541   */\n      0x25\n        /* \"#utility.yul\":25534:25537   */\n      dup4\n        /* \"#utility.yul\":25475:25542   */\n      tag_286\n      jump\t// in\n    tag_556:\n        /* \"#utility.yul\":25468:25542   */\n      swap2\n      pop\n        /* \"#utility.yul\":25551:25644   */\n      tag_557\n        /* \"#utility.yul\":25640:25643   */\n      dup3\n        /* \"#utility.yul\":25551:25644   */\n      tag_345\n      jump\t// in\n    tag_557:\n        /* \"#utility.yul\":25669:25671   */\n      0x40\n        /* \"#utility.yul\":25664:25667   */\n      dup3\n        /* \"#utility.yul\":25660:25672   */\n      add\n        /* \"#utility.yul\":25653:25672   */\n      swap1\n      pop\n        /* \"#utility.yul\":25312:25678   */\n      swap2\n      swap1\n      pop\n      jump\t// out\n        /* \"#utility.yul\":25684:26103   */\n    tag_258:\n        /* \"#utility.yul\":25850:25854   */\n      0x00\n        /* \"#utility.yul\":25888:25890   */\n      0x20\n        /* \"#utility.yul\":25877:25886   */\n      dup3\n        /* \"#utility.yul\":25873:25891   */\n      add\n        /* \"#utility.yul\":25865:25891   */\n      swap1\n      pop\n        /* \"#utility.yul\":25937:25946   */\n      dup2\n        /* \"#utility.yul\":25931:25935   */\n      dup2\n        /* \"#utility.yul\":25927:25947   */\n      sub\n        /* \"#utility.yul\":25923:25924   */\n      0x00\n        /* \"#utility.yul\":25912:25921   */\n      dup4\n        /* \"#utility.yul\":25908:25925   */\n      add\n        /* \"#utility.yul\":25901:25948   */\n      mstore\n        /* \"#utility.yul\":25965:26096   */\n      tag_559\n        /* \"#utility.yul\":26091:26095   */\n      dup2\n        /* \"#utility.yul\":25965:26096   */\n      tag_346\n      jump\t// in\n    tag_559:\n        /* \"#utility.yul\":25957:26096   */\n      swap1\n      pop\n        /* \"#utility.yul\":25684:26103   */\n      swap2\n      swap1\n      pop\n      jump\t// out\n        /* \"#utility.yul\":26109:26331   */\n    tag_347:\n        /* \"#utility.yul\":26249:26283   */\n      0x45524332303a207472616e7366657220746f20746865207a65726f2061646472\n        /* \"#utility.yul\":26245:26246   */\n      0x00\n        /* \"#utility.yul\":26237:26243   */\n      dup3\n        /* \"#utility.yul\":26233:26247   */\n      add\n        /* \"#utility.yul\":26226:26284   */\n      mstore\n        /* \"#utility.yul\":26318:26323   */\n      0x6573730000000000000000000000000000000000000000000000000000000000\n        /* \"#utility.yul\":26313:26315   */\n      0x20\n        /* \"#utility.yul\":26305:26311   */\n      dup3\n        /* \"#utility.yul\":26301:26316   */\n      add\n        /* \"#utility.yul\":26294:26324   */\n      mstore\n        /* \"#utility.yul\":26109:26331   */\n      pop\n      jump\t// out\n        /* \"#utility.yul\":26337:26703   */\n    tag_348:\n        /* \"#utility.yul\":26479:26482   */\n      0x00\n        /* \"#utility.yul\":26500:26567   */\n      tag_562\n        /* \"#utility.yul\":26564:26566   */\n      0x23\n        /* \"#utility.yul\":26559:26562   */\n      dup4\n        /* \"#utility.yul\":26500:26567   */\n      tag_286\n      jump\t// in\n    tag_562:\n        /* \"#utility.yul\":26493:26567   */\n      swap2\n      pop\n        /* \"#utility.yul\":26576:26669   */\n      tag_563\n        /* \"#utility.yul\":26665:26668   */\n      dup3\n        /* \"#utility.yul\":26576:26669   */\n      tag_347\n      jump\t// in\n    tag_563:\n        /* \"#utility.yul\":26694:26696   */\n      0x40\n        /* \"#utility.yul\":26689:26692   */\n      dup3\n        /* \"#utility.yul\":26685:26697   */\n      add\n        /* \"#utility.yul\":26678:26697   */\n      swap1\n      pop\n        /* \"#utility.yul\":26337:26703   */\n      swap2\n      swap1\n      pop\n      jump\t// out\n        /* \"#utility.yul\":26709:27128   */\n    tag_261:\n        /* \"#utility.yul\":26875:26879   */\n      0x00\n        /* \"#utility.yul\":26913:26915   */\n      0x20\n        /* \"#utility.yul\":26902:26911   */\n      dup3\n        /* \"#utility.yul\":26898:26916   */\n      add\n        /* \"#utility.yul\":26890:26916   */\n      swap1\n      pop\n        /* \"#utility.yul\":26962:26971   */\n      dup2\n        /* \"#utility.yul\":26956:26960   */\n      dup2\n        /* \"#utility.yul\":26952:26972   */\n      sub\n        /* \"#utility.yul\":26948:26949   */\n      0x00\n        /* \"#utility.yul\":26937:26946   */\n      dup4\n        /* \"#utility.yul\":26933:26950   */\n      add\n        /* \"#utility.yul\":26926:26973   */\n      mstore\n        /* \"#utility.yul\":26990:27121   */\n      tag_565\n        /* \"#utility.yul\":27116:27120   */\n      dup2\n        /* \"#utility.yul\":26990:27121   */\n      tag_348\n      jump\t// in\n    tag_565:\n        /* \"#utility.yul\":26982:27121   */\n      swap1\n      pop\n        /* \"#utility.yul\":26709:27128   */\n      swap2\n      swap1\n      pop\n      jump\t// out\n        /* \"#utility.yul\":27134:27359   */\n    tag_349:\n        /* \"#utility.yul\":27274:27308   */\n      0x45524332303a207472616e7366657220616d6f756e7420657863656564732062\n        /* \"#utility.yul\":27270:27271   */\n      0x00\n        /* \"#utility.yul\":27262:27268   */\n      dup3\n        /* \"#utility.yul\":27258:27272   */\n      add\n        /* \"#utility.yul\":27251:27309   */\n      mstore\n        /* \"#utility.yul\":27343:27351   */\n      0x616c616e63650000000000000000000000000000000000000000000000000000\n        /* \"#utility.yul\":27338:27340   */\n      0x20\n        /* \"#utility.yul\":27330:27336   */\n      dup3\n        /* \"#utility.yul\":27326:27341   */\n      add\n        /* \"#utility.yul\":27319:27352   */\n      mstore\n        /* \"#utility.yul\":27134:27359   */\n      pop\n      jump\t// out\n        /* \"#utility.yul\":27365:27731   */\n    tag_350:\n        /* \"#utility.yul\":27507:27510   */\n      0x00\n        /* \"#utility.yul\":27528:27595   */\n      tag_568\n        /* \"#utility.yul\":27592:27594   */\n      0x26\n        /* \"#utility.yul\":27587:27590   */\n      dup4\n        /* \"#utility.yul\":27528:27595   */\n      tag_286\n      jump\t// in\n    tag_568:\n        /* \"#utility.yul\":27521:27595   */\n      swap2\n      pop\n        /* \"#utility.yul\":27604:27697   */\n      tag_569\n        /* \"#utility.yul\":27693:27696   */\n      dup3\n        /* \"#utility.yul\":27604:27697   */\n      tag_349\n      jump\t// in\n    tag_569:\n        /* \"#utility.yul\":27722:27724   */\n      0x40\n        /* \"#utility.yul\":27717:27720   */\n      dup3\n        /* \"#utility.yul\":27713:27725   */\n      add\n        /* \"#utility.yul\":27706:27725   */\n      swap1\n      pop\n        /* \"#utility.yul\":27365:27731   */\n      swap2\n      swap1\n      pop\n      jump\t// out\n        /* \"#utility.yul\":27737:28156   */\n    tag_265:\n        /* \"#utility.yul\":27903:27907   */\n      0x00\n        /* \"#utility.yul\":27941:27943   */\n      0x20\n        /* \"#utility.yul\":27930:27939   */\n      dup3\n        /* \"#utility.yul\":27926:27944   */\n      add\n        /* \"#utility.yul\":27918:27944   */\n      swap1\n      pop\n        /* \"#utility.yul\":27990:27999   */\n      dup2\n        /* \"#utility.yul\":27984:27988   */\n      dup2\n        /* \"#utility.yul\":27980:28000   */\n      sub\n        /* \"#utility.yul\":27976:27977   */\n      0x00\n        /* \"#utility.yul\":27965:27974   */\n      dup4\n        /* \"#utility.yul\":27961:27978   */\n      add\n        /* \"#utility.yul\":27954:28001   */\n      mstore\n        /* \"#utility.yul\":28018:28149   */\n      tag_571\n        /* \"#utility.yul\":28144:28148   */\n      dup2\n        /* \"#utility.yul\":28018:28149   */\n      tag_350\n      jump\t// in\n    tag_571:\n        /* \"#utility.yul\":28010:28149   */\n      swap1\n      pop\n        /* \"#utility.yul\":27737:28156   */\n      swap2\n      swap1\n      pop\n      jump\t// out\n        /* \"#utility.yul\":28162:28344   */\n    tag_351:\n        /* \"#utility.yul\":28302:28336   */\n      0x4f776e61626c653a2063616c6c6572206973206e6f7420746865206f776e6572\n        /* \"#utility.yul\":28298:28299   */\n      0x00\n        /* \"#utility.yul\":28290:28296   */\n      dup3\n        /* \"#utility.yul\":28286:28300   */\n      add\n        /* \"#utility.yul\":28279:28337   */\n      mstore\n        /* \"#utility.yul\":28162:28344   */\n      pop\n      jump\t// out\n        /* \"#utility.yul\":28350:28716   */\n    tag_352:\n        /* \"#utility.yul\":28492:28495   */\n      0x00\n        /* \"#utility.yul\":28513:28580   */\n      tag_574\n        /* \"#utility.yul\":28577:28579   */\n      0x20\n        /* \"#utility.yul\":28572:28575   */\n      dup4\n        /* \"#utility.yul\":28513:28580   */\n      tag_286\n      jump\t// in\n    tag_574:\n        /* \"#utility.yul\":28506:28580   */\n      swap2\n      pop\n        /* \"#utility.yul\":28589:28682   */\n      tag_575\n        /* \"#utility.yul\":28678:28681   */\n      dup3\n        /* \"#utility.yul\":28589:28682   */\n      tag_351\n      jump\t// in\n    tag_575:\n        /* \"#utility.yul\":28707:28709   */\n      0x20\n        /* \"#utility.yul\":28702:28705   */\n      dup3\n        /* \"#utility.yul\":28698:28710   */\n      add\n        /* \"#utility.yul\":28691:28710   */\n      swap1\n      pop\n        /* \"#utility.yul\":28350:28716   */\n      swap2\n      swap1\n      pop\n      jump\t// out\n        /* \"#utility.yul\":28722:29141   */\n    tag_273:\n        /* \"#utility.yul\":28888:28892   */\n      0x00\n        /* \"#utility.yul\":28926:28928   */\n      0x20\n        /* \"#utility.yul\":28915:28924   */\n      dup3\n        /* \"#utility.yul\":28911:28929   */\n      add\n        /* \"#utility.yul\":28903:28929   */\n      swap1\n      pop\n        /* \"#utility.yul\":28975:28984   */\n      dup2\n        /* \"#utility.yul\":28969:28973   */\n      dup2\n        /* \"#utility.yul\":28965:28985   */\n      sub\n        /* \"#utility.yul\":28961:28962   */\n      0x00\n        /* \"#utility.yul\":28950:28959   */\n      dup4\n        /* \"#utility.yul\":28946:28963   */\n      add\n        /* \"#utility.yul\":28939:28986   */\n      mstore\n        /* \"#utility.yul\":29003:29134   */\n      tag_577\n        /* \"#utility.yul\":29129:29133   */\n      dup2\n        /* \"#utility.yul\":29003:29134   */\n      tag_352\n      jump\t// in\n    tag_577:\n        /* \"#utility.yul\":28995:29134   */\n      swap1\n      pop\n        /* \"#utility.yul\":28722:29141   */\n      swap2\n      swap1\n      pop\n      jump\t// out\n        /* \"#utility.yul\":29147:29328   */\n    tag_353:\n        /* \"#utility.yul\":29287:29320   */\n      0x45524332303a206d696e7420746f20746865207a65726f206164647265737300\n        /* \"#utility.yul\":29283:29284   */\n      0x00\n        /* \"#utility.yul\":29275:29281   */\n      dup3\n        /* \"#utility.yul\":29271:29285   */\n      add\n        /* \"#utility.yul\":29264:29321   */\n      mstore\n        /* \"#utility.yul\":29147:29328   */\n      pop\n      jump\t// out\n        /* \"#utility.yul\":29334:29700   */\n    tag_354:\n        /* \"#utility.yul\":29476:29479   */\n      0x00\n        /* \"#utility.yul\":29497:29564   */\n      tag_580\n        /* \"#utility.yul\":29561:29563   */\n      0x1f\n        /* \"#utility.yul\":29556:29559   */\n      dup4\n        /* \"#utility.yul\":29497:29564   */\n      tag_286\n      jump\t// in\n    tag_580:\n        /* \"#utility.yul\":29490:29564   */\n      swap2\n      pop\n        /* \"#utility.yul\":29573:29666   */\n      tag_581\n        /* \"#utility.yul\":29662:29665   */\n      dup3\n        /* \"#utility.yul\":29573:29666   */\n      tag_353\n      jump\t// in\n    tag_581:\n        /* \"#utility.yul\":29691:29693   */\n      0x20\n        /* \"#utility.yul\":29686:29689   */\n      dup3\n        /* \"#utility.yul\":29682:29694   */\n      add\n        /* \"#utility.yul\":29675:29694   */\n      swap1\n      pop\n        /* \"#utility.yul\":29334:29700   */\n      swap2\n      swap1\n      pop\n      jump\t// out\n        /* \"#utility.yul\":29706:30125   */\n    tag_277:\n        /* \"#utility.yul\":29872:29876   */\n      0x00\n        /* \"#utility.yul\":29910:29912   */\n      0x20\n        /* \"#utility.yul\":29899:29908   */\n      dup3\n        /* \"#utility.yul\":29895:29913   */\n      add\n        /* \"#utility.yul\":29887:29913   */\n      swap1\n      pop\n        /* \"#utility.yul\":29959:29968   */\n      dup2\n        /* \"#utility.yul\":29953:29957   */\n      dup2\n        /* \"#utility.yul\":29949:29969   */\n      sub\n        /* \"#utility.yul\":29945:29946   */\n      0x00\n        /* \"#utility.yul\":29934:29943   */\n      dup4\n        /* \"#utility.yul\":29930:29947   */\n      add\n        /* \"#utility.yul\":29923:29970   */\n      mstore\n        /* \"#utility.yul\":29987:30118   */\n      tag_583\n        /* \"#utility.yul\":30113:30117   */\n      dup2\n        /* \"#utility.yul\":29987:30118   */\n      tag_354\n      jump\t// in\n    tag_583:\n        /* \"#utility.yul\":29979:30118   */\n      swap1\n      pop\n        /* \"#utility.yul\":29706:30125   */\n      swap2\n      swap1\n      pop\n      jump\t// out\n\n    auxdata: 0xa26469706673582212208ccbf2ac58835283caca61ea6631ed9ec0e905f44d2ac3b53715e9643ce6f73d64736f6c63430008120033\n}\n",
				"bytecode": {
					"linkReferences": {},
					"object": "60806040523480156200001157600080fd5b506040518060400160405280600581526020017f446567656e0000000000000000000000000000000000000000000000000000008152506040518060400160405280600381526020017f44474e000000000000000000000000000000000000000000000000000000000081525081600390816200008f91906200084e565b508060049081620000a191906200084e565b505050620000c4620000b86200038f60201b60201c565b6200039760201b60201c565b620000da336302faf0806200045d60201b60201c565b60066040518060600160405280600081526020016040518060400160405280600d81526020017f4865616c746820506f74696f6e000000000000000000000000000000000000008152508152602001603281525090806001815401808255809150506001900390600052602060002090600302016000909190919091506000820151816000015560208201518160010190816200017891906200084e565b5060408201518160020155505060066040518060600160405280600181526020016040518060400160405280600d81526020017f446f72616e277320426c6164650000000000000000000000000000000000000081525081526020016101c281525090806001815401808255809150506001900390600052602060002090600302016000909190919091506000820151816000015560208201518160010190816200022491906200084e565b5060408201518160020155505060066040518060600160405280600281526020016040518060400160405280600e81526020017f446f72616e277320536869656c6400000000000000000000000000000000000081525081526020016101c28152509080600181540180825580915050600190039060005260206000209060030201600090919091909150600082015181600001556020820151816001019081620002d091906200084e565b5060408201518160020155505060066040518060600160405280600381526020016040518060400160405280601181526020017f436f7272757074696e6720506f74696f6e00000000000000000000000000000081525081526020016101f481525090806001815401808255809150506001900390600052602060002090600302016000909190919091506000820151816000015560208201518160010190816200037c91906200084e565b5060408201518160020155505062000a50565b600033905090565b6000600560009054906101000a900473ffffffffffffffffffffffffffffffffffffffff16905081600560006101000a81548173ffffffffffffffffffffffffffffffffffffffff021916908373ffffffffffffffffffffffffffffffffffffffff1602179055508173ffffffffffffffffffffffffffffffffffffffff168173ffffffffffffffffffffffffffffffffffffffff167f8be0079c531659141344cd1fd0a4f28419497f9722a3daafe3b4186f6b6457e060405160405180910390a35050565b600073ffffffffffffffffffffffffffffffffffffffff168273ffffffffffffffffffffffffffffffffffffffff1603620004cf576040517f08c379a0000000000000000000000000000000000000000000000000000000008152600401620004c69062000996565b60405180910390fd5b620004e360008383620005ca60201b60201c565b8060026000828254620004f79190620009e7565b92505081905550806000808473ffffffffffffffffffffffffffffffffffffffff1673ffffffffffffffffffffffffffffffffffffffff168152602001908152602001600020600082825401925050819055508173ffffffffffffffffffffffffffffffffffffffff16600073ffffffffffffffffffffffffffffffffffffffff167fddf252ad1be2c89b69c2b068fc378daa952ba7f163c4a11628f55a4df523b3ef83604051620005aa919062000a33565b60405180910390a3620005c660008383620005cf60201b60201c565b5050565b505050565b505050565b600081519050919050565b7f4e487b7100000000000000000000000000000000000000000000000000000000600052604160045260246000fd5b7f4e487b7100000000000000000000000000000000000000000000000000000000600052602260045260246000fd5b600060028204905060018216806200065657607f821691505b6020821081036200066c576200066b6200060e565b5b50919050565b60008190508160005260206000209050919050565b60006020601f8301049050919050565b600082821b905092915050565b600060088302620006d67fffffffffffffffffffffffffffffffffffffffffffffffffffffffffffffffff8262000697565b620006e2868362000697565b95508019841693508086168417925050509392505050565b6000819050919050565b6000819050919050565b60006200072f620007296200072384620006fa565b62000704565b620006fa565b9050919050565b6000819050919050565b6200074b836200070e565b620007636200075a8262000736565b848454620006a4565b825550505050565b600090565b6200077a6200076b565b6200078781848462000740565b505050565b5b81811015620007af57620007a360008262000770565b6001810190506200078d565b5050565b601f821115620007fe57620007c88162000672565b620007d38462000687565b81016020851015620007e3578190505b620007fb620007f28562000687565b8301826200078c565b50505b505050565b600082821c905092915050565b6000620008236000198460080262000803565b1980831691505092915050565b60006200083e838362000810565b9150826002028217905092915050565b6200085982620005d4565b67ffffffffffffffff811115620008755762000874620005df565b5b6200088182546200063d565b6200088e828285620007b3565b600060209050601f831160018114620008c65760008415620008b1578287015190505b620008bd858262000830565b8655506200092d565b601f198416620008d68662000672565b60005b828110156200090057848901518255600182019150602085019450602081019050620008d9565b868310156200092057848901516200091c601f89168262000810565b8355505b6001600288020188555050505b505050505050565b600082825260208201905092915050565b7f45524332303a206d696e7420746f20746865207a65726f206164647265737300600082015250565b60006200097e601f8362000935565b91506200098b8262000946565b602082019050919050565b60006020820190508181036000830152620009b1816200096f565b9050919050565b7f4e487b7100000000000000000000000000000000000000000000000000000000600052601160045260246000fd5b6000620009f482620006fa565b915062000a0183620006fa565b925082820190508082111562000a1c5762000a1b620009b8565b5b92915050565b62000a2d81620006fa565b82525050565b600060208201905062000a4a600083018462000a22565b92915050565b6126668062000a606000396000f3fe608060405234801561001057600080fd5b50600436106101375760003560e01c80634aa7961e116100b85780638da5cb5b1161007c5780638da5cb5b1461037657806395d89b4114610394578063a457c2d7146103b2578063a9059cbb146103e2578063dd62ed3e14610412578063f2fde38b1461044257610137565b80634aa7961e146102ac5780635f515226146102dc57806368f222fd1461030c57806370a082311461033c578063715018a61461036c57610137565b806323b872dd116100ff57806323b872dd146101f6578063313ce56714610226578063395093511461024457806340c10f191461027457806342966c681461029057610137565b806306fdde031461013c578063095ea7b31461015a57806311c11a3f1461018a578063151293a7146101a657806318160ddd146101d8575b600080fd5b61014461045e565b604051610151919061173f565b60405180910390f35b610174600480360381019061016f91906117fa565b6104f0565b6040516101819190611855565b60405180910390f35b6101a4600480360381019061019f9190611870565b610513565b005b6101c060048036038101906101bb9190611870565b610647565b6040516101cf939291906118ac565b60405180910390f35b6101e0610709565b6040516101ed91906118ea565b60405180910390f35b610210600480360381019061020b9190611905565b610713565b60405161021d9190611855565b60405180910390f35b61022e610742565b60405161023b9190611974565b60405180910390f35b61025e600480360381019061025991906117fa565b61074b565b60405161026b9190611855565b60405180910390f35b61028e600480360381019061028991906117fa565b610782565b005b6102aa60048036038101906102a59190611870565b61084a565b005b6102c660048036038101906102c1919061198f565b6108e5565b6040516102d39190611a7a565b60405180910390f35b6102f660048036038101906102f1919061198f565b61097c565b60405161030391906118ea565b60405180910390f35b610326600480360381019061032191906117fa565b61098e565b60405161033391906118ea565b60405180910390f35b6103566004803603810190610351919061198f565b6109bf565b60405161036391906118ea565b60405180910390f35b610374610a07565b005b61037e610a1b565b60405161038b9190611aab565b60405180910390f35b61039c610a45565b6040516103a9919061173f565b60405180910390f35b6103cc60048036038101906103c791906117fa565b610ad7565b6040516103d99190611855565b60405180910390f35b6103fc60048036038101906103f791906117fa565b610b4e565b6040516104099190611855565b60405180910390f35b61042c60048036038101906104279190611ac6565b610c61565b60405161043991906118ea565b60405180910390f35b61045c6004803603810190610457919061198f565b610ce8565b005b60606003805461046d90611b35565b80601f016020809104026020016040519081016040528092919081815260200182805461049990611b35565b80156104e65780601f106104bb576101008083540402835291602001916104e6565b820191906000526020600020905b8154815290600101906020018083116104c957829003601f168201915b5050505050905090565b6000806104fb610d6b565b9050610508818585610d73565b600191505092915050565b600680549050811061055a576040517f08c379a000000000000000000000000000000000000000000000000000000000815260040161055190611bb2565b60405180910390fd5b6000600682815481106105705761056f611bd2565b5b90600052602060002090600302019050806002015461058e336109bf565b10156105cf576040517f08c379a00000000000000000000000000000000000000000000000000000000081526004016105c690611c4d565b60405180910390fd5b600760003373ffffffffffffffffffffffffffffffffffffffff1673ffffffffffffffffffffffffffffffffffffffff168152602001908152602001600020829080600181540180825580915050600190039060005260206000200160009091909190915055610643338260020154610f3c565b5050565b6006818154811061065757600080fd5b906000526020600020906003020160009150905080600001549080600101805461068090611b35565b80601f01602080910402602001604051908101604052809291908181526020018280546106ac90611b35565b80156106f95780601f106106ce576101008083540402835291602001916106f9565b820191906000526020600020905b8154815290600101906020018083116106dc57829003601f168201915b5050505050908060020154905083565b6000600254905090565b60008061071e610d6b565b905061072b858285611109565b610736858585611195565b60019150509392505050565b60006012905090565b600080610756610d6b565b90506107778185856107688589610c61565b6107729190611c9c565b610d73565b600191505092915050565b61078a61140b565b600073ffffffffffffffffffffffffffffffffffffffff168273ffffffffffffffffffffffffffffffffffffffff16036107f9576040517f08c379a00000000000000000000000000000000000000000000000000000000081526004016107f090611d1c565b60405180910390fd5b6000811161083c576040517f08c379a000000000000000000000000000000000000000000000000000000000815260040161083390611dae565b60405180910390fd5b6108468282611489565b5050565b6000811161088d576040517f08c379a000000000000000000000000000000000000000000000000000000000815260040161088490611e40565b60405180910390fd5b80610897336109bf565b10156108d8576040517f08c379a00000000000000000000000000000000000000000000000000000000081526004016108cf90611eac565b60405180910390fd5b6108e23382610f3c565b50565b6060600760008373ffffffffffffffffffffffffffffffffffffffff1673ffffffffffffffffffffffffffffffffffffffff16815260200190815260200160002080548060200260200160405190810160405280929190818152602001828054801561097057602002820191906000526020600020905b81548152602001906001019080831161095c575b50505050509050919050565b6000610987826109bf565b9050919050565b600760205281600052604060002081815481106109aa57600080fd5b90600052602060002001600091509150505481565b60008060008373ffffffffffffffffffffffffffffffffffffffff1673ffffffffffffffffffffffffffffffffffffffff168152602001908152602001600020549050919050565b610a0f61140b565b610a1960006115df565b565b6000600560009054906101000a900473ffffffffffffffffffffffffffffffffffffffff16905090565b606060048054610a5490611b35565b80601f0160208091040260200160405190810160405280929190818152602001828054610a8090611b35565b8015610acd5780601f10610aa257610100808354040283529160200191610acd565b820191906000526020600020905b815481529060010190602001808311610ab057829003601f168201915b5050505050905090565b600080610ae2610d6b565b90506000610af08286610c61565b905083811015610b35576040517f08c379a0000000000000000000000000000000000000000000000000000000008152600401610b2c90611f3e565b60405180910390fd5b610b428286868403610d73565b60019250505092915050565b60008073ffffffffffffffffffffffffffffffffffffffff168373ffffffffffffffffffffffffffffffffffffffff1603610bbe576040517f08c379a0000000000000000000000000000000000000000000000000000000008152600401610bb590611faa565b60405180910390fd5b60008211610c01576040517f08c379a0000000000000000000000000000000000000000000000000000000008152600401610bf89061203c565b60405180910390fd5b81610c0b336109bf565b1015610c4c576040517f08c379a0000000000000000000000000000000000000000000000000000000008152600401610c4390611eac565b60405180910390fd5b610c57338484611195565b6001905092915050565b6000600160008473ffffffffffffffffffffffffffffffffffffffff1673ffffffffffffffffffffffffffffffffffffffff16815260200190815260200160002060008373ffffffffffffffffffffffffffffffffffffffff1673ffffffffffffffffffffffffffffffffffffffff16815260200190815260200160002054905092915050565b610cf061140b565b600073ffffffffffffffffffffffffffffffffffffffff168173ffffffffffffffffffffffffffffffffffffffff1603610d5f576040517f08c379a0000000000000000000000000000000000000000000000000000000008152600401610d56906120ce565b60405180910390fd5b610d68816115df565b50565b600033905090565b600073ffffffffffffffffffffffffffffffffffffffff168373ffffffffffffffffffffffffffffffffffffffff1603610de2576040517f08c379a0000000000000000000000000000000000000000000000000000000008152600401610dd990612160565b60405180910390fd5b600073ffffffffffffffffffffffffffffffffffffffff168273ffffffffffffffffffffffffffffffffffffffff1603610e51576040517f08c379a0000000000000000000000000000000000000000000000000000000008152600401610e48906121f2565b60405180910390fd5b80600160008573ffffffffffffffffffffffffffffffffffffffff1673ffffffffffffffffffffffffffffffffffffffff16815260200190815260200160002060008473ffffffffffffffffffffffffffffffffffffffff1673ffffffffffffffffffffffffffffffffffffffff168152602001908152602001600020819055508173ffffffffffffffffffffffffffffffffffffffff168373ffffffffffffffffffffffffffffffffffffffff167f8c5be1e5ebec7d5bd14f71427d1e84f3dd0314c0f7b2291e5b200ac8c7c3b92583604051610f2f91906118ea565b60405180910390a3505050565b600073ffffffffffffffffffffffffffffffffffffffff168273ffffffffffffffffffffffffffffffffffffffff1603610fab576040517f08c379a0000000000000000000000000000000000000000000000000000000008152600401610fa290612284565b60405180910390fd5b610fb7826000836116a5565b60008060008473ffffffffffffffffffffffffffffffffffffffff1673ffffffffffffffffffffffffffffffffffffffff1681526020019081526020016000205490508181101561103d576040517f08c379a000000000000000000000000000000000000000000000000000000000815260040161103490612316565b60405180910390fd5b8181036000808573ffffffffffffffffffffffffffffffffffffffff1673ffffffffffffffffffffffffffffffffffffffff1681526020019081526020016000208190555081600260008282540392505081905550600073ffffffffffffffffffffffffffffffffffffffff168373ffffffffffffffffffffffffffffffffffffffff167fddf252ad1be2c89b69c2b068fc378daa952ba7f163c4a11628f55a4df523b3ef846040516110f091906118ea565b60405180910390a3611104836000846116aa565b505050565b60006111158484610c61565b90507fffffffffffffffffffffffffffffffffffffffffffffffffffffffffffffffff811461118f5781811015611181576040517f08c379a000000000000000000000000000000000000000000000000000000000815260040161117890612382565b60405180910390fd5b61118e8484848403610d73565b5b50505050565b600073ffffffffffffffffffffffffffffffffffffffff168373ffffffffffffffffffffffffffffffffffffffff1603611204576040517f08c379a00000000000000000000000000000000000000000000000000000000081526004016111fb90612414565b60405180910390fd5b600073ffffffffffffffffffffffffffffffffffffffff168273ffffffffffffffffffffffffffffffffffffffff1603611273576040517f08c379a000000000000000000000000000000000000000000000000000000000815260040161126a906124a6565b60405180910390fd5b61127e8383836116a5565b60008060008573ffffffffffffffffffffffffffffffffffffffff1673ffffffffffffffffffffffffffffffffffffffff16815260200190815260200160002054905081811015611304576040517f08c379a00000000000000000000000000000000000000000000000000000000081526004016112fb90612538565b60405180910390fd5b8181036000808673ffffffffffffffffffffffffffffffffffffffff1673ffffffffffffffffffffffffffffffffffffffff16815260200190815260200160002081905550816000808573ffffffffffffffffffffffffffffffffffffffff1673ffffffffffffffffffffffffffffffffffffffff168152602001908152602001600020600082825401925050819055508273ffffffffffffffffffffffffffffffffffffffff168473ffffffffffffffffffffffffffffffffffffffff167fddf252ad1be2c89b69c2b068fc378daa952ba7f163c4a11628f55a4df523b3ef846040516113f291906118ea565b60405180910390a36114058484846116aa565b50505050565b611413610d6b565b73ffffffffffffffffffffffffffffffffffffffff16611431610a1b565b73ffffffffffffffffffffffffffffffffffffffff1614611487576040517f08c379a000000000000000000000000000000000000000000000000000000000815260040161147e906125a4565b60405180910390fd5b565b600073ffffffffffffffffffffffffffffffffffffffff168273ffffffffffffffffffffffffffffffffffffffff16036114f8576040517f08c379a00000000000000000000000000000000000000000000000000000000081526004016114ef90612610565b60405180910390fd5b611504600083836116a5565b80600260008282546115169190611c9c565b92505081905550806000808473ffffffffffffffffffffffffffffffffffffffff1673ffffffffffffffffffffffffffffffffffffffff168152602001908152602001600020600082825401925050819055508173ffffffffffffffffffffffffffffffffffffffff16600073ffffffffffffffffffffffffffffffffffffffff167fddf252ad1be2c89b69c2b068fc378daa952ba7f163c4a11628f55a4df523b3ef836040516115c791906118ea565b60405180910390a36115db600083836116aa565b5050565b6000600560009054906101000a900473ffffffffffffffffffffffffffffffffffffffff16905081600560006101000a81548173ffffffffffffffffffffffffffffffffffffffff021916908373ffffffffffffffffffffffffffffffffffffffff1602179055508173ffffffffffffffffffffffffffffffffffffffff168173ffffffffffffffffffffffffffffffffffffffff167f8be0079c531659141344cd1fd0a4f28419497f9722a3daafe3b4186f6b6457e060405160405180910390a35050565b505050565b505050565b600081519050919050565b600082825260208201905092915050565b60005b838110156116e95780820151818401526020810190506116ce565b60008484015250505050565b6000601f19601f8301169050919050565b6000611711826116af565b61171b81856116ba565b935061172b8185602086016116cb565b611734816116f5565b840191505092915050565b600060208201905081810360008301526117598184611706565b905092915050565b600080fd5b600073ffffffffffffffffffffffffffffffffffffffff82169050919050565b600061179182611766565b9050919050565b6117a181611786565b81146117ac57600080fd5b50565b6000813590506117be81611798565b92915050565b6000819050919050565b6117d7816117c4565b81146117e257600080fd5b50565b6000813590506117f4816117ce565b92915050565b6000806040838503121561181157611810611761565b5b600061181f858286016117af565b9250506020611830858286016117e5565b9150509250929050565b60008115159050919050565b61184f8161183a565b82525050565b600060208201905061186a6000830184611846565b92915050565b60006020828403121561188657611885611761565b5b6000611894848285016117e5565b91505092915050565b6118a6816117c4565b82525050565b60006060820190506118c1600083018661189d565b81810360208301526118d38185611706565b90506118e2604083018461189d565b949350505050565b60006020820190506118ff600083018461189d565b92915050565b60008060006060848603121561191e5761191d611761565b5b600061192c868287016117af565b935050602061193d868287016117af565b925050604061194e868287016117e5565b9150509250925092565b600060ff82169050919050565b61196e81611958565b82525050565b60006020820190506119896000830184611965565b92915050565b6000602082840312156119a5576119a4611761565b5b60006119b3848285016117af565b91505092915050565b600081519050919050565b600082825260208201905092915050565b6000819050602082019050919050565b6119f1816117c4565b82525050565b6000611a0383836119e8565b60208301905092915050565b6000602082019050919050565b6000611a27826119bc565b611a3181856119c7565b9350611a3c836119d8565b8060005b83811015611a6d578151611a5488826119f7565b9750611a5f83611a0f565b925050600181019050611a40565b5085935050505092915050565b60006020820190508181036000830152611a948184611a1c565b905092915050565b611aa581611786565b82525050565b6000602082019050611ac06000830184611a9c565b92915050565b60008060408385031215611add57611adc611761565b5b6000611aeb858286016117af565b9250506020611afc858286016117af565b9150509250929050565b7f4e487b7100000000000000000000000000000000000000000000000000000000600052602260045260246000fd5b60006002820490506001821680611b4d57607f821691505b602082108103611b6057611b5f611b06565b5b50919050565b7f446567656e546f6b656e3a20496e76616c6964206974656d2049440000000000600082015250565b6000611b9c601b836116ba565b9150611ba782611b66565b602082019050919050565b60006020820190508181036000830152611bcb81611b8f565b9050919050565b7f4e487b7100000000000000000000000000000000000000000000000000000000600052603260045260246000fd5b7f446567656e546f6b656e3a20496e73756666696369656e742062616c616e6365600082015250565b6000611c376020836116ba565b9150611c4282611c01565b602082019050919050565b60006020820190508181036000830152611c6681611c2a565b9050919050565b7f4e487b7100000000000000000000000000000000000000000000000000000000600052601160045260246000fd5b6000611ca7826117c4565b9150611cb2836117c4565b9250828201905080821115611cca57611cc9611c6d565b5b92915050565b7f496e76616c696420616464726573730000000000000000000000000000000000600082015250565b6000611d06600f836116ba565b9150611d1182611cd0565b602082019050919050565b60006020820190508181036000830152611d3581611cf9565b9050919050565b7f4d696e7420616d6f756e74206d7573742062652067726561746572207468616e60008201527f2030000000000000000000000000000000000000000000000000000000000000602082015250565b6000611d986022836116ba565b9150611da382611d3c565b604082019050919050565b60006020820190508181036000830152611dc781611d8b565b9050919050565b7f4275726e20616d6f756e74206d7573742062652067726561746572207468616e60008201527f2030000000000000000000000000000000000000000000000000000000000000602082015250565b6000611e2a6022836116ba565b9150611e3582611dce565b604082019050919050565b60006020820190508181036000830152611e5981611e1d565b9050919050565b7f496e73756666696369656e742062616c616e6365000000000000000000000000600082015250565b6000611e966014836116ba565b9150611ea182611e60565b602082019050919050565b60006020820190508181036000830152611ec581611e89565b9050919050565b7f45524332303a2064656372656173656420616c6c6f77616e63652062656c6f7760008201527f207a65726f000000000000000000000000000000000000000000000000000000602082015250565b6000611f286025836116ba565b9150611f3382611ecc565b604082019050919050565b60006020820190508181036000830152611f5781611f1b565b9050919050565b7f496e76616c696420726563697069656e74206164647265737300000000000000600082015250565b6000611f946019836116ba565b9150611f9f82611f5e565b602082019050919050565b60006020820190508181036000830152611fc381611f87565b9050919050565b7f5472616e7366657220616d6f756e74206d75737420626520677265617465722060008201527f7468616e20300000000000000000000000000000000000000000000000000000602082015250565b60006120266026836116ba565b915061203182611fca565b604082019050919050565b6000602082019050818103600083015261205581612019565b9050919050565b7f4f776e61626c653a206e6577206f776e657220697320746865207a65726f206160008201527f6464726573730000000000000000000000000000000000000000000000000000602082015250565b60006120b86026836116ba565b91506120c38261205c565b604082019050919050565b600060208201905081810360008301526120e7816120ab565b9050919050565b7f45524332303a20617070726f76652066726f6d20746865207a65726f2061646460008201527f7265737300000000000000000000000000000000000000000000000000000000602082015250565b600061214a6024836116ba565b9150612155826120ee565b604082019050919050565b600060208201905081810360008301526121798161213d565b9050919050565b7f45524332303a20617070726f766520746f20746865207a65726f20616464726560008201527f7373000000000000000000000000000000000000000000000000000000000000602082015250565b60006121dc6022836116ba565b91506121e782612180565b604082019050919050565b6000602082019050818103600083015261220b816121cf565b9050919050565b7f45524332303a206275726e2066726f6d20746865207a65726f2061646472657360008201527f7300000000000000000000000000000000000000000000000000000000000000602082015250565b600061226e6021836116ba565b915061227982612212565b604082019050919050565b6000602082019050818103600083015261229d81612261565b9050919050565b7f45524332303a206275726e20616d6f756e7420657863656564732062616c616e60008201527f6365000000000000000000000000000000000000000000000000000000000000602082015250565b60006123006022836116ba565b915061230b826122a4565b604082019050919050565b6000602082019050818103600083015261232f816122f3565b9050919050565b7f45524332303a20696e73756666696369656e7420616c6c6f77616e6365000000600082015250565b600061236c601d836116ba565b915061237782612336565b602082019050919050565b6000602082019050818103600083015261239b8161235f565b9050919050565b7f45524332303a207472616e736665722066726f6d20746865207a65726f20616460008201527f6472657373000000000000000000000000000000000000000000000000000000602082015250565b60006123fe6025836116ba565b9150612409826123a2565b604082019050919050565b6000602082019050818103600083015261242d816123f1565b9050919050565b7f45524332303a207472616e7366657220746f20746865207a65726f206164647260008201527f6573730000000000000000000000000000000000000000000000000000000000602082015250565b60006124906023836116ba565b915061249b82612434565b604082019050919050565b600060208201905081810360008301526124bf81612483565b9050919050565b7f45524332303a207472616e7366657220616d6f756e742065786365656473206260008201527f616c616e63650000000000000000000000000000000000000000000000000000602082015250565b60006125226026836116ba565b915061252d826124c6565b604082019050919050565b6000602082019050818103600083015261255181612515565b9050919050565b7f4f776e61626c653a2063616c6c6572206973206e6f7420746865206f776e6572600082015250565b600061258e6020836116ba565b915061259982612558565b602082019050919050565b600060208201905081810360008301526125bd81612581565b9050919050565b7f45524332303a206d696e7420746f20746865207a65726f206164647265737300600082015250565b60006125fa601f836116ba565b9150612605826125c4565b602082019050919050565b60006020820190508181036000830152612629816125ed565b905091905056fea26469706673582212208ccbf2ac58835283caca61ea6631ed9ec0e905f44d2ac3b53715e9643ce6f73d64736f6c63430008120033",
					"opcodes": "PUSH1 0x80 PUSH1 0x40 MSTORE CALLVALUE DUP1 ISZERO PUSH3 0x11 JUMPI PUSH1 0x0 DUP1 REVERT JUMPDEST POP PUSH1 0x40 MLOAD DUP1 PUSH1 0x40 ADD PUSH1 0x40 MSTORE DUP1 PUSH1 0x5 DUP2 MSTORE PUSH1 0x20 ADD PUSH32 0x446567656E000000000000000000000000000000000000000000000000000000 DUP2 MSTORE POP PUSH1 0x40 MLOAD DUP1 PUSH1 0x40 ADD PUSH1 0x40 MSTORE DUP1 PUSH1 0x3 DUP2 MSTORE PUSH1 0x20 ADD PUSH32 0x44474E0000000000000000000000000000000000000000000000000000000000 DUP2 MSTORE POP DUP2 PUSH1 0x3 SWAP1 DUP2 PUSH3 0x8F SWAP2 SWAP1 PUSH3 0x84E JUMP JUMPDEST POP DUP1 PUSH1 0x4 SWAP1 DUP2 PUSH3 0xA1 SWAP2 SWAP1 PUSH3 0x84E JUMP JUMPDEST POP POP POP PUSH3 0xC4 PUSH3 0xB8 PUSH3 0x38F PUSH1 0x20 SHL PUSH1 0x20 SHR JUMP JUMPDEST PUSH3 0x397 PUSH1 0x20 SHL PUSH1 0x20 SHR JUMP JUMPDEST PUSH3 0xDA CALLER PUSH4 0x2FAF080 PUSH3 0x45D PUSH1 0x20 SHL PUSH1 0x20 SHR JUMP JUMPDEST PUSH1 0x6 PUSH1 0x40 MLOAD DUP1 PUSH1 0x60 ADD PUSH1 0x40 MSTORE DUP1 PUSH1 0x0 DUP2 MSTORE PUSH1 0x20 ADD PUSH1 0x40 MLOAD DUP1 PUSH1 0x40 ADD PUSH1 0x40 MSTORE DUP1 PUSH1 0xD DUP2 MSTORE PUSH1 0x20 ADD PUSH32 0x4865616C746820506F74696F6E00000000000000000000000000000000000000 DUP2 MSTORE POP DUP2 MSTORE PUSH1 0x20 ADD PUSH1 0x32 DUP2 MSTORE POP SWAP1 DUP1 PUSH1 0x1 DUP2 SLOAD ADD DUP1 DUP3 SSTORE DUP1 SWAP2 POP POP PUSH1 0x1 SWAP1 SUB SWAP1 PUSH1 0x0 MSTORE PUSH1 0x20 PUSH1 0x0 KECCAK256 SWAP1 PUSH1 0x3 MUL ADD PUSH1 0x0 SWAP1 SWAP2 SWAP1 SWAP2 SWAP1 SWAP2 POP PUSH1 0x0 DUP3 ADD MLOAD DUP2 PUSH1 0x0 ADD SSTORE PUSH1 0x20 DUP3 ADD MLOAD DUP2 PUSH1 0x1 ADD SWAP1 DUP2 PUSH3 0x178 SWAP2 SWAP1 PUSH3 0x84E JUMP JUMPDEST POP PUSH1 0x40 DUP3 ADD MLOAD DUP2 PUSH1 0x2 ADD SSTORE POP POP PUSH1 0x6 PUSH1 0x40 MLOAD DUP1 PUSH1 0x60 ADD PUSH1 0x40 MSTORE DUP1 PUSH1 0x1 DUP2 MSTORE PUSH1 0x20 ADD PUSH1 0x40 MLOAD DUP1 PUSH1 0x40 ADD PUSH1 0x40 MSTORE DUP1 PUSH1 0xD DUP2 MSTORE PUSH1 0x20 ADD PUSH32 0x446F72616E277320426C61646500000000000000000000000000000000000000 DUP2 MSTORE POP DUP2 MSTORE PUSH1 0x20 ADD PUSH2 0x1C2 DUP2 MSTORE POP SWAP1 DUP1 PUSH1 0x1 DUP2 SLOAD ADD DUP1 DUP3 SSTORE DUP1 SWAP2 POP POP PUSH1 0x1 SWAP1 SUB SWAP1 PUSH1 0x0 MSTORE PUSH1 0x20 PUSH1 0x0 KECCAK256 SWAP1 PUSH1 0x3 MUL ADD PUSH1 0x0 SWAP1 SWAP2 SWAP1 SWAP2 SWAP1 SWAP2 POP PUSH1 0x0 DUP3 ADD MLOAD DUP2 PUSH1 0x0 ADD SSTORE PUSH1 0x20 DUP3 ADD MLOAD DUP2 PUSH1 0x1 ADD SWAP1 DUP2 PUSH3 0x224 SWAP2 SWAP1 PUSH3 0x84E JUMP JUMPDEST POP PUSH1 0x40 DUP3 ADD MLOAD DUP2 PUSH1 0x2 ADD SSTORE POP POP PUSH1 0x6 PUSH1 0x40 MLOAD DUP1 PUSH1 0x60 ADD PUSH1 0x40 MSTORE DUP1 PUSH1 0x2 DUP2 MSTORE PUSH1 0x20 ADD PUSH1 0x40 MLOAD DUP1 PUSH1 0x40 ADD PUSH1 0x40 MSTORE DUP1 PUSH1 0xE DUP2 MSTORE PUSH1 0x20 ADD PUSH32 0x446F72616E277320536869656C64000000000000000000000000000000000000 DUP2 MSTORE POP DUP2 MSTORE PUSH1 0x20 ADD PUSH2 0x1C2 DUP2 MSTORE POP SWAP1 DUP1 PUSH1 0x1 DUP2 SLOAD ADD DUP1 DUP3 SSTORE DUP1 SWAP2 POP POP PUSH1 0x1 SWAP1 SUB SWAP1 PUSH1 0x0 MSTORE PUSH1 0x20 PUSH1 0x0 KECCAK256 SWAP1 PUSH1 0x3 MUL ADD PUSH1 0x0 SWAP1 SWAP2 SWAP1 SWAP2 SWAP1 SWAP2 POP PUSH1 0x0 DUP3 ADD MLOAD DUP2 PUSH1 0x0 ADD SSTORE PUSH1 0x20 DUP3 ADD MLOAD DUP2 PUSH1 0x1 ADD SWAP1 DUP2 PUSH3 0x2D0 SWAP2 SWAP1 PUSH3 0x84E JUMP JUMPDEST POP PUSH1 0x40 DUP3 ADD MLOAD DUP2 PUSH1 0x2 ADD SSTORE POP POP PUSH1 0x6 PUSH1 0x40 MLOAD DUP1 PUSH1 0x60 ADD PUSH1 0x40 MSTORE DUP1 PUSH1 0x3 DUP2 MSTORE PUSH1 0x20 ADD PUSH1 0x40 MLOAD DUP1 PUSH1 0x40 ADD PUSH1 0x40 MSTORE DUP1 PUSH1 0x11 DUP2 MSTORE PUSH1 0x20 ADD PUSH32 0x436F7272757074696E6720506F74696F6E000000000000000000000000000000 DUP2 MSTORE POP DUP2 MSTORE PUSH1 0x20 ADD PUSH2 0x1F4 DUP2 MSTORE POP SWAP1 DUP1 PUSH1 0x1 DUP2 SLOAD ADD DUP1 DUP3 SSTORE DUP1 SWAP2 POP POP PUSH1 0x1 SWAP1 SUB SWAP1 PUSH1 0x0 MSTORE PUSH1 0x20 PUSH1 0x0 KECCAK256 SWAP1 PUSH1 0x3 MUL ADD PUSH1 0x0 SWAP1 SWAP2 SWAP1 SWAP2 SWAP1 SWAP2 POP PUSH1 0x0 DUP3 ADD MLOAD DUP2 PUSH1 0x0 ADD SSTORE PUSH1 0x20 DUP3 ADD MLOAD DUP2 PUSH1 0x1 ADD SWAP1 DUP2 PUSH3 0x37C SWAP2 SWAP1 PUSH3 0x84E JUMP JUMPDEST POP PUSH1 0x40 DUP3 ADD MLOAD DUP2 PUSH1 0x2 ADD SSTORE POP POP PUSH3 0xA50 JUMP JUMPDEST PUSH1 0x0 CALLER SWAP1 POP SWAP1 JUMP JUMPDEST PUSH1 0x0 PUSH1 0x5 PUSH1 0x0 SWAP1 SLOAD SWAP1 PUSH2 0x100 EXP SWAP1 DIV PUSH20 0xFFFFFFFFFFFFFFFFFFFFFFFFFFFFFFFFFFFFFFFF AND SWAP1 POP DUP2 PUSH1 0x5 PUSH1 0x0 PUSH2 0x100 EXP DUP2 SLOAD DUP2 PUSH20 0xFFFFFFFFFFFFFFFFFFFFFFFFFFFFFFFFFFFFFFFF MUL NOT AND SWAP1 DUP4 PUSH20 0xFFFFFFFFFFFFFFFFFFFFFFFFFFFFFFFFFFFFFFFF AND MUL OR SWAP1 SSTORE POP DUP2 PUSH20 0xFFFFFFFFFFFFFFFFFFFFFFFFFFFFFFFFFFFFFFFF AND DUP2 PUSH20 0xFFFFFFFFFFFFFFFFFFFFFFFFFFFFFFFFFFFFFFFF AND PUSH32 0x8BE0079C531659141344CD1FD0A4F28419497F9722A3DAAFE3B4186F6B6457E0 PUSH1 0x40 MLOAD PUSH1 0x40 MLOAD DUP1 SWAP2 SUB SWAP1 LOG3 POP POP JUMP JUMPDEST PUSH1 0x0 PUSH20 0xFFFFFFFFFFFFFFFFFFFFFFFFFFFFFFFFFFFFFFFF AND DUP3 PUSH20 0xFFFFFFFFFFFFFFFFFFFFFFFFFFFFFFFFFFFFFFFF AND SUB PUSH3 0x4CF JUMPI PUSH1 0x40 MLOAD PUSH32 0x8C379A000000000000000000000000000000000000000000000000000000000 DUP2 MSTORE PUSH1 0x4 ADD PUSH3 0x4C6 SWAP1 PUSH3 0x996 JUMP JUMPDEST PUSH1 0x40 MLOAD DUP1 SWAP2 SUB SWAP1 REVERT JUMPDEST PUSH3 0x4E3 PUSH1 0x0 DUP4 DUP4 PUSH3 0x5CA PUSH1 0x20 SHL PUSH1 0x20 SHR JUMP JUMPDEST DUP1 PUSH1 0x2 PUSH1 0x0 DUP3 DUP3 SLOAD PUSH3 0x4F7 SWAP2 SWAP1 PUSH3 0x9E7 JUMP JUMPDEST SWAP3 POP POP DUP2 SWAP1 SSTORE POP DUP1 PUSH1 0x0 DUP1 DUP5 PUSH20 0xFFFFFFFFFFFFFFFFFFFFFFFFFFFFFFFFFFFFFFFF AND PUSH20 0xFFFFFFFFFFFFFFFFFFFFFFFFFFFFFFFFFFFFFFFF AND DUP2 MSTORE PUSH1 0x20 ADD SWAP1 DUP2 MSTORE PUSH1 0x20 ADD PUSH1 0x0 KECCAK256 PUSH1 0x0 DUP3 DUP3 SLOAD ADD SWAP3 POP POP DUP2 SWAP1 SSTORE POP DUP2 PUSH20 0xFFFFFFFFFFFFFFFFFFFFFFFFFFFFFFFFFFFFFFFF AND PUSH1 0x0 PUSH20 0xFFFFFFFFFFFFFFFFFFFFFFFFFFFFFFFFFFFFFFFF AND PUSH32 0xDDF252AD1BE2C89B69C2B068FC378DAA952BA7F163C4A11628F55A4DF523B3EF DUP4 PUSH1 0x40 MLOAD PUSH3 0x5AA SWAP2 SWAP1 PUSH3 0xA33 JUMP JUMPDEST PUSH1 0x40 MLOAD DUP1 SWAP2 SUB SWAP1 LOG3 PUSH3 0x5C6 PUSH1 0x0 DUP4 DUP4 PUSH3 0x5CF PUSH1 0x20 SHL PUSH1 0x20 SHR JUMP JUMPDEST POP POP JUMP JUMPDEST POP POP POP JUMP JUMPDEST POP POP POP JUMP JUMPDEST PUSH1 0x0 DUP2 MLOAD SWAP1 POP SWAP2 SWAP1 POP JUMP JUMPDEST PUSH32 0x4E487B7100000000000000000000000000000000000000000000000000000000 PUSH1 0x0 MSTORE PUSH1 0x41 PUSH1 0x4 MSTORE PUSH1 0x24 PUSH1 0x0 REVERT JUMPDEST PUSH32 0x4E487B7100000000000000000000000000000000000000000000000000000000 PUSH1 0x0 MSTORE PUSH1 0x22 PUSH1 0x4 MSTORE PUSH1 0x24 PUSH1 0x0 REVERT JUMPDEST PUSH1 0x0 PUSH1 0x2 DUP3 DIV SWAP1 POP PUSH1 0x1 DUP3 AND DUP1 PUSH3 0x656 JUMPI PUSH1 0x7F DUP3 AND SWAP2 POP JUMPDEST PUSH1 0x20 DUP3 LT DUP2 SUB PUSH3 0x66C JUMPI PUSH3 0x66B PUSH3 0x60E JUMP JUMPDEST JUMPDEST POP SWAP2 SWAP1 POP JUMP JUMPDEST PUSH1 0x0 DUP2 SWAP1 POP DUP2 PUSH1 0x0 MSTORE PUSH1 0x20 PUSH1 0x0 KECCAK256 SWAP1 POP SWAP2 SWAP1 POP JUMP JUMPDEST PUSH1 0x0 PUSH1 0x20 PUSH1 0x1F DUP4 ADD DIV SWAP1 POP SWAP2 SWAP1 POP JUMP JUMPDEST PUSH1 0x0 DUP3 DUP3 SHL SWAP1 POP SWAP3 SWAP2 POP POP JUMP JUMPDEST PUSH1 0x0 PUSH1 0x8 DUP4 MUL PUSH3 0x6D6 PUSH32 0xFFFFFFFFFFFFFFFFFFFFFFFFFFFFFFFFFFFFFFFFFFFFFFFFFFFFFFFFFFFFFFFF DUP3 PUSH3 0x697 JUMP JUMPDEST PUSH3 0x6E2 DUP7 DUP4 PUSH3 0x697 JUMP JUMPDEST SWAP6 POP DUP1 NOT DUP5 AND SWAP4 POP DUP1 DUP7 AND DUP5 OR SWAP3 POP POP POP SWAP4 SWAP3 POP POP POP JUMP JUMPDEST PUSH1 0x0 DUP2 SWAP1 POP SWAP2 SWAP1 POP JUMP JUMPDEST PUSH1 0x0 DUP2 SWAP1 POP SWAP2 SWAP1 POP JUMP JUMPDEST PUSH1 0x0 PUSH3 0x72F PUSH3 0x729 PUSH3 0x723 DUP5 PUSH3 0x6FA JUMP JUMPDEST PUSH3 0x704 JUMP JUMPDEST PUSH3 0x6FA JUMP JUMPDEST SWAP1 POP SWAP2 SWAP1 POP JUMP JUMPDEST PUSH1 0x0 DUP2 SWAP1 POP SWAP2 SWAP1 POP JUMP JUMPDEST PUSH3 0x74B DUP4 PUSH3 0x70E JUMP JUMPDEST PUSH3 0x763 PUSH3 0x75A DUP3 PUSH3 0x736 JUMP JUMPDEST DUP5 DUP5 SLOAD PUSH3 0x6A4 JUMP JUMPDEST DUP3 SSTORE POP POP POP POP JUMP JUMPDEST PUSH1 0x0 SWAP1 JUMP JUMPDEST PUSH3 0x77A PUSH3 0x76B JUMP JUMPDEST PUSH3 0x787 DUP2 DUP5 DUP5 PUSH3 0x740 JUMP JUMPDEST POP POP POP JUMP JUMPDEST JUMPDEST DUP2 DUP2 LT ISZERO PUSH3 0x7AF JUMPI PUSH3 0x7A3 PUSH1 0x0 DUP3 PUSH3 0x770 JUMP JUMPDEST PUSH1 0x1 DUP2 ADD SWAP1 POP PUSH3 0x78D JUMP JUMPDEST POP POP JUMP JUMPDEST PUSH1 0x1F DUP3 GT ISZERO PUSH3 0x7FE JUMPI PUSH3 0x7C8 DUP2 PUSH3 0x672 JUMP JUMPDEST PUSH3 0x7D3 DUP5 PUSH3 0x687 JUMP JUMPDEST DUP2 ADD PUSH1 0x20 DUP6 LT ISZERO PUSH3 0x7E3 JUMPI DUP2 SWAP1 POP JUMPDEST PUSH3 0x7FB PUSH3 0x7F2 DUP6 PUSH3 0x687 JUMP JUMPDEST DUP4 ADD DUP3 PUSH3 0x78C JUMP JUMPDEST POP POP JUMPDEST POP POP POP JUMP JUMPDEST PUSH1 0x0 DUP3 DUP3 SHR SWAP1 POP SWAP3 SWAP2 POP POP JUMP JUMPDEST PUSH1 0x0 PUSH3 0x823 PUSH1 0x0 NOT DUP5 PUSH1 0x8 MUL PUSH3 0x803 JUMP JUMPDEST NOT DUP1 DUP4 AND SWAP2 POP POP SWAP3 SWAP2 POP POP JUMP JUMPDEST PUSH1 0x0 PUSH3 0x83E DUP4 DUP4 PUSH3 0x810 JUMP JUMPDEST SWAP2 POP DUP3 PUSH1 0x2 MUL DUP3 OR SWAP1 POP SWAP3 SWAP2 POP POP JUMP JUMPDEST PUSH3 0x859 DUP3 PUSH3 0x5D4 JUMP JUMPDEST PUSH8 0xFFFFFFFFFFFFFFFF DUP2 GT ISZERO PUSH3 0x875 JUMPI PUSH3 0x874 PUSH3 0x5DF JUMP JUMPDEST JUMPDEST PUSH3 0x881 DUP3 SLOAD PUSH3 0x63D JUMP JUMPDEST PUSH3 0x88E DUP3 DUP3 DUP6 PUSH3 0x7B3 JUMP JUMPDEST PUSH1 0x0 PUSH1 0x20 SWAP1 POP PUSH1 0x1F DUP4 GT PUSH1 0x1 DUP2 EQ PUSH3 0x8C6 JUMPI PUSH1 0x0 DUP5 ISZERO PUSH3 0x8B1 JUMPI DUP3 DUP8 ADD MLOAD SWAP1 POP JUMPDEST PUSH3 0x8BD DUP6 DUP3 PUSH3 0x830 JUMP JUMPDEST DUP7 SSTORE POP PUSH3 0x92D JUMP JUMPDEST PUSH1 0x1F NOT DUP5 AND PUSH3 0x8D6 DUP7 PUSH3 0x672 JUMP JUMPDEST PUSH1 0x0 JUMPDEST DUP3 DUP2 LT ISZERO PUSH3 0x900 JUMPI DUP5 DUP10 ADD MLOAD DUP3 SSTORE PUSH1 0x1 DUP3 ADD SWAP2 POP PUSH1 0x20 DUP6 ADD SWAP5 POP PUSH1 0x20 DUP2 ADD SWAP1 POP PUSH3 0x8D9 JUMP JUMPDEST DUP7 DUP4 LT ISZERO PUSH3 0x920 JUMPI DUP5 DUP10 ADD MLOAD PUSH3 0x91C PUSH1 0x1F DUP10 AND DUP3 PUSH3 0x810 JUMP JUMPDEST DUP4 SSTORE POP JUMPDEST PUSH1 0x1 PUSH1 0x2 DUP9 MUL ADD DUP9 SSTORE POP POP POP JUMPDEST POP POP POP POP POP POP JUMP JUMPDEST PUSH1 0x0 DUP3 DUP3 MSTORE PUSH1 0x20 DUP3 ADD SWAP1 POP SWAP3 SWAP2 POP POP JUMP JUMPDEST PUSH32 0x45524332303A206D696E7420746F20746865207A65726F206164647265737300 PUSH1 0x0 DUP3 ADD MSTORE POP JUMP JUMPDEST PUSH1 0x0 PUSH3 0x97E PUSH1 0x1F DUP4 PUSH3 0x935 JUMP JUMPDEST SWAP2 POP PUSH3 0x98B DUP3 PUSH3 0x946 JUMP JUMPDEST PUSH1 0x20 DUP3 ADD SWAP1 POP SWAP2 SWAP1 POP JUMP JUMPDEST PUSH1 0x0 PUSH1 0x20 DUP3 ADD SWAP1 POP DUP2 DUP2 SUB PUSH1 0x0 DUP4 ADD MSTORE PUSH3 0x9B1 DUP2 PUSH3 0x96F JUMP JUMPDEST SWAP1 POP SWAP2 SWAP1 POP JUMP JUMPDEST PUSH32 0x4E487B7100000000000000000000000000000000000000000000000000000000 PUSH1 0x0 MSTORE PUSH1 0x11 PUSH1 0x4 MSTORE PUSH1 0x24 PUSH1 0x0 REVERT JUMPDEST PUSH1 0x0 PUSH3 0x9F4 DUP3 PUSH3 0x6FA JUMP JUMPDEST SWAP2 POP PUSH3 0xA01 DUP4 PUSH3 0x6FA JUMP JUMPDEST SWAP3 POP DUP3 DUP3 ADD SWAP1 POP DUP1 DUP3 GT ISZERO PUSH3 0xA1C JUMPI PUSH3 0xA1B PUSH3 0x9B8 JUMP JUMPDEST JUMPDEST SWAP3 SWAP2 POP POP JUMP JUMPDEST PUSH3 0xA2D DUP2 PUSH3 0x6FA JUMP JUMPDEST DUP3 MSTORE POP POP JUMP JUMPDEST PUSH1 0x0 PUSH1 0x20 DUP3 ADD SWAP1 POP PUSH3 0xA4A PUSH1 0x0 DUP4 ADD DUP5 PUSH3 0xA22 JUMP JUMPDEST SWAP3 SWAP2 POP POP JUMP JUMPDEST PUSH2 0x2666 DUP1 PUSH3 0xA60 PUSH1 0x0 CODECOPY PUSH1 0x0 RETURN INVALID PUSH1 0x80 PUSH1 0x40 MSTORE CALLVALUE DUP1 ISZERO PUSH2 0x10 JUMPI PUSH1 0x0 DUP1 REVERT JUMPDEST POP PUSH1 0x4 CALLDATASIZE LT PUSH2 0x137 JUMPI PUSH1 0x0 CALLDATALOAD PUSH1 0xE0 SHR DUP1 PUSH4 0x4AA7961E GT PUSH2 0xB8 JUMPI DUP1 PUSH4 0x8DA5CB5B GT PUSH2 0x7C JUMPI DUP1 PUSH4 0x8DA5CB5B EQ PUSH2 0x376 JUMPI DUP1 PUSH4 0x95D89B41 EQ PUSH2 0x394 JUMPI DUP1 PUSH4 0xA457C2D7 EQ PUSH2 0x3B2 JUMPI DUP1 PUSH4 0xA9059CBB EQ PUSH2 0x3E2 JUMPI DUP1 PUSH4 0xDD62ED3E EQ PUSH2 0x412 JUMPI DUP1 PUSH4 0xF2FDE38B EQ PUSH2 0x442 JUMPI PUSH2 0x137 JUMP JUMPDEST DUP1 PUSH4 0x4AA7961E EQ PUSH2 0x2AC JUMPI DUP1 PUSH4 0x5F515226 EQ PUSH2 0x2DC JUMPI DUP1 PUSH4 0x68F222FD EQ PUSH2 0x30C JUMPI DUP1 PUSH4 0x70A08231 EQ PUSH2 0x33C JUMPI DUP1 PUSH4 0x715018A6 EQ PUSH2 0x36C JUMPI PUSH2 0x137 JUMP JUMPDEST DUP1 PUSH4 0x23B872DD GT PUSH2 0xFF JUMPI DUP1 PUSH4 0x23B872DD EQ PUSH2 0x1F6 JUMPI DUP1 PUSH4 0x313CE567 EQ PUSH2 0x226 JUMPI DUP1 PUSH4 0x39509351 EQ PUSH2 0x244 JUMPI DUP1 PUSH4 0x40C10F19 EQ PUSH2 0x274 JUMPI DUP1 PUSH4 0x42966C68 EQ PUSH2 0x290 JUMPI PUSH2 0x137 JUMP JUMPDEST DUP1 PUSH4 0x6FDDE03 EQ PUSH2 0x13C JUMPI DUP1 PUSH4 0x95EA7B3 EQ PUSH2 0x15A JUMPI DUP1 PUSH4 0x11C11A3F EQ PUSH2 0x18A JUMPI DUP1 PUSH4 0x151293A7 EQ PUSH2 0x1A6 JUMPI DUP1 PUSH4 0x18160DDD EQ PUSH2 0x1D8 JUMPI JUMPDEST PUSH1 0x0 DUP1 REVERT JUMPDEST PUSH2 0x144 PUSH2 0x45E JUMP JUMPDEST PUSH1 0x40 MLOAD PUSH2 0x151 SWAP2 SWAP1 PUSH2 0x173F JUMP JUMPDEST PUSH1 0x40 MLOAD DUP1 SWAP2 SUB SWAP1 RETURN JUMPDEST PUSH2 0x174 PUSH1 0x4 DUP1 CALLDATASIZE SUB DUP2 ADD SWAP1 PUSH2 0x16F SWAP2 SWAP1 PUSH2 0x17FA JUMP JUMPDEST PUSH2 0x4F0 JUMP JUMPDEST PUSH1 0x40 MLOAD PUSH2 0x181 SWAP2 SWAP1 PUSH2 0x1855 JUMP JUMPDEST PUSH1 0x40 MLOAD DUP1 SWAP2 SUB SWAP1 RETURN JUMPDEST PUSH2 0x1A4 PUSH1 0x4 DUP1 CALLDATASIZE SUB DUP2 ADD SWAP1 PUSH2 0x19F SWAP2 SWAP1 PUSH2 0x1870 JUMP JUMPDEST PUSH2 0x513 JUMP JUMPDEST STOP JUMPDEST PUSH2 0x1C0 PUSH1 0x4 DUP1 CALLDATASIZE SUB DUP2 ADD SWAP1 PUSH2 0x1BB SWAP2 SWAP1 PUSH2 0x1870 JUMP JUMPDEST PUSH2 0x647 JUMP JUMPDEST PUSH1 0x40 MLOAD PUSH2 0x1CF SWAP4 SWAP3 SWAP2 SWAP1 PUSH2 0x18AC JUMP JUMPDEST PUSH1 0x40 MLOAD DUP1 SWAP2 SUB SWAP1 RETURN JUMPDEST PUSH2 0x1E0 PUSH2 0x709 JUMP JUMPDEST PUSH1 0x40 MLOAD PUSH2 0x1ED SWAP2 SWAP1 PUSH2 0x18EA JUMP JUMPDEST PUSH1 0x40 MLOAD DUP1 SWAP2 SUB SWAP1 RETURN JUMPDEST PUSH2 0x210 PUSH1 0x4 DUP1 CALLDATASIZE SUB DUP2 ADD SWAP1 PUSH2 0x20B SWAP2 SWAP1 PUSH2 0x1905 JUMP JUMPDEST PUSH2 0x713 JUMP JUMPDEST PUSH1 0x40 MLOAD PUSH2 0x21D SWAP2 SWAP1 PUSH2 0x1855 JUMP JUMPDEST PUSH1 0x40 MLOAD DUP1 SWAP2 SUB SWAP1 RETURN JUMPDEST PUSH2 0x22E PUSH2 0x742 JUMP JUMPDEST PUSH1 0x40 MLOAD PUSH2 0x23B SWAP2 SWAP1 PUSH2 0x1974 JUMP JUMPDEST PUSH1 0x40 MLOAD DUP1 SWAP2 SUB SWAP1 RETURN JUMPDEST PUSH2 0x25E PUSH1 0x4 DUP1 CALLDATASIZE SUB DUP2 ADD SWAP1 PUSH2 0x259 SWAP2 SWAP1 PUSH2 0x17FA JUMP JUMPDEST PUSH2 0x74B JUMP JUMPDEST PUSH1 0x40 MLOAD PUSH2 0x26B SWAP2 SWAP1 PUSH2 0x1855 JUMP JUMPDEST PUSH1 0x40 MLOAD DUP1 SWAP2 SUB SWAP1 RETURN JUMPDEST PUSH2 0x28E PUSH1 0x4 DUP1 CALLDATASIZE SUB DUP2 ADD SWAP1 PUSH2 0x289 SWAP2 SWAP1 PUSH2 0x17FA JUMP JUMPDEST PUSH2 0x782 JUMP JUMPDEST STOP JUMPDEST PUSH2 0x2AA PUSH1 0x4 DUP1 CALLDATASIZE SUB DUP2 ADD SWAP1 PUSH2 0x2A5 SWAP2 SWAP1 PUSH2 0x1870 JUMP JUMPDEST PUSH2 0x84A JUMP JUMPDEST STOP JUMPDEST PUSH2 0x2C6 PUSH1 0x4 DUP1 CALLDATASIZE SUB DUP2 ADD SWAP1 PUSH2 0x2C1 SWAP2 SWAP1 PUSH2 0x198F JUMP JUMPDEST PUSH2 0x8E5 JUMP JUMPDEST PUSH1 0x40 MLOAD PUSH2 0x2D3 SWAP2 SWAP1 PUSH2 0x1A7A JUMP JUMPDEST PUSH1 0x40 MLOAD DUP1 SWAP2 SUB SWAP1 RETURN JUMPDEST PUSH2 0x2F6 PUSH1 0x4 DUP1 CALLDATASIZE SUB DUP2 ADD SWAP1 PUSH2 0x2F1 SWAP2 SWAP1 PUSH2 0x198F JUMP JUMPDEST PUSH2 0x97C JUMP JUMPDEST PUSH1 0x40 MLOAD PUSH2 0x303 SWAP2 SWAP1 PUSH2 0x18EA JUMP JUMPDEST PUSH1 0x40 MLOAD DUP1 SWAP2 SUB SWAP1 RETURN JUMPDEST PUSH2 0x326 PUSH1 0x4 DUP1 CALLDATASIZE SUB DUP2 ADD SWAP1 PUSH2 0x321 SWAP2 SWAP1 PUSH2 0x17FA JUMP JUMPDEST PUSH2 0x98E JUMP JUMPDEST PUSH1 0x40 MLOAD PUSH2 0x333 SWAP2 SWAP1 PUSH2 0x18EA JUMP JUMPDEST PUSH1 0x40 MLOAD DUP1 SWAP2 SUB SWAP1 RETURN JUMPDEST PUSH2 0x356 PUSH1 0x4 DUP1 CALLDATASIZE SUB DUP2 ADD SWAP1 PUSH2 0x351 SWAP2 SWAP1 PUSH2 0x198F JUMP JUMPDEST PUSH2 0x9BF JUMP JUMPDEST PUSH1 0x40 MLOAD PUSH2 0x363 SWAP2 SWAP1 PUSH2 0x18EA JUMP JUMPDEST PUSH1 0x40 MLOAD DUP1 SWAP2 SUB SWAP1 RETURN JUMPDEST PUSH2 0x374 PUSH2 0xA07 JUMP JUMPDEST STOP JUMPDEST PUSH2 0x37E PUSH2 0xA1B JUMP JUMPDEST PUSH1 0x40 MLOAD PUSH2 0x38B SWAP2 SWAP1 PUSH2 0x1AAB JUMP JUMPDEST PUSH1 0x40 MLOAD DUP1 SWAP2 SUB SWAP1 RETURN JUMPDEST PUSH2 0x39C PUSH2 0xA45 JUMP JUMPDEST PUSH1 0x40 MLOAD PUSH2 0x3A9 SWAP2 SWAP1 PUSH2 0x173F JUMP JUMPDEST PUSH1 0x40 MLOAD DUP1 SWAP2 SUB SWAP1 RETURN JUMPDEST PUSH2 0x3CC PUSH1 0x4 DUP1 CALLDATASIZE SUB DUP2 ADD SWAP1 PUSH2 0x3C7 SWAP2 SWAP1 PUSH2 0x17FA JUMP JUMPDEST PUSH2 0xAD7 JUMP JUMPDEST PUSH1 0x40 MLOAD PUSH2 0x3D9 SWAP2 SWAP1 PUSH2 0x1855 JUMP JUMPDEST PUSH1 0x40 MLOAD DUP1 SWAP2 SUB SWAP1 RETURN JUMPDEST PUSH2 0x3FC PUSH1 0x4 DUP1 CALLDATASIZE SUB DUP2 ADD SWAP1 PUSH2 0x3F7 SWAP2 SWAP1 PUSH2 0x17FA JUMP JUMPDEST PUSH2 0xB4E JUMP JUMPDEST PUSH1 0x40 MLOAD PUSH2 0x409 SWAP2 SWAP1 PUSH2 0x1855 JUMP JUMPDEST PUSH1 0x40 MLOAD DUP1 SWAP2 SUB SWAP1 RETURN JUMPDEST PUSH2 0x42C PUSH1 0x4 DUP1 CALLDATASIZE SUB DUP2 ADD SWAP1 PUSH2 0x427 SWAP2 SWAP1 PUSH2 0x1AC6 JUMP JUMPDEST PUSH2 0xC61 JUMP JUMPDEST PUSH1 0x40 MLOAD PUSH2 0x439 SWAP2 SWAP1 PUSH2 0x18EA JUMP JUMPDEST PUSH1 0x40 MLOAD DUP1 SWAP2 SUB SWAP1 RETURN JUMPDEST PUSH2 0x45C PUSH1 0x4 DUP1 CALLDATASIZE SUB DUP2 ADD SWAP1 PUSH2 0x457 SWAP2 SWAP1 PUSH2 0x198F JUMP JUMPDEST PUSH2 0xCE8 JUMP JUMPDEST STOP JUMPDEST PUSH1 0x60 PUSH1 0x3 DUP1 SLOAD PUSH2 0x46D SWAP1 PUSH2 0x1B35 JUMP JUMPDEST DUP1 PUSH1 0x1F ADD PUSH1 0x20 DUP1 SWAP2 DIV MUL PUSH1 0x20 ADD PUSH1 0x40 MLOAD SWAP1 DUP2 ADD PUSH1 0x40 MSTORE DUP1 SWAP3 SWAP2 SWAP1 DUP2 DUP2 MSTORE PUSH1 0x20 ADD DUP3 DUP1 SLOAD PUSH2 0x499 SWAP1 PUSH2 0x1B35 JUMP JUMPDEST DUP1 ISZERO PUSH2 0x4E6 JUMPI DUP1 PUSH1 0x1F LT PUSH2 0x4BB JUMPI PUSH2 0x100 DUP1 DUP4 SLOAD DIV MUL DUP4 MSTORE SWAP2 PUSH1 0x20 ADD SWAP2 PUSH2 0x4E6 JUMP JUMPDEST DUP3 ADD SWAP2 SWAP1 PUSH1 0x0 MSTORE PUSH1 0x20 PUSH1 0x0 KECCAK256 SWAP1 JUMPDEST DUP2 SLOAD DUP2 MSTORE SWAP1 PUSH1 0x1 ADD SWAP1 PUSH1 0x20 ADD DUP1 DUP4 GT PUSH2 0x4C9 JUMPI DUP3 SWAP1 SUB PUSH1 0x1F AND DUP3 ADD SWAP2 JUMPDEST POP POP POP POP POP SWAP1 POP SWAP1 JUMP JUMPDEST PUSH1 0x0 DUP1 PUSH2 0x4FB PUSH2 0xD6B JUMP JUMPDEST SWAP1 POP PUSH2 0x508 DUP2 DUP6 DUP6 PUSH2 0xD73 JUMP JUMPDEST PUSH1 0x1 SWAP2 POP POP SWAP3 SWAP2 POP POP JUMP JUMPDEST PUSH1 0x6 DUP1 SLOAD SWAP1 POP DUP2 LT PUSH2 0x55A JUMPI PUSH1 0x40 MLOAD PUSH32 0x8C379A000000000000000000000000000000000000000000000000000000000 DUP2 MSTORE PUSH1 0x4 ADD PUSH2 0x551 SWAP1 PUSH2 0x1BB2 JUMP JUMPDEST PUSH1 0x40 MLOAD DUP1 SWAP2 SUB SWAP1 REVERT JUMPDEST PUSH1 0x0 PUSH1 0x6 DUP3 DUP2 SLOAD DUP2 LT PUSH2 0x570 JUMPI PUSH2 0x56F PUSH2 0x1BD2 JUMP JUMPDEST JUMPDEST SWAP1 PUSH1 0x0 MSTORE PUSH1 0x20 PUSH1 0x0 KECCAK256 SWAP1 PUSH1 0x3 MUL ADD SWAP1 POP DUP1 PUSH1 0x2 ADD SLOAD PUSH2 0x58E CALLER PUSH2 0x9BF JUMP JUMPDEST LT ISZERO PUSH2 0x5CF JUMPI PUSH1 0x40 MLOAD PUSH32 0x8C379A000000000000000000000000000000000000000000000000000000000 DUP2 MSTORE PUSH1 0x4 ADD PUSH2 0x5C6 SWAP1 PUSH2 0x1C4D JUMP JUMPDEST PUSH1 0x40 MLOAD DUP1 SWAP2 SUB SWAP1 REVERT JUMPDEST PUSH1 0x7 PUSH1 0x0 CALLER PUSH20 0xFFFFFFFFFFFFFFFFFFFFFFFFFFFFFFFFFFFFFFFF AND PUSH20 0xFFFFFFFFFFFFFFFFFFFFFFFFFFFFFFFFFFFFFFFF AND DUP2 MSTORE PUSH1 0x20 ADD SWAP1 DUP2 MSTORE PUSH1 0x20 ADD PUSH1 0x0 KECCAK256 DUP3 SWAP1 DUP1 PUSH1 0x1 DUP2 SLOAD ADD DUP1 DUP3 SSTORE DUP1 SWAP2 POP POP PUSH1 0x1 SWAP1 SUB SWAP1 PUSH1 0x0 MSTORE PUSH1 0x20 PUSH1 0x0 KECCAK256 ADD PUSH1 0x0 SWAP1 SWAP2 SWAP1 SWAP2 SWAP1 SWAP2 POP SSTORE PUSH2 0x643 CALLER DUP3 PUSH1 0x2 ADD SLOAD PUSH2 0xF3C JUMP JUMPDEST POP POP JUMP JUMPDEST PUSH1 0x6 DUP2 DUP2 SLOAD DUP2 LT PUSH2 0x657 JUMPI PUSH1 0x0 DUP1 REVERT JUMPDEST SWAP1 PUSH1 0x0 MSTORE PUSH1 0x20 PUSH1 0x0 KECCAK256 SWAP1 PUSH1 0x3 MUL ADD PUSH1 0x0 SWAP2 POP SWAP1 POP DUP1 PUSH1 0x0 ADD SLOAD SWAP1 DUP1 PUSH1 0x1 ADD DUP1 SLOAD PUSH2 0x680 SWAP1 PUSH2 0x1B35 JUMP JUMPDEST DUP1 PUSH1 0x1F ADD PUSH1 0x20 DUP1 SWAP2 DIV MUL PUSH1 0x20 ADD PUSH1 0x40 MLOAD SWAP1 DUP2 ADD PUSH1 0x40 MSTORE DUP1 SWAP3 SWAP2 SWAP1 DUP2 DUP2 MSTORE PUSH1 0x20 ADD DUP3 DUP1 SLOAD PUSH2 0x6AC SWAP1 PUSH2 0x1B35 JUMP JUMPDEST DUP1 ISZERO PUSH2 0x6F9 JUMPI DUP1 PUSH1 0x1F LT PUSH2 0x6CE JUMPI PUSH2 0x100 DUP1 DUP4 SLOAD DIV MUL DUP4 MSTORE SWAP2 PUSH1 0x20 ADD SWAP2 PUSH2 0x6F9 JUMP JUMPDEST DUP3 ADD SWAP2 SWAP1 PUSH1 0x0 MSTORE PUSH1 0x20 PUSH1 0x0 KECCAK256 SWAP1 JUMPDEST DUP2 SLOAD DUP2 MSTORE SWAP1 PUSH1 0x1 ADD SWAP1 PUSH1 0x20 ADD DUP1 DUP4 GT PUSH2 0x6DC JUMPI DUP3 SWAP1 SUB PUSH1 0x1F AND DUP3 ADD SWAP2 JUMPDEST POP POP POP POP POP SWAP1 DUP1 PUSH1 0x2 ADD SLOAD SWAP1 POP DUP4 JUMP JUMPDEST PUSH1 0x0 PUSH1 0x2 SLOAD SWAP1 POP SWAP1 JUMP JUMPDEST PUSH1 0x0 DUP1 PUSH2 0x71E PUSH2 0xD6B JUMP JUMPDEST SWAP1 POP PUSH2 0x72B DUP6 DUP3 DUP6 PUSH2 0x1109 JUMP JUMPDEST PUSH2 0x736 DUP6 DUP6 DUP6 PUSH2 0x1195 JUMP JUMPDEST PUSH1 0x1 SWAP2 POP POP SWAP4 SWAP3 POP POP POP JUMP JUMPDEST PUSH1 0x0 PUSH1 0x12 SWAP1 POP SWAP1 JUMP JUMPDEST PUSH1 0x0 DUP1 PUSH2 0x756 PUSH2 0xD6B JUMP JUMPDEST SWAP1 POP PUSH2 0x777 DUP2 DUP6 DUP6 PUSH2 0x768 DUP6 DUP10 PUSH2 0xC61 JUMP JUMPDEST PUSH2 0x772 SWAP2 SWAP1 PUSH2 0x1C9C JUMP JUMPDEST PUSH2 0xD73 JUMP JUMPDEST PUSH1 0x1 SWAP2 POP POP SWAP3 SWAP2 POP POP JUMP JUMPDEST PUSH2 0x78A PUSH2 0x140B JUMP JUMPDEST PUSH1 0x0 PUSH20 0xFFFFFFFFFFFFFFFFFFFFFFFFFFFFFFFFFFFFFFFF AND DUP3 PUSH20 0xFFFFFFFFFFFFFFFFFFFFFFFFFFFFFFFFFFFFFFFF AND SUB PUSH2 0x7F9 JUMPI PUSH1 0x40 MLOAD PUSH32 0x8C379A000000000000000000000000000000000000000000000000000000000 DUP2 MSTORE PUSH1 0x4 ADD PUSH2 0x7F0 SWAP1 PUSH2 0x1D1C JUMP JUMPDEST PUSH1 0x40 MLOAD DUP1 SWAP2 SUB SWAP1 REVERT JUMPDEST PUSH1 0x0 DUP2 GT PUSH2 0x83C JUMPI PUSH1 0x40 MLOAD PUSH32 0x8C379A000000000000000000000000000000000000000000000000000000000 DUP2 MSTORE PUSH1 0x4 ADD PUSH2 0x833 SWAP1 PUSH2 0x1DAE JUMP JUMPDEST PUSH1 0x40 MLOAD DUP1 SWAP2 SUB SWAP1 REVERT JUMPDEST PUSH2 0x846 DUP3 DUP3 PUSH2 0x1489 JUMP JUMPDEST POP POP JUMP JUMPDEST PUSH1 0x0 DUP2 GT PUSH2 0x88D JUMPI PUSH1 0x40 MLOAD PUSH32 0x8C379A000000000000000000000000000000000000000000000000000000000 DUP2 MSTORE PUSH1 0x4 ADD PUSH2 0x884 SWAP1 PUSH2 0x1E40 JUMP JUMPDEST PUSH1 0x40 MLOAD DUP1 SWAP2 SUB SWAP1 REVERT JUMPDEST DUP1 PUSH2 0x897 CALLER PUSH2 0x9BF JUMP JUMPDEST LT ISZERO PUSH2 0x8D8 JUMPI PUSH1 0x40 MLOAD PUSH32 0x8C379A000000000000000000000000000000000000000000000000000000000 DUP2 MSTORE PUSH1 0x4 ADD PUSH2 0x8CF SWAP1 PUSH2 0x1EAC JUMP JUMPDEST PUSH1 0x40 MLOAD DUP1 SWAP2 SUB SWAP1 REVERT JUMPDEST PUSH2 0x8E2 CALLER DUP3 PUSH2 0xF3C JUMP JUMPDEST POP JUMP JUMPDEST PUSH1 0x60 PUSH1 0x7 PUSH1 0x0 DUP4 PUSH20 0xFFFFFFFFFFFFFFFFFFFFFFFFFFFFFFFFFFFFFFFF AND PUSH20 0xFFFFFFFFFFFFFFFFFFFFFFFFFFFFFFFFFFFFFFFF AND DUP2 MSTORE PUSH1 0x20 ADD SWAP1 DUP2 MSTORE PUSH1 0x20 ADD PUSH1 0x0 KECCAK256 DUP1 SLOAD DUP1 PUSH1 0x20 MUL PUSH1 0x20 ADD PUSH1 0x40 MLOAD SWAP1 DUP2 ADD PUSH1 0x40 MSTORE DUP1 SWAP3 SWAP2 SWAP1 DUP2 DUP2 MSTORE PUSH1 0x20 ADD DUP3 DUP1 SLOAD DUP1 ISZERO PUSH2 0x970 JUMPI PUSH1 0x20 MUL DUP3 ADD SWAP2 SWAP1 PUSH1 0x0 MSTORE PUSH1 0x20 PUSH1 0x0 KECCAK256 SWAP1 JUMPDEST DUP2 SLOAD DUP2 MSTORE PUSH1 0x20 ADD SWAP1 PUSH1 0x1 ADD SWAP1 DUP1 DUP4 GT PUSH2 0x95C JUMPI JUMPDEST POP POP POP POP POP SWAP1 POP SWAP2 SWAP1 POP JUMP JUMPDEST PUSH1 0x0 PUSH2 0x987 DUP3 PUSH2 0x9BF JUMP JUMPDEST SWAP1 POP SWAP2 SWAP1 POP JUMP JUMPDEST PUSH1 0x7 PUSH1 0x20 MSTORE DUP2 PUSH1 0x0 MSTORE PUSH1 0x40 PUSH1 0x0 KECCAK256 DUP2 DUP2 SLOAD DUP2 LT PUSH2 0x9AA JUMPI PUSH1 0x0 DUP1 REVERT JUMPDEST SWAP1 PUSH1 0x0 MSTORE PUSH1 0x20 PUSH1 0x0 KECCAK256 ADD PUSH1 0x0 SWAP2 POP SWAP2 POP POP SLOAD DUP2 JUMP JUMPDEST PUSH1 0x0 DUP1 PUSH1 0x0 DUP4 PUSH20 0xFFFFFFFFFFFFFFFFFFFFFFFFFFFFFFFFFFFFFFFF AND PUSH20 0xFFFFFFFFFFFFFFFFFFFFFFFFFFFFFFFFFFFFFFFF AND DUP2 MSTORE PUSH1 0x20 ADD SWAP1 DUP2 MSTORE PUSH1 0x20 ADD PUSH1 0x0 KECCAK256 SLOAD SWAP1 POP SWAP2 SWAP1 POP JUMP JUMPDEST PUSH2 0xA0F PUSH2 0x140B JUMP JUMPDEST PUSH2 0xA19 PUSH1 0x0 PUSH2 0x15DF JUMP JUMPDEST JUMP JUMPDEST PUSH1 0x0 PUSH1 0x5 PUSH1 0x0 SWAP1 SLOAD SWAP1 PUSH2 0x100 EXP SWAP1 DIV PUSH20 0xFFFFFFFFFFFFFFFFFFFFFFFFFFFFFFFFFFFFFFFF AND SWAP1 POP SWAP1 JUMP JUMPDEST PUSH1 0x60 PUSH1 0x4 DUP1 SLOAD PUSH2 0xA54 SWAP1 PUSH2 0x1B35 JUMP JUMPDEST DUP1 PUSH1 0x1F ADD PUSH1 0x20 DUP1 SWAP2 DIV MUL PUSH1 0x20 ADD PUSH1 0x40 MLOAD SWAP1 DUP2 ADD PUSH1 0x40 MSTORE DUP1 SWAP3 SWAP2 SWAP1 DUP2 DUP2 MSTORE PUSH1 0x20 ADD DUP3 DUP1 SLOAD PUSH2 0xA80 SWAP1 PUSH2 0x1B35 JUMP JUMPDEST DUP1 ISZERO PUSH2 0xACD JUMPI DUP1 PUSH1 0x1F LT PUSH2 0xAA2 JUMPI PUSH2 0x100 DUP1 DUP4 SLOAD DIV MUL DUP4 MSTORE SWAP2 PUSH1 0x20 ADD SWAP2 PUSH2 0xACD JUMP JUMPDEST DUP3 ADD SWAP2 SWAP1 PUSH1 0x0 MSTORE PUSH1 0x20 PUSH1 0x0 KECCAK256 SWAP1 JUMPDEST DUP2 SLOAD DUP2 MSTORE SWAP1 PUSH1 0x1 ADD SWAP1 PUSH1 0x20 ADD DUP1 DUP4 GT PUSH2 0xAB0 JUMPI DUP3 SWAP1 SUB PUSH1 0x1F AND DUP3 ADD SWAP2 JUMPDEST POP POP POP POP POP SWAP1 POP SWAP1 JUMP JUMPDEST PUSH1 0x0 DUP1 PUSH2 0xAE2 PUSH2 0xD6B JUMP JUMPDEST SWAP1 POP PUSH1 0x0 PUSH2 0xAF0 DUP3 DUP7 PUSH2 0xC61 JUMP JUMPDEST SWAP1 POP DUP4 DUP2 LT ISZERO PUSH2 0xB35 JUMPI PUSH1 0x40 MLOAD PUSH32 0x8C379A000000000000000000000000000000000000000000000000000000000 DUP2 MSTORE PUSH1 0x4 ADD PUSH2 0xB2C SWAP1 PUSH2 0x1F3E JUMP JUMPDEST PUSH1 0x40 MLOAD DUP1 SWAP2 SUB SWAP1 REVERT JUMPDEST PUSH2 0xB42 DUP3 DUP7 DUP7 DUP5 SUB PUSH2 0xD73 JUMP JUMPDEST PUSH1 0x1 SWAP3 POP POP POP SWAP3 SWAP2 POP POP JUMP JUMPDEST PUSH1 0x0 DUP1 PUSH20 0xFFFFFFFFFFFFFFFFFFFFFFFFFFFFFFFFFFFFFFFF AND DUP4 PUSH20 0xFFFFFFFFFFFFFFFFFFFFFFFFFFFFFFFFFFFFFFFF AND SUB PUSH2 0xBBE JUMPI PUSH1 0x40 MLOAD PUSH32 0x8C379A000000000000000000000000000000000000000000000000000000000 DUP2 MSTORE PUSH1 0x4 ADD PUSH2 0xBB5 SWAP1 PUSH2 0x1FAA JUMP JUMPDEST PUSH1 0x40 MLOAD DUP1 SWAP2 SUB SWAP1 REVERT JUMPDEST PUSH1 0x0 DUP3 GT PUSH2 0xC01 JUMPI PUSH1 0x40 MLOAD PUSH32 0x8C379A000000000000000000000000000000000000000000000000000000000 DUP2 MSTORE PUSH1 0x4 ADD PUSH2 0xBF8 SWAP1 PUSH2 0x203C JUMP JUMPDEST PUSH1 0x40 MLOAD DUP1 SWAP2 SUB SWAP1 REVERT JUMPDEST DUP2 PUSH2 0xC0B CALLER PUSH2 0x9BF JUMP JUMPDEST LT ISZERO PUSH2 0xC4C JUMPI PUSH1 0x40 MLOAD PUSH32 0x8C379A000000000000000000000000000000000000000000000000000000000 DUP2 MSTORE PUSH1 0x4 ADD PUSH2 0xC43 SWAP1 PUSH2 0x1EAC JUMP JUMPDEST PUSH1 0x40 MLOAD DUP1 SWAP2 SUB SWAP1 REVERT JUMPDEST PUSH2 0xC57 CALLER DUP5 DUP5 PUSH2 0x1195 JUMP JUMPDEST PUSH1 0x1 SWAP1 POP SWAP3 SWAP2 POP POP JUMP JUMPDEST PUSH1 0x0 PUSH1 0x1 PUSH1 0x0 DUP5 PUSH20 0xFFFFFFFFFFFFFFFFFFFFFFFFFFFFFFFFFFFFFFFF AND PUSH20 0xFFFFFFFFFFFFFFFFFFFFFFFFFFFFFFFFFFFFFFFF AND DUP2 MSTORE PUSH1 0x20 ADD SWAP1 DUP2 MSTORE PUSH1 0x20 ADD PUSH1 0x0 KECCAK256 PUSH1 0x0 DUP4 PUSH20 0xFFFFFFFFFFFFFFFFFFFFFFFFFFFFFFFFFFFFFFFF AND PUSH20 0xFFFFFFFFFFFFFFFFFFFFFFFFFFFFFFFFFFFFFFFF AND DUP2 MSTORE PUSH1 0x20 ADD SWAP1 DUP2 MSTORE PUSH1 0x20 ADD PUSH1 0x0 KECCAK256 SLOAD SWAP1 POP SWAP3 SWAP2 POP POP JUMP JUMPDEST PUSH2 0xCF0 PUSH2 0x140B JUMP JUMPDEST PUSH1 0x0 PUSH20 0xFFFFFFFFFFFFFFFFFFFFFFFFFFFFFFFFFFFFFFFF AND DUP2 PUSH20 0xFFFFFFFFFFFFFFFFFFFFFFFFFFFFFFFFFFFFFFFF AND SUB PUSH2 0xD5F JUMPI PUSH1 0x40 MLOAD PUSH32 0x8C379A000000000000000000000000000000000000000000000000000000000 DUP2 MSTORE PUSH1 0x4 ADD PUSH2 0xD56 SWAP1 PUSH2 0x20CE JUMP JUMPDEST PUSH1 0x40 MLOAD DUP1 SWAP2 SUB SWAP1 REVERT JUMPDEST PUSH2 0xD68 DUP2 PUSH2 0x15DF JUMP JUMPDEST POP JUMP JUMPDEST PUSH1 0x0 CALLER SWAP1 POP SWAP1 JUMP JUMPDEST PUSH1 0x0 PUSH20 0xFFFFFFFFFFFFFFFFFFFFFFFFFFFFFFFFFFFFFFFF AND DUP4 PUSH20 0xFFFFFFFFFFFFFFFFFFFFFFFFFFFFFFFFFFFFFFFF AND SUB PUSH2 0xDE2 JUMPI PUSH1 0x40 MLOAD PUSH32 0x8C379A000000000000000000000000000000000000000000000000000000000 DUP2 MSTORE PUSH1 0x4 ADD PUSH2 0xDD9 SWAP1 PUSH2 0x2160 JUMP JUMPDEST PUSH1 0x40 MLOAD DUP1 SWAP2 SUB SWAP1 REVERT JUMPDEST PUSH1 0x0 PUSH20 0xFFFFFFFFFFFFFFFFFFFFFFFFFFFFFFFFFFFFFFFF AND DUP3 PUSH20 0xFFFFFFFFFFFFFFFFFFFFFFFFFFFFFFFFFFFFFFFF AND SUB PUSH2 0xE51 JUMPI PUSH1 0x40 MLOAD PUSH32 0x8C379A000000000000000000000000000000000000000000000000000000000 DUP2 MSTORE PUSH1 0x4 ADD PUSH2 0xE48 SWAP1 PUSH2 0x21F2 JUMP JUMPDEST PUSH1 0x40 MLOAD DUP1 SWAP2 SUB SWAP1 REVERT JUMPDEST DUP1 PUSH1 0x1 PUSH1 0x0 DUP6 PUSH20 0xFFFFFFFFFFFFFFFFFFFFFFFFFFFFFFFFFFFFFFFF AND PUSH20 0xFFFFFFFFFFFFFFFFFFFFFFFFFFFFFFFFFFFFFFFF AND DUP2 MSTORE PUSH1 0x20 ADD SWAP1 DUP2 MSTORE PUSH1 0x20 ADD PUSH1 0x0 KECCAK256 PUSH1 0x0 DUP5 PUSH20 0xFFFFFFFFFFFFFFFFFFFFFFFFFFFFFFFFFFFFFFFF AND PUSH20 0xFFFFFFFFFFFFFFFFFFFFFFFFFFFFFFFFFFFFFFFF AND DUP2 MSTORE PUSH1 0x20 ADD SWAP1 DUP2 MSTORE PUSH1 0x20 ADD PUSH1 0x0 KECCAK256 DUP2 SWAP1 SSTORE POP DUP2 PUSH20 0xFFFFFFFFFFFFFFFFFFFFFFFFFFFFFFFFFFFFFFFF AND DUP4 PUSH20 0xFFFFFFFFFFFFFFFFFFFFFFFFFFFFFFFFFFFFFFFF AND PUSH32 0x8C5BE1E5EBEC7D5BD14F71427D1E84F3DD0314C0F7B2291E5B200AC8C7C3B925 DUP4 PUSH1 0x40 MLOAD PUSH2 0xF2F SWAP2 SWAP1 PUSH2 0x18EA JUMP JUMPDEST PUSH1 0x40 MLOAD DUP1 SWAP2 SUB SWAP1 LOG3 POP POP POP JUMP JUMPDEST PUSH1 0x0 PUSH20 0xFFFFFFFFFFFFFFFFFFFFFFFFFFFFFFFFFFFFFFFF AND DUP3 PUSH20 0xFFFFFFFFFFFFFFFFFFFFFFFFFFFFFFFFFFFFFFFF AND SUB PUSH2 0xFAB JUMPI PUSH1 0x40 MLOAD PUSH32 0x8C379A000000000000000000000000000000000000000000000000000000000 DUP2 MSTORE PUSH1 0x4 ADD PUSH2 0xFA2 SWAP1 PUSH2 0x2284 JUMP JUMPDEST PUSH1 0x40 MLOAD DUP1 SWAP2 SUB SWAP1 REVERT JUMPDEST PUSH2 0xFB7 DUP3 PUSH1 0x0 DUP4 PUSH2 0x16A5 JUMP JUMPDEST PUSH1 0x0 DUP1 PUSH1 0x0 DUP5 PUSH20 0xFFFFFFFFFFFFFFFFFFFFFFFFFFFFFFFFFFFFFFFF AND PUSH20 0xFFFFFFFFFFFFFFFFFFFFFFFFFFFFFFFFFFFFFFFF AND DUP2 MSTORE PUSH1 0x20 ADD SWAP1 DUP2 MSTORE PUSH1 0x20 ADD PUSH1 0x0 KECCAK256 SLOAD SWAP1 POP DUP2 DUP2 LT ISZERO PUSH2 0x103D JUMPI PUSH1 0x40 MLOAD PUSH32 0x8C379A000000000000000000000000000000000000000000000000000000000 DUP2 MSTORE PUSH1 0x4 ADD PUSH2 0x1034 SWAP1 PUSH2 0x2316 JUMP JUMPDEST PUSH1 0x40 MLOAD DUP1 SWAP2 SUB SWAP1 REVERT JUMPDEST DUP2 DUP2 SUB PUSH1 0x0 DUP1 DUP6 PUSH20 0xFFFFFFFFFFFFFFFFFFFFFFFFFFFFFFFFFFFFFFFF AND PUSH20 0xFFFFFFFFFFFFFFFFFFFFFFFFFFFFFFFFFFFFFFFF AND DUP2 MSTORE PUSH1 0x20 ADD SWAP1 DUP2 MSTORE PUSH1 0x20 ADD PUSH1 0x0 KECCAK256 DUP2 SWAP1 SSTORE POP DUP2 PUSH1 0x2 PUSH1 0x0 DUP3 DUP3 SLOAD SUB SWAP3 POP POP DUP2 SWAP1 SSTORE POP PUSH1 0x0 PUSH20 0xFFFFFFFFFFFFFFFFFFFFFFFFFFFFFFFFFFFFFFFF AND DUP4 PUSH20 0xFFFFFFFFFFFFFFFFFFFFFFFFFFFFFFFFFFFFFFFF AND PUSH32 0xDDF252AD1BE2C89B69C2B068FC378DAA952BA7F163C4A11628F55A4DF523B3EF DUP5 PUSH1 0x40 MLOAD PUSH2 0x10F0 SWAP2 SWAP1 PUSH2 0x18EA JUMP JUMPDEST PUSH1 0x40 MLOAD DUP1 SWAP2 SUB SWAP1 LOG3 PUSH2 0x1104 DUP4 PUSH1 0x0 DUP5 PUSH2 0x16AA JUMP JUMPDEST POP POP POP JUMP JUMPDEST PUSH1 0x0 PUSH2 0x1115 DUP5 DUP5 PUSH2 0xC61 JUMP JUMPDEST SWAP1 POP PUSH32 0xFFFFFFFFFFFFFFFFFFFFFFFFFFFFFFFFFFFFFFFFFFFFFFFFFFFFFFFFFFFFFFFF DUP2 EQ PUSH2 0x118F JUMPI DUP2 DUP2 LT ISZERO PUSH2 0x1181 JUMPI PUSH1 0x40 MLOAD PUSH32 0x8C379A000000000000000000000000000000000000000000000000000000000 DUP2 MSTORE PUSH1 0x4 ADD PUSH2 0x1178 SWAP1 PUSH2 0x2382 JUMP JUMPDEST PUSH1 0x40 MLOAD DUP1 SWAP2 SUB SWAP1 REVERT JUMPDEST PUSH2 0x118E DUP5 DUP5 DUP5 DUP5 SUB PUSH2 0xD73 JUMP JUMPDEST JUMPDEST POP POP POP POP JUMP JUMPDEST PUSH1 0x0 PUSH20 0xFFFFFFFFFFFFFFFFFFFFFFFFFFFFFFFFFFFFFFFF AND DUP4 PUSH20 0xFFFFFFFFFFFFFFFFFFFFFFFFFFFFFFFFFFFFFFFF AND SUB PUSH2 0x1204 JUMPI PUSH1 0x40 MLOAD PUSH32 0x8C379A000000000000000000000000000000000000000000000000000000000 DUP2 MSTORE PUSH1 0x4 ADD PUSH2 0x11FB SWAP1 PUSH2 0x2414 JUMP JUMPDEST PUSH1 0x40 MLOAD DUP1 SWAP2 SUB SWAP1 REVERT JUMPDEST PUSH1 0x0 PUSH20 0xFFFFFFFFFFFFFFFFFFFFFFFFFFFFFFFFFFFFFFFF AND DUP3 PUSH20 0xFFFFFFFFFFFFFFFFFFFFFFFFFFFFFFFFFFFFFFFF AND SUB PUSH2 0x1273 JUMPI PUSH1 0x40 MLOAD PUSH32 0x8C379A000000000000000000000000000000000000000000000000000000000 DUP2 MSTORE PUSH1 0x4 ADD PUSH2 0x126A SWAP1 PUSH2 0x24A6 JUMP JUMPDEST PUSH1 0x40 MLOAD DUP1 SWAP2 SUB SWAP1 REVERT JUMPDEST PUSH2 0x127E DUP4 DUP4 DUP4 PUSH2 0x16A5 JUMP JUMPDEST PUSH1 0x0 DUP1 PUSH1 0x0 DUP6 PUSH20 0xFFFFFFFFFFFFFFFFFFFFFFFFFFFFFFFFFFFFFFFF AND PUSH20 0xFFFFFFFFFFFFFFFFFFFFFFFFFFFFFFFFFFFFFFFF AND DUP2 MSTORE PUSH1 0x20 ADD SWAP1 DUP2 MSTORE PUSH1 0x20 ADD PUSH1 0x0 KECCAK256 SLOAD SWAP1 POP DUP2 DUP2 LT ISZERO PUSH2 0x1304 JUMPI PUSH1 0x40 MLOAD PUSH32 0x8C379A000000000000000000000000000000000000000000000000000000000 DUP2 MSTORE PUSH1 0x4 ADD PUSH2 0x12FB SWAP1 PUSH2 0x2538 JUMP JUMPDEST PUSH1 0x40 MLOAD DUP1 SWAP2 SUB SWAP1 REVERT JUMPDEST DUP2 DUP2 SUB PUSH1 0x0 DUP1 DUP7 PUSH20 0xFFFFFFFFFFFFFFFFFFFFFFFFFFFFFFFFFFFFFFFF AND PUSH20 0xFFFFFFFFFFFFFFFFFFFFFFFFFFFFFFFFFFFFFFFF AND DUP2 MSTORE PUSH1 0x20 ADD SWAP1 DUP2 MSTORE PUSH1 0x20 ADD PUSH1 0x0 KECCAK256 DUP2 SWAP1 SSTORE POP DUP2 PUSH1 0x0 DUP1 DUP6 PUSH20 0xFFFFFFFFFFFFFFFFFFFFFFFFFFFFFFFFFFFFFFFF AND PUSH20 0xFFFFFFFFFFFFFFFFFFFFFFFFFFFFFFFFFFFFFFFF AND DUP2 MSTORE PUSH1 0x20 ADD SWAP1 DUP2 MSTORE PUSH1 0x20 ADD PUSH1 0x0 KECCAK256 PUSH1 0x0 DUP3 DUP3 SLOAD ADD SWAP3 POP POP DUP2 SWAP1 SSTORE POP DUP3 PUSH20 0xFFFFFFFFFFFFFFFFFFFFFFFFFFFFFFFFFFFFFFFF AND DUP5 PUSH20 0xFFFFFFFFFFFFFFFFFFFFFFFFFFFFFFFFFFFFFFFF AND PUSH32 0xDDF252AD1BE2C89B69C2B068FC378DAA952BA7F163C4A11628F55A4DF523B3EF DUP5 PUSH1 0x40 MLOAD PUSH2 0x13F2 SWAP2 SWAP1 PUSH2 0x18EA JUMP JUMPDEST PUSH1 0x40 MLOAD DUP1 SWAP2 SUB SWAP1 LOG3 PUSH2 0x1405 DUP5 DUP5 DUP5 PUSH2 0x16AA JUMP JUMPDEST POP POP POP POP JUMP JUMPDEST PUSH2 0x1413 PUSH2 0xD6B JUMP JUMPDEST PUSH20 0xFFFFFFFFFFFFFFFFFFFFFFFFFFFFFFFFFFFFFFFF AND PUSH2 0x1431 PUSH2 0xA1B JUMP JUMPDEST PUSH20 0xFFFFFFFFFFFFFFFFFFFFFFFFFFFFFFFFFFFFFFFF AND EQ PUSH2 0x1487 JUMPI PUSH1 0x40 MLOAD PUSH32 0x8C379A000000000000000000000000000000000000000000000000000000000 DUP2 MSTORE PUSH1 0x4 ADD PUSH2 0x147E SWAP1 PUSH2 0x25A4 JUMP JUMPDEST PUSH1 0x40 MLOAD DUP1 SWAP2 SUB SWAP1 REVERT JUMPDEST JUMP JUMPDEST PUSH1 0x0 PUSH20 0xFFFFFFFFFFFFFFFFFFFFFFFFFFFFFFFFFFFFFFFF AND DUP3 PUSH20 0xFFFFFFFFFFFFFFFFFFFFFFFFFFFFFFFFFFFFFFFF AND SUB PUSH2 0x14F8 JUMPI PUSH1 0x40 MLOAD PUSH32 0x8C379A000000000000000000000000000000000000000000000000000000000 DUP2 MSTORE PUSH1 0x4 ADD PUSH2 0x14EF SWAP1 PUSH2 0x2610 JUMP JUMPDEST PUSH1 0x40 MLOAD DUP1 SWAP2 SUB SWAP1 REVERT JUMPDEST PUSH2 0x1504 PUSH1 0x0 DUP4 DUP4 PUSH2 0x16A5 JUMP JUMPDEST DUP1 PUSH1 0x2 PUSH1 0x0 DUP3 DUP3 SLOAD PUSH2 0x1516 SWAP2 SWAP1 PUSH2 0x1C9C JUMP JUMPDEST SWAP3 POP POP DUP2 SWAP1 SSTORE POP DUP1 PUSH1 0x0 DUP1 DUP5 PUSH20 0xFFFFFFFFFFFFFFFFFFFFFFFFFFFFFFFFFFFFFFFF AND PUSH20 0xFFFFFFFFFFFFFFFFFFFFFFFFFFFFFFFFFFFFFFFF AND DUP2 MSTORE PUSH1 0x20 ADD SWAP1 DUP2 MSTORE PUSH1 0x20 ADD PUSH1 0x0 KECCAK256 PUSH1 0x0 DUP3 DUP3 SLOAD ADD SWAP3 POP POP DUP2 SWAP1 SSTORE POP DUP2 PUSH20 0xFFFFFFFFFFFFFFFFFFFFFFFFFFFFFFFFFFFFFFFF AND PUSH1 0x0 PUSH20 0xFFFFFFFFFFFFFFFFFFFFFFFFFFFFFFFFFFFFFFFF AND PUSH32 0xDDF252AD1BE2C89B69C2B068FC378DAA952BA7F163C4A11628F55A4DF523B3EF DUP4 PUSH1 0x40 MLOAD PUSH2 0x15C7 SWAP2 SWAP1 PUSH2 0x18EA JUMP JUMPDEST PUSH1 0x40 MLOAD DUP1 SWAP2 SUB SWAP1 LOG3 PUSH2 0x15DB PUSH1 0x0 DUP4 DUP4 PUSH2 0x16AA JUMP JUMPDEST POP POP JUMP JUMPDEST PUSH1 0x0 PUSH1 0x5 PUSH1 0x0 SWAP1 SLOAD SWAP1 PUSH2 0x100 EXP SWAP1 DIV PUSH20 0xFFFFFFFFFFFFFFFFFFFFFFFFFFFFFFFFFFFFFFFF AND SWAP1 POP DUP2 PUSH1 0x5 PUSH1 0x0 PUSH2 0x100 EXP DUP2 SLOAD DUP2 PUSH20 0xFFFFFFFFFFFFFFFFFFFFFFFFFFFFFFFFFFFFFFFF MUL NOT AND SWAP1 DUP4 PUSH20 0xFFFFFFFFFFFFFFFFFFFFFFFFFFFFFFFFFFFFFFFF AND MUL OR SWAP1 SSTORE POP DUP2 PUSH20 0xFFFFFFFFFFFFFFFFFFFFFFFFFFFFFFFFFFFFFFFF AND DUP2 PUSH20 0xFFFFFFFFFFFFFFFFFFFFFFFFFFFFFFFFFFFFFFFF AND PUSH32 0x8BE0079C531659141344CD1FD0A4F28419497F9722A3DAAFE3B4186F6B6457E0 PUSH1 0x40 MLOAD PUSH1 0x40 MLOAD DUP1 SWAP2 SUB SWAP1 LOG3 POP POP JUMP JUMPDEST POP POP POP JUMP JUMPDEST POP POP POP JUMP JUMPDEST PUSH1 0x0 DUP2 MLOAD SWAP1 POP SWAP2 SWAP1 POP JUMP JUMPDEST PUSH1 0x0 DUP3 DUP3 MSTORE PUSH1 0x20 DUP3 ADD SWAP1 POP SWAP3 SWAP2 POP POP JUMP JUMPDEST PUSH1 0x0 JUMPDEST DUP4 DUP2 LT ISZERO PUSH2 0x16E9 JUMPI DUP1 DUP3 ADD MLOAD DUP2 DUP5 ADD MSTORE PUSH1 0x20 DUP2 ADD SWAP1 POP PUSH2 0x16CE JUMP JUMPDEST PUSH1 0x0 DUP5 DUP5 ADD MSTORE POP POP POP POP JUMP JUMPDEST PUSH1 0x0 PUSH1 0x1F NOT PUSH1 0x1F DUP4 ADD AND SWAP1 POP SWAP2 SWAP1 POP JUMP JUMPDEST PUSH1 0x0 PUSH2 0x1711 DUP3 PUSH2 0x16AF JUMP JUMPDEST PUSH2 0x171B DUP2 DUP6 PUSH2 0x16BA JUMP JUMPDEST SWAP4 POP PUSH2 0x172B DUP2 DUP6 PUSH1 0x20 DUP7 ADD PUSH2 0x16CB JUMP JUMPDEST PUSH2 0x1734 DUP2 PUSH2 0x16F5 JUMP JUMPDEST DUP5 ADD SWAP2 POP POP SWAP3 SWAP2 POP POP JUMP JUMPDEST PUSH1 0x0 PUSH1 0x20 DUP3 ADD SWAP1 POP DUP2 DUP2 SUB PUSH1 0x0 DUP4 ADD MSTORE PUSH2 0x1759 DUP2 DUP5 PUSH2 0x1706 JUMP JUMPDEST SWAP1 POP SWAP3 SWAP2 POP POP JUMP JUMPDEST PUSH1 0x0 DUP1 REVERT JUMPDEST PUSH1 0x0 PUSH20 0xFFFFFFFFFFFFFFFFFFFFFFFFFFFFFFFFFFFFFFFF DUP3 AND SWAP1 POP SWAP2 SWAP1 POP JUMP JUMPDEST PUSH1 0x0 PUSH2 0x1791 DUP3 PUSH2 0x1766 JUMP JUMPDEST SWAP1 POP SWAP2 SWAP1 POP JUMP JUMPDEST PUSH2 0x17A1 DUP2 PUSH2 0x1786 JUMP JUMPDEST DUP2 EQ PUSH2 0x17AC JUMPI PUSH1 0x0 DUP1 REVERT JUMPDEST POP JUMP JUMPDEST PUSH1 0x0 DUP2 CALLDATALOAD SWAP1 POP PUSH2 0x17BE DUP2 PUSH2 0x1798 JUMP JUMPDEST SWAP3 SWAP2 POP POP JUMP JUMPDEST PUSH1 0x0 DUP2 SWAP1 POP SWAP2 SWAP1 POP JUMP JUMPDEST PUSH2 0x17D7 DUP2 PUSH2 0x17C4 JUMP JUMPDEST DUP2 EQ PUSH2 0x17E2 JUMPI PUSH1 0x0 DUP1 REVERT JUMPDEST POP JUMP JUMPDEST PUSH1 0x0 DUP2 CALLDATALOAD SWAP1 POP PUSH2 0x17F4 DUP2 PUSH2 0x17CE JUMP JUMPDEST SWAP3 SWAP2 POP POP JUMP JUMPDEST PUSH1 0x0 DUP1 PUSH1 0x40 DUP4 DUP6 SUB SLT ISZERO PUSH2 0x1811 JUMPI PUSH2 0x1810 PUSH2 0x1761 JUMP JUMPDEST JUMPDEST PUSH1 0x0 PUSH2 0x181F DUP6 DUP3 DUP7 ADD PUSH2 0x17AF JUMP JUMPDEST SWAP3 POP POP PUSH1 0x20 PUSH2 0x1830 DUP6 DUP3 DUP7 ADD PUSH2 0x17E5 JUMP JUMPDEST SWAP2 POP POP SWAP3 POP SWAP3 SWAP1 POP JUMP JUMPDEST PUSH1 0x0 DUP2 ISZERO ISZERO SWAP1 POP SWAP2 SWAP1 POP JUMP JUMPDEST PUSH2 0x184F DUP2 PUSH2 0x183A JUMP JUMPDEST DUP3 MSTORE POP POP JUMP JUMPDEST PUSH1 0x0 PUSH1 0x20 DUP3 ADD SWAP1 POP PUSH2 0x186A PUSH1 0x0 DUP4 ADD DUP5 PUSH2 0x1846 JUMP JUMPDEST SWAP3 SWAP2 POP POP JUMP JUMPDEST PUSH1 0x0 PUSH1 0x20 DUP3 DUP5 SUB SLT ISZERO PUSH2 0x1886 JUMPI PUSH2 0x1885 PUSH2 0x1761 JUMP JUMPDEST JUMPDEST PUSH1 0x0 PUSH2 0x1894 DUP5 DUP3 DUP6 ADD PUSH2 0x17E5 JUMP JUMPDEST SWAP2 POP POP SWAP3 SWAP2 POP POP JUMP JUMPDEST PUSH2 0x18A6 DUP2 PUSH2 0x17C4 JUMP JUMPDEST DUP3 MSTORE POP POP JUMP JUMPDEST PUSH1 0x0 PUSH1 0x60 DUP3 ADD SWAP1 POP PUSH2 0x18C1 PUSH1 0x0 DUP4 ADD DUP7 PUSH2 0x189D JUMP JUMPDEST DUP2 DUP2 SUB PUSH1 0x20 DUP4 ADD MSTORE PUSH2 0x18D3 DUP2 DUP6 PUSH2 0x1706 JUMP JUMPDEST SWAP1 POP PUSH2 0x18E2 PUSH1 0x40 DUP4 ADD DUP5 PUSH2 0x189D JUMP JUMPDEST SWAP5 SWAP4 POP POP POP POP JUMP JUMPDEST PUSH1 0x0 PUSH1 0x20 DUP3 ADD SWAP1 POP PUSH2 0x18FF PUSH1 0x0 DUP4 ADD DUP5 PUSH2 0x189D JUMP JUMPDEST SWAP3 SWAP2 POP POP JUMP JUMPDEST PUSH1 0x0 DUP1 PUSH1 0x0 PUSH1 0x60 DUP5 DUP7 SUB SLT ISZERO PUSH2 0x191E JUMPI PUSH2 0x191D PUSH2 0x1761 JUMP JUMPDEST JUMPDEST PUSH1 0x0 PUSH2 0x192C DUP7 DUP3 DUP8 ADD PUSH2 0x17AF JUMP JUMPDEST SWAP4 POP POP PUSH1 0x20 PUSH2 0x193D DUP7 DUP3 DUP8 ADD PUSH2 0x17AF JUMP JUMPDEST SWAP3 POP POP PUSH1 0x40 PUSH2 0x194E DUP7 DUP3 DUP8 ADD PUSH2 0x17E5 JUMP JUMPDEST SWAP2 POP POP SWAP3 POP SWAP3 POP SWAP3 JUMP JUMPDEST PUSH1 0x0 PUSH1 0xFF DUP3 AND SWAP1 POP SWAP2 SWAP1 POP JUMP JUMPDEST PUSH2 0x196E DUP2 PUSH2 0x1958 JUMP JUMPDEST DUP3 MSTORE POP POP JUMP JUMPDEST PUSH1 0x0 PUSH1 0x20 DUP3 ADD SWAP1 POP PUSH2 0x1989 PUSH1 0x0 DUP4 ADD DUP5 PUSH2 0x1965 JUMP JUMPDEST SWAP3 SWAP2 POP POP JUMP JUMPDEST PUSH1 0x0 PUSH1 0x20 DUP3 DUP5 SUB SLT ISZERO PUSH2 0x19A5 JUMPI PUSH2 0x19A4 PUSH2 0x1761 JUMP JUMPDEST JUMPDEST PUSH1 0x0 PUSH2 0x19B3 DUP5 DUP3 DUP6 ADD PUSH2 0x17AF JUMP JUMPDEST SWAP2 POP POP SWAP3 SWAP2 POP POP JUMP JUMPDEST PUSH1 0x0 DUP2 MLOAD SWAP1 POP SWAP2 SWAP1 POP JUMP JUMPDEST PUSH1 0x0 DUP3 DUP3 MSTORE PUSH1 0x20 DUP3 ADD SWAP1 POP SWAP3 SWAP2 POP POP JUMP JUMPDEST PUSH1 0x0 DUP2 SWAP1 POP PUSH1 0x20 DUP3 ADD SWAP1 POP SWAP2 SWAP1 POP JUMP JUMPDEST PUSH2 0x19F1 DUP2 PUSH2 0x17C4 JUMP JUMPDEST DUP3 MSTORE POP POP JUMP JUMPDEST PUSH1 0x0 PUSH2 0x1A03 DUP4 DUP4 PUSH2 0x19E8 JUMP JUMPDEST PUSH1 0x20 DUP4 ADD SWAP1 POP SWAP3 SWAP2 POP POP JUMP JUMPDEST PUSH1 0x0 PUSH1 0x20 DUP3 ADD SWAP1 POP SWAP2 SWAP1 POP JUMP JUMPDEST PUSH1 0x0 PUSH2 0x1A27 DUP3 PUSH2 0x19BC JUMP JUMPDEST PUSH2 0x1A31 DUP2 DUP6 PUSH2 0x19C7 JUMP JUMPDEST SWAP4 POP PUSH2 0x1A3C DUP4 PUSH2 0x19D8 JUMP JUMPDEST DUP1 PUSH1 0x0 JUMPDEST DUP4 DUP2 LT ISZERO PUSH2 0x1A6D JUMPI DUP2 MLOAD PUSH2 0x1A54 DUP9 DUP3 PUSH2 0x19F7 JUMP JUMPDEST SWAP8 POP PUSH2 0x1A5F DUP4 PUSH2 0x1A0F JUMP JUMPDEST SWAP3 POP POP PUSH1 0x1 DUP2 ADD SWAP1 POP PUSH2 0x1A40 JUMP JUMPDEST POP DUP6 SWAP4 POP POP POP POP SWAP3 SWAP2 POP POP JUMP JUMPDEST PUSH1 0x0 PUSH1 0x20 DUP3 ADD SWAP1 POP DUP2 DUP2 SUB PUSH1 0x0 DUP4 ADD MSTORE PUSH2 0x1A94 DUP2 DUP5 PUSH2 0x1A1C JUMP JUMPDEST SWAP1 POP SWAP3 SWAP2 POP POP JUMP JUMPDEST PUSH2 0x1AA5 DUP2 PUSH2 0x1786 JUMP JUMPDEST DUP3 MSTORE POP POP JUMP JUMPDEST PUSH1 0x0 PUSH1 0x20 DUP3 ADD SWAP1 POP PUSH2 0x1AC0 PUSH1 0x0 DUP4 ADD DUP5 PUSH2 0x1A9C JUMP JUMPDEST SWAP3 SWAP2 POP POP JUMP JUMPDEST PUSH1 0x0 DUP1 PUSH1 0x40 DUP4 DUP6 SUB SLT ISZERO PUSH2 0x1ADD JUMPI PUSH2 0x1ADC PUSH2 0x1761 JUMP JUMPDEST JUMPDEST PUSH1 0x0 PUSH2 0x1AEB DUP6 DUP3 DUP7 ADD PUSH2 0x17AF JUMP JUMPDEST SWAP3 POP POP PUSH1 0x20 PUSH2 0x1AFC DUP6 DUP3 DUP7 ADD PUSH2 0x17AF JUMP JUMPDEST SWAP2 POP POP SWAP3 POP SWAP3 SWAP1 POP JUMP JUMPDEST PUSH32 0x4E487B7100000000000000000000000000000000000000000000000000000000 PUSH1 0x0 MSTORE PUSH1 0x22 PUSH1 0x4 MSTORE PUSH1 0x24 PUSH1 0x0 REVERT JUMPDEST PUSH1 0x0 PUSH1 0x2 DUP3 DIV SWAP1 POP PUSH1 0x1 DUP3 AND DUP1 PUSH2 0x1B4D JUMPI PUSH1 0x7F DUP3 AND SWAP2 POP JUMPDEST PUSH1 0x20 DUP3 LT DUP2 SUB PUSH2 0x1B60 JUMPI PUSH2 0x1B5F PUSH2 0x1B06 JUMP JUMPDEST JUMPDEST POP SWAP2 SWAP1 POP JUMP JUMPDEST PUSH32 0x446567656E546F6B656E3A20496E76616C6964206974656D2049440000000000 PUSH1 0x0 DUP3 ADD MSTORE POP JUMP JUMPDEST PUSH1 0x0 PUSH2 0x1B9C PUSH1 0x1B DUP4 PUSH2 0x16BA JUMP JUMPDEST SWAP2 POP PUSH2 0x1BA7 DUP3 PUSH2 0x1B66 JUMP JUMPDEST PUSH1 0x20 DUP3 ADD SWAP1 POP SWAP2 SWAP1 POP JUMP JUMPDEST PUSH1 0x0 PUSH1 0x20 DUP3 ADD SWAP1 POP DUP2 DUP2 SUB PUSH1 0x0 DUP4 ADD MSTORE PUSH2 0x1BCB DUP2 PUSH2 0x1B8F JUMP JUMPDEST SWAP1 POP SWAP2 SWAP1 POP JUMP JUMPDEST PUSH32 0x4E487B7100000000000000000000000000000000000000000000000000000000 PUSH1 0x0 MSTORE PUSH1 0x32 PUSH1 0x4 MSTORE PUSH1 0x24 PUSH1 0x0 REVERT JUMPDEST PUSH32 0x446567656E546F6B656E3A20496E73756666696369656E742062616C616E6365 PUSH1 0x0 DUP3 ADD MSTORE POP JUMP JUMPDEST PUSH1 0x0 PUSH2 0x1C37 PUSH1 0x20 DUP4 PUSH2 0x16BA JUMP JUMPDEST SWAP2 POP PUSH2 0x1C42 DUP3 PUSH2 0x1C01 JUMP JUMPDEST PUSH1 0x20 DUP3 ADD SWAP1 POP SWAP2 SWAP1 POP JUMP JUMPDEST PUSH1 0x0 PUSH1 0x20 DUP3 ADD SWAP1 POP DUP2 DUP2 SUB PUSH1 0x0 DUP4 ADD MSTORE PUSH2 0x1C66 DUP2 PUSH2 0x1C2A JUMP JUMPDEST SWAP1 POP SWAP2 SWAP1 POP JUMP JUMPDEST PUSH32 0x4E487B7100000000000000000000000000000000000000000000000000000000 PUSH1 0x0 MSTORE PUSH1 0x11 PUSH1 0x4 MSTORE PUSH1 0x24 PUSH1 0x0 REVERT JUMPDEST PUSH1 0x0 PUSH2 0x1CA7 DUP3 PUSH2 0x17C4 JUMP JUMPDEST SWAP2 POP PUSH2 0x1CB2 DUP4 PUSH2 0x17C4 JUMP JUMPDEST SWAP3 POP DUP3 DUP3 ADD SWAP1 POP DUP1 DUP3 GT ISZERO PUSH2 0x1CCA JUMPI PUSH2 0x1CC9 PUSH2 0x1C6D JUMP JUMPDEST JUMPDEST SWAP3 SWAP2 POP POP JUMP JUMPDEST PUSH32 0x496E76616C696420616464726573730000000000000000000000000000000000 PUSH1 0x0 DUP3 ADD MSTORE POP JUMP JUMPDEST PUSH1 0x0 PUSH2 0x1D06 PUSH1 0xF DUP4 PUSH2 0x16BA JUMP JUMPDEST SWAP2 POP PUSH2 0x1D11 DUP3 PUSH2 0x1CD0 JUMP JUMPDEST PUSH1 0x20 DUP3 ADD SWAP1 POP SWAP2 SWAP1 POP JUMP JUMPDEST PUSH1 0x0 PUSH1 0x20 DUP3 ADD SWAP1 POP DUP2 DUP2 SUB PUSH1 0x0 DUP4 ADD MSTORE PUSH2 0x1D35 DUP2 PUSH2 0x1CF9 JUMP JUMPDEST SWAP1 POP SWAP2 SWAP1 POP JUMP JUMPDEST PUSH32 0x4D696E7420616D6F756E74206D7573742062652067726561746572207468616E PUSH1 0x0 DUP3 ADD MSTORE PUSH32 0x2030000000000000000000000000000000000000000000000000000000000000 PUSH1 0x20 DUP3 ADD MSTORE POP JUMP JUMPDEST PUSH1 0x0 PUSH2 0x1D98 PUSH1 0x22 DUP4 PUSH2 0x16BA JUMP JUMPDEST SWAP2 POP PUSH2 0x1DA3 DUP3 PUSH2 0x1D3C JUMP JUMPDEST PUSH1 0x40 DUP3 ADD SWAP1 POP SWAP2 SWAP1 POP JUMP JUMPDEST PUSH1 0x0 PUSH1 0x20 DUP3 ADD SWAP1 POP DUP2 DUP2 SUB PUSH1 0x0 DUP4 ADD MSTORE PUSH2 0x1DC7 DUP2 PUSH2 0x1D8B JUMP JUMPDEST SWAP1 POP SWAP2 SWAP1 POP JUMP JUMPDEST PUSH32 0x4275726E20616D6F756E74206D7573742062652067726561746572207468616E PUSH1 0x0 DUP3 ADD MSTORE PUSH32 0x2030000000000000000000000000000000000000000000000000000000000000 PUSH1 0x20 DUP3 ADD MSTORE POP JUMP JUMPDEST PUSH1 0x0 PUSH2 0x1E2A PUSH1 0x22 DUP4 PUSH2 0x16BA JUMP JUMPDEST SWAP2 POP PUSH2 0x1E35 DUP3 PUSH2 0x1DCE JUMP JUMPDEST PUSH1 0x40 DUP3 ADD SWAP1 POP SWAP2 SWAP1 POP JUMP JUMPDEST PUSH1 0x0 PUSH1 0x20 DUP3 ADD SWAP1 POP DUP2 DUP2 SUB PUSH1 0x0 DUP4 ADD MSTORE PUSH2 0x1E59 DUP2 PUSH2 0x1E1D JUMP JUMPDEST SWAP1 POP SWAP2 SWAP1 POP JUMP JUMPDEST PUSH32 0x496E73756666696369656E742062616C616E6365000000000000000000000000 PUSH1 0x0 DUP3 ADD MSTORE POP JUMP JUMPDEST PUSH1 0x0 PUSH2 0x1E96 PUSH1 0x14 DUP4 PUSH2 0x16BA JUMP JUMPDEST SWAP2 POP PUSH2 0x1EA1 DUP3 PUSH2 0x1E60 JUMP JUMPDEST PUSH1 0x20 DUP3 ADD SWAP1 POP SWAP2 SWAP1 POP JUMP JUMPDEST PUSH1 0x0 PUSH1 0x20 DUP3 ADD SWAP1 POP DUP2 DUP2 SUB PUSH1 0x0 DUP4 ADD MSTORE PUSH2 0x1EC5 DUP2 PUSH2 0x1E89 JUMP JUMPDEST SWAP1 POP SWAP2 SWAP1 POP JUMP JUMPDEST PUSH32 0x45524332303A2064656372656173656420616C6C6F77616E63652062656C6F77 PUSH1 0x0 DUP3 ADD MSTORE PUSH32 0x207A65726F000000000000000000000000000000000000000000000000000000 PUSH1 0x20 DUP3 ADD MSTORE POP JUMP JUMPDEST PUSH1 0x0 PUSH2 0x1F28 PUSH1 0x25 DUP4 PUSH2 0x16BA JUMP JUMPDEST SWAP2 POP PUSH2 0x1F33 DUP3 PUSH2 0x1ECC JUMP JUMPDEST PUSH1 0x40 DUP3 ADD SWAP1 POP SWAP2 SWAP1 POP JUMP JUMPDEST PUSH1 0x0 PUSH1 0x20 DUP3 ADD SWAP1 POP DUP2 DUP2 SUB PUSH1 0x0 DUP4 ADD MSTORE PUSH2 0x1F57 DUP2 PUSH2 0x1F1B JUMP JUMPDEST SWAP1 POP SWAP2 SWAP1 POP JUMP JUMPDEST PUSH32 0x496E76616C696420726563697069656E74206164647265737300000000000000 PUSH1 0x0 DUP3 ADD MSTORE POP JUMP JUMPDEST PUSH1 0x0 PUSH2 0x1F94 PUSH1 0x19 DUP4 PUSH2 0x16BA JUMP JUMPDEST SWAP2 POP PUSH2 0x1F9F DUP3 PUSH2 0x1F5E JUMP JUMPDEST PUSH1 0x20 DUP3 ADD SWAP1 POP SWAP2 SWAP1 POP JUMP JUMPDEST PUSH1 0x0 PUSH1 0x20 DUP3 ADD SWAP1 POP DUP2 DUP2 SUB PUSH1 0x0 DUP4 ADD MSTORE PUSH2 0x1FC3 DUP2 PUSH2 0x1F87 JUMP JUMPDEST SWAP1 POP SWAP2 SWAP1 POP JUMP JUMPDEST PUSH32 0x5472616E7366657220616D6F756E74206D757374206265206772656174657220 PUSH1 0x0 DUP3 ADD MSTORE PUSH32 0x7468616E20300000000000000000000000000000000000000000000000000000 PUSH1 0x20 DUP3 ADD MSTORE POP JUMP JUMPDEST PUSH1 0x0 PUSH2 0x2026 PUSH1 0x26 DUP4 PUSH2 0x16BA JUMP JUMPDEST SWAP2 POP PUSH2 0x2031 DUP3 PUSH2 0x1FCA JUMP JUMPDEST PUSH1 0x40 DUP3 ADD SWAP1 POP SWAP2 SWAP1 POP JUMP JUMPDEST PUSH1 0x0 PUSH1 0x20 DUP3 ADD SWAP1 POP DUP2 DUP2 SUB PUSH1 0x0 DUP4 ADD MSTORE PUSH2 0x2055 DUP2 PUSH2 0x2019 JUMP JUMPDEST SWAP1 POP SWAP2 SWAP1 POP JUMP JUMPDEST PUSH32 0x4F776E61626C653A206E6577206F776E657220697320746865207A65726F2061 PUSH1 0x0 DUP3 ADD MSTORE PUSH32 0x6464726573730000000000000000000000000000000000000000000000000000 PUSH1 0x20 DUP3 ADD MSTORE POP JUMP JUMPDEST PUSH1 0x0 PUSH2 0x20B8 PUSH1 0x26 DUP4 PUSH2 0x16BA JUMP JUMPDEST SWAP2 POP PUSH2 0x20C3 DUP3 PUSH2 0x205C JUMP JUMPDEST PUSH1 0x40 DUP3 ADD SWAP1 POP SWAP2 SWAP1 POP JUMP JUMPDEST PUSH1 0x0 PUSH1 0x20 DUP3 ADD SWAP1 POP DUP2 DUP2 SUB PUSH1 0x0 DUP4 ADD MSTORE PUSH2 0x20E7 DUP2 PUSH2 0x20AB JUMP JUMPDEST SWAP1 POP SWAP2 SWAP1 POP JUMP JUMPDEST PUSH32 0x45524332303A20617070726F76652066726F6D20746865207A65726F20616464 PUSH1 0x0 DUP3 ADD MSTORE PUSH32 0x7265737300000000000000000000000000000000000000000000000000000000 PUSH1 0x20 DUP3 ADD MSTORE POP JUMP JUMPDEST PUSH1 0x0 PUSH2 0x214A PUSH1 0x24 DUP4 PUSH2 0x16BA JUMP JUMPDEST SWAP2 POP PUSH2 0x2155 DUP3 PUSH2 0x20EE JUMP JUMPDEST PUSH1 0x40 DUP3 ADD SWAP1 POP SWAP2 SWAP1 POP JUMP JUMPDEST PUSH1 0x0 PUSH1 0x20 DUP3 ADD SWAP1 POP DUP2 DUP2 SUB PUSH1 0x0 DUP4 ADD MSTORE PUSH2 0x2179 DUP2 PUSH2 0x213D JUMP JUMPDEST SWAP1 POP SWAP2 SWAP1 POP JUMP JUMPDEST PUSH32 0x45524332303A20617070726F766520746F20746865207A65726F206164647265 PUSH1 0x0 DUP3 ADD MSTORE PUSH32 0x7373000000000000000000000000000000000000000000000000000000000000 PUSH1 0x20 DUP3 ADD MSTORE POP JUMP JUMPDEST PUSH1 0x0 PUSH2 0x21DC PUSH1 0x22 DUP4 PUSH2 0x16BA JUMP JUMPDEST SWAP2 POP PUSH2 0x21E7 DUP3 PUSH2 0x2180 JUMP JUMPDEST PUSH1 0x40 DUP3 ADD SWAP1 POP SWAP2 SWAP1 POP JUMP JUMPDEST PUSH1 0x0 PUSH1 0x20 DUP3 ADD SWAP1 POP DUP2 DUP2 SUB PUSH1 0x0 DUP4 ADD MSTORE PUSH2 0x220B DUP2 PUSH2 0x21CF JUMP JUMPDEST SWAP1 POP SWAP2 SWAP1 POP JUMP JUMPDEST PUSH32 0x45524332303A206275726E2066726F6D20746865207A65726F20616464726573 PUSH1 0x0 DUP3 ADD MSTORE PUSH32 0x7300000000000000000000000000000000000000000000000000000000000000 PUSH1 0x20 DUP3 ADD MSTORE POP JUMP JUMPDEST PUSH1 0x0 PUSH2 0x226E PUSH1 0x21 DUP4 PUSH2 0x16BA JUMP JUMPDEST SWAP2 POP PUSH2 0x2279 DUP3 PUSH2 0x2212 JUMP JUMPDEST PUSH1 0x40 DUP3 ADD SWAP1 POP SWAP2 SWAP1 POP JUMP JUMPDEST PUSH1 0x0 PUSH1 0x20 DUP3 ADD SWAP1 POP DUP2 DUP2 SUB PUSH1 0x0 DUP4 ADD MSTORE PUSH2 0x229D DUP2 PUSH2 0x2261 JUMP JUMPDEST SWAP1 POP SWAP2 SWAP1 POP JUMP JUMPDEST PUSH32 0x45524332303A206275726E20616D6F756E7420657863656564732062616C616E PUSH1 0x0 DUP3 ADD MSTORE PUSH32 0x6365000000000000000000000000000000000000000000000000000000000000 PUSH1 0x20 DUP3 ADD MSTORE POP JUMP JUMPDEST PUSH1 0x0 PUSH2 0x2300 PUSH1 0x22 DUP4 PUSH2 0x16BA JUMP JUMPDEST SWAP2 POP PUSH2 0x230B DUP3 PUSH2 0x22A4 JUMP JUMPDEST PUSH1 0x40 DUP3 ADD SWAP1 POP SWAP2 SWAP1 POP JUMP JUMPDEST PUSH1 0x0 PUSH1 0x20 DUP3 ADD SWAP1 POP DUP2 DUP2 SUB PUSH1 0x0 DUP4 ADD MSTORE PUSH2 0x232F DUP2 PUSH2 0x22F3 JUMP JUMPDEST SWAP1 POP SWAP2 SWAP1 POP JUMP JUMPDEST PUSH32 0x45524332303A20696E73756666696369656E7420616C6C6F77616E6365000000 PUSH1 0x0 DUP3 ADD MSTORE POP JUMP JUMPDEST PUSH1 0x0 PUSH2 0x236C PUSH1 0x1D DUP4 PUSH2 0x16BA JUMP JUMPDEST SWAP2 POP PUSH2 0x2377 DUP3 PUSH2 0x2336 JUMP JUMPDEST PUSH1 0x20 DUP3 ADD SWAP1 POP SWAP2 SWAP1 POP JUMP JUMPDEST PUSH1 0x0 PUSH1 0x20 DUP3 ADD SWAP1 POP DUP2 DUP2 SUB PUSH1 0x0 DUP4 ADD MSTORE PUSH2 0x239B DUP2 PUSH2 0x235F JUMP JUMPDEST SWAP1 POP SWAP2 SWAP1 POP JUMP JUMPDEST PUSH32 0x45524332303A207472616E736665722066726F6D20746865207A65726F206164 PUSH1 0x0 DUP3 ADD MSTORE PUSH32 0x6472657373000000000000000000000000000000000000000000000000000000 PUSH1 0x20 DUP3 ADD MSTORE POP JUMP JUMPDEST PUSH1 0x0 PUSH2 0x23FE PUSH1 0x25 DUP4 PUSH2 0x16BA JUMP JUMPDEST SWAP2 POP PUSH2 0x2409 DUP3 PUSH2 0x23A2 JUMP JUMPDEST PUSH1 0x40 DUP3 ADD SWAP1 POP SWAP2 SWAP1 POP JUMP JUMPDEST PUSH1 0x0 PUSH1 0x20 DUP3 ADD SWAP1 POP DUP2 DUP2 SUB PUSH1 0x0 DUP4 ADD MSTORE PUSH2 0x242D DUP2 PUSH2 0x23F1 JUMP JUMPDEST SWAP1 POP SWAP2 SWAP1 POP JUMP JUMPDEST PUSH32 0x45524332303A207472616E7366657220746F20746865207A65726F2061646472 PUSH1 0x0 DUP3 ADD MSTORE PUSH32 0x6573730000000000000000000000000000000000000000000000000000000000 PUSH1 0x20 DUP3 ADD MSTORE POP JUMP JUMPDEST PUSH1 0x0 PUSH2 0x2490 PUSH1 0x23 DUP4 PUSH2 0x16BA JUMP JUMPDEST SWAP2 POP PUSH2 0x249B DUP3 PUSH2 0x2434 JUMP JUMPDEST PUSH1 0x40 DUP3 ADD SWAP1 POP SWAP2 SWAP1 POP JUMP JUMPDEST PUSH1 0x0 PUSH1 0x20 DUP3 ADD SWAP1 POP DUP2 DUP2 SUB PUSH1 0x0 DUP4 ADD MSTORE PUSH2 0x24BF DUP2 PUSH2 0x2483 JUMP JUMPDEST SWAP1 POP SWAP2 SWAP1 POP JUMP JUMPDEST PUSH32 0x45524332303A207472616E7366657220616D6F756E7420657863656564732062 PUSH1 0x0 DUP3 ADD MSTORE PUSH32 0x616C616E63650000000000000000000000000000000000000000000000000000 PUSH1 0x20 DUP3 ADD MSTORE POP JUMP JUMPDEST PUSH1 0x0 PUSH2 0x2522 PUSH1 0x26 DUP4 PUSH2 0x16BA JUMP JUMPDEST SWAP2 POP PUSH2 0x252D DUP3 PUSH2 0x24C6 JUMP JUMPDEST PUSH1 0x40 DUP3 ADD SWAP1 POP SWAP2 SWAP1 POP JUMP JUMPDEST PUSH1 0x0 PUSH1 0x20 DUP3 ADD SWAP1 POP DUP2 DUP2 SUB PUSH1 0x0 DUP4 ADD MSTORE PUSH2 0x2551 DUP2 PUSH2 0x2515 JUMP JUMPDEST SWAP1 POP SWAP2 SWAP1 POP JUMP JUMPDEST PUSH32 0x4F776E61626C653A2063616C6C6572206973206E6F7420746865206F776E6572 PUSH1 0x0 DUP3 ADD MSTORE POP JUMP JUMPDEST PUSH1 0x0 PUSH2 0x258E PUSH1 0x20 DUP4 PUSH2 0x16BA JUMP JUMPDEST SWAP2 POP PUSH2 0x2599 DUP3 PUSH2 0x2558 JUMP JUMPDEST PUSH1 0x20 DUP3 ADD SWAP1 POP SWAP2 SWAP1 POP JUMP JUMPDEST PUSH1 0x0 PUSH1 0x20 DUP3 ADD SWAP1 POP DUP2 DUP2 SUB PUSH1 0x0 DUP4 ADD MSTORE PUSH2 0x25BD DUP2 PUSH2 0x2581 JUMP JUMPDEST SWAP1 POP SWAP2 SWAP1 POP JUMP JUMPDEST PUSH32 0x45524332303A206D696E7420746F20746865207A65726F206164647265737300 PUSH1 0x0 DUP3 ADD MSTORE POP JUMP JUMPDEST PUSH1 0x0 PUSH2 0x25FA PUSH1 0x1F DUP4 PUSH2 0x16BA JUMP JUMPDEST SWAP2 POP PUSH2 0x2605 DUP3 PUSH2 0x25C4 JUMP JUMPDEST PUSH1 0x20 DUP3 ADD SWAP1 POP SWAP2 SWAP1 POP JUMP JUMPDEST PUSH1 0x0 PUSH1 0x20 DUP3 ADD SWAP1 POP DUP2 DUP2 SUB PUSH1 0x0 DUP4 ADD MSTORE PUSH2 0x2629 DUP2 PUSH2 0x25ED JUMP JUMPDEST SWAP1 POP SWAP2 SWAP1 POP JUMP INVALID LOG2 PUSH5 0x6970667358 0x22 SLT KECCAK256 DUP13 0xCB CALLCODE 0xAC PC DUP4 MSTORE DUP4 0xCA 0xCA PUSH2 0xEA66 BALANCE 0xED SWAP15 0xC0 0xE9 SDIV DELEGATECALL 0x4D 0x2A 0xC3 0xB5 CALLDATACOPY ISZERO 0xE9 PUSH5 0x3CE6F73D64 PUSH20 0x6F6C634300081200330000000000000000000000 "
				},
				"gasEstimates": {
					"creation": {
						"codeDepositCost": "1966000",
						"executionCost": "infinite",
						"totalCost": "infinite"
					},
					"external": {
						"allowance(address,address)": "infinite",
						"approve(address,uint256)": "infinite",
						"balanceOf(address)": "2930",
						"burn(uint256)": "infinite",
						"checkBalance(address)": "2929",
						"checkInventory(address)": "infinite",
						"decimals()": "388",
						"decreaseAllowance(address,uint256)": "infinite",
						"inGameItems(uint256)": "infinite",
						"increaseAllowance(address,uint256)": "infinite",
						"inventory(address,uint256)": "infinite",
						"mint(address,uint256)": "infinite",
						"name()": "infinite",
						"owner()": "2544",
						"redeemForItem(uint256)": "infinite",
						"renounceOwnership()": "30509",
						"symbol()": "infinite",
						"totalSupply()": "2549",
						"transfer(address,uint256)": "infinite",
						"transferFrom(address,address,uint256)": "infinite",
						"transferOwnership(address)": "30876"
					}
				},
				"methodIdentifiers": {
					"allowance(address,address)": "dd62ed3e",
					"approve(address,uint256)": "095ea7b3",
					"balanceOf(address)": "70a08231",
					"burn(uint256)": "42966c68",
					"checkBalance(address)": "5f515226",
					"checkInventory(address)": "4aa7961e",
					"decimals()": "313ce567",
					"decreaseAllowance(address,uint256)": "a457c2d7",
					"inGameItems(uint256)": "151293a7",
					"increaseAllowance(address,uint256)": "39509351",
					"inventory(address,uint256)": "68f222fd",
					"mint(address,uint256)": "40c10f19",
					"name()": "06fdde03",
					"owner()": "8da5cb5b",
					"redeemForItem(uint256)": "11c11a3f",
					"renounceOwnership()": "715018a6",
					"symbol()": "95d89b41",
					"totalSupply()": "18160ddd",
					"transfer(address,uint256)": "a9059cbb",
					"transferFrom(address,address,uint256)": "23b872dd",
					"transferOwnership(address)": "f2fde38b"
				}
			},
			"storageLayout": {
				"storage": [
					{
						"astId": 128,
						"contract": "contracts/DegenToken.sol:DegenToken",
						"label": "_balances",
						"offset": 0,
						"slot": "0",
						"type": "t_mapping(t_address,t_uint256)"
					},
					{
						"astId": 134,
						"contract": "contracts/DegenToken.sol:DegenToken",
						"label": "_allowances",
						"offset": 0,
						"slot": "1",
						"type": "t_mapping(t_address,t_mapping(t_address,t_uint256))"
					},
					{
						"astId": 136,
						"contract": "contracts/DegenToken.sol:DegenToken",
						"label": "_totalSupply",
						"offset": 0,
						"slot": "2",
						"type": "t_uint256"
					},
					{
						"astId": 138,
						"contract": "contracts/DegenToken.sol:DegenToken",
						"label": "_name",
						"offset": 0,
						"slot": "3",
						"type": "t_string_storage"
					},
					{
						"astId": 140,
						"contract": "contracts/DegenToken.sol:DegenToken",
						"label": "_symbol",
						"offset": 0,
						"slot": "4",
						"type": "t_string_storage"
					},
					{
						"astId": 7,
						"contract": "contracts/DegenToken.sol:DegenToken",
						"label": "_owner",
						"offset": 0,
						"slot": "5",
						"type": "t_address"
					},
					{
						"astId": 843,
						"contract": "contracts/DegenToken.sol:DegenToken",
						"label": "inGameItems",
						"offset": 0,
						"slot": "6",
						"type": "t_array(t_struct(InGameItem)839_storage)dyn_storage"
					},
					{
						"astId": 848,
						"contract": "contracts/DegenToken.sol:DegenToken",
						"label": "inventory",
						"offset": 0,
						"slot": "7",
						"type": "t_mapping(t_address,t_array(t_uint256)dyn_storage)"
					}
				],
				"types": {
					"t_address": {
						"encoding": "inplace",
						"label": "address",
						"numberOfBytes": "20"
					},
					"t_array(t_struct(InGameItem)839_storage)dyn_storage": {
						"base": "t_struct(InGameItem)839_storage",
						"encoding": "dynamic_array",
						"label": "struct DegenToken.InGameItem[]",
						"numberOfBytes": "32"
					},
					"t_array(t_uint256)dyn_storage": {
						"base": "t_uint256",
						"encoding": "dynamic_array",
						"label": "uint256[]",
						"numberOfBytes": "32"
					},
					"t_mapping(t_address,t_array(t_uint256)dyn_storage)": {
						"encoding": "mapping",
						"key": "t_address",
						"label": "mapping(address => uint256[])",
						"numberOfBytes": "32",
						"value": "t_array(t_uint256)dyn_storage"
					},
					"t_mapping(t_address,t_mapping(t_address,t_uint256))": {
						"encoding": "mapping",
						"key": "t_address",
						"label": "mapping(address => mapping(address => uint256))",
						"numberOfBytes": "32",
						"value": "t_mapping(t_address,t_uint256)"
					},
					"t_mapping(t_address,t_uint256)": {
						"encoding": "mapping",
						"key": "t_address",
						"label": "mapping(address => uint256)",
						"numberOfBytes": "32",
						"value": "t_uint256"
					},
					"t_string_storage": {
						"encoding": "bytes",
						"label": "string",
						"numberOfBytes": "32"
					},
					"t_struct(InGameItem)839_storage": {
						"encoding": "inplace",
						"label": "struct DegenToken.InGameItem",
						"members": [
							{
								"astId": 834,
								"contract": "contracts/DegenToken.sol:DegenToken",
								"label": "id",
								"offset": 0,
								"slot": "0",
								"type": "t_uint256"
							},
							{
								"astId": 836,
								"contract": "contracts/DegenToken.sol:DegenToken",
								"label": "name",
								"offset": 0,
								"slot": "1",
								"type": "t_string_storage"
							},
							{
								"astId": 838,
								"contract": "contracts/DegenToken.sol:DegenToken",
								"label": "price",
								"offset": 0,
								"slot": "2",
								"type": "t_uint256"
							}
						],
						"numberOfBytes": "96"
					},
					"t_uint256": {
						"encoding": "inplace",
						"label": "uint256",
						"numberOfBytes": "32"
					}
				}
			},
			"userdoc": {
				"kind": "user",
				"methods": {},
				"version": 1
			}
		}
	}
}